{"contracts/EpheSafe.sol":{"EpheSafe":{"abi":[{"inputs":[],"stateMutability":"nonpayable","type":"constructor"},{"inputs":[],"name":"AccessControlBadConfirmation","type":"error"},{"inputs":[{"internalType":"address","name":"account","type":"address"},{"internalType":"bytes32","name":"neededRole","type":"bytes32"}],"name":"AccessControlUnauthorizedAccount","type":"error"},{"inputs":[{"internalType":"address","name":"target","type":"address"}],"name":"AddressEmptyCode","type":"error"},{"inputs":[{"internalType":"address","name":"implementation","type":"address"}],"name":"ERC1967InvalidImplementation","type":"error"},{"inputs":[],"name":"ERC1967NonPayable","type":"error"},{"inputs":[],"name":"ERC721EnumerableForbiddenBatchMint","type":"error"},{"inputs":[{"internalType":"address","name":"sender","type":"address"},{"internalType":"uint256","name":"tokenId","type":"uint256"},{"internalType":"address","name":"owner","type":"address"}],"name":"ERC721IncorrectOwner","type":"error"},{"inputs":[{"internalType":"address","name":"operator","type":"address"},{"internalType":"uint256","name":"tokenId","type":"uint256"}],"name":"ERC721InsufficientApproval","type":"error"},{"inputs":[{"internalType":"address","name":"approver","type":"address"}],"name":"ERC721InvalidApprover","type":"error"},{"inputs":[{"internalType":"address","name":"operator","type":"address"}],"name":"ERC721InvalidOperator","type":"error"},{"inputs":[{"internalType":"address","name":"owner","type":"address"}],"name":"ERC721InvalidOwner","type":"error"},{"inputs":[{"internalType":"address","name":"receiver","type":"address"}],"name":"ERC721InvalidReceiver","type":"error"},{"inputs":[{"internalType":"address","name":"sender","type":"address"}],"name":"ERC721InvalidSender","type":"error"},{"inputs":[{"internalType":"uint256","name":"tokenId","type":"uint256"}],"name":"ERC721NonexistentToken","type":"error"},{"inputs":[{"internalType":"address","name":"owner","type":"address"},{"internalType":"uint256","name":"index","type":"uint256"}],"name":"ERC721OutOfBoundsIndex","type":"error"},{"inputs":[],"name":"EnforcedPause","type":"error"},{"inputs":[],"name":"ExpectedPause","type":"error"},{"inputs":[],"name":"FailedInnerCall","type":"error"},{"inputs":[{"internalType":"uint256","name":"requiredValue","type":"uint256"},{"internalType":"uint256","name":"passedValue","type":"uint256"}],"name":"InsufficientMsgValue","type":"error"},{"inputs":[],"name":"InvalidInitialization","type":"error"},{"inputs":[],"name":"NotInitializing","type":"error"},{"inputs":[],"name":"UUPSUnauthorizedCallContext","type":"error"},{"inputs":[{"internalType":"bytes32","name":"slot","type":"bytes32"}],"name":"UUPSUnsupportedProxiableUUID","type":"error"},{"anonymous":false,"inputs":[{"indexed":true,"internalType":"address","name":"owner","type":"address"},{"indexed":true,"internalType":"address","name":"approved","type":"address"},{"indexed":true,"internalType":"uint256","name":"tokenId","type":"uint256"}],"name":"Approval","type":"event"},{"anonymous":false,"inputs":[{"indexed":true,"internalType":"address","name":"owner","type":"address"},{"indexed":true,"internalType":"address","name":"operator","type":"address"},{"indexed":false,"internalType":"bool","name":"approved","type":"bool"}],"name":"ApprovalForAll","type":"event"},{"anonymous":false,"inputs":[{"indexed":true,"internalType":"address","name":"approver","type":"address"},{"indexed":false,"internalType":"uint256","name":"tokenId","type":"uint256"}],"name":"EmergencyUnlockApproved","type":"event"},{"anonymous":false,"inputs":[{"indexed":true,"internalType":"address","name":"executor","type":"address"},{"indexed":false,"internalType":"uint256","name":"tokenId","type":"uint256"},{"indexed":false,"internalType":"uint256","name":"safeAmount","type":"uint256"},{"indexed":false,"internalType":"address","name":"safeTokenAddress","type":"address"},{"indexed":false,"internalType":"address","name":"recipient","type":"address"}],"name":"EmergencyUnlockExecuted","type":"event"},{"anonymous":false,"inputs":[{"indexed":false,"internalType":"uint64","name":"version","type":"uint64"}],"name":"Initialized","type":"event"},{"anonymous":false,"inputs":[{"indexed":false,"internalType":"uint256","name":"_tokenId","type":"uint256"}],"name":"MetadataUpdate","type":"event"},{"anonymous":false,"inputs":[{"indexed":false,"internalType":"address","name":"account","type":"address"}],"name":"Paused","type":"event"},{"anonymous":false,"inputs":[{"indexed":true,"internalType":"bytes32","name":"role","type":"bytes32"},{"indexed":true,"internalType":"bytes32","name":"previousAdminRole","type":"bytes32"},{"indexed":true,"internalType":"bytes32","name":"newAdminRole","type":"bytes32"}],"name":"RoleAdminChanged","type":"event"},{"anonymous":false,"inputs":[{"indexed":true,"internalType":"bytes32","name":"role","type":"bytes32"},{"indexed":true,"internalType":"address","name":"account","type":"address"},{"indexed":true,"internalType":"address","name":"sender","type":"address"}],"name":"RoleGranted","type":"event"},{"anonymous":false,"inputs":[{"indexed":true,"internalType":"bytes32","name":"role","type":"bytes32"},{"indexed":true,"internalType":"address","name":"account","type":"address"},{"indexed":true,"internalType":"address","name":"sender","type":"address"}],"name":"RoleRevoked","type":"event"},{"anonymous":false,"inputs":[{"indexed":true,"internalType":"address","name":"claimAddress","type":"address"},{"indexed":false,"internalType":"uint256","name":"tokenId","type":"uint256"},{"indexed":false,"internalType":"uint256","name":"safeAmount","type":"uint256"},{"indexed":false,"internalType":"address","name":"safeTokenAddress","type":"address"},{"indexed":false,"internalType":"string","name":"safeMetadata","type":"string"}],"name":"SafeClaimed","type":"event"},{"anonymous":false,"inputs":[{"indexed":true,"internalType":"address","name":"destroyer","type":"address"},{"indexed":true,"internalType":"uint256","name":"tokenId","type":"uint256"},{"indexed":false,"internalType":"uint256","name":"safeAmount","type":"uint256"},{"indexed":false,"internalType":"address","name":"safeTokenAddress","type":"address"},{"indexed":false,"internalType":"uint256","name":"destroyReward","type":"uint256"}],"name":"SafeDestroyed","type":"event"},{"anonymous":false,"inputs":[{"indexed":true,"internalType":"address","name":"from","type":"address"},{"indexed":true,"internalType":"address","name":"to","type":"address"},{"indexed":false,"internalType":"uint256","name":"tokenId","type":"uint256"},{"indexed":true,"internalType":"uint256","name":"expiry","type":"uint256"},{"indexed":false,"internalType":"uint256","name":"safeAmount","type":"uint256"},{"indexed":false,"internalType":"address","name":"safeTokenAddress","type":"address"},{"indexed":false,"internalType":"string","name":"safeMetadata","type":"string"}],"name":"SafeMinted","type":"event"},{"anonymous":false,"inputs":[{"indexed":true,"internalType":"address","name":"from","type":"address"},{"indexed":true,"internalType":"address","name":"to","type":"address"},{"indexed":true,"internalType":"uint256","name":"tokenId","type":"uint256"}],"name":"Transfer","type":"event"},{"anonymous":false,"inputs":[{"indexed":false,"internalType":"address","name":"account","type":"address"}],"name":"Unpaused","type":"event"},{"anonymous":false,"inputs":[{"indexed":true,"internalType":"address","name":"implementation","type":"address"}],"name":"Upgraded","type":"event"},{"inputs":[],"name":"ADMIN_ROLE","outputs":[{"internalType":"bytes32","name":"","type":"bytes32"}],"stateMutability":"view","type":"function"},{"inputs":[],"name":"DEFAULT_ADMIN_ROLE","outputs":[{"internalType":"bytes32","name":"","type":"bytes32"}],"stateMutability":"view","type":"function"},{"inputs":[],"name":"MINTER_ROLE","outputs":[{"internalType":"bytes32","name":"","type":"bytes32"}],"stateMutability":"view","type":"function"},{"inputs":[],"name":"PAUSER_ROLE","outputs":[{"internalType":"bytes32","name":"","type":"bytes32"}],"stateMutability":"view","type":"function"},{"inputs":[],"name":"UPGRADER_ROLE","outputs":[{"internalType":"bytes32","name":"","type":"bytes32"}],"stateMutability":"view","type":"function"},{"inputs":[],"name":"UPGRADE_INTERFACE_VERSION","outputs":[{"internalType":"string","name":"","type":"string"}],"stateMutability":"view","type":"function"},{"inputs":[],"name":"_nextTokenId","outputs":[{"internalType":"uint256","name":"","type":"uint256"}],"stateMutability":"view","type":"function"},{"inputs":[{"internalType":"address","name":"authorizer","type":"address"},{"internalType":"uint256","name":"tokenId","type":"uint256"}],"name":"addMultiSafeAuthorizer","outputs":[],"stateMutability":"nonpayable","type":"function"},{"inputs":[{"internalType":"address","name":"to","type":"address"},{"internalType":"uint256","name":"tokenId","type":"uint256"}],"name":"approve","outputs":[],"stateMutability":"nonpayable","type":"function"},{"inputs":[{"internalType":"uint256","name":"tokenId","type":"uint256"},{"internalType":"address","name":"recipient","type":"address"}],"name":"approveOrExecuteEmergencyUnlock","outputs":[],"stateMutability":"nonpayable","type":"function"},{"inputs":[{"internalType":"address","name":"owner","type":"address"}],"name":"balanceOf","outputs":[{"internalType":"uint256","name":"","type":"uint256"}],"stateMutability":"view","type":"function"},{"inputs":[{"internalType":"uint256","name":"tokenId","type":"uint256"}],"name":"burn","outputs":[],"stateMutability":"nonpayable","type":"function"},{"inputs":[{"internalType":"uint256","name":"tokenId","type":"uint256"}],"name":"claimSafe","outputs":[],"stateMutability":"nonpayable","type":"function"},{"inputs":[{"internalType":"uint256","name":"tokenId","type":"uint256"},{"internalType":"address","name":"claimAddress","type":"address"}],"name":"claimSafeAtAddress","outputs":[],"stateMutability":"nonpayable","type":"function"},{"inputs":[{"internalType":"uint256","name":"","type":"uint256"}],"name":"emergencyUnlockState","outputs":[{"internalType":"enum EpheSafe.EmergencyUnlockStatus","name":"status","type":"uint8"},{"internalType":"uint256","name":"approvalCount","type":"uint256"}],"stateMutability":"view","type":"function"},{"inputs":[{"internalType":"address","name":"owner","type":"address"}],"name":"getAllMultiSafeAuthorityTokens","outputs":[{"internalType":"uint256[]","name":"","type":"uint256[]"}],"stateMutability":"view","type":"function"},{"inputs":[],"name":"getAllSafes","outputs":[{"internalType":"uint256[]","name":"","type":"uint256[]"}],"stateMutability":"view","type":"function"},{"inputs":[{"internalType":"address","name":"owner","type":"address"}],"name":"getAllSafesOfOwner","outputs":[{"internalType":"uint256[]","name":"","type":"uint256[]"}],"stateMutability":"view","type":"function"},{"inputs":[{"internalType":"uint256","name":"tokenId","type":"uint256"}],"name":"getApproved","outputs":[{"internalType":"address","name":"","type":"address"}],"stateMutability":"view","type":"function"},{"inputs":[{"internalType":"address","name":"issuer","type":"address"}],"name":"getIssuedSafes","outputs":[{"internalType":"uint256[]","name":"","type":"uint256[]"}],"stateMutability":"view","type":"function"},{"inputs":[{"internalType":"bytes32","name":"role","type":"bytes32"}],"name":"getRoleAdmin","outputs":[{"internalType":"bytes32","name":"","type":"bytes32"}],"stateMutability":"view","type":"function"},{"inputs":[{"internalType":"uint256","name":"tokenId","type":"uint256"}],"name":"getSafeInfo","outputs":[{"components":[{"internalType":"uint256","name":"expiry","type":"uint256"},{"internalType":"uint256","name":"amount","type":"uint256"},{"internalType":"address","name":"tokenAddress","type":"address"},{"internalType":"enum EpheSafe.SafeStatus","name":"status","type":"uint8"},{"internalType":"address[]","name":"multiSafeAddresses","type":"address[]"},{"internalType":"string","name":"safeMetadata","type":"string"},{"internalType":"uint256","name":"noOfApprovalsRequired","type":"uint256"}],"internalType":"struct EpheSafe.SafeInfo","name":"safeData","type":"tuple"},{"internalType":"string","name":"tokenUri","type":"string"},{"internalType":"address[]","name":"unlockAddresses","type":"address[]"}],"stateMutability":"view","type":"function"},{"inputs":[{"internalType":"bytes32","name":"role","type":"bytes32"},{"internalType":"address","name":"account","type":"address"}],"name":"grantRole","outputs":[],"stateMutability":"nonpayable","type":"function"},{"inputs":[{"internalType":"bytes32","name":"role","type":"bytes32"},{"internalType":"address","name":"account","type":"address"}],"name":"hasRole","outputs":[{"internalType":"bool","name":"","type":"bool"}],"stateMutability":"view","type":"function"},{"inputs":[{"internalType":"address","name":"_owner","type":"address"},{"internalType":"address","name":"minter","type":"address"}],"name":"initialize","outputs":[],"stateMutability":"nonpayable","type":"function"},{"inputs":[{"internalType":"address","name":"owner","type":"address"},{"internalType":"address","name":"operator","type":"address"}],"name":"isApprovedForAll","outputs":[{"internalType":"bool","name":"","type":"bool"}],"stateMutability":"view","type":"function"},{"inputs":[{"internalType":"address","name":"to","type":"address"},{"internalType":"string","name":"uri","type":"string"},{"internalType":"uint256","name":"expiry","type":"uint256"},{"internalType":"uint256","name":"safeAmount","type":"uint256"},{"internalType":"address","name":"safeTokenAddress","type":"address"},{"internalType":"address[]","name":"safeAddresses","type":"address[]"},{"internalType":"string","name":"safeMetadata","type":"string"},{"internalType":"uint256","name":"noOfApprovalsRequired","type":"uint256"}],"name":"mintSafe","outputs":[],"stateMutability":"payable","type":"function"},{"inputs":[{"internalType":"address","name":"","type":"address"},{"internalType":"uint256","name":"","type":"uint256"}],"name":"multiSafeAuthorizers","outputs":[{"internalType":"uint256","name":"","type":"uint256"}],"stateMutability":"view","type":"function"},{"inputs":[],"name":"name","outputs":[{"internalType":"string","name":"","type":"string"}],"stateMutability":"view","type":"function"},{"inputs":[{"internalType":"uint256","name":"tokenId","type":"uint256"}],"name":"ownerOf","outputs":[{"internalType":"address","name":"","type":"address"}],"stateMutability":"view","type":"function"},{"inputs":[],"name":"pause","outputs":[],"stateMutability":"nonpayable","type":"function"},{"inputs":[],"name":"paused","outputs":[{"internalType":"bool","name":"","type":"bool"}],"stateMutability":"view","type":"function"},{"inputs":[],"name":"proxiableUUID","outputs":[{"internalType":"bytes32","name":"","type":"bytes32"}],"stateMutability":"view","type":"function"},{"inputs":[{"internalType":"bytes32","name":"role","type":"bytes32"},{"internalType":"address","name":"callerConfirmation","type":"address"}],"name":"renounceRole","outputs":[],"stateMutability":"nonpayable","type":"function"},{"inputs":[{"internalType":"bytes32","name":"role","type":"bytes32"},{"internalType":"address","name":"account","type":"address"}],"name":"revokeRole","outputs":[],"stateMutability":"nonpayable","type":"function"},{"inputs":[{"internalType":"uint256","name":"","type":"uint256"}],"name":"safeInfo","outputs":[{"internalType":"uint256","name":"expiry","type":"uint256"},{"internalType":"uint256","name":"amount","type":"uint256"},{"internalType":"address","name":"tokenAddress","type":"address"},{"internalType":"enum EpheSafe.SafeStatus","name":"status","type":"uint8"},{"internalType":"string","name":"safeMetadata","type":"string"},{"internalType":"uint256","name":"noOfApprovalsRequired","type":"uint256"}],"stateMutability":"view","type":"function"},{"inputs":[{"internalType":"address","name":"","type":"address"},{"internalType":"uint256","name":"","type":"uint256"}],"name":"safeIssuers","outputs":[{"internalType":"uint256","name":"","type":"uint256"}],"stateMutability":"view","type":"function"},{"inputs":[{"internalType":"address","name":"from","type":"address"},{"internalType":"address","name":"to","type":"address"},{"internalType":"uint256","name":"tokenId","type":"uint256"}],"name":"safeTransferFrom","outputs":[],"stateMutability":"nonpayable","type":"function"},{"inputs":[{"internalType":"address","name":"from","type":"address"},{"internalType":"address","name":"to","type":"address"},{"internalType":"uint256","name":"tokenId","type":"uint256"},{"internalType":"bytes","name":"data","type":"bytes"}],"name":"safeTransferFrom","outputs":[],"stateMutability":"nonpayable","type":"function"},{"inputs":[{"internalType":"address","name":"operator","type":"address"},{"internalType":"bool","name":"approved","type":"bool"}],"name":"setApprovalForAll","outputs":[],"stateMutability":"nonpayable","type":"function"},{"inputs":[{"internalType":"bytes4","name":"interfaceId","type":"bytes4"}],"name":"supportsInterface","outputs":[{"internalType":"bool","name":"","type":"bool"}],"stateMutability":"view","type":"function"},{"inputs":[],"name":"symbol","outputs":[{"internalType":"string","name":"","type":"string"}],"stateMutability":"view","type":"function"},{"inputs":[{"internalType":"uint256","name":"index","type":"uint256"}],"name":"tokenByIndex","outputs":[{"internalType":"uint256","name":"","type":"uint256"}],"stateMutability":"view","type":"function"},{"inputs":[{"internalType":"address","name":"owner","type":"address"},{"internalType":"uint256","name":"index","type":"uint256"}],"name":"tokenOfOwnerByIndex","outputs":[{"internalType":"uint256","name":"","type":"uint256"}],"stateMutability":"view","type":"function"},{"inputs":[{"internalType":"uint256","name":"tokenId","type":"uint256"}],"name":"tokenURI","outputs":[{"internalType":"string","name":"","type":"string"}],"stateMutability":"view","type":"function"},{"inputs":[],"name":"totalBurntSafes","outputs":[{"internalType":"uint256","name":"","type":"uint256"}],"stateMutability":"view","type":"function"},{"inputs":[],"name":"totalClaimedSafes","outputs":[{"internalType":"uint256","name":"","type":"uint256"}],"stateMutability":"view","type":"function"},{"inputs":[],"name":"totalSupply","outputs":[{"internalType":"uint256","name":"","type":"uint256"}],"stateMutability":"view","type":"function"},{"inputs":[{"internalType":"address","name":"from","type":"address"},{"internalType":"address","name":"to","type":"address"},{"internalType":"uint256","name":"tokenId","type":"uint256"}],"name":"transferFrom","outputs":[],"stateMutability":"nonpayable","type":"function"},{"inputs":[],"name":"unpause","outputs":[],"stateMutability":"nonpayable","type":"function"},{"inputs":[{"internalType":"address","name":"issuer","type":"address"},{"internalType":"uint256","name":"tokenId","type":"uint256"}],"name":"updateTokenIssuer","outputs":[],"stateMutability":"nonpayable","type":"function"},{"inputs":[{"internalType":"uint256","name":"tokenId","type":"uint256"},{"internalType":"string","name":"uri","type":"string"}],"name":"updateTokenUri","outputs":[],"stateMutability":"nonpayable","type":"function"},{"inputs":[{"internalType":"address","name":"newImplementation","type":"address"},{"internalType":"bytes","name":"data","type":"bytes"}],"name":"upgradeToAndCall","outputs":[],"stateMutability":"payable","type":"function"}],"devdoc":{"errors":{"AccessControlBadConfirmation()":[{"details":"The caller of a function is not the expected one. NOTE: Don't confuse with {AccessControlUnauthorizedAccount}."}],"AccessControlUnauthorizedAccount(address,bytes32)":[{"details":"The `account` is missing a role."}],"AddressEmptyCode(address)":[{"details":"There's no code at `target` (it is not a contract)."}],"ERC1967InvalidImplementation(address)":[{"details":"The `implementation` of the proxy is invalid."}],"ERC1967NonPayable()":[{"details":"An upgrade function sees `msg.value > 0` that may be lost."}],"ERC721EnumerableForbiddenBatchMint()":[{"details":"Batch mint is not allowed."}],"ERC721IncorrectOwner(address,uint256,address)":[{"details":"Indicates an error related to the ownership over a particular token. Used in transfers.","params":{"owner":"Address of the current owner of a token.","sender":"Address whose tokens are being transferred.","tokenId":"Identifier number of a token."}}],"ERC721InsufficientApproval(address,uint256)":[{"details":"Indicates a failure with the `operator`s approval. Used in transfers.","params":{"operator":"Address that may be allowed to operate on tokens without being their owner.","tokenId":"Identifier number of a token."}}],"ERC721InvalidApprover(address)":[{"details":"Indicates a failure with the `approver` of a token to be approved. Used in approvals.","params":{"approver":"Address initiating an approval operation."}}],"ERC721InvalidOperator(address)":[{"details":"Indicates a failure with the `operator` to be approved. Used in approvals.","params":{"operator":"Address that may be allowed to operate on tokens without being their owner."}}],"ERC721InvalidOwner(address)":[{"details":"Indicates that an address can't be an owner. For example, `address(0)` is a forbidden owner in EIP-20. Used in balance queries.","params":{"owner":"Address of the current owner of a token."}}],"ERC721InvalidReceiver(address)":[{"details":"Indicates a failure with the token `receiver`. Used in transfers.","params":{"receiver":"Address to which tokens are being transferred."}}],"ERC721InvalidSender(address)":[{"details":"Indicates a failure with the token `sender`. Used in transfers.","params":{"sender":"Address whose tokens are being transferred."}}],"ERC721NonexistentToken(uint256)":[{"details":"Indicates a `tokenId` whose `owner` is the zero address.","params":{"tokenId":"Identifier number of a token."}}],"ERC721OutOfBoundsIndex(address,uint256)":[{"details":"An `owner`'s token query was out of bounds for `index`. NOTE: The owner being `address(0)` indicates a global out of bounds index."}],"EnforcedPause()":[{"details":"The operation failed because the contract is paused."}],"ExpectedPause()":[{"details":"The operation failed because the contract is not paused."}],"FailedInnerCall()":[{"details":"A call to an address target failed. The target may have reverted."}],"InvalidInitialization()":[{"details":"The contract is already initialized."}],"NotInitializing()":[{"details":"The contract is not initializing."}],"UUPSUnauthorizedCallContext()":[{"details":"The call is from an unauthorized context."}],"UUPSUnsupportedProxiableUUID(bytes32)":[{"details":"The storage `slot` is unsupported as a UUID."}]},"events":{"Approval(address,address,uint256)":{"details":"Emitted when `owner` enables `approved` to manage the `tokenId` token."},"ApprovalForAll(address,address,bool)":{"details":"Emitted when `owner` enables or disables (`approved`) `operator` to manage all of its assets."},"Initialized(uint64)":{"details":"Triggered when the contract has been initialized or reinitialized."},"Paused(address)":{"details":"Emitted when the pause is triggered by `account`."},"RoleAdminChanged(bytes32,bytes32,bytes32)":{"details":"Emitted when `newAdminRole` is set as ``role``'s admin role, replacing `previousAdminRole` `DEFAULT_ADMIN_ROLE` is the starting admin for all roles, despite {RoleAdminChanged} not being emitted signaling this."},"RoleGranted(bytes32,address,address)":{"details":"Emitted when `account` is granted `role`. `sender` is the account that originated the contract call, an admin role bearer except when using {AccessControl-_setupRole}."},"RoleRevoked(bytes32,address,address)":{"details":"Emitted when `account` is revoked `role`. `sender` is the account that originated the contract call:   - if using `revokeRole`, it is the admin role bearer   - if using `renounceRole`, it is the role bearer (i.e. `account`)"},"Transfer(address,address,uint256)":{"details":"Emitted when `tokenId` token is transferred from `from` to `to`."},"Unpaused(address)":{"details":"Emitted when the pause is lifted by `account`."},"Upgraded(address)":{"details":"Emitted when the implementation is upgraded."}},"kind":"dev","methods":{"approve(address,uint256)":{"details":"See {IERC721-approve}."},"balanceOf(address)":{"details":"See {IERC721-balanceOf}."},"burn(uint256)":{"details":"Burns `tokenId`. See {ERC721-_burn}. Requirements: - The caller must own `tokenId` or be an approved operator."},"constructor":{"custom:oz-upgrades-unsafe-allow":"constructor"},"getApproved(uint256)":{"details":"See {IERC721-getApproved}."},"getRoleAdmin(bytes32)":{"details":"Returns the admin role that controls `role`. See {grantRole} and {revokeRole}. To change a role's admin, use {_setRoleAdmin}."},"grantRole(bytes32,address)":{"details":"Grants `role` to `account`. If `account` had not been already granted `role`, emits a {RoleGranted} event. Requirements: - the caller must have ``role``'s admin role. May emit a {RoleGranted} event."},"hasRole(bytes32,address)":{"details":"Returns `true` if `account` has been granted `role`."},"isApprovedForAll(address,address)":{"details":"See {IERC721-isApprovedForAll}."},"name()":{"details":"See {IERC721Metadata-name}."},"paused()":{"details":"Returns true if the contract is paused, and false otherwise."},"proxiableUUID()":{"details":"Implementation of the ERC1822 {proxiableUUID} function. This returns the storage slot used by the implementation. It is used to validate the implementation's compatibility when performing an upgrade. IMPORTANT: A proxy pointing at a proxiable contract should not be considered proxiable itself, because this risks bricking a proxy that upgrades to it, by delegating to itself until out of gas. Thus it is critical that this function revert if invoked through a proxy. This is guaranteed by the `notDelegated` modifier."},"renounceRole(bytes32,address)":{"details":"Revokes `role` from the calling account. Roles are often managed via {grantRole} and {revokeRole}: this function's purpose is to provide a mechanism for accounts to lose their privileges if they are compromised (such as when a trusted device is misplaced). If the calling account had been revoked `role`, emits a {RoleRevoked} event. Requirements: - the caller must be `callerConfirmation`. May emit a {RoleRevoked} event."},"revokeRole(bytes32,address)":{"details":"Revokes `role` from `account`. If `account` had been granted `role`, emits a {RoleRevoked} event. Requirements: - the caller must have ``role``'s admin role. May emit a {RoleRevoked} event."},"safeTransferFrom(address,address,uint256)":{"details":"See {IERC721-safeTransferFrom}."},"safeTransferFrom(address,address,uint256,bytes)":{"details":"See {IERC721-safeTransferFrom}."},"setApprovalForAll(address,bool)":{"details":"See {IERC721-setApprovalForAll}."},"symbol()":{"details":"See {IERC721Metadata-symbol}."},"tokenByIndex(uint256)":{"details":"See {IERC721Enumerable-tokenByIndex}."},"tokenOfOwnerByIndex(address,uint256)":{"details":"See {IERC721Enumerable-tokenOfOwnerByIndex}."},"tokenURI(uint256)":{"details":"See {IERC721Metadata-tokenURI}."},"totalSupply()":{"details":"See {IERC721Enumerable-totalSupply}."},"transferFrom(address,address,uint256)":{"details":"See {IERC721-transferFrom}."},"upgradeToAndCall(address,bytes)":{"custom:oz-upgrades-unsafe-allow-reachable":"delegatecall","details":"Upgrade the implementation of the proxy to `newImplementation`, and subsequently execute the function call encoded in `data`. Calls {_authorizeUpgrade}. Emits an {Upgraded} event."}},"version":1},"evm":{"bytecode":{"linkReferences":{},"object":"60a08060405234620000d157306080527ff0c57e16840df040f15088dc2f81fe391c3923bec73e23a9662efc9c229c6a009081549060ff8260401c16620000c257506001600160401b036002600160401b0319828216016200007c575b6040516145549081620000d78239608051818181611bda0152611ca10152f35b6001600160401b031990911681179091556040519081527fc7f505b2f371ae2175ee4913f4499e1f2633a7b5936321eed1cdaeb6115181d290602090a13880806200005c565b63f92ee8a960e01b8152600490fd5b600080fdfe608080604052600436101561001357600080fd5b60003560e01c90816301ffc9a714612ea85750806304d1d88914612e475780630628665114612c8c57806306fdde0314612bd7578063081812fc14612b8c578063095ea7b314612aa55780630c415ca914612a0857806318160ddd146129dd57806323b872dd146129c6578063248a9ca31461298a5780632f2ff15d1461293e5780632f745c591461291757806336568abe146128d05780633f4ba83a1461285957806340c856cb146127e1578063418af67e1461279757806342842e0e1461276957806342966c68146123ea57806346c0c1c014612392578063485cc95514611ee75780634a60f62014611ec95780634f1ef28614611c625780634f6ccce714611c4457806352d1902d14611bc75780635c975abb14611b975780636352211e14611b6757806370a0823114611b3c57806375b238fc14611b015780637776f214146111b557806381dc9114146111975780638456cb591461113057806384e3a1df14610ee7578063899ac09714610ea65780638af1272314610e885780638cbf46ae14610e235780638fa12c3e14610de957806391d1485414610d8f57806395d89b4114610c9d578063a217fddf14610c81578063a22cb46514610be1578063a893c82114610a49578063ad3cb1cc14610a03578063b87fee8914610541578063b88d4fde146104e8578063c87b56dd146104b5578063cfe3c33a1461047b578063d31af48414610440578063d539139314610405578063d547741f146103b7578063e63ab1e91461037c578063e985e9c51461032e578063f72c0d8b146102f35763fde5b1e61461026657600080fd5b346102ee576020806003193601126102ee576001600160a01b03610288612f47565b1660005260068152604060002090604051908181845491828152019360005281600020916000905b8282106102d7576102d3856102c78189038261310f565b60405191829182612f73565b0390f35b8354865294850194600193840193909101906102b0565b600080fd5b346102ee5760003660031901126102ee5760206040517f189ab7a9244df0848122154315af71fe140f3db0fe014031783b0946b8c9d2e38152f35b346102ee5760403660031901126102ee57610347612f47565b610358610352612f5d565b91613185565b9060018060a01b0316600052602052602060ff604060002054166040519015158152f35b346102ee5760003660031901126102ee5760206040517f65d7a28e3265b37a6474929f336521b332c1681b933f6cb9f3376673440d862a8152f35b346102ee5760403660031901126102ee576104036004356103d6612f5d565b908060005260008051602061449f8339815191526020526103fe60016040600020015461337a565b61360a565b005b346102ee5760003660031901126102ee5760206040517f9f2df0fed2c77648de5860a4cc508cd0818c85b8b8a1ab4ceeef8d981c8956a68152f35b346102ee5760403660031901126102ee576024356001600160401b0381116102ee57610473610403913690600401613283565b60043561418a565b346102ee5760403660031901126102ee576001600160a01b0361049c612f47565b1660005260076020526104036024356040600020613df8565b346102ee5760203660031901126102ee576102d36104d4600435614152565b604051918291602083526020830190612fae565b346102ee5760803660031901126102ee57610501612f47565b610509612f5d565b90604435606435926001600160401b0384116102ee57610530610403943690600401613283565b9261053c8383836136c2565b613aaf565b346102ee5760403660031901126102ee5761055a612f5d565b600435600052600260205260406000206003602052604060002090815461058360ff8216613130565b600260ff8216146109b357600160ff600284015460a01c166105a481613130565b0361096e576105b53360043561433e565b1561091357336000526003830160205260ff604060002054166108ce576105e66001600160a01b03851615156142e6565b6105f260ff8216613130565b60ff8116156108bf575b5033600052600382016020526040600020600160ff198254161790556106256004830154613d7a565b60048301556001600160a01b0383166000908152600283016020526040902054156108ad575b6001600160a01b03831660009081526002830160205260409020805460018101811161089757600101905560405160043581527fefe08a6eacf4d0a2b6a25481fc63da431800e9e0be5192989c61047cf99f887360203392a26004820154600582015411156106b657005b60005b6001830154811015610403576106d28160018501613250565b60018060a01b0391549060031b1c16600052600283016020526040600020546005830154111561070a5761070590613d7a565b6106b9565b5050506004356000908152600260205260409020906107336001600160a01b03821615156142e6565b6002820180549092906001600160a01b031615610863578254600182015460405163a9059cbb60e01b81526001600160a01b0385811660048301526024820192909252929160209184916044918391600091165af191821561085757600192610828575b505b600081556107a8600435613e49565b8160a11b60ff60a01b1985541617845560043560005260036020526040600020600260ff1982541617905501549160018060a01b039054166040519260043584526020840152604083015260018060a01b031660608201527f632a674945f5acd008227278ce2b5d939b1eef5bd2dc659bf678a6ab6fd1619c60803392a2005b6108499060203d602011610850575b610841818361310f565b810190613d62565b5084610797565b503d610837565b6040513d6000823e3d90fd5b6000808080600185015481811561088e575b6001600160a01b03881690f11561085757600190610799565b506108fc610875565b634e487b7160e01b600052601160045260246000fd5b6108ba8360018401613d89565b61064b565b60ff19166001178255836105fc565b60405162461bcd60e51b815260206004820152601a60248201527f45706865536166653a20416c726561647920617070726f7665640000000000006044820152606490fd5b60405162461bcd60e51b815260206004820152602d60248201527f45706865536166653a204e6f7420617574686f72697a656420666f7220656d6560448201526c7267656e637920756e6c6f636b60981b6064820152608490fd5b60405162461bcd60e51b815260206004820152601c60248201527f45706865536166653a2053616665206973206e6f7420616374697665000000006044820152606490fd5b60405162461bcd60e51b815260206004820152602260248201527f45706865536166653a20556e6c6f636b20416c726561647920436f6d706c6574604482015261195960f21b6064820152608490fd5b346102ee5760003660031901126102ee576102d3604051610a23816130f4565b60058152640352e302e360dc1b6020820152604051918291602083526020830190612fae565b346102ee576020806003193601126102ee5760405190600435610a6b836130be565b60008352818301600090526040830160009052606092838101600090528360808201528360a082015260c001600090528060005260028252604060002090610ab281614152565b9060005260038352604060002060010160405193610acf856130be565b8354855260018401549381860194855260028101546040870190600160a01b6001900390818116835260a01c60ff169089890191610b0c81613130565b8252610b1a600385016140fa565b9260808a019384526040519485806004830190610b3691613028565b03610b41908761310f565b60a08b01958652600501549660c08b01978852610b5d906140fa565b986040519b8c9b818d5251908c01525160808b0152511660a089015251610b8381613130565b60c08801525160e0870160e090526101408701610b9f916132e1565b9051868203605f1901610100880152610bb89190612fae565b915161012086015284820390850152610bd091612fae565b82810360408401526102d3916132e1565b346102ee5760403660031901126102ee57610bfa612f47565b602435908115158092036102ee576001600160a01b0316908115610c6857610c2133613185565b82600052602052604060002060ff1981541660ff83161790556040519081527f17307eab39ab6107e8899845ad3d59bd9653f200f220920489ca2b5937696c3160203392a3005b604051630b61174360e31b815260048101839052602490fd5b346102ee5760003660031901126102ee57602060405160008152f35b346102ee5760003660031901126102ee5760405160007f80bb2b638cc20bc4d0a60d66940f3ab4a00c1d7b313497ca82fb0b4ab00793018054610cdf81612fee565b80855291600191808316908115610d655750600114610d09575b6102d3856104d48187038261310f565b600090815292507ff4bad0a69248f59680a4f2b3000328cec71a413447c96781cfe5996daa8c456e5b828410610d4d5750505081016020016104d4826102d3610cf9565b80546020858701810191909152909301928101610d32565b8695506102d3969350602092506104d494915060ff191682840152151560051b8201019293610cf9565b346102ee5760403660031901126102ee57610da8612f5d565b60043560005260008051602061449f83398151915260205260406000209060018060a01b0316600052602052602060ff604060002054166040519015158152f35b346102ee5760403660031901126102ee576001600160a01b03610e0a612f47565b1660005260066020526104036024356040600020613df8565b346102ee5760003660031901126102ee5760008051602061445f83398151915254610e4d816140b4565b9060005b818110610e6657604051806102d38582612f73565b80610e73610e8392613c33565b610e7d82866140e6565b52613d7a565b610e51565b346102ee5760003660031901126102ee576020600554604051908152f35b346102ee5760203660031901126102ee576004356000526003602052604080600020600460ff825416910154825191610ede81613130565b82526020820152f35b346102ee576020806003193601126102ee57600435806000526002918281526040600020544211156110f45781600052828152600160ff846040600020015460a01c16610f3381613130565b0361109d576000828152838252604090208301805460ff60a01b1916600360a01b179055610f6082613a57565b600083815284835260409020808501546001600160a01b0393919084161561106d57506000848152858252604080822080880154600190910154915163a9059cbb60e01b81526001600160a01b0386166004820152602481019290925290918391839190871690829081604481015b03925af1801561085757611050575b505b610fe984613e49565b6004549360018501809511610897578561104b927fe28be616343217c7e0ef866d21553599f8513bb0872ccee92c71033e49cc2fc996600455826000525260406000209584600188015491880154169060046040519687961698019285613e1b565b0390a2005b61106690823d841161085057610841818361310f565b5085610fde565b60008080600181940154818115611094575b88881690f1610fe0576040513d6000823e3d90fd5b506108fc61107f565b6084906040519062461bcd60e51b82526004820152602a60248201527f546f6b656e536166653a207361666520616c726561647920636c61696d6564206044820152691bdc88195e1c1a5c995960b21b6064820152fd5b6064906040519062461bcd60e51b82526004820152601560248201527414d859994e88139bdd0816595d08115e1c1a5c9959605a1b6044820152fd5b346102ee5760003660031901126102ee5761114961331e565b611151613d37565b6000805160206144bf833981519152600160ff198254161790557f62e78cea01bee320cd4e420270b5ea74000d11b0c9f74754ebdbfc544b05a2586020604051338152a1005b346102ee5760003660031901126102ee576020600454604051908152f35b6101003660031901126102ee576111ca612f47565b6024356001600160401b0381116102ee576111e9903690600401613283565b608435916001600160a01b03831683036102ee5760a435926001600160401b0384116102ee57366023850112156102ee578360040135611228816132ca565b94611236604051968761310f565b8186526024602087019260051b820101903682116102ee57602401915b818310611ae15750505060c4356001600160401b0381116102ee5761127c903690600401613283565b90426044351115611a8d576001600160a01b03811615611a5f576040516323b872dd60e01b815233600482015230602482015260648035604483015260209082908160006001600160a01b0387165af1801561085757611a40575b505b600054936112e685613d7a565b6000556040516112f5816130d9565b600081526001600160a01b03851615611a275785600052600260205242604060002054116119e857611325613d37565b60008681526000805160206144df83398151915260205260409020546001600160a01b0316806119c9575b611359866131be565b8054600101905560008781526000805160206144df8339815191526020526040812080546001600160a01b0319166001600160a01b0389169081179091558891839060008051602061447f8339815191529080a4806119115760008051602061445f833981519152548760005260008051602061443f8339815191526020526040600020556113e787613dc4565b6001600160a01b03861681036118a3575b61188a57843b611775575b50604051611410816130be565b6044358152602081019060643582526040810160018060a01b038516815260608201906001825260808301918a83528760a085015260e43560c085015289600052600260205260406000209484518655516001860155600285019160018060a01b039051168254915161148281613130565b61148b81613130565b6001600160a81b03199092161760a09190911b60ff60a01b16179055518051906001600160401b03821161172257600160401b8211611722576020906003850154836003870155808410611755575b500160038401600052602060002060005b838110611738575050505060a08101518051906001600160401b038211611722576115196004850154612fee565b601f81116116e2575b50602090601f831160011461166857928260059360c09361158598979660009261165d575b50508160011b916000199060031b1c19161760048501555b015191015585600052600260205261157f60036040600020013390613d89565b8561418a565b33600052600660205261159c846040600020613df8565b60005b85518110156115f5576115f0908560005260026020526115c6816003604060002001613250565b60018060a01b0391549060031b1c1660005260076020526115eb866040600020613df8565b613d7a565b61159f565b506040805194855260643560208601526001600160a01b039182169085015260806060850181905260443594939091169233927fbdd16b3aa0e5fa76e58d08838e79dc4017d082e838df98fc0af4ca3bbee8a05a92829161165891830190612fae565b0390a4005b015190508d80611547565b906004850160005260206000209160005b601f19851681106116ca57508360c09361158598979693600193600597601f198116106116b1575b505050811b01600485015561155f565b015160001960f88460031b161c191690558d80806116a1565b91926020600181928685015181550194019201611679565b61171290600486016000526020600020601f850160051c81019160208610611718575b601f0160051c0190613d20565b8a611522565b9091508190611705565b634e487b7160e01b600052604160045260246000fd5b82516001600160a01b0316818301556020909201916001016114eb565b61176f906003870160005284846000209182019101613d20565b8b6114da565b60409695949651602081806117b3630a85bd0160e11b95868352336004840152600060248401528a6044840152608060648401526084830190612fae565b038160006001600160a01b038d165af160009181611845575b5061180b57876117da613a7f565b805191908261180457604051633250574960e11b81526001600160a01b0383166004820152602490fd5b9050602001fd5b959694956001600160e01b031916036118245786611403565b604051633250574960e11b81526001600160a01b0385166004820152602490fd5b9091506020813d602011611882575b816118616020938361310f565b810103126102ee57516001600160e01b0319811681036102ee5790896117cc565b3d9150611854565b6040516339e3563760e11b815260006004820152602490fd5b6118ac8661368d565b806000198101116108975760018060a01b0387166000526000805160206143df8339815191526020526040600020600019820160005260205287604060002055876000526000805160206143bf833981519152602052600019016040600020556113f8565b6001600160a01b03861681146113e75761192a8161368d565b876000526000805160206143bf833981519152806020526040600020549082820361198b575b50508760005260006040812055816000526000805160206143df833981519152602052604060002090600052602052600060408120556113e7565b60008481526000805160206143df83398151915260209081526040808320868452825280832054858452818420819055835292905220558980611950565b6119d2876139de565b6119db816131be565b8054600019019055611350565b60405162461bcd60e51b81526020600482015260248082015260008051602061441f83398151915260448201526361626c6560e01b6064820152608490fd5b604051633250574960e11b815260006004820152602490fd5b611a589060203d60201161085057610841818361310f565b50856112d7565b606435803410611a6f57506112d9565b60449060405190631f2dda7760e21b82526004820152346024820152fd5b60405162461bcd60e51b815260206004820152602660248201527f45706865536166653a20657870697279206d75737420626520696e207468652060448201526566757475726560d01b6064820152608490fd5b82356001600160a01b03811681036102ee57815260209283019201611253565b346102ee5760003660031901126102ee5760206040517fa49807205ce4d355092ef5a8a18f56e8913cf4a201fbe287825b095693c217758152f35b346102ee5760203660031901126102ee576020611b5f611b5a612f47565b61368d565b604051908152f35b346102ee5760203660031901126102ee576020611b85600435613a57565b6040516001600160a01b039091168152f35b346102ee5760003660031901126102ee57602060ff6000805160206144bf83398151915254166040519015158152f35b346102ee5760003660031901126102ee577f00000000000000000000000000000000000000000000000000000000000000006001600160a01b03163003611c325760206040517f360894a13ba1a3210667c828492db98dca3e2076cc3735a920a3ca505d382bbc8152f35b60405163703e46dd60e11b8152600490fd5b346102ee5760203660031901126102ee576020611b5f600435613c33565b60403660031901126102ee57611c76612f47565b6024356001600160401b0381116102ee57611c95903690600401613283565b906001600160a01b03907f00000000000000000000000000000000000000000000000000000000000000008216308114908115611e9b575b50611c32573360009081527fab71e3f32666744d246edff3f96e4bdafee2e9867098cdd118a979a7464786a860209081526040909120549092907f189ab7a9244df0848122154315af71fe140f3db0fe014031783b0946b8c9d2e39060ff1615611e7d57508116916040516352d1902d60e01b81528181600481875afa60009181611e4e575b50611d7157604051634c9c8ce360e01b815260048101859052602490fd5b9284937f360894a13ba1a3210667c828492db98dca3e2076cc3735a920a3ca505d382bbc90818103611e365750833b15611e1d5780546001600160a01b03191682179055604051907fbc7cd75a20ee27fd9adebab32041f755214dbc6bffa90cc0225b39da2e5c2d3b600080a2835115611e035750600083819261040395519101845af4611dfd613a7f565b91613c7c565b9250505034611e0e57005b63b398979f60e01b8152600490fd5b604051634c9c8ce360e01b815260048101839052602490fd5b60249060405190632a87526960e21b82526004820152fd5b9091508281813d8311611e76575b611e66818361310f565b810103126102ee57519086611d53565b503d611e5c565b6044906040519063e2517d3f60e01b82523360048301526024820152fd5b9050827f360894a13ba1a3210667c828492db98dca3e2076cc3735a920a3ca505d382bbc5416141584611ccd565b346102ee5760003660031901126102ee576020600054604051908152f35b346102ee5760403660031901126102ee57611f00612f47565b611f08612f5d565b907ff0c57e16840df040f15088dc2f81fe391c3923bec73e23a9662efc9c229c6a009182546001600160401b03811691821580612384575b6001809414908161237a575b159081612371575b5061235f57826001600160401b0319831617855560ff8260401c1615612340575b60405193611f82856130f4565b6008855260209467457068655361666560c01b8682015260405190611fa6826130f4565b600382526245505360e81b87830152611fbd613cdf565b611fc5613cdf565b8051906001600160401b038211611722578190611ff06000805160206143ff83398151915254612fee565b601f81116122e5575b508890601f83116001146122465760009261223b575b5050600019600383901b1c191690861b176000805160206143ff833981519152555b80516001600160401b038111611722577f80bb2b638cc20bc4d0a60d66940f3ab4a00c1d7b313497ca82fb0b4ab00793019161206d8354612fee565b601f81116121ee575b508790601f831160011461215d5792826121059361210b969360ff999896600092612152575b5050600019600383901b1c191690891b1790555b6120b8613cdf565b6120c0613cdf565b6120c8613cdf565b6000805160206144bf833981519152861981541690556120e6613cdf565b6120ee613cdf565b6120f6613cdf565b6120ff816133ad565b5061343b565b506134eb565b5060401c161561211757005b7fc7f505b2f371ae2175ee4913f4499e1f2633a7b5936321eed1cdaeb6115181d29268ff0000000000000000198154169055604051908152a1005b015190508c8061209c565b879291601f19831691856000527ff4bad0a69248f59680a4f2b3000328cec71a413447c96781cfe5996daa8c456e9260005b8c8282106121d8575050926121059592859261210b999660ff9c9b9996106121bf575b505050811b0190556120b0565b015160001960f88460031b161c191690558c80806121b2565b8385015186558c9790950194938401930161218f565b61223590846000527ff4bad0a69248f59680a4f2b3000328cec71a413447c96781cfe5996daa8c456e601f850160051c8101918b861061171857601f0160051c0190613d20565b89612076565b01519050898061200f565b908893506000805160206143ff8339815191526000527f37c58c799b6609234b945e882912ee9ad34948a1dfaa20a97485e1a7752bbf819160005b8b601f19861682106122cf57505083601f198116106122b6575b505050811b016000805160206143ff83398151915255612031565b015160001960f88460031b161c1916905589808061229b565b8284015185558b96909401939283019201612281565b61233a906000805160206143ff8339815191526000527f37c58c799b6609234b945e882912ee9ad34948a1dfaa20a97485e1a7752bbf81601f850160051c8101918c861061171857601f0160051c0190613d20565b8a611ff9565b68ffffffffffffffffff19821668010000000000000001178555611f75565b60405163f92ee8a960e01b8152600490fd5b90501586611f54565b303b159150611f4c565b5060ff8260401c1615611f40565b346102ee5760403660031901126102ee576123ab612f47565b6001600160a01b03166000908152600660205260409020805460243591908210156102ee576020916123dc91613250565b90546040519160031b1c8152f35b346102ee576020806003193601126102ee57600435908160005260028152604060002054421061272b5761241c613d37565b60008281526000805160206144df8339815191528083526040909120546001600160a01b0390811691903315159081612679575b505081158015918261265a575b85600052845260406000206bffffffffffffffffffffffff60a01b81541690558460008460008051602061447f8339815191528280a41561259557505060008051602061445f833981519152548260005260008051602061443f83398151915282526040600020556124ce82613dc4565b60008051602061445f83398151915291825460001992838201918211610897578260005260008051602061443f83398151915290818152612514604060002054936131f7565b90549060031b1c61254181612528866131f7565b90919082549060031b91821b91600019901b1916179055565b60005252604060002055600052600060408120558154801561257f57019061257c61256b836131f7565b8154906000199060031b1b19169055565b55005b634e487b7160e01b600052603160045260246000fd5b6125a0575b506124ce565b6125a98161368d565b90836000526000805160206143bf83398151915280845260406000205490838203612608575b505083600052600060408120556000526000805160206143df83398151915282526040600020906000528152600060408120558261259a565b826000526000805160206143df833981519152808652604060002085600052865260406000205490846000528652604060002083600052865280604060002055600052845260406000205584806125cf565b612663866139de565b61266c846131be565b805460001901905561245d565b816126ca575b501561268c578480612450565b83826126aa5760249060405190637e27328960e01b82526004820152fd5b60405163177e802f60e01b81523360048201526024810191909152604490fd5b3384149150811561270b575b81156126e4575b508561267f565b9050846000526000805160206144ff833981519152845233906040600020541614856126dd565b905061271683613185565b33600052845260ff60406000205416906126d6565b6084906040519062461bcd60e51b8252600482015260248082015260008051602061441f83398151915260448201526361626c6560e01b6064820152fd5b346102ee5761040361277a36613150565b9060405192612788846130d9565b6000845261053c8383836136c2565b346102ee5760403660031901126102ee576127b0612f47565b6001600160a01b03166000908152600760205260409020805460243591908210156102ee576020916123dc91613250565b346102ee576020806003193601126102ee576001600160a01b03612803612f47565b1660005260078152604060002090604051908181845491828152019360005281600020916000905b828210612842576102d3856102c78189038261310f565b83548652948501946001938401939091019061282b565b346102ee5760003660031901126102ee5761287261331e565b6000805160206144bf833981519152805460ff8116156128be5760ff191690557f5db9ee0a495bf2e6ff9c91a7834c1ba4fdd244a5e8aa4e537bd38aeae4b073aa6020604051338152a1005b604051638dfc202b60e01b8152600490fd5b346102ee5760403660031901126102ee576128e9612f5d565b336001600160a01b03821603612905576104039060043561360a565b60405163334bd91960e11b8152600490fd5b346102ee5760403660031901126102ee576020611b5f612935612f47565b60243590613bc6565b346102ee5760403660031901126102ee5761040360043561295d612f5d565b908060005260008051602061449f83398151915260205261298560016040600020015461337a565b613595565b346102ee5760203660031901126102ee5760043560005260008051602061449f8339815191526020526020600160406000200154604051908152f35b346102ee576104036129d736613150565b916136c2565b346102ee5760003660031901126102ee57602060008051602061445f83398151915254604051908152f35b346102ee5760203660031901126102ee57600435600052600260205260406000208054600182015491612a9b60028201549160ff8360a01c16600560405192612a5f84612a588160048501613028565b038561310f565b0154936040519687968752602087015260018060a01b03166040860152612a8581613130565b606085015260c0608085015260c0840190612fae565b9060a08301520390f35b346102ee5760403660031901126102ee57612abe612f47565b602435612aca81613a0f565b33151580612b79575b80612b59575b612b41576001600160a01b039283169282918491167f8c5be1e5ebec7d5bd14f71427d1e84f3dd0314c0f7b2291e5b200ac8c7c3b925600080a460009081526000805160206144ff8339815191526020526040902080546001600160a01b0319169091179055005b60405163a9fbf51f60e01b8152336004820152602490fd5b50612b6381613185565b3360005260205260ff6040600020541615612ad9565b506001600160a01b038116331415612ad3565b346102ee5760203660031901126102ee57600435612ba981613a0f565b506000526000805160206144ff833981519152602052602060018060a01b0360406000205416604051908152f35b346102ee5760003660031901126102ee5760405160006000805160206143ff8339815191528054612c0781612fee565b80855291600191808316908115610d655750600114612c30576102d3856104d48187038261310f565b600090815292507f37c58c799b6609234b945e882912ee9ad34948a1dfaa20a97485e1a7752bbf815b828410612c745750505081016020016104d4826102d3610cf9565b80546020858701810191909152909301928101612c59565b346102ee5760403660031901126102ee57600435612ca8612f5d565b90612cb281613a57565b6001600160a01b03903390821603612e0b57816000526002926020848152604060002054421115612dd35783600052848152600160ff866040600020015460a01c16612cfd81613130565b03612d7c57600084815285825260409020808601805460ff60a01b198116600360a01b1790915584161561106d57506000848152858252604080822080880154600190910154915163a9059cbb60e01b81526001600160a01b038616600482015260248101929092529091839183919087169082908160448101610fcf565b6084906040519062461bcd60e51b82526004820152602a60248201527f546f6b656e536166653a205361666520616c726561647920636c61696d6564206044820152691bdc88195e1c1a5c995960b21b6064820152fd5b6064906040519062461bcd60e51b82526004820152601160248201527014d859994e88139bdd08115e1c1a5c9959607a1b6044820152fd5b60405162461bcd60e51b81526020600482015260146024820152732a37b5b2b729b0b3329d102737ba1027bbb732b960611b6044820152606490fd5b346102ee5760203660031901126102ee57612e60612f47565b612e698161368d565b612e72816140b4565b9160005b828110612e8b57604051806102d38682612f73565b80612e99612ea39284613bc6565b610e7d82876140e6565b612e76565b346102ee5760203660031901126102ee576004359063ffffffff60e01b82168092036102ee57602091637965db0b60e01b8114908115612eea575b5015158152f35b63780e9d6360e01b811491508115612f04575b5083612ee3565b6380ac58cd60e01b811491508115612f36575b8115612f25575b5083612efd565b6301ffc9a760e01b14905083612f1e565b635b5e139f60e01b81149150612f17565b600435906001600160a01b03821682036102ee57565b602435906001600160a01b03821682036102ee57565b6020908160408183019282815285518094520193019160005b828110612f9a575050505090565b835185529381019392810192600101612f8c565b919082519283825260005b848110612fda575050826000602080949584010152601f8019910116010190565b602081830181015184830182015201612fb9565b90600182811c9216801561301e575b602083101461300857565b634e487b7160e01b600052602260045260246000fd5b91607f1691612ffd565b906000929180549161303983612fee565b91828252600193848116908160001461309b575060011461305b575b50505050565b90919394506000526020928360002092846000945b838610613087575050505001019038808080613055565b805485870183015294019385908201613070565b9294505050602093945060ff191683830152151560051b01019038808080613055565b60e081019081106001600160401b0382111761172257604052565b602081019081106001600160401b0382111761172257604052565b604081019081106001600160401b0382111761172257604052565b90601f801991011681019081106001600160401b0382111761172257604052565b6004111561313a57565b634e487b7160e01b600052602160045260246000fd5b60609060031901126102ee576001600160a01b039060043582811681036102ee579160243590811681036102ee579060443590565b6001600160a01b031660009081527f80bb2b638cc20bc4d0a60d66940f3ab4a00c1d7b313497ca82fb0b4ab00793056020526040902090565b6001600160a01b031660009081527f80bb2b638cc20bc4d0a60d66940f3ab4a00c1d7b313497ca82fb0b4ab00793036020526040902090565b60008051602061445f833981519152805482101561323a576000527fa42f15e5d656f8155fd7419d740a6073999f19cd6e061449ce4a257150545bf20190600090565b634e487b7160e01b600052603260045260246000fd5b805482101561323a5760005260206000200190600090565b6001600160401b03811161172257601f01601f191660200190565b81601f820112156102ee5780359061329a82613268565b926132a8604051948561310f565b828452602083830101116102ee57816000926020809301838601378301015290565b6001600160401b0381116117225760051b60200190565b90815180825260208080930193019160005b828110613301575050505090565b83516001600160a01b0316855293810193928101926001016132f3565b3360009081527f75442b0a96088b5456bc4ed01394c96a4feec0f883c9494257d76b96ab1c9b6b60205260409020547f65d7a28e3265b37a6474929f336521b332c1681b933f6cb9f3376673440d862a9060ff1615611e7d5750565b8060005260008051602061449f83398151915260205260406000203360005260205260ff6040600020541615611e7d5750565b6001600160a01b031660008181527fb7db2dd08fcb62d0c9e08c51941cae53c267786a0b75803fb7960902fc8ef97d602052604081205490919060008051602061449f8339815191529060ff16613436578280526020526040822081835260205260408220600160ff19825416179055339160008051602061439f8339815191528180a4600190565b505090565b6001600160a01b031660008181527fab71e3f32666744d246edff3f96e4bdafee2e9867098cdd118a979a7464786a860205260408120549091907f189ab7a9244df0848122154315af71fe140f3db0fe014031783b0946b8c9d2e39060008051602061449f8339815191529060ff166134e5578184526020526040832082845260205260408320600160ff1982541617905560008051602061439f833981519152339380a4600190565b50505090565b6001600160a01b031660008181527f549fe2656c81d2947b3b913f0a53b9ea86c71e049f3a1b8aa23c09a8a05cb8d460205260408120549091907f9f2df0fed2c77648de5860a4cc508cd0818c85b8b8a1ab4ceeef8d981c8956a69060008051602061449f8339815191529060ff166134e5578184526020526040832082845260205260408320600160ff1982541617905560008051602061439f833981519152339380a4600190565b9060009180835260008051602061449f83398151915280602052604084209260018060a01b03169283855260205260ff604085205416156000146134e5578184526020526040832082845260205260408320600160ff1982541617905560008051602061439f833981519152339380a4600190565b9060009180835260008051602061449f83398151915280602052604084209260018060a01b03169283855260205260ff6040852054166000146134e557818452602052604083208284526020526040832060ff1981541690557ff6391f5c32d9c69d2a47ea670b442974b53935d1edc7fd64eb21e047a839171b339380a4600190565b6001600160a01b038116156136a9576136a5906131be565b5490565b6040516322718ad960e21b815260006004820152602490fd5b6001600160a01b0382811693918415611a2757600094838652602095600287526040968782205442106139a1576136f7613d37565b8582526000805160206144df833981519152968782528589842054169733151580613907575b5088159081156138e8575b613731836131be565b80546001019055888552835289842080546001600160a01b0319168617905587858a60008051602061447f8339815191528780a4156138435760008051602061445f8339815191525487845260008051602061443f83398151915283528984205561379b87613dc4565b8388036137d7575b5050505016928383036137b65750505050565b6064945051926364283d7b60e01b8452600484015260248301526044820152fd5b6137e09061368d565b60001981019390841161382f5782916000805160206143bf833981519152918a94526000805160206143df833981519152815283832085845281528784842055878352522055388080806137a3565b634e487b7160e01b83526011600452602483fd5b87841461379b576138538861368d565b8784526000805160206143bf8339815191528084528a852054908282036138a5575b5050878452838a8120558884526000805160206143df83398151915283528984209084528252828981205561379b565b8a86526000805160206143df8339815191528086528c872084885286528c872054908c885286528c87208388528652808d882055865284528a8520553880613875565b6138f1896139de565b6138fa8a6131be565b8054600019019055613728565b80613954575b15613918573861371d565b89888a613935576024915190637e27328960e01b82526004820152fd5b905163177e802f60e01b81523360048201526024810191909152604490fd5b503389148015613986575b8061390d57508784526000805160206144ff833981519152835233878b862054161461390d565b5061399089613185565b338552835260ff8a8520541661395f565b60849088519062461bcd60e51b8252600482015260248082015260008051602061441f83398151915260448201526361626c6560e01b6064820152fd5b6000526000805160206144ff83398151915260205260406000206bffffffffffffffffffffffff60a01b8154169055565b60008181526000805160206144df83398151915260205260409020546001600160a01b0316908115613a3f575090565b60249060405190637e27328960e01b82526004820152fd5b60009081526000805160206144df83398151915260205260409020546001600160a01b031690565b3d15613aaa573d90613a9082613268565b91613a9e604051938461310f565b82523d6000602084013e565b606090565b9190803b613abd5750505050565b613aff60018060a01b0380921694604051938493630a85bd0160e11b968786523360048701521660248501526044840152608060648401526084830190612fae565b03906020816000938185885af190829082613b77575b5050613b465782613b24613a7f565b805191908261180457604051633250574960e11b815260048101839052602490fd5b6001600160e01b03191603613b5f575038808080613055565b60249060405190633250574960e11b82526004820152fd5b909192506020813d8211613bbe575b81613b936020938361310f565b81010312613bba5751906001600160e01b031982168203613bb75750903880613b15565b80fd5b5080fd5b3d9150613b86565b613bcf8161368d565b821015613c085760018060a01b03166000526000805160206143df83398151915260205260406000209060005260205260406000205490565b60405163295f44f760e21b81526001600160a01b039190911660048201526024810191909152604490fd5b60008051602061445f83398151915254811015613c5d57613c53906131f7565b90549060031b1c90565b6044906040519063295f44f760e21b8252600060048301526024820152fd5b90613ca35750805115613c9157805190602001fd5b604051630a12f52160e11b8152600490fd5b81511580613cd6575b613cb4575090565b604051639996b31560e01b81526001600160a01b039091166004820152602490fd5b50803b15613cac565b60ff7ff0c57e16840df040f15088dc2f81fe391c3923bec73e23a9662efc9c229c6a005460401c1615613d0e57565b604051631afcd79f60e31b8152600490fd5b818110613d2b575050565b60008155600101613d20565b60ff6000805160206144bf8339815191525416613d5057565b60405163d93c066560e01b8152600490fd5b908160209103126102ee575180151581036102ee5790565b60001981146108975760010190565b8054600160401b81101561172257613da691600182018155613250565b819291549060031b9160018060a01b03809116831b921b1916179055565b60008051602061445f83398151915290815491600160401b8310156117225782612528916001613df6950190556131f7565b565b90815491600160401b8310156117225782612528916001613df695018155613250565b9092608092613e4695948352602083015260018060a01b031660408201528160608201520190613028565b90565b600081815260206002815260409182812054421061407757613e69613d37565b8381526000805160206144df833981519152808352838220546001600160a01b03168015939184159081614058575b878552835285842080546001600160a01b031916905586848360008051602061447f8339815191528280a48415613fae57505060008051602061445f8339815191525485835260008051602061443f833981519152825284832055613efc85613dc4565b60008051602061445f8339815191529182546000199283820191821161382f5787835260008051602061443f83398151915290818152613f3f88852054936131f7565b90549060031b1c613f5381612528866131f7565b8452528582205585815280858120558254908115613f9a57500190613f7a61256b836131f7565b55613f83575050565b602492505190637e27328960e01b82526004820152fd5b634e487b7160e01b81526031600452602490fd5b613fb9575b50613efc565b613fc28161368d565b908684526000805160206143bf8339815191528084528685205490838203614015575b5050868452838681205583526000805160206143df83398151915282528483209083528152818481205538613fb3565b8286526000805160206143df8339815191528086528887208588528652888720549084885286528887208388528652808988205586528452868520553880613fe5565b614061886139de565b61406a836131be565b8054600019019055613e98565b50608491519062461bcd60e51b8252600482015260248082015260008051602061441f83398151915260448201526361626c6560e01b6064820152fd5b906140be826132ca565b6140cb604051918261310f565b82815280926140dc601f19916132ca565b0190602036910137565b805182101561323a5760209160051b010190565b9060405191828154918282526020928383019160005283600020936000905b82821061412f57505050613df69250038361310f565b85546001600160a01b031684526001958601958895509381019390910190614119565b6000526001602052614171614178604060002060405192838092613028565b038261310f565b6000604051614186816130d9565b5290565b919060009280845260019360209285845260408220918151916001600160401b0383116142d2576141bb8454612fee565b601f81116142a4575b508591601f84116001146142255796977ff8e1a15aba9398e019f0b49df1a4fde98ee17ae345cb5f6b5e2c27f5033e8ce7979284928361421a575b50501b916000199060031b1c19161790555b604051908152a1565b0151925038806141ff565b90979291601f198316858352878320925b81811061428f575098837ff8e1a15aba9398e019f0b49df1a4fde98ee17ae345cb5f6b5e2c27f5033e8ce7999a10614276575b505050811b019055614211565b015160001960f88460031b161c19169055388080614269565b8a830151845592850192918801918801614236565b6142cc90858452878420601f860160051c81019189871061171857601f0160051c0190613d20565b386141c4565b634e487b7160e01b82526041600452602482fd5b156142ed57565b60405162461bcd60e51b815260206004820152602360248201527f45706865536166653a20496e76616c696420726563697069656e74206164647260448201526265737360e81b6064820152608490fd5b600052600260205261435660036040600020016140fa565b9060005b8251811015614396576001600160a01b038061437683866140e6565b51169083161461438e5761438990613d7a565b61435a565b505050600190565b50505060009056fe2f8788117e7eff1d82e926ec794901d17c78024a50270940304540a733656f0d645e039705490088daad89bae25049a34f4a9072d398537b1ab2425f24cbed01645e039705490088daad89bae25049a34f4a9072d398537b1ab2425f24cbed0080bb2b638cc20bc4d0a60d66940f3ab4a00c1d7b313497ca82fb0b4ab0079300546f6b656e536166653a2053616665204e4654206e6f74207472616e73666572645e039705490088daad89bae25049a34f4a9072d398537b1ab2425f24cbed03645e039705490088daad89bae25049a34f4a9072d398537b1ab2425f24cbed02ddf252ad1be2c89b69c2b068fc378daa952ba7f163c4a11628f55a4df523b3ef02dd7bc7dec4dceedda775e58dd541e08a116c6c53815c0bd028192f7b626800cd5ed15c6e187e77e9aee88184c21f4f2182ab5827cb3b7e07fbedcd63f0330080bb2b638cc20bc4d0a60d66940f3ab4a00c1d7b313497ca82fb0b4ab007930280bb2b638cc20bc4d0a60d66940f3ab4a00c1d7b313497ca82fb0b4ab0079304a26469706673582212208989b0851bc6dac08225b8b60439beba0198fb257ad8efcd9b93f5f72742222764736f6c63430008140033","opcodes":"PUSH1 0xA0 DUP1 PUSH1 0x40 MSTORE CALLVALUE PUSH3 0xD1 JUMPI ADDRESS PUSH1 0x80 MSTORE PUSH32 0xF0C57E16840DF040F15088DC2F81FE391C3923BEC73E23A9662EFC9C229C6A00 SWAP1 DUP2 SLOAD SWAP1 PUSH1 0xFF DUP3 PUSH1 0x40 SHR AND PUSH3 0xC2 JUMPI POP PUSH1 0x1 PUSH1 0x1 PUSH1 0x40 SHL SUB PUSH1 0x2 PUSH1 0x1 PUSH1 0x40 SHL SUB NOT DUP3 DUP3 AND ADD PUSH3 0x7C JUMPI JUMPDEST PUSH1 0x40 MLOAD PUSH2 0x4554 SWAP1 DUP2 PUSH3 0xD7 DUP3 CODECOPY PUSH1 0x80 MLOAD DUP2 DUP2 DUP2 PUSH2 0x1BDA ADD MSTORE PUSH2 0x1CA1 ADD MSTORE RETURN JUMPDEST PUSH1 0x1 PUSH1 0x1 PUSH1 0x40 SHL SUB NOT SWAP1 SWAP2 AND DUP2 OR SWAP1 SWAP2 SSTORE PUSH1 0x40 MLOAD SWAP1 DUP2 MSTORE PUSH32 0xC7F505B2F371AE2175EE4913F4499E1F2633A7B5936321EED1CDAEB6115181D2 SWAP1 PUSH1 0x20 SWAP1 LOG1 CODESIZE DUP1 DUP1 PUSH3 0x5C JUMP JUMPDEST PUSH4 0xF92EE8A9 PUSH1 0xE0 SHL DUP2 MSTORE PUSH1 0x4 SWAP1 REVERT JUMPDEST PUSH1 0x0 DUP1 REVERT INVALID PUSH1 0x80 DUP1 PUSH1 0x40 MSTORE PUSH1 0x4 CALLDATASIZE LT ISZERO PUSH2 0x13 JUMPI PUSH1 0x0 DUP1 REVERT JUMPDEST PUSH1 0x0 CALLDATALOAD PUSH1 0xE0 SHR SWAP1 DUP2 PUSH4 0x1FFC9A7 EQ PUSH2 0x2EA8 JUMPI POP DUP1 PUSH4 0x4D1D889 EQ PUSH2 0x2E47 JUMPI DUP1 PUSH4 0x6286651 EQ PUSH2 0x2C8C JUMPI DUP1 PUSH4 0x6FDDE03 EQ PUSH2 0x2BD7 JUMPI DUP1 PUSH4 0x81812FC EQ PUSH2 0x2B8C JUMPI DUP1 PUSH4 0x95EA7B3 EQ PUSH2 0x2AA5 JUMPI DUP1 PUSH4 0xC415CA9 EQ PUSH2 0x2A08 JUMPI DUP1 PUSH4 0x18160DDD EQ PUSH2 0x29DD JUMPI DUP1 PUSH4 0x23B872DD EQ PUSH2 0x29C6 JUMPI DUP1 PUSH4 0x248A9CA3 EQ PUSH2 0x298A JUMPI DUP1 PUSH4 0x2F2FF15D EQ PUSH2 0x293E JUMPI DUP1 PUSH4 0x2F745C59 EQ PUSH2 0x2917 JUMPI DUP1 PUSH4 0x36568ABE EQ PUSH2 0x28D0 JUMPI DUP1 PUSH4 0x3F4BA83A EQ PUSH2 0x2859 JUMPI DUP1 PUSH4 0x40C856CB EQ PUSH2 0x27E1 JUMPI DUP1 PUSH4 0x418AF67E EQ PUSH2 0x2797 JUMPI DUP1 PUSH4 0x42842E0E EQ PUSH2 0x2769 JUMPI DUP1 PUSH4 0x42966C68 EQ PUSH2 0x23EA JUMPI DUP1 PUSH4 0x46C0C1C0 EQ PUSH2 0x2392 JUMPI DUP1 PUSH4 0x485CC955 EQ PUSH2 0x1EE7 JUMPI DUP1 PUSH4 0x4A60F620 EQ PUSH2 0x1EC9 JUMPI DUP1 PUSH4 0x4F1EF286 EQ PUSH2 0x1C62 JUMPI DUP1 PUSH4 0x4F6CCCE7 EQ PUSH2 0x1C44 JUMPI DUP1 PUSH4 0x52D1902D EQ PUSH2 0x1BC7 JUMPI DUP1 PUSH4 0x5C975ABB EQ PUSH2 0x1B97 JUMPI DUP1 PUSH4 0x6352211E EQ PUSH2 0x1B67 JUMPI DUP1 PUSH4 0x70A08231 EQ PUSH2 0x1B3C JUMPI DUP1 PUSH4 0x75B238FC EQ PUSH2 0x1B01 JUMPI DUP1 PUSH4 0x7776F214 EQ PUSH2 0x11B5 JUMPI DUP1 PUSH4 0x81DC9114 EQ PUSH2 0x1197 JUMPI DUP1 PUSH4 0x8456CB59 EQ PUSH2 0x1130 JUMPI DUP1 PUSH4 0x84E3A1DF EQ PUSH2 0xEE7 JUMPI DUP1 PUSH4 0x899AC097 EQ PUSH2 0xEA6 JUMPI DUP1 PUSH4 0x8AF12723 EQ PUSH2 0xE88 JUMPI DUP1 PUSH4 0x8CBF46AE EQ PUSH2 0xE23 JUMPI DUP1 PUSH4 0x8FA12C3E EQ PUSH2 0xDE9 JUMPI DUP1 PUSH4 0x91D14854 EQ PUSH2 0xD8F JUMPI DUP1 PUSH4 0x95D89B41 EQ PUSH2 0xC9D JUMPI DUP1 PUSH4 0xA217FDDF EQ PUSH2 0xC81 JUMPI DUP1 PUSH4 0xA22CB465 EQ PUSH2 0xBE1 JUMPI DUP1 PUSH4 0xA893C821 EQ PUSH2 0xA49 JUMPI DUP1 PUSH4 0xAD3CB1CC EQ PUSH2 0xA03 JUMPI DUP1 PUSH4 0xB87FEE89 EQ PUSH2 0x541 JUMPI DUP1 PUSH4 0xB88D4FDE EQ PUSH2 0x4E8 JUMPI DUP1 PUSH4 0xC87B56DD EQ PUSH2 0x4B5 JUMPI DUP1 PUSH4 0xCFE3C33A EQ PUSH2 0x47B JUMPI DUP1 PUSH4 0xD31AF484 EQ PUSH2 0x440 JUMPI DUP1 PUSH4 0xD5391393 EQ PUSH2 0x405 JUMPI DUP1 PUSH4 0xD547741F EQ PUSH2 0x3B7 JUMPI DUP1 PUSH4 0xE63AB1E9 EQ PUSH2 0x37C JUMPI DUP1 PUSH4 0xE985E9C5 EQ PUSH2 0x32E JUMPI DUP1 PUSH4 0xF72C0D8B EQ PUSH2 0x2F3 JUMPI PUSH4 0xFDE5B1E6 EQ PUSH2 0x266 JUMPI PUSH1 0x0 DUP1 REVERT JUMPDEST CALLVALUE PUSH2 0x2EE JUMPI PUSH1 0x20 DUP1 PUSH1 0x3 NOT CALLDATASIZE ADD SLT PUSH2 0x2EE JUMPI PUSH1 0x1 PUSH1 0x1 PUSH1 0xA0 SHL SUB PUSH2 0x288 PUSH2 0x2F47 JUMP JUMPDEST AND PUSH1 0x0 MSTORE PUSH1 0x6 DUP2 MSTORE PUSH1 0x40 PUSH1 0x0 KECCAK256 SWAP1 PUSH1 0x40 MLOAD SWAP1 DUP2 DUP2 DUP5 SLOAD SWAP2 DUP3 DUP2 MSTORE ADD SWAP4 PUSH1 0x0 MSTORE DUP2 PUSH1 0x0 KECCAK256 SWAP2 PUSH1 0x0 SWAP1 JUMPDEST DUP3 DUP3 LT PUSH2 0x2D7 JUMPI PUSH2 0x2D3 DUP6 PUSH2 0x2C7 DUP2 DUP10 SUB DUP3 PUSH2 0x310F JUMP JUMPDEST PUSH1 0x40 MLOAD SWAP2 DUP3 SWAP2 DUP3 PUSH2 0x2F73 JUMP JUMPDEST SUB SWAP1 RETURN JUMPDEST DUP4 SLOAD DUP7 MSTORE SWAP5 DUP6 ADD SWAP5 PUSH1 0x1 SWAP4 DUP5 ADD SWAP4 SWAP1 SWAP2 ADD SWAP1 PUSH2 0x2B0 JUMP JUMPDEST PUSH1 0x0 DUP1 REVERT JUMPDEST CALLVALUE PUSH2 0x2EE JUMPI PUSH1 0x0 CALLDATASIZE PUSH1 0x3 NOT ADD SLT PUSH2 0x2EE JUMPI PUSH1 0x20 PUSH1 0x40 MLOAD PUSH32 0x189AB7A9244DF0848122154315AF71FE140F3DB0FE014031783B0946B8C9D2E3 DUP2 MSTORE RETURN JUMPDEST CALLVALUE PUSH2 0x2EE JUMPI PUSH1 0x40 CALLDATASIZE PUSH1 0x3 NOT ADD SLT PUSH2 0x2EE JUMPI PUSH2 0x347 PUSH2 0x2F47 JUMP JUMPDEST PUSH2 0x358 PUSH2 0x352 PUSH2 0x2F5D JUMP JUMPDEST SWAP2 PUSH2 0x3185 JUMP JUMPDEST SWAP1 PUSH1 0x1 DUP1 PUSH1 0xA0 SHL SUB AND PUSH1 0x0 MSTORE PUSH1 0x20 MSTORE PUSH1 0x20 PUSH1 0xFF PUSH1 0x40 PUSH1 0x0 KECCAK256 SLOAD AND PUSH1 0x40 MLOAD SWAP1 ISZERO ISZERO DUP2 MSTORE RETURN JUMPDEST CALLVALUE PUSH2 0x2EE JUMPI PUSH1 0x0 CALLDATASIZE PUSH1 0x3 NOT ADD SLT PUSH2 0x2EE JUMPI PUSH1 0x20 PUSH1 0x40 MLOAD PUSH32 0x65D7A28E3265B37A6474929F336521B332C1681B933F6CB9F3376673440D862A DUP2 MSTORE RETURN JUMPDEST CALLVALUE PUSH2 0x2EE JUMPI PUSH1 0x40 CALLDATASIZE PUSH1 0x3 NOT ADD SLT PUSH2 0x2EE JUMPI PUSH2 0x403 PUSH1 0x4 CALLDATALOAD PUSH2 0x3D6 PUSH2 0x2F5D JUMP JUMPDEST SWAP1 DUP1 PUSH1 0x0 MSTORE PUSH1 0x0 DUP1 MLOAD PUSH1 0x20 PUSH2 0x449F DUP4 CODECOPY DUP2 MLOAD SWAP2 MSTORE PUSH1 0x20 MSTORE PUSH2 0x3FE PUSH1 0x1 PUSH1 0x40 PUSH1 0x0 KECCAK256 ADD SLOAD PUSH2 0x337A JUMP JUMPDEST PUSH2 0x360A JUMP JUMPDEST STOP JUMPDEST CALLVALUE PUSH2 0x2EE JUMPI PUSH1 0x0 CALLDATASIZE PUSH1 0x3 NOT ADD SLT PUSH2 0x2EE JUMPI PUSH1 0x20 PUSH1 0x40 MLOAD PUSH32 0x9F2DF0FED2C77648DE5860A4CC508CD0818C85B8B8A1AB4CEEEF8D981C8956A6 DUP2 MSTORE RETURN JUMPDEST CALLVALUE PUSH2 0x2EE JUMPI PUSH1 0x40 CALLDATASIZE PUSH1 0x3 NOT ADD SLT PUSH2 0x2EE JUMPI PUSH1 0x24 CALLDATALOAD PUSH1 0x1 PUSH1 0x1 PUSH1 0x40 SHL SUB DUP2 GT PUSH2 0x2EE JUMPI PUSH2 0x473 PUSH2 0x403 SWAP2 CALLDATASIZE SWAP1 PUSH1 0x4 ADD PUSH2 0x3283 JUMP JUMPDEST PUSH1 0x4 CALLDATALOAD PUSH2 0x418A JUMP JUMPDEST CALLVALUE PUSH2 0x2EE JUMPI PUSH1 0x40 CALLDATASIZE PUSH1 0x3 NOT ADD SLT PUSH2 0x2EE JUMPI PUSH1 0x1 PUSH1 0x1 PUSH1 0xA0 SHL SUB PUSH2 0x49C PUSH2 0x2F47 JUMP JUMPDEST AND PUSH1 0x0 MSTORE PUSH1 0x7 PUSH1 0x20 MSTORE PUSH2 0x403 PUSH1 0x24 CALLDATALOAD PUSH1 0x40 PUSH1 0x0 KECCAK256 PUSH2 0x3DF8 JUMP JUMPDEST CALLVALUE PUSH2 0x2EE JUMPI PUSH1 0x20 CALLDATASIZE PUSH1 0x3 NOT ADD SLT PUSH2 0x2EE JUMPI PUSH2 0x2D3 PUSH2 0x4D4 PUSH1 0x4 CALLDATALOAD PUSH2 0x4152 JUMP JUMPDEST PUSH1 0x40 MLOAD SWAP2 DUP3 SWAP2 PUSH1 0x20 DUP4 MSTORE PUSH1 0x20 DUP4 ADD SWAP1 PUSH2 0x2FAE JUMP JUMPDEST CALLVALUE PUSH2 0x2EE JUMPI PUSH1 0x80 CALLDATASIZE PUSH1 0x3 NOT ADD SLT PUSH2 0x2EE JUMPI PUSH2 0x501 PUSH2 0x2F47 JUMP JUMPDEST PUSH2 0x509 PUSH2 0x2F5D JUMP JUMPDEST SWAP1 PUSH1 0x44 CALLDATALOAD PUSH1 0x64 CALLDATALOAD SWAP3 PUSH1 0x1 PUSH1 0x1 PUSH1 0x40 SHL SUB DUP5 GT PUSH2 0x2EE JUMPI PUSH2 0x530 PUSH2 0x403 SWAP5 CALLDATASIZE SWAP1 PUSH1 0x4 ADD PUSH2 0x3283 JUMP JUMPDEST SWAP3 PUSH2 0x53C DUP4 DUP4 DUP4 PUSH2 0x36C2 JUMP JUMPDEST PUSH2 0x3AAF JUMP JUMPDEST CALLVALUE PUSH2 0x2EE JUMPI PUSH1 0x40 CALLDATASIZE PUSH1 0x3 NOT ADD SLT PUSH2 0x2EE JUMPI PUSH2 0x55A PUSH2 0x2F5D JUMP JUMPDEST PUSH1 0x4 CALLDATALOAD PUSH1 0x0 MSTORE PUSH1 0x2 PUSH1 0x20 MSTORE PUSH1 0x40 PUSH1 0x0 KECCAK256 PUSH1 0x3 PUSH1 0x20 MSTORE PUSH1 0x40 PUSH1 0x0 KECCAK256 SWAP1 DUP2 SLOAD PUSH2 0x583 PUSH1 0xFF DUP3 AND PUSH2 0x3130 JUMP JUMPDEST PUSH1 0x2 PUSH1 0xFF DUP3 AND EQ PUSH2 0x9B3 JUMPI PUSH1 0x1 PUSH1 0xFF PUSH1 0x2 DUP5 ADD SLOAD PUSH1 0xA0 SHR AND PUSH2 0x5A4 DUP2 PUSH2 0x3130 JUMP JUMPDEST SUB PUSH2 0x96E JUMPI PUSH2 0x5B5 CALLER PUSH1 0x4 CALLDATALOAD PUSH2 0x433E JUMP JUMPDEST ISZERO PUSH2 0x913 JUMPI CALLER PUSH1 0x0 MSTORE PUSH1 0x3 DUP4 ADD PUSH1 0x20 MSTORE PUSH1 0xFF PUSH1 0x40 PUSH1 0x0 KECCAK256 SLOAD AND PUSH2 0x8CE JUMPI PUSH2 0x5E6 PUSH1 0x1 PUSH1 0x1 PUSH1 0xA0 SHL SUB DUP6 AND ISZERO ISZERO PUSH2 0x42E6 JUMP JUMPDEST PUSH2 0x5F2 PUSH1 0xFF DUP3 AND PUSH2 0x3130 JUMP JUMPDEST PUSH1 0xFF DUP2 AND ISZERO PUSH2 0x8BF JUMPI JUMPDEST POP CALLER PUSH1 0x0 MSTORE PUSH1 0x3 DUP3 ADD PUSH1 0x20 MSTORE PUSH1 0x40 PUSH1 0x0 KECCAK256 PUSH1 0x1 PUSH1 0xFF NOT DUP3 SLOAD AND OR SWAP1 SSTORE PUSH2 0x625 PUSH1 0x4 DUP4 ADD SLOAD PUSH2 0x3D7A JUMP JUMPDEST PUSH1 0x4 DUP4 ADD SSTORE PUSH1 0x1 PUSH1 0x1 PUSH1 0xA0 SHL SUB DUP4 AND PUSH1 0x0 SWAP1 DUP2 MSTORE PUSH1 0x2 DUP4 ADD PUSH1 0x20 MSTORE PUSH1 0x40 SWAP1 KECCAK256 SLOAD ISZERO PUSH2 0x8AD JUMPI JUMPDEST PUSH1 0x1 PUSH1 0x1 PUSH1 0xA0 SHL SUB DUP4 AND PUSH1 0x0 SWAP1 DUP2 MSTORE PUSH1 0x2 DUP4 ADD PUSH1 0x20 MSTORE PUSH1 0x40 SWAP1 KECCAK256 DUP1 SLOAD PUSH1 0x1 DUP2 ADD DUP2 GT PUSH2 0x897 JUMPI PUSH1 0x1 ADD SWAP1 SSTORE PUSH1 0x40 MLOAD PUSH1 0x4 CALLDATALOAD DUP2 MSTORE PUSH32 0xEFE08A6EACF4D0A2B6A25481FC63DA431800E9E0BE5192989C61047CF99F8873 PUSH1 0x20 CALLER SWAP3 LOG2 PUSH1 0x4 DUP3 ADD SLOAD PUSH1 0x5 DUP3 ADD SLOAD GT ISZERO PUSH2 0x6B6 JUMPI STOP JUMPDEST PUSH1 0x0 JUMPDEST PUSH1 0x1 DUP4 ADD SLOAD DUP2 LT ISZERO PUSH2 0x403 JUMPI PUSH2 0x6D2 DUP2 PUSH1 0x1 DUP6 ADD PUSH2 0x3250 JUMP JUMPDEST PUSH1 0x1 DUP1 PUSH1 0xA0 SHL SUB SWAP2 SLOAD SWAP1 PUSH1 0x3 SHL SHR AND PUSH1 0x0 MSTORE PUSH1 0x2 DUP4 ADD PUSH1 0x20 MSTORE PUSH1 0x40 PUSH1 0x0 KECCAK256 SLOAD PUSH1 0x5 DUP4 ADD SLOAD GT ISZERO PUSH2 0x70A JUMPI PUSH2 0x705 SWAP1 PUSH2 0x3D7A JUMP JUMPDEST PUSH2 0x6B9 JUMP JUMPDEST POP POP POP PUSH1 0x4 CALLDATALOAD PUSH1 0x0 SWAP1 DUP2 MSTORE PUSH1 0x2 PUSH1 0x20 MSTORE PUSH1 0x40 SWAP1 KECCAK256 SWAP1 PUSH2 0x733 PUSH1 0x1 PUSH1 0x1 PUSH1 0xA0 SHL SUB DUP3 AND ISZERO ISZERO PUSH2 0x42E6 JUMP JUMPDEST PUSH1 0x2 DUP3 ADD DUP1 SLOAD SWAP1 SWAP3 SWAP1 PUSH1 0x1 PUSH1 0x1 PUSH1 0xA0 SHL SUB AND ISZERO PUSH2 0x863 JUMPI DUP3 SLOAD PUSH1 0x1 DUP3 ADD SLOAD PUSH1 0x40 MLOAD PUSH4 0xA9059CBB PUSH1 0xE0 SHL DUP2 MSTORE PUSH1 0x1 PUSH1 0x1 PUSH1 0xA0 SHL SUB DUP6 DUP2 AND PUSH1 0x4 DUP4 ADD MSTORE PUSH1 0x24 DUP3 ADD SWAP3 SWAP1 SWAP3 MSTORE SWAP3 SWAP2 PUSH1 0x20 SWAP2 DUP5 SWAP2 PUSH1 0x44 SWAP2 DUP4 SWAP2 PUSH1 0x0 SWAP2 AND GAS CALL SWAP2 DUP3 ISZERO PUSH2 0x857 JUMPI PUSH1 0x1 SWAP3 PUSH2 0x828 JUMPI JUMPDEST POP JUMPDEST PUSH1 0x0 DUP2 SSTORE PUSH2 0x7A8 PUSH1 0x4 CALLDATALOAD PUSH2 0x3E49 JUMP JUMPDEST DUP2 PUSH1 0xA1 SHL PUSH1 0xFF PUSH1 0xA0 SHL NOT DUP6 SLOAD AND OR DUP5 SSTORE PUSH1 0x4 CALLDATALOAD PUSH1 0x0 MSTORE PUSH1 0x3 PUSH1 0x20 MSTORE PUSH1 0x40 PUSH1 0x0 KECCAK256 PUSH1 0x2 PUSH1 0xFF NOT DUP3 SLOAD AND OR SWAP1 SSTORE ADD SLOAD SWAP2 PUSH1 0x1 DUP1 PUSH1 0xA0 SHL SUB SWAP1 SLOAD AND PUSH1 0x40 MLOAD SWAP3 PUSH1 0x4 CALLDATALOAD DUP5 MSTORE PUSH1 0x20 DUP5 ADD MSTORE PUSH1 0x40 DUP4 ADD MSTORE PUSH1 0x1 DUP1 PUSH1 0xA0 SHL SUB AND PUSH1 0x60 DUP3 ADD MSTORE PUSH32 0x632A674945F5ACD008227278CE2B5D939B1EEF5BD2DC659BF678A6AB6FD1619C PUSH1 0x80 CALLER SWAP3 LOG2 STOP JUMPDEST PUSH2 0x849 SWAP1 PUSH1 0x20 RETURNDATASIZE PUSH1 0x20 GT PUSH2 0x850 JUMPI JUMPDEST PUSH2 0x841 DUP2 DUP4 PUSH2 0x310F JUMP JUMPDEST DUP2 ADD SWAP1 PUSH2 0x3D62 JUMP JUMPDEST POP DUP5 PUSH2 0x797 JUMP JUMPDEST POP RETURNDATASIZE PUSH2 0x837 JUMP JUMPDEST PUSH1 0x40 MLOAD RETURNDATASIZE PUSH1 0x0 DUP3 RETURNDATACOPY RETURNDATASIZE SWAP1 REVERT JUMPDEST PUSH1 0x0 DUP1 DUP1 DUP1 PUSH1 0x1 DUP6 ADD SLOAD DUP2 DUP2 ISZERO PUSH2 0x88E JUMPI JUMPDEST PUSH1 0x1 PUSH1 0x1 PUSH1 0xA0 SHL SUB DUP9 AND SWAP1 CALL ISZERO PUSH2 0x857 JUMPI PUSH1 0x1 SWAP1 PUSH2 0x799 JUMP JUMPDEST POP PUSH2 0x8FC PUSH2 0x875 JUMP JUMPDEST PUSH4 0x4E487B71 PUSH1 0xE0 SHL PUSH1 0x0 MSTORE PUSH1 0x11 PUSH1 0x4 MSTORE PUSH1 0x24 PUSH1 0x0 REVERT JUMPDEST PUSH2 0x8BA DUP4 PUSH1 0x1 DUP5 ADD PUSH2 0x3D89 JUMP JUMPDEST PUSH2 0x64B JUMP JUMPDEST PUSH1 0xFF NOT AND PUSH1 0x1 OR DUP3 SSTORE DUP4 PUSH2 0x5FC JUMP JUMPDEST PUSH1 0x40 MLOAD PUSH3 0x461BCD PUSH1 0xE5 SHL DUP2 MSTORE PUSH1 0x20 PUSH1 0x4 DUP3 ADD MSTORE PUSH1 0x1A PUSH1 0x24 DUP3 ADD MSTORE PUSH32 0x45706865536166653A20416C726561647920617070726F766564000000000000 PUSH1 0x44 DUP3 ADD MSTORE PUSH1 0x64 SWAP1 REVERT JUMPDEST PUSH1 0x40 MLOAD PUSH3 0x461BCD PUSH1 0xE5 SHL DUP2 MSTORE PUSH1 0x20 PUSH1 0x4 DUP3 ADD MSTORE PUSH1 0x2D PUSH1 0x24 DUP3 ADD MSTORE PUSH32 0x45706865536166653A204E6F7420617574686F72697A656420666F7220656D65 PUSH1 0x44 DUP3 ADD MSTORE PUSH13 0x7267656E637920756E6C6F636B PUSH1 0x98 SHL PUSH1 0x64 DUP3 ADD MSTORE PUSH1 0x84 SWAP1 REVERT JUMPDEST PUSH1 0x40 MLOAD PUSH3 0x461BCD PUSH1 0xE5 SHL DUP2 MSTORE PUSH1 0x20 PUSH1 0x4 DUP3 ADD MSTORE PUSH1 0x1C PUSH1 0x24 DUP3 ADD MSTORE PUSH32 0x45706865536166653A2053616665206973206E6F742061637469766500000000 PUSH1 0x44 DUP3 ADD MSTORE PUSH1 0x64 SWAP1 REVERT JUMPDEST PUSH1 0x40 MLOAD PUSH3 0x461BCD PUSH1 0xE5 SHL DUP2 MSTORE PUSH1 0x20 PUSH1 0x4 DUP3 ADD MSTORE PUSH1 0x22 PUSH1 0x24 DUP3 ADD MSTORE PUSH32 0x45706865536166653A20556E6C6F636B20416C726561647920436F6D706C6574 PUSH1 0x44 DUP3 ADD MSTORE PUSH2 0x1959 PUSH1 0xF2 SHL PUSH1 0x64 DUP3 ADD MSTORE PUSH1 0x84 SWAP1 REVERT JUMPDEST CALLVALUE PUSH2 0x2EE JUMPI PUSH1 0x0 CALLDATASIZE PUSH1 0x3 NOT ADD SLT PUSH2 0x2EE JUMPI PUSH2 0x2D3 PUSH1 0x40 MLOAD PUSH2 0xA23 DUP2 PUSH2 0x30F4 JUMP JUMPDEST PUSH1 0x5 DUP2 MSTORE PUSH5 0x352E302E3 PUSH1 0xDC SHL PUSH1 0x20 DUP3 ADD MSTORE PUSH1 0x40 MLOAD SWAP2 DUP3 SWAP2 PUSH1 0x20 DUP4 MSTORE PUSH1 0x20 DUP4 ADD SWAP1 PUSH2 0x2FAE JUMP JUMPDEST CALLVALUE PUSH2 0x2EE JUMPI PUSH1 0x20 DUP1 PUSH1 0x3 NOT CALLDATASIZE ADD SLT PUSH2 0x2EE JUMPI PUSH1 0x40 MLOAD SWAP1 PUSH1 0x4 CALLDATALOAD PUSH2 0xA6B DUP4 PUSH2 0x30BE JUMP JUMPDEST PUSH1 0x0 DUP4 MSTORE DUP2 DUP4 ADD PUSH1 0x0 SWAP1 MSTORE PUSH1 0x40 DUP4 ADD PUSH1 0x0 SWAP1 MSTORE PUSH1 0x60 SWAP3 DUP4 DUP2 ADD PUSH1 0x0 SWAP1 MSTORE DUP4 PUSH1 0x80 DUP3 ADD MSTORE DUP4 PUSH1 0xA0 DUP3 ADD MSTORE PUSH1 0xC0 ADD PUSH1 0x0 SWAP1 MSTORE DUP1 PUSH1 0x0 MSTORE PUSH1 0x2 DUP3 MSTORE PUSH1 0x40 PUSH1 0x0 KECCAK256 SWAP1 PUSH2 0xAB2 DUP2 PUSH2 0x4152 JUMP JUMPDEST SWAP1 PUSH1 0x0 MSTORE PUSH1 0x3 DUP4 MSTORE PUSH1 0x40 PUSH1 0x0 KECCAK256 PUSH1 0x1 ADD PUSH1 0x40 MLOAD SWAP4 PUSH2 0xACF DUP6 PUSH2 0x30BE JUMP JUMPDEST DUP4 SLOAD DUP6 MSTORE PUSH1 0x1 DUP5 ADD SLOAD SWAP4 DUP2 DUP7 ADD SWAP5 DUP6 MSTORE PUSH1 0x2 DUP2 ADD SLOAD PUSH1 0x40 DUP8 ADD SWAP1 PUSH1 0x1 PUSH1 0xA0 SHL PUSH1 0x1 SWAP1 SUB SWAP1 DUP2 DUP2 AND DUP4 MSTORE PUSH1 0xA0 SHR PUSH1 0xFF AND SWAP1 DUP10 DUP10 ADD SWAP2 PUSH2 0xB0C DUP2 PUSH2 0x3130 JUMP JUMPDEST DUP3 MSTORE PUSH2 0xB1A PUSH1 0x3 DUP6 ADD PUSH2 0x40FA JUMP JUMPDEST SWAP3 PUSH1 0x80 DUP11 ADD SWAP4 DUP5 MSTORE PUSH1 0x40 MLOAD SWAP5 DUP6 DUP1 PUSH1 0x4 DUP4 ADD SWAP1 PUSH2 0xB36 SWAP2 PUSH2 0x3028 JUMP JUMPDEST SUB PUSH2 0xB41 SWAP1 DUP8 PUSH2 0x310F JUMP JUMPDEST PUSH1 0xA0 DUP12 ADD SWAP6 DUP7 MSTORE PUSH1 0x5 ADD SLOAD SWAP7 PUSH1 0xC0 DUP12 ADD SWAP8 DUP9 MSTORE PUSH2 0xB5D SWAP1 PUSH2 0x40FA JUMP JUMPDEST SWAP9 PUSH1 0x40 MLOAD SWAP12 DUP13 SWAP12 DUP2 DUP14 MSTORE MLOAD SWAP1 DUP13 ADD MSTORE MLOAD PUSH1 0x80 DUP12 ADD MSTORE MLOAD AND PUSH1 0xA0 DUP10 ADD MSTORE MLOAD PUSH2 0xB83 DUP2 PUSH2 0x3130 JUMP JUMPDEST PUSH1 0xC0 DUP9 ADD MSTORE MLOAD PUSH1 0xE0 DUP8 ADD PUSH1 0xE0 SWAP1 MSTORE PUSH2 0x140 DUP8 ADD PUSH2 0xB9F SWAP2 PUSH2 0x32E1 JUMP JUMPDEST SWAP1 MLOAD DUP7 DUP3 SUB PUSH1 0x5F NOT ADD PUSH2 0x100 DUP9 ADD MSTORE PUSH2 0xBB8 SWAP2 SWAP1 PUSH2 0x2FAE JUMP JUMPDEST SWAP2 MLOAD PUSH2 0x120 DUP7 ADD MSTORE DUP5 DUP3 SUB SWAP1 DUP6 ADD MSTORE PUSH2 0xBD0 SWAP2 PUSH2 0x2FAE JUMP JUMPDEST DUP3 DUP2 SUB PUSH1 0x40 DUP5 ADD MSTORE PUSH2 0x2D3 SWAP2 PUSH2 0x32E1 JUMP JUMPDEST CALLVALUE PUSH2 0x2EE JUMPI PUSH1 0x40 CALLDATASIZE PUSH1 0x3 NOT ADD SLT PUSH2 0x2EE JUMPI PUSH2 0xBFA PUSH2 0x2F47 JUMP JUMPDEST PUSH1 0x24 CALLDATALOAD SWAP1 DUP2 ISZERO ISZERO DUP1 SWAP3 SUB PUSH2 0x2EE JUMPI PUSH1 0x1 PUSH1 0x1 PUSH1 0xA0 SHL SUB AND SWAP1 DUP2 ISZERO PUSH2 0xC68 JUMPI PUSH2 0xC21 CALLER PUSH2 0x3185 JUMP JUMPDEST DUP3 PUSH1 0x0 MSTORE PUSH1 0x20 MSTORE PUSH1 0x40 PUSH1 0x0 KECCAK256 PUSH1 0xFF NOT DUP2 SLOAD AND PUSH1 0xFF DUP4 AND OR SWAP1 SSTORE PUSH1 0x40 MLOAD SWAP1 DUP2 MSTORE PUSH32 0x17307EAB39AB6107E8899845AD3D59BD9653F200F220920489CA2B5937696C31 PUSH1 0x20 CALLER SWAP3 LOG3 STOP JUMPDEST PUSH1 0x40 MLOAD PUSH4 0xB611743 PUSH1 0xE3 SHL DUP2 MSTORE PUSH1 0x4 DUP2 ADD DUP4 SWAP1 MSTORE PUSH1 0x24 SWAP1 REVERT JUMPDEST CALLVALUE PUSH2 0x2EE JUMPI PUSH1 0x0 CALLDATASIZE PUSH1 0x3 NOT ADD SLT PUSH2 0x2EE JUMPI PUSH1 0x20 PUSH1 0x40 MLOAD PUSH1 0x0 DUP2 MSTORE RETURN JUMPDEST CALLVALUE PUSH2 0x2EE JUMPI PUSH1 0x0 CALLDATASIZE PUSH1 0x3 NOT ADD SLT PUSH2 0x2EE JUMPI PUSH1 0x40 MLOAD PUSH1 0x0 PUSH32 0x80BB2B638CC20BC4D0A60D66940F3AB4A00C1D7B313497CA82FB0B4AB0079301 DUP1 SLOAD PUSH2 0xCDF DUP2 PUSH2 0x2FEE JUMP JUMPDEST DUP1 DUP6 MSTORE SWAP2 PUSH1 0x1 SWAP2 DUP1 DUP4 AND SWAP1 DUP2 ISZERO PUSH2 0xD65 JUMPI POP PUSH1 0x1 EQ PUSH2 0xD09 JUMPI JUMPDEST PUSH2 0x2D3 DUP6 PUSH2 0x4D4 DUP2 DUP8 SUB DUP3 PUSH2 0x310F JUMP JUMPDEST PUSH1 0x0 SWAP1 DUP2 MSTORE SWAP3 POP PUSH32 0xF4BAD0A69248F59680A4F2B3000328CEC71A413447C96781CFE5996DAA8C456E JUMPDEST DUP3 DUP5 LT PUSH2 0xD4D JUMPI POP POP POP DUP2 ADD PUSH1 0x20 ADD PUSH2 0x4D4 DUP3 PUSH2 0x2D3 PUSH2 0xCF9 JUMP JUMPDEST DUP1 SLOAD PUSH1 0x20 DUP6 DUP8 ADD DUP2 ADD SWAP2 SWAP1 SWAP2 MSTORE SWAP1 SWAP4 ADD SWAP3 DUP2 ADD PUSH2 0xD32 JUMP JUMPDEST DUP7 SWAP6 POP PUSH2 0x2D3 SWAP7 SWAP4 POP PUSH1 0x20 SWAP3 POP PUSH2 0x4D4 SWAP5 SWAP2 POP PUSH1 0xFF NOT AND DUP3 DUP5 ADD MSTORE ISZERO ISZERO PUSH1 0x5 SHL DUP3 ADD ADD SWAP3 SWAP4 PUSH2 0xCF9 JUMP JUMPDEST CALLVALUE PUSH2 0x2EE JUMPI PUSH1 0x40 CALLDATASIZE PUSH1 0x3 NOT ADD SLT PUSH2 0x2EE JUMPI PUSH2 0xDA8 PUSH2 0x2F5D JUMP JUMPDEST PUSH1 0x4 CALLDATALOAD PUSH1 0x0 MSTORE PUSH1 0x0 DUP1 MLOAD PUSH1 0x20 PUSH2 0x449F DUP4 CODECOPY DUP2 MLOAD SWAP2 MSTORE PUSH1 0x20 MSTORE PUSH1 0x40 PUSH1 0x0 KECCAK256 SWAP1 PUSH1 0x1 DUP1 PUSH1 0xA0 SHL SUB AND PUSH1 0x0 MSTORE PUSH1 0x20 MSTORE PUSH1 0x20 PUSH1 0xFF PUSH1 0x40 PUSH1 0x0 KECCAK256 SLOAD AND PUSH1 0x40 MLOAD SWAP1 ISZERO ISZERO DUP2 MSTORE RETURN JUMPDEST CALLVALUE PUSH2 0x2EE JUMPI PUSH1 0x40 CALLDATASIZE PUSH1 0x3 NOT ADD SLT PUSH2 0x2EE JUMPI PUSH1 0x1 PUSH1 0x1 PUSH1 0xA0 SHL SUB PUSH2 0xE0A PUSH2 0x2F47 JUMP JUMPDEST AND PUSH1 0x0 MSTORE PUSH1 0x6 PUSH1 0x20 MSTORE PUSH2 0x403 PUSH1 0x24 CALLDATALOAD PUSH1 0x40 PUSH1 0x0 KECCAK256 PUSH2 0x3DF8 JUMP JUMPDEST CALLVALUE PUSH2 0x2EE JUMPI PUSH1 0x0 CALLDATASIZE PUSH1 0x3 NOT ADD SLT PUSH2 0x2EE JUMPI PUSH1 0x0 DUP1 MLOAD PUSH1 0x20 PUSH2 0x445F DUP4 CODECOPY DUP2 MLOAD SWAP2 MSTORE SLOAD PUSH2 0xE4D DUP2 PUSH2 0x40B4 JUMP JUMPDEST SWAP1 PUSH1 0x0 JUMPDEST DUP2 DUP2 LT PUSH2 0xE66 JUMPI PUSH1 0x40 MLOAD DUP1 PUSH2 0x2D3 DUP6 DUP3 PUSH2 0x2F73 JUMP JUMPDEST DUP1 PUSH2 0xE73 PUSH2 0xE83 SWAP3 PUSH2 0x3C33 JUMP JUMPDEST PUSH2 0xE7D DUP3 DUP7 PUSH2 0x40E6 JUMP JUMPDEST MSTORE PUSH2 0x3D7A JUMP JUMPDEST PUSH2 0xE51 JUMP JUMPDEST CALLVALUE PUSH2 0x2EE JUMPI PUSH1 0x0 CALLDATASIZE PUSH1 0x3 NOT ADD SLT PUSH2 0x2EE JUMPI PUSH1 0x20 PUSH1 0x5 SLOAD PUSH1 0x40 MLOAD SWAP1 DUP2 MSTORE RETURN JUMPDEST CALLVALUE PUSH2 0x2EE JUMPI PUSH1 0x20 CALLDATASIZE PUSH1 0x3 NOT ADD SLT PUSH2 0x2EE JUMPI PUSH1 0x4 CALLDATALOAD PUSH1 0x0 MSTORE PUSH1 0x3 PUSH1 0x20 MSTORE PUSH1 0x40 DUP1 PUSH1 0x0 KECCAK256 PUSH1 0x4 PUSH1 0xFF DUP3 SLOAD AND SWAP2 ADD SLOAD DUP3 MLOAD SWAP2 PUSH2 0xEDE DUP2 PUSH2 0x3130 JUMP JUMPDEST DUP3 MSTORE PUSH1 0x20 DUP3 ADD MSTORE RETURN JUMPDEST CALLVALUE PUSH2 0x2EE JUMPI PUSH1 0x20 DUP1 PUSH1 0x3 NOT CALLDATASIZE ADD SLT PUSH2 0x2EE JUMPI PUSH1 0x4 CALLDATALOAD DUP1 PUSH1 0x0 MSTORE PUSH1 0x2 SWAP2 DUP3 DUP2 MSTORE PUSH1 0x40 PUSH1 0x0 KECCAK256 SLOAD TIMESTAMP GT ISZERO PUSH2 0x10F4 JUMPI DUP2 PUSH1 0x0 MSTORE DUP3 DUP2 MSTORE PUSH1 0x1 PUSH1 0xFF DUP5 PUSH1 0x40 PUSH1 0x0 KECCAK256 ADD SLOAD PUSH1 0xA0 SHR AND PUSH2 0xF33 DUP2 PUSH2 0x3130 JUMP JUMPDEST SUB PUSH2 0x109D JUMPI PUSH1 0x0 DUP3 DUP2 MSTORE DUP4 DUP3 MSTORE PUSH1 0x40 SWAP1 KECCAK256 DUP4 ADD DUP1 SLOAD PUSH1 0xFF PUSH1 0xA0 SHL NOT AND PUSH1 0x3 PUSH1 0xA0 SHL OR SWAP1 SSTORE PUSH2 0xF60 DUP3 PUSH2 0x3A57 JUMP JUMPDEST PUSH1 0x0 DUP4 DUP2 MSTORE DUP5 DUP4 MSTORE PUSH1 0x40 SWAP1 KECCAK256 DUP1 DUP6 ADD SLOAD PUSH1 0x1 PUSH1 0x1 PUSH1 0xA0 SHL SUB SWAP4 SWAP2 SWAP1 DUP5 AND ISZERO PUSH2 0x106D JUMPI POP PUSH1 0x0 DUP5 DUP2 MSTORE DUP6 DUP3 MSTORE PUSH1 0x40 DUP1 DUP3 KECCAK256 DUP1 DUP9 ADD SLOAD PUSH1 0x1 SWAP1 SWAP2 ADD SLOAD SWAP2 MLOAD PUSH4 0xA9059CBB PUSH1 0xE0 SHL DUP2 MSTORE PUSH1 0x1 PUSH1 0x1 PUSH1 0xA0 SHL SUB DUP7 AND PUSH1 0x4 DUP3 ADD MSTORE PUSH1 0x24 DUP2 ADD SWAP3 SWAP1 SWAP3 MSTORE SWAP1 SWAP2 DUP4 SWAP2 DUP4 SWAP2 SWAP1 DUP8 AND SWAP1 DUP3 SWAP1 DUP2 PUSH1 0x44 DUP2 ADD JUMPDEST SUB SWAP3 GAS CALL DUP1 ISZERO PUSH2 0x857 JUMPI PUSH2 0x1050 JUMPI JUMPDEST POP JUMPDEST PUSH2 0xFE9 DUP5 PUSH2 0x3E49 JUMP JUMPDEST PUSH1 0x4 SLOAD SWAP4 PUSH1 0x1 DUP6 ADD DUP1 SWAP6 GT PUSH2 0x897 JUMPI DUP6 PUSH2 0x104B SWAP3 PUSH32 0xE28BE616343217C7E0EF866D21553599F8513BB0872CCEE92C71033E49CC2FC9 SWAP7 PUSH1 0x4 SSTORE DUP3 PUSH1 0x0 MSTORE MSTORE PUSH1 0x40 PUSH1 0x0 KECCAK256 SWAP6 DUP5 PUSH1 0x1 DUP9 ADD SLOAD SWAP2 DUP9 ADD SLOAD AND SWAP1 PUSH1 0x4 PUSH1 0x40 MLOAD SWAP7 DUP8 SWAP7 AND SWAP9 ADD SWAP3 DUP6 PUSH2 0x3E1B JUMP JUMPDEST SUB SWAP1 LOG2 STOP JUMPDEST PUSH2 0x1066 SWAP1 DUP3 RETURNDATASIZE DUP5 GT PUSH2 0x850 JUMPI PUSH2 0x841 DUP2 DUP4 PUSH2 0x310F JUMP JUMPDEST POP DUP6 PUSH2 0xFDE JUMP JUMPDEST PUSH1 0x0 DUP1 DUP1 PUSH1 0x1 DUP2 SWAP5 ADD SLOAD DUP2 DUP2 ISZERO PUSH2 0x1094 JUMPI JUMPDEST DUP9 DUP9 AND SWAP1 CALL PUSH2 0xFE0 JUMPI PUSH1 0x40 MLOAD RETURNDATASIZE PUSH1 0x0 DUP3 RETURNDATACOPY RETURNDATASIZE SWAP1 REVERT JUMPDEST POP PUSH2 0x8FC PUSH2 0x107F JUMP JUMPDEST PUSH1 0x84 SWAP1 PUSH1 0x40 MLOAD SWAP1 PUSH3 0x461BCD PUSH1 0xE5 SHL DUP3 MSTORE PUSH1 0x4 DUP3 ADD MSTORE PUSH1 0x2A PUSH1 0x24 DUP3 ADD MSTORE PUSH32 0x546F6B656E536166653A207361666520616C726561647920636C61696D656420 PUSH1 0x44 DUP3 ADD MSTORE PUSH10 0x1BDC88195E1C1A5C9959 PUSH1 0xB2 SHL PUSH1 0x64 DUP3 ADD MSTORE REVERT JUMPDEST PUSH1 0x64 SWAP1 PUSH1 0x40 MLOAD SWAP1 PUSH3 0x461BCD PUSH1 0xE5 SHL DUP3 MSTORE PUSH1 0x4 DUP3 ADD MSTORE PUSH1 0x15 PUSH1 0x24 DUP3 ADD MSTORE PUSH21 0x14D859994E88139BDD0816595D08115E1C1A5C9959 PUSH1 0x5A SHL PUSH1 0x44 DUP3 ADD MSTORE REVERT JUMPDEST CALLVALUE PUSH2 0x2EE JUMPI PUSH1 0x0 CALLDATASIZE PUSH1 0x3 NOT ADD SLT PUSH2 0x2EE JUMPI PUSH2 0x1149 PUSH2 0x331E JUMP JUMPDEST PUSH2 0x1151 PUSH2 0x3D37 JUMP JUMPDEST PUSH1 0x0 DUP1 MLOAD PUSH1 0x20 PUSH2 0x44BF DUP4 CODECOPY DUP2 MLOAD SWAP2 MSTORE PUSH1 0x1 PUSH1 0xFF NOT DUP3 SLOAD AND OR SWAP1 SSTORE PUSH32 0x62E78CEA01BEE320CD4E420270B5EA74000D11B0C9F74754EBDBFC544B05A258 PUSH1 0x20 PUSH1 0x40 MLOAD CALLER DUP2 MSTORE LOG1 STOP JUMPDEST CALLVALUE PUSH2 0x2EE JUMPI PUSH1 0x0 CALLDATASIZE PUSH1 0x3 NOT ADD SLT PUSH2 0x2EE JUMPI PUSH1 0x20 PUSH1 0x4 SLOAD PUSH1 0x40 MLOAD SWAP1 DUP2 MSTORE RETURN JUMPDEST PUSH2 0x100 CALLDATASIZE PUSH1 0x3 NOT ADD SLT PUSH2 0x2EE JUMPI PUSH2 0x11CA PUSH2 0x2F47 JUMP JUMPDEST PUSH1 0x24 CALLDATALOAD PUSH1 0x1 PUSH1 0x1 PUSH1 0x40 SHL SUB DUP2 GT PUSH2 0x2EE JUMPI PUSH2 0x11E9 SWAP1 CALLDATASIZE SWAP1 PUSH1 0x4 ADD PUSH2 0x3283 JUMP JUMPDEST PUSH1 0x84 CALLDATALOAD SWAP2 PUSH1 0x1 PUSH1 0x1 PUSH1 0xA0 SHL SUB DUP4 AND DUP4 SUB PUSH2 0x2EE JUMPI PUSH1 0xA4 CALLDATALOAD SWAP3 PUSH1 0x1 PUSH1 0x1 PUSH1 0x40 SHL SUB DUP5 GT PUSH2 0x2EE JUMPI CALLDATASIZE PUSH1 0x23 DUP6 ADD SLT ISZERO PUSH2 0x2EE JUMPI DUP4 PUSH1 0x4 ADD CALLDATALOAD PUSH2 0x1228 DUP2 PUSH2 0x32CA JUMP JUMPDEST SWAP5 PUSH2 0x1236 PUSH1 0x40 MLOAD SWAP7 DUP8 PUSH2 0x310F JUMP JUMPDEST DUP2 DUP7 MSTORE PUSH1 0x24 PUSH1 0x20 DUP8 ADD SWAP3 PUSH1 0x5 SHL DUP3 ADD ADD SWAP1 CALLDATASIZE DUP3 GT PUSH2 0x2EE JUMPI PUSH1 0x24 ADD SWAP2 JUMPDEST DUP2 DUP4 LT PUSH2 0x1AE1 JUMPI POP POP POP PUSH1 0xC4 CALLDATALOAD PUSH1 0x1 PUSH1 0x1 PUSH1 0x40 SHL SUB DUP2 GT PUSH2 0x2EE JUMPI PUSH2 0x127C SWAP1 CALLDATASIZE SWAP1 PUSH1 0x4 ADD PUSH2 0x3283 JUMP JUMPDEST SWAP1 TIMESTAMP PUSH1 0x44 CALLDATALOAD GT ISZERO PUSH2 0x1A8D JUMPI PUSH1 0x1 PUSH1 0x1 PUSH1 0xA0 SHL SUB DUP2 AND ISZERO PUSH2 0x1A5F JUMPI PUSH1 0x40 MLOAD PUSH4 0x23B872DD PUSH1 0xE0 SHL DUP2 MSTORE CALLER PUSH1 0x4 DUP3 ADD MSTORE ADDRESS PUSH1 0x24 DUP3 ADD MSTORE PUSH1 0x64 DUP1 CALLDATALOAD PUSH1 0x44 DUP4 ADD MSTORE PUSH1 0x20 SWAP1 DUP3 SWAP1 DUP2 PUSH1 0x0 PUSH1 0x1 PUSH1 0x1 PUSH1 0xA0 SHL SUB DUP8 AND GAS CALL DUP1 ISZERO PUSH2 0x857 JUMPI PUSH2 0x1A40 JUMPI JUMPDEST POP JUMPDEST PUSH1 0x0 SLOAD SWAP4 PUSH2 0x12E6 DUP6 PUSH2 0x3D7A JUMP JUMPDEST PUSH1 0x0 SSTORE PUSH1 0x40 MLOAD PUSH2 0x12F5 DUP2 PUSH2 0x30D9 JUMP JUMPDEST PUSH1 0x0 DUP2 MSTORE PUSH1 0x1 PUSH1 0x1 PUSH1 0xA0 SHL SUB DUP6 AND ISZERO PUSH2 0x1A27 JUMPI DUP6 PUSH1 0x0 MSTORE PUSH1 0x2 PUSH1 0x20 MSTORE TIMESTAMP PUSH1 0x40 PUSH1 0x0 KECCAK256 SLOAD GT PUSH2 0x19E8 JUMPI PUSH2 0x1325 PUSH2 0x3D37 JUMP JUMPDEST PUSH1 0x0 DUP7 DUP2 MSTORE PUSH1 0x0 DUP1 MLOAD PUSH1 0x20 PUSH2 0x44DF DUP4 CODECOPY DUP2 MLOAD SWAP2 MSTORE PUSH1 0x20 MSTORE PUSH1 0x40 SWAP1 KECCAK256 SLOAD PUSH1 0x1 PUSH1 0x1 PUSH1 0xA0 SHL SUB AND DUP1 PUSH2 0x19C9 JUMPI JUMPDEST PUSH2 0x1359 DUP7 PUSH2 0x31BE JUMP JUMPDEST DUP1 SLOAD PUSH1 0x1 ADD SWAP1 SSTORE PUSH1 0x0 DUP8 DUP2 MSTORE PUSH1 0x0 DUP1 MLOAD PUSH1 0x20 PUSH2 0x44DF DUP4 CODECOPY DUP2 MLOAD SWAP2 MSTORE PUSH1 0x20 MSTORE PUSH1 0x40 DUP2 KECCAK256 DUP1 SLOAD PUSH1 0x1 PUSH1 0x1 PUSH1 0xA0 SHL SUB NOT AND PUSH1 0x1 PUSH1 0x1 PUSH1 0xA0 SHL SUB DUP10 AND SWAP1 DUP2 OR SWAP1 SWAP2 SSTORE DUP9 SWAP2 DUP4 SWAP1 PUSH1 0x0 DUP1 MLOAD PUSH1 0x20 PUSH2 0x447F DUP4 CODECOPY DUP2 MLOAD SWAP2 MSTORE SWAP1 DUP1 LOG4 DUP1 PUSH2 0x1911 JUMPI PUSH1 0x0 DUP1 MLOAD PUSH1 0x20 PUSH2 0x445F DUP4 CODECOPY DUP2 MLOAD SWAP2 MSTORE SLOAD DUP8 PUSH1 0x0 MSTORE PUSH1 0x0 DUP1 MLOAD PUSH1 0x20 PUSH2 0x443F DUP4 CODECOPY DUP2 MLOAD SWAP2 MSTORE PUSH1 0x20 MSTORE PUSH1 0x40 PUSH1 0x0 KECCAK256 SSTORE PUSH2 0x13E7 DUP8 PUSH2 0x3DC4 JUMP JUMPDEST PUSH1 0x1 PUSH1 0x1 PUSH1 0xA0 SHL SUB DUP7 AND DUP2 SUB PUSH2 0x18A3 JUMPI JUMPDEST PUSH2 0x188A JUMPI DUP5 EXTCODESIZE PUSH2 0x1775 JUMPI JUMPDEST POP PUSH1 0x40 MLOAD PUSH2 0x1410 DUP2 PUSH2 0x30BE JUMP JUMPDEST PUSH1 0x44 CALLDATALOAD DUP2 MSTORE PUSH1 0x20 DUP2 ADD SWAP1 PUSH1 0x64 CALLDATALOAD DUP3 MSTORE PUSH1 0x40 DUP2 ADD PUSH1 0x1 DUP1 PUSH1 0xA0 SHL SUB DUP6 AND DUP2 MSTORE PUSH1 0x60 DUP3 ADD SWAP1 PUSH1 0x1 DUP3 MSTORE PUSH1 0x80 DUP4 ADD SWAP2 DUP11 DUP4 MSTORE DUP8 PUSH1 0xA0 DUP6 ADD MSTORE PUSH1 0xE4 CALLDATALOAD PUSH1 0xC0 DUP6 ADD MSTORE DUP10 PUSH1 0x0 MSTORE PUSH1 0x2 PUSH1 0x20 MSTORE PUSH1 0x40 PUSH1 0x0 KECCAK256 SWAP5 DUP5 MLOAD DUP7 SSTORE MLOAD PUSH1 0x1 DUP7 ADD SSTORE PUSH1 0x2 DUP6 ADD SWAP2 PUSH1 0x1 DUP1 PUSH1 0xA0 SHL SUB SWAP1 MLOAD AND DUP3 SLOAD SWAP2 MLOAD PUSH2 0x1482 DUP2 PUSH2 0x3130 JUMP JUMPDEST PUSH2 0x148B DUP2 PUSH2 0x3130 JUMP JUMPDEST PUSH1 0x1 PUSH1 0x1 PUSH1 0xA8 SHL SUB NOT SWAP1 SWAP3 AND OR PUSH1 0xA0 SWAP2 SWAP1 SWAP2 SHL PUSH1 0xFF PUSH1 0xA0 SHL AND OR SWAP1 SSTORE MLOAD DUP1 MLOAD SWAP1 PUSH1 0x1 PUSH1 0x1 PUSH1 0x40 SHL SUB DUP3 GT PUSH2 0x1722 JUMPI PUSH1 0x1 PUSH1 0x40 SHL DUP3 GT PUSH2 0x1722 JUMPI PUSH1 0x20 SWAP1 PUSH1 0x3 DUP6 ADD SLOAD DUP4 PUSH1 0x3 DUP8 ADD SSTORE DUP1 DUP5 LT PUSH2 0x1755 JUMPI JUMPDEST POP ADD PUSH1 0x3 DUP5 ADD PUSH1 0x0 MSTORE PUSH1 0x20 PUSH1 0x0 KECCAK256 PUSH1 0x0 JUMPDEST DUP4 DUP2 LT PUSH2 0x1738 JUMPI POP POP POP POP PUSH1 0xA0 DUP2 ADD MLOAD DUP1 MLOAD SWAP1 PUSH1 0x1 PUSH1 0x1 PUSH1 0x40 SHL SUB DUP3 GT PUSH2 0x1722 JUMPI PUSH2 0x1519 PUSH1 0x4 DUP6 ADD SLOAD PUSH2 0x2FEE JUMP JUMPDEST PUSH1 0x1F DUP2 GT PUSH2 0x16E2 JUMPI JUMPDEST POP PUSH1 0x20 SWAP1 PUSH1 0x1F DUP4 GT PUSH1 0x1 EQ PUSH2 0x1668 JUMPI SWAP3 DUP3 PUSH1 0x5 SWAP4 PUSH1 0xC0 SWAP4 PUSH2 0x1585 SWAP9 SWAP8 SWAP7 PUSH1 0x0 SWAP3 PUSH2 0x165D JUMPI JUMPDEST POP POP DUP2 PUSH1 0x1 SHL SWAP2 PUSH1 0x0 NOT SWAP1 PUSH1 0x3 SHL SHR NOT AND OR PUSH1 0x4 DUP6 ADD SSTORE JUMPDEST ADD MLOAD SWAP2 ADD SSTORE DUP6 PUSH1 0x0 MSTORE PUSH1 0x2 PUSH1 0x20 MSTORE PUSH2 0x157F PUSH1 0x3 PUSH1 0x40 PUSH1 0x0 KECCAK256 ADD CALLER SWAP1 PUSH2 0x3D89 JUMP JUMPDEST DUP6 PUSH2 0x418A JUMP JUMPDEST CALLER PUSH1 0x0 MSTORE PUSH1 0x6 PUSH1 0x20 MSTORE PUSH2 0x159C DUP5 PUSH1 0x40 PUSH1 0x0 KECCAK256 PUSH2 0x3DF8 JUMP JUMPDEST PUSH1 0x0 JUMPDEST DUP6 MLOAD DUP2 LT ISZERO PUSH2 0x15F5 JUMPI PUSH2 0x15F0 SWAP1 DUP6 PUSH1 0x0 MSTORE PUSH1 0x2 PUSH1 0x20 MSTORE PUSH2 0x15C6 DUP2 PUSH1 0x3 PUSH1 0x40 PUSH1 0x0 KECCAK256 ADD PUSH2 0x3250 JUMP JUMPDEST PUSH1 0x1 DUP1 PUSH1 0xA0 SHL SUB SWAP2 SLOAD SWAP1 PUSH1 0x3 SHL SHR AND PUSH1 0x0 MSTORE PUSH1 0x7 PUSH1 0x20 MSTORE PUSH2 0x15EB DUP7 PUSH1 0x40 PUSH1 0x0 KECCAK256 PUSH2 0x3DF8 JUMP JUMPDEST PUSH2 0x3D7A JUMP JUMPDEST PUSH2 0x159F JUMP JUMPDEST POP PUSH1 0x40 DUP1 MLOAD SWAP5 DUP6 MSTORE PUSH1 0x64 CALLDATALOAD PUSH1 0x20 DUP7 ADD MSTORE PUSH1 0x1 PUSH1 0x1 PUSH1 0xA0 SHL SUB SWAP2 DUP3 AND SWAP1 DUP6 ADD MSTORE PUSH1 0x80 PUSH1 0x60 DUP6 ADD DUP2 SWAP1 MSTORE PUSH1 0x44 CALLDATALOAD SWAP5 SWAP4 SWAP1 SWAP2 AND SWAP3 CALLER SWAP3 PUSH32 0xBDD16B3AA0E5FA76E58D08838E79DC4017D082E838DF98FC0AF4CA3BBEE8A05A SWAP3 DUP3 SWAP2 PUSH2 0x1658 SWAP2 DUP4 ADD SWAP1 PUSH2 0x2FAE JUMP JUMPDEST SUB SWAP1 LOG4 STOP JUMPDEST ADD MLOAD SWAP1 POP DUP14 DUP1 PUSH2 0x1547 JUMP JUMPDEST SWAP1 PUSH1 0x4 DUP6 ADD PUSH1 0x0 MSTORE PUSH1 0x20 PUSH1 0x0 KECCAK256 SWAP2 PUSH1 0x0 JUMPDEST PUSH1 0x1F NOT DUP6 AND DUP2 LT PUSH2 0x16CA JUMPI POP DUP4 PUSH1 0xC0 SWAP4 PUSH2 0x1585 SWAP9 SWAP8 SWAP7 SWAP4 PUSH1 0x1 SWAP4 PUSH1 0x5 SWAP8 PUSH1 0x1F NOT DUP2 AND LT PUSH2 0x16B1 JUMPI JUMPDEST POP POP POP DUP2 SHL ADD PUSH1 0x4 DUP6 ADD SSTORE PUSH2 0x155F JUMP JUMPDEST ADD MLOAD PUSH1 0x0 NOT PUSH1 0xF8 DUP5 PUSH1 0x3 SHL AND SHR NOT AND SWAP1 SSTORE DUP14 DUP1 DUP1 PUSH2 0x16A1 JUMP JUMPDEST SWAP2 SWAP3 PUSH1 0x20 PUSH1 0x1 DUP2 SWAP3 DUP7 DUP6 ADD MLOAD DUP2 SSTORE ADD SWAP5 ADD SWAP3 ADD PUSH2 0x1679 JUMP JUMPDEST PUSH2 0x1712 SWAP1 PUSH1 0x4 DUP7 ADD PUSH1 0x0 MSTORE PUSH1 0x20 PUSH1 0x0 KECCAK256 PUSH1 0x1F DUP6 ADD PUSH1 0x5 SHR DUP2 ADD SWAP2 PUSH1 0x20 DUP7 LT PUSH2 0x1718 JUMPI JUMPDEST PUSH1 0x1F ADD PUSH1 0x5 SHR ADD SWAP1 PUSH2 0x3D20 JUMP JUMPDEST DUP11 PUSH2 0x1522 JUMP JUMPDEST SWAP1 SWAP2 POP DUP2 SWAP1 PUSH2 0x1705 JUMP JUMPDEST PUSH4 0x4E487B71 PUSH1 0xE0 SHL PUSH1 0x0 MSTORE PUSH1 0x41 PUSH1 0x4 MSTORE PUSH1 0x24 PUSH1 0x0 REVERT JUMPDEST DUP3 MLOAD PUSH1 0x1 PUSH1 0x1 PUSH1 0xA0 SHL SUB AND DUP2 DUP4 ADD SSTORE PUSH1 0x20 SWAP1 SWAP3 ADD SWAP2 PUSH1 0x1 ADD PUSH2 0x14EB JUMP JUMPDEST PUSH2 0x176F SWAP1 PUSH1 0x3 DUP8 ADD PUSH1 0x0 MSTORE DUP5 DUP5 PUSH1 0x0 KECCAK256 SWAP2 DUP3 ADD SWAP2 ADD PUSH2 0x3D20 JUMP JUMPDEST DUP12 PUSH2 0x14DA JUMP JUMPDEST PUSH1 0x40 SWAP7 SWAP6 SWAP5 SWAP7 MLOAD PUSH1 0x20 DUP2 DUP1 PUSH2 0x17B3 PUSH4 0xA85BD01 PUSH1 0xE1 SHL SWAP6 DUP7 DUP4 MSTORE CALLER PUSH1 0x4 DUP5 ADD MSTORE PUSH1 0x0 PUSH1 0x24 DUP5 ADD MSTORE DUP11 PUSH1 0x44 DUP5 ADD MSTORE PUSH1 0x80 PUSH1 0x64 DUP5 ADD MSTORE PUSH1 0x84 DUP4 ADD SWAP1 PUSH2 0x2FAE JUMP JUMPDEST SUB DUP2 PUSH1 0x0 PUSH1 0x1 PUSH1 0x1 PUSH1 0xA0 SHL SUB DUP14 AND GAS CALL PUSH1 0x0 SWAP2 DUP2 PUSH2 0x1845 JUMPI JUMPDEST POP PUSH2 0x180B JUMPI DUP8 PUSH2 0x17DA PUSH2 0x3A7F JUMP JUMPDEST DUP1 MLOAD SWAP2 SWAP1 DUP3 PUSH2 0x1804 JUMPI PUSH1 0x40 MLOAD PUSH4 0x32505749 PUSH1 0xE1 SHL DUP2 MSTORE PUSH1 0x1 PUSH1 0x1 PUSH1 0xA0 SHL SUB DUP4 AND PUSH1 0x4 DUP3 ADD MSTORE PUSH1 0x24 SWAP1 REVERT JUMPDEST SWAP1 POP PUSH1 0x20 ADD REVERT JUMPDEST SWAP6 SWAP7 SWAP5 SWAP6 PUSH1 0x1 PUSH1 0x1 PUSH1 0xE0 SHL SUB NOT AND SUB PUSH2 0x1824 JUMPI DUP7 PUSH2 0x1403 JUMP JUMPDEST PUSH1 0x40 MLOAD PUSH4 0x32505749 PUSH1 0xE1 SHL DUP2 MSTORE PUSH1 0x1 PUSH1 0x1 PUSH1 0xA0 SHL SUB DUP6 AND PUSH1 0x4 DUP3 ADD MSTORE PUSH1 0x24 SWAP1 REVERT JUMPDEST SWAP1 SWAP2 POP PUSH1 0x20 DUP2 RETURNDATASIZE PUSH1 0x20 GT PUSH2 0x1882 JUMPI JUMPDEST DUP2 PUSH2 0x1861 PUSH1 0x20 SWAP4 DUP4 PUSH2 0x310F JUMP JUMPDEST DUP2 ADD SUB SLT PUSH2 0x2EE JUMPI MLOAD PUSH1 0x1 PUSH1 0x1 PUSH1 0xE0 SHL SUB NOT DUP2 AND DUP2 SUB PUSH2 0x2EE JUMPI SWAP1 DUP10 PUSH2 0x17CC JUMP JUMPDEST RETURNDATASIZE SWAP2 POP PUSH2 0x1854 JUMP JUMPDEST PUSH1 0x40 MLOAD PUSH4 0x39E35637 PUSH1 0xE1 SHL DUP2 MSTORE PUSH1 0x0 PUSH1 0x4 DUP3 ADD MSTORE PUSH1 0x24 SWAP1 REVERT JUMPDEST PUSH2 0x18AC DUP7 PUSH2 0x368D JUMP JUMPDEST DUP1 PUSH1 0x0 NOT DUP2 ADD GT PUSH2 0x897 JUMPI PUSH1 0x1 DUP1 PUSH1 0xA0 SHL SUB DUP8 AND PUSH1 0x0 MSTORE PUSH1 0x0 DUP1 MLOAD PUSH1 0x20 PUSH2 0x43DF DUP4 CODECOPY DUP2 MLOAD SWAP2 MSTORE PUSH1 0x20 MSTORE PUSH1 0x40 PUSH1 0x0 KECCAK256 PUSH1 0x0 NOT DUP3 ADD PUSH1 0x0 MSTORE PUSH1 0x20 MSTORE DUP8 PUSH1 0x40 PUSH1 0x0 KECCAK256 SSTORE DUP8 PUSH1 0x0 MSTORE PUSH1 0x0 DUP1 MLOAD PUSH1 0x20 PUSH2 0x43BF DUP4 CODECOPY DUP2 MLOAD SWAP2 MSTORE PUSH1 0x20 MSTORE PUSH1 0x0 NOT ADD PUSH1 0x40 PUSH1 0x0 KECCAK256 SSTORE PUSH2 0x13F8 JUMP JUMPDEST PUSH1 0x1 PUSH1 0x1 PUSH1 0xA0 SHL SUB DUP7 AND DUP2 EQ PUSH2 0x13E7 JUMPI PUSH2 0x192A DUP2 PUSH2 0x368D JUMP JUMPDEST DUP8 PUSH1 0x0 MSTORE PUSH1 0x0 DUP1 MLOAD PUSH1 0x20 PUSH2 0x43BF DUP4 CODECOPY DUP2 MLOAD SWAP2 MSTORE DUP1 PUSH1 0x20 MSTORE PUSH1 0x40 PUSH1 0x0 KECCAK256 SLOAD SWAP1 DUP3 DUP3 SUB PUSH2 0x198B JUMPI JUMPDEST POP POP DUP8 PUSH1 0x0 MSTORE PUSH1 0x0 PUSH1 0x40 DUP2 KECCAK256 SSTORE DUP2 PUSH1 0x0 MSTORE PUSH1 0x0 DUP1 MLOAD PUSH1 0x20 PUSH2 0x43DF DUP4 CODECOPY DUP2 MLOAD SWAP2 MSTORE PUSH1 0x20 MSTORE PUSH1 0x40 PUSH1 0x0 KECCAK256 SWAP1 PUSH1 0x0 MSTORE PUSH1 0x20 MSTORE PUSH1 0x0 PUSH1 0x40 DUP2 KECCAK256 SSTORE PUSH2 0x13E7 JUMP JUMPDEST PUSH1 0x0 DUP5 DUP2 MSTORE PUSH1 0x0 DUP1 MLOAD PUSH1 0x20 PUSH2 0x43DF DUP4 CODECOPY DUP2 MLOAD SWAP2 MSTORE PUSH1 0x20 SWAP1 DUP2 MSTORE PUSH1 0x40 DUP1 DUP4 KECCAK256 DUP7 DUP5 MSTORE DUP3 MSTORE DUP1 DUP4 KECCAK256 SLOAD DUP6 DUP5 MSTORE DUP2 DUP5 KECCAK256 DUP2 SWAP1 SSTORE DUP4 MSTORE SWAP3 SWAP1 MSTORE KECCAK256 SSTORE DUP10 DUP1 PUSH2 0x1950 JUMP JUMPDEST PUSH2 0x19D2 DUP8 PUSH2 0x39DE JUMP JUMPDEST PUSH2 0x19DB DUP2 PUSH2 0x31BE JUMP JUMPDEST DUP1 SLOAD PUSH1 0x0 NOT ADD SWAP1 SSTORE PUSH2 0x1350 JUMP JUMPDEST PUSH1 0x40 MLOAD PUSH3 0x461BCD PUSH1 0xE5 SHL DUP2 MSTORE PUSH1 0x20 PUSH1 0x4 DUP3 ADD MSTORE PUSH1 0x24 DUP1 DUP3 ADD MSTORE PUSH1 0x0 DUP1 MLOAD PUSH1 0x20 PUSH2 0x441F DUP4 CODECOPY DUP2 MLOAD SWAP2 MSTORE PUSH1 0x44 DUP3 ADD MSTORE PUSH4 0x61626C65 PUSH1 0xE0 SHL PUSH1 0x64 DUP3 ADD MSTORE PUSH1 0x84 SWAP1 REVERT JUMPDEST PUSH1 0x40 MLOAD PUSH4 0x32505749 PUSH1 0xE1 SHL DUP2 MSTORE PUSH1 0x0 PUSH1 0x4 DUP3 ADD MSTORE PUSH1 0x24 SWAP1 REVERT JUMPDEST PUSH2 0x1A58 SWAP1 PUSH1 0x20 RETURNDATASIZE PUSH1 0x20 GT PUSH2 0x850 JUMPI PUSH2 0x841 DUP2 DUP4 PUSH2 0x310F JUMP JUMPDEST POP DUP6 PUSH2 0x12D7 JUMP JUMPDEST PUSH1 0x64 CALLDATALOAD DUP1 CALLVALUE LT PUSH2 0x1A6F JUMPI POP PUSH2 0x12D9 JUMP JUMPDEST PUSH1 0x44 SWAP1 PUSH1 0x40 MLOAD SWAP1 PUSH4 0x1F2DDA77 PUSH1 0xE2 SHL DUP3 MSTORE PUSH1 0x4 DUP3 ADD MSTORE CALLVALUE PUSH1 0x24 DUP3 ADD MSTORE REVERT JUMPDEST PUSH1 0x40 MLOAD PUSH3 0x461BCD PUSH1 0xE5 SHL DUP2 MSTORE PUSH1 0x20 PUSH1 0x4 DUP3 ADD MSTORE PUSH1 0x26 PUSH1 0x24 DUP3 ADD MSTORE PUSH32 0x45706865536166653A20657870697279206D75737420626520696E2074686520 PUSH1 0x44 DUP3 ADD MSTORE PUSH6 0x667574757265 PUSH1 0xD0 SHL PUSH1 0x64 DUP3 ADD MSTORE PUSH1 0x84 SWAP1 REVERT JUMPDEST DUP3 CALLDATALOAD PUSH1 0x1 PUSH1 0x1 PUSH1 0xA0 SHL SUB DUP2 AND DUP2 SUB PUSH2 0x2EE JUMPI DUP2 MSTORE PUSH1 0x20 SWAP3 DUP4 ADD SWAP3 ADD PUSH2 0x1253 JUMP JUMPDEST CALLVALUE PUSH2 0x2EE JUMPI PUSH1 0x0 CALLDATASIZE PUSH1 0x3 NOT ADD SLT PUSH2 0x2EE JUMPI PUSH1 0x20 PUSH1 0x40 MLOAD PUSH32 0xA49807205CE4D355092EF5A8A18F56E8913CF4A201FBE287825B095693C21775 DUP2 MSTORE RETURN JUMPDEST CALLVALUE PUSH2 0x2EE JUMPI PUSH1 0x20 CALLDATASIZE PUSH1 0x3 NOT ADD SLT PUSH2 0x2EE JUMPI PUSH1 0x20 PUSH2 0x1B5F PUSH2 0x1B5A PUSH2 0x2F47 JUMP JUMPDEST PUSH2 0x368D JUMP JUMPDEST PUSH1 0x40 MLOAD SWAP1 DUP2 MSTORE RETURN JUMPDEST CALLVALUE PUSH2 0x2EE JUMPI PUSH1 0x20 CALLDATASIZE PUSH1 0x3 NOT ADD SLT PUSH2 0x2EE JUMPI PUSH1 0x20 PUSH2 0x1B85 PUSH1 0x4 CALLDATALOAD PUSH2 0x3A57 JUMP JUMPDEST PUSH1 0x40 MLOAD PUSH1 0x1 PUSH1 0x1 PUSH1 0xA0 SHL SUB SWAP1 SWAP2 AND DUP2 MSTORE RETURN JUMPDEST CALLVALUE PUSH2 0x2EE JUMPI PUSH1 0x0 CALLDATASIZE PUSH1 0x3 NOT ADD SLT PUSH2 0x2EE JUMPI PUSH1 0x20 PUSH1 0xFF PUSH1 0x0 DUP1 MLOAD PUSH1 0x20 PUSH2 0x44BF DUP4 CODECOPY DUP2 MLOAD SWAP2 MSTORE SLOAD AND PUSH1 0x40 MLOAD SWAP1 ISZERO ISZERO DUP2 MSTORE RETURN JUMPDEST CALLVALUE PUSH2 0x2EE JUMPI PUSH1 0x0 CALLDATASIZE PUSH1 0x3 NOT ADD SLT PUSH2 0x2EE JUMPI PUSH32 0x0 PUSH1 0x1 PUSH1 0x1 PUSH1 0xA0 SHL SUB AND ADDRESS SUB PUSH2 0x1C32 JUMPI PUSH1 0x20 PUSH1 0x40 MLOAD PUSH32 0x360894A13BA1A3210667C828492DB98DCA3E2076CC3735A920A3CA505D382BBC DUP2 MSTORE RETURN JUMPDEST PUSH1 0x40 MLOAD PUSH4 0x703E46DD PUSH1 0xE1 SHL DUP2 MSTORE PUSH1 0x4 SWAP1 REVERT JUMPDEST CALLVALUE PUSH2 0x2EE JUMPI PUSH1 0x20 CALLDATASIZE PUSH1 0x3 NOT ADD SLT PUSH2 0x2EE JUMPI PUSH1 0x20 PUSH2 0x1B5F PUSH1 0x4 CALLDATALOAD PUSH2 0x3C33 JUMP JUMPDEST PUSH1 0x40 CALLDATASIZE PUSH1 0x3 NOT ADD SLT PUSH2 0x2EE JUMPI PUSH2 0x1C76 PUSH2 0x2F47 JUMP JUMPDEST PUSH1 0x24 CALLDATALOAD PUSH1 0x1 PUSH1 0x1 PUSH1 0x40 SHL SUB DUP2 GT PUSH2 0x2EE JUMPI PUSH2 0x1C95 SWAP1 CALLDATASIZE SWAP1 PUSH1 0x4 ADD PUSH2 0x3283 JUMP JUMPDEST SWAP1 PUSH1 0x1 PUSH1 0x1 PUSH1 0xA0 SHL SUB SWAP1 PUSH32 0x0 DUP3 AND ADDRESS DUP2 EQ SWAP1 DUP2 ISZERO PUSH2 0x1E9B JUMPI JUMPDEST POP PUSH2 0x1C32 JUMPI CALLER PUSH1 0x0 SWAP1 DUP2 MSTORE PUSH32 0xAB71E3F32666744D246EDFF3F96E4BDAFEE2E9867098CDD118A979A7464786A8 PUSH1 0x20 SWAP1 DUP2 MSTORE PUSH1 0x40 SWAP1 SWAP2 KECCAK256 SLOAD SWAP1 SWAP3 SWAP1 PUSH32 0x189AB7A9244DF0848122154315AF71FE140F3DB0FE014031783B0946B8C9D2E3 SWAP1 PUSH1 0xFF AND ISZERO PUSH2 0x1E7D JUMPI POP DUP2 AND SWAP2 PUSH1 0x40 MLOAD PUSH4 0x52D1902D PUSH1 0xE0 SHL DUP2 MSTORE DUP2 DUP2 PUSH1 0x4 DUP2 DUP8 GAS STATICCALL PUSH1 0x0 SWAP2 DUP2 PUSH2 0x1E4E JUMPI JUMPDEST POP PUSH2 0x1D71 JUMPI PUSH1 0x40 MLOAD PUSH4 0x4C9C8CE3 PUSH1 0xE0 SHL DUP2 MSTORE PUSH1 0x4 DUP2 ADD DUP6 SWAP1 MSTORE PUSH1 0x24 SWAP1 REVERT JUMPDEST SWAP3 DUP5 SWAP4 PUSH32 0x360894A13BA1A3210667C828492DB98DCA3E2076CC3735A920A3CA505D382BBC SWAP1 DUP2 DUP2 SUB PUSH2 0x1E36 JUMPI POP DUP4 EXTCODESIZE ISZERO PUSH2 0x1E1D JUMPI DUP1 SLOAD PUSH1 0x1 PUSH1 0x1 PUSH1 0xA0 SHL SUB NOT AND DUP3 OR SWAP1 SSTORE PUSH1 0x40 MLOAD SWAP1 PUSH32 0xBC7CD75A20EE27FD9ADEBAB32041F755214DBC6BFFA90CC0225B39DA2E5C2D3B PUSH1 0x0 DUP1 LOG2 DUP4 MLOAD ISZERO PUSH2 0x1E03 JUMPI POP PUSH1 0x0 DUP4 DUP2 SWAP3 PUSH2 0x403 SWAP6 MLOAD SWAP2 ADD DUP5 GAS DELEGATECALL PUSH2 0x1DFD PUSH2 0x3A7F JUMP JUMPDEST SWAP2 PUSH2 0x3C7C JUMP JUMPDEST SWAP3 POP POP POP CALLVALUE PUSH2 0x1E0E JUMPI STOP JUMPDEST PUSH4 0xB398979F PUSH1 0xE0 SHL DUP2 MSTORE PUSH1 0x4 SWAP1 REVERT JUMPDEST PUSH1 0x40 MLOAD PUSH4 0x4C9C8CE3 PUSH1 0xE0 SHL DUP2 MSTORE PUSH1 0x4 DUP2 ADD DUP4 SWAP1 MSTORE PUSH1 0x24 SWAP1 REVERT JUMPDEST PUSH1 0x24 SWAP1 PUSH1 0x40 MLOAD SWAP1 PUSH4 0x2A875269 PUSH1 0xE2 SHL DUP3 MSTORE PUSH1 0x4 DUP3 ADD MSTORE REVERT JUMPDEST SWAP1 SWAP2 POP DUP3 DUP2 DUP2 RETURNDATASIZE DUP4 GT PUSH2 0x1E76 JUMPI JUMPDEST PUSH2 0x1E66 DUP2 DUP4 PUSH2 0x310F JUMP JUMPDEST DUP2 ADD SUB SLT PUSH2 0x2EE JUMPI MLOAD SWAP1 DUP7 PUSH2 0x1D53 JUMP JUMPDEST POP RETURNDATASIZE PUSH2 0x1E5C JUMP JUMPDEST PUSH1 0x44 SWAP1 PUSH1 0x40 MLOAD SWAP1 PUSH4 0xE2517D3F PUSH1 0xE0 SHL DUP3 MSTORE CALLER PUSH1 0x4 DUP4 ADD MSTORE PUSH1 0x24 DUP3 ADD MSTORE REVERT JUMPDEST SWAP1 POP DUP3 PUSH32 0x360894A13BA1A3210667C828492DB98DCA3E2076CC3735A920A3CA505D382BBC SLOAD AND EQ ISZERO DUP5 PUSH2 0x1CCD JUMP JUMPDEST CALLVALUE PUSH2 0x2EE JUMPI PUSH1 0x0 CALLDATASIZE PUSH1 0x3 NOT ADD SLT PUSH2 0x2EE JUMPI PUSH1 0x20 PUSH1 0x0 SLOAD PUSH1 0x40 MLOAD SWAP1 DUP2 MSTORE RETURN JUMPDEST CALLVALUE PUSH2 0x2EE JUMPI PUSH1 0x40 CALLDATASIZE PUSH1 0x3 NOT ADD SLT PUSH2 0x2EE JUMPI PUSH2 0x1F00 PUSH2 0x2F47 JUMP JUMPDEST PUSH2 0x1F08 PUSH2 0x2F5D JUMP JUMPDEST SWAP1 PUSH32 0xF0C57E16840DF040F15088DC2F81FE391C3923BEC73E23A9662EFC9C229C6A00 SWAP2 DUP3 SLOAD PUSH1 0x1 PUSH1 0x1 PUSH1 0x40 SHL SUB DUP2 AND SWAP2 DUP3 ISZERO DUP1 PUSH2 0x2384 JUMPI JUMPDEST PUSH1 0x1 DUP1 SWAP5 EQ SWAP1 DUP2 PUSH2 0x237A JUMPI JUMPDEST ISZERO SWAP1 DUP2 PUSH2 0x2371 JUMPI JUMPDEST POP PUSH2 0x235F JUMPI DUP3 PUSH1 0x1 PUSH1 0x1 PUSH1 0x40 SHL SUB NOT DUP4 AND OR DUP6 SSTORE PUSH1 0xFF DUP3 PUSH1 0x40 SHR AND ISZERO PUSH2 0x2340 JUMPI JUMPDEST PUSH1 0x40 MLOAD SWAP4 PUSH2 0x1F82 DUP6 PUSH2 0x30F4 JUMP JUMPDEST PUSH1 0x8 DUP6 MSTORE PUSH1 0x20 SWAP5 PUSH8 0x4570686553616665 PUSH1 0xC0 SHL DUP7 DUP3 ADD MSTORE PUSH1 0x40 MLOAD SWAP1 PUSH2 0x1FA6 DUP3 PUSH2 0x30F4 JUMP JUMPDEST PUSH1 0x3 DUP3 MSTORE PUSH3 0x455053 PUSH1 0xE8 SHL DUP8 DUP4 ADD MSTORE PUSH2 0x1FBD PUSH2 0x3CDF JUMP JUMPDEST PUSH2 0x1FC5 PUSH2 0x3CDF JUMP JUMPDEST DUP1 MLOAD SWAP1 PUSH1 0x1 PUSH1 0x1 PUSH1 0x40 SHL SUB DUP3 GT PUSH2 0x1722 JUMPI DUP2 SWAP1 PUSH2 0x1FF0 PUSH1 0x0 DUP1 MLOAD PUSH1 0x20 PUSH2 0x43FF DUP4 CODECOPY DUP2 MLOAD SWAP2 MSTORE SLOAD PUSH2 0x2FEE JUMP JUMPDEST PUSH1 0x1F DUP2 GT PUSH2 0x22E5 JUMPI JUMPDEST POP DUP9 SWAP1 PUSH1 0x1F DUP4 GT PUSH1 0x1 EQ PUSH2 0x2246 JUMPI PUSH1 0x0 SWAP3 PUSH2 0x223B JUMPI JUMPDEST POP POP PUSH1 0x0 NOT PUSH1 0x3 DUP4 SWAP1 SHL SHR NOT AND SWAP1 DUP7 SHL OR PUSH1 0x0 DUP1 MLOAD PUSH1 0x20 PUSH2 0x43FF DUP4 CODECOPY DUP2 MLOAD SWAP2 MSTORE SSTORE JUMPDEST DUP1 MLOAD PUSH1 0x1 PUSH1 0x1 PUSH1 0x40 SHL SUB DUP2 GT PUSH2 0x1722 JUMPI PUSH32 0x80BB2B638CC20BC4D0A60D66940F3AB4A00C1D7B313497CA82FB0B4AB0079301 SWAP2 PUSH2 0x206D DUP4 SLOAD PUSH2 0x2FEE JUMP JUMPDEST PUSH1 0x1F DUP2 GT PUSH2 0x21EE JUMPI JUMPDEST POP DUP8 SWAP1 PUSH1 0x1F DUP4 GT PUSH1 0x1 EQ PUSH2 0x215D JUMPI SWAP3 DUP3 PUSH2 0x2105 SWAP4 PUSH2 0x210B SWAP7 SWAP4 PUSH1 0xFF SWAP10 SWAP9 SWAP7 PUSH1 0x0 SWAP3 PUSH2 0x2152 JUMPI JUMPDEST POP POP PUSH1 0x0 NOT PUSH1 0x3 DUP4 SWAP1 SHL SHR NOT AND SWAP1 DUP10 SHL OR SWAP1 SSTORE JUMPDEST PUSH2 0x20B8 PUSH2 0x3CDF JUMP JUMPDEST PUSH2 0x20C0 PUSH2 0x3CDF JUMP JUMPDEST PUSH2 0x20C8 PUSH2 0x3CDF JUMP JUMPDEST PUSH1 0x0 DUP1 MLOAD PUSH1 0x20 PUSH2 0x44BF DUP4 CODECOPY DUP2 MLOAD SWAP2 MSTORE DUP7 NOT DUP2 SLOAD AND SWAP1 SSTORE PUSH2 0x20E6 PUSH2 0x3CDF JUMP JUMPDEST PUSH2 0x20EE PUSH2 0x3CDF JUMP JUMPDEST PUSH2 0x20F6 PUSH2 0x3CDF JUMP JUMPDEST PUSH2 0x20FF DUP2 PUSH2 0x33AD JUMP JUMPDEST POP PUSH2 0x343B JUMP JUMPDEST POP PUSH2 0x34EB JUMP JUMPDEST POP PUSH1 0x40 SHR AND ISZERO PUSH2 0x2117 JUMPI STOP JUMPDEST PUSH32 0xC7F505B2F371AE2175EE4913F4499E1F2633A7B5936321EED1CDAEB6115181D2 SWAP3 PUSH9 0xFF0000000000000000 NOT DUP2 SLOAD AND SWAP1 SSTORE PUSH1 0x40 MLOAD SWAP1 DUP2 MSTORE LOG1 STOP JUMPDEST ADD MLOAD SWAP1 POP DUP13 DUP1 PUSH2 0x209C JUMP JUMPDEST DUP8 SWAP3 SWAP2 PUSH1 0x1F NOT DUP4 AND SWAP2 DUP6 PUSH1 0x0 MSTORE PUSH32 0xF4BAD0A69248F59680A4F2B3000328CEC71A413447C96781CFE5996DAA8C456E SWAP3 PUSH1 0x0 JUMPDEST DUP13 DUP3 DUP3 LT PUSH2 0x21D8 JUMPI POP POP SWAP3 PUSH2 0x2105 SWAP6 SWAP3 DUP6 SWAP3 PUSH2 0x210B SWAP10 SWAP7 PUSH1 0xFF SWAP13 SWAP12 SWAP10 SWAP7 LT PUSH2 0x21BF JUMPI JUMPDEST POP POP POP DUP2 SHL ADD SWAP1 SSTORE PUSH2 0x20B0 JUMP JUMPDEST ADD MLOAD PUSH1 0x0 NOT PUSH1 0xF8 DUP5 PUSH1 0x3 SHL AND SHR NOT AND SWAP1 SSTORE DUP13 DUP1 DUP1 PUSH2 0x21B2 JUMP JUMPDEST DUP4 DUP6 ADD MLOAD DUP7 SSTORE DUP13 SWAP8 SWAP1 SWAP6 ADD SWAP5 SWAP4 DUP5 ADD SWAP4 ADD PUSH2 0x218F JUMP JUMPDEST PUSH2 0x2235 SWAP1 DUP5 PUSH1 0x0 MSTORE PUSH32 0xF4BAD0A69248F59680A4F2B3000328CEC71A413447C96781CFE5996DAA8C456E PUSH1 0x1F DUP6 ADD PUSH1 0x5 SHR DUP2 ADD SWAP2 DUP12 DUP7 LT PUSH2 0x1718 JUMPI PUSH1 0x1F ADD PUSH1 0x5 SHR ADD SWAP1 PUSH2 0x3D20 JUMP JUMPDEST DUP10 PUSH2 0x2076 JUMP JUMPDEST ADD MLOAD SWAP1 POP DUP10 DUP1 PUSH2 0x200F JUMP JUMPDEST SWAP1 DUP9 SWAP4 POP PUSH1 0x0 DUP1 MLOAD PUSH1 0x20 PUSH2 0x43FF DUP4 CODECOPY DUP2 MLOAD SWAP2 MSTORE PUSH1 0x0 MSTORE PUSH32 0x37C58C799B6609234B945E882912EE9AD34948A1DFAA20A97485E1A7752BBF81 SWAP2 PUSH1 0x0 JUMPDEST DUP12 PUSH1 0x1F NOT DUP7 AND DUP3 LT PUSH2 0x22CF JUMPI POP POP DUP4 PUSH1 0x1F NOT DUP2 AND LT PUSH2 0x22B6 JUMPI JUMPDEST POP POP POP DUP2 SHL ADD PUSH1 0x0 DUP1 MLOAD PUSH1 0x20 PUSH2 0x43FF DUP4 CODECOPY DUP2 MLOAD SWAP2 MSTORE SSTORE PUSH2 0x2031 JUMP JUMPDEST ADD MLOAD PUSH1 0x0 NOT PUSH1 0xF8 DUP5 PUSH1 0x3 SHL AND SHR NOT AND SWAP1 SSTORE DUP10 DUP1 DUP1 PUSH2 0x229B JUMP JUMPDEST DUP3 DUP5 ADD MLOAD DUP6 SSTORE DUP12 SWAP7 SWAP1 SWAP5 ADD SWAP4 SWAP3 DUP4 ADD SWAP3 ADD PUSH2 0x2281 JUMP JUMPDEST PUSH2 0x233A SWAP1 PUSH1 0x0 DUP1 MLOAD PUSH1 0x20 PUSH2 0x43FF DUP4 CODECOPY DUP2 MLOAD SWAP2 MSTORE PUSH1 0x0 MSTORE PUSH32 0x37C58C799B6609234B945E882912EE9AD34948A1DFAA20A97485E1A7752BBF81 PUSH1 0x1F DUP6 ADD PUSH1 0x5 SHR DUP2 ADD SWAP2 DUP13 DUP7 LT PUSH2 0x1718 JUMPI PUSH1 0x1F ADD PUSH1 0x5 SHR ADD SWAP1 PUSH2 0x3D20 JUMP JUMPDEST DUP11 PUSH2 0x1FF9 JUMP JUMPDEST PUSH9 0xFFFFFFFFFFFFFFFFFF NOT DUP3 AND PUSH9 0x10000000000000001 OR DUP6 SSTORE PUSH2 0x1F75 JUMP JUMPDEST PUSH1 0x40 MLOAD PUSH4 0xF92EE8A9 PUSH1 0xE0 SHL DUP2 MSTORE PUSH1 0x4 SWAP1 REVERT JUMPDEST SWAP1 POP ISZERO DUP7 PUSH2 0x1F54 JUMP JUMPDEST ADDRESS EXTCODESIZE ISZERO SWAP2 POP PUSH2 0x1F4C JUMP JUMPDEST POP PUSH1 0xFF DUP3 PUSH1 0x40 SHR AND ISZERO PUSH2 0x1F40 JUMP JUMPDEST CALLVALUE PUSH2 0x2EE JUMPI PUSH1 0x40 CALLDATASIZE PUSH1 0x3 NOT ADD SLT PUSH2 0x2EE JUMPI PUSH2 0x23AB PUSH2 0x2F47 JUMP JUMPDEST PUSH1 0x1 PUSH1 0x1 PUSH1 0xA0 SHL SUB AND PUSH1 0x0 SWAP1 DUP2 MSTORE PUSH1 0x6 PUSH1 0x20 MSTORE PUSH1 0x40 SWAP1 KECCAK256 DUP1 SLOAD PUSH1 0x24 CALLDATALOAD SWAP2 SWAP1 DUP3 LT ISZERO PUSH2 0x2EE JUMPI PUSH1 0x20 SWAP2 PUSH2 0x23DC SWAP2 PUSH2 0x3250 JUMP JUMPDEST SWAP1 SLOAD PUSH1 0x40 MLOAD SWAP2 PUSH1 0x3 SHL SHR DUP2 MSTORE RETURN JUMPDEST CALLVALUE PUSH2 0x2EE JUMPI PUSH1 0x20 DUP1 PUSH1 0x3 NOT CALLDATASIZE ADD SLT PUSH2 0x2EE JUMPI PUSH1 0x4 CALLDATALOAD SWAP1 DUP2 PUSH1 0x0 MSTORE PUSH1 0x2 DUP2 MSTORE PUSH1 0x40 PUSH1 0x0 KECCAK256 SLOAD TIMESTAMP LT PUSH2 0x272B JUMPI PUSH2 0x241C PUSH2 0x3D37 JUMP JUMPDEST PUSH1 0x0 DUP3 DUP2 MSTORE PUSH1 0x0 DUP1 MLOAD PUSH1 0x20 PUSH2 0x44DF DUP4 CODECOPY DUP2 MLOAD SWAP2 MSTORE DUP1 DUP4 MSTORE PUSH1 0x40 SWAP1 SWAP2 KECCAK256 SLOAD PUSH1 0x1 PUSH1 0x1 PUSH1 0xA0 SHL SUB SWAP1 DUP2 AND SWAP2 SWAP1 CALLER ISZERO ISZERO SWAP1 DUP2 PUSH2 0x2679 JUMPI JUMPDEST POP POP DUP2 ISZERO DUP1 ISZERO SWAP2 DUP3 PUSH2 0x265A JUMPI JUMPDEST DUP6 PUSH1 0x0 MSTORE DUP5 MSTORE PUSH1 0x40 PUSH1 0x0 KECCAK256 PUSH12 0xFFFFFFFFFFFFFFFFFFFFFFFF PUSH1 0xA0 SHL DUP2 SLOAD AND SWAP1 SSTORE DUP5 PUSH1 0x0 DUP5 PUSH1 0x0 DUP1 MLOAD PUSH1 0x20 PUSH2 0x447F DUP4 CODECOPY DUP2 MLOAD SWAP2 MSTORE DUP3 DUP1 LOG4 ISZERO PUSH2 0x2595 JUMPI POP POP PUSH1 0x0 DUP1 MLOAD PUSH1 0x20 PUSH2 0x445F DUP4 CODECOPY DUP2 MLOAD SWAP2 MSTORE SLOAD DUP3 PUSH1 0x0 MSTORE PUSH1 0x0 DUP1 MLOAD PUSH1 0x20 PUSH2 0x443F DUP4 CODECOPY DUP2 MLOAD SWAP2 MSTORE DUP3 MSTORE PUSH1 0x40 PUSH1 0x0 KECCAK256 SSTORE PUSH2 0x24CE DUP3 PUSH2 0x3DC4 JUMP JUMPDEST PUSH1 0x0 DUP1 MLOAD PUSH1 0x20 PUSH2 0x445F DUP4 CODECOPY DUP2 MLOAD SWAP2 MSTORE SWAP2 DUP3 SLOAD PUSH1 0x0 NOT SWAP3 DUP4 DUP3 ADD SWAP2 DUP3 GT PUSH2 0x897 JUMPI DUP3 PUSH1 0x0 MSTORE PUSH1 0x0 DUP1 MLOAD PUSH1 0x20 PUSH2 0x443F DUP4 CODECOPY DUP2 MLOAD SWAP2 MSTORE SWAP1 DUP2 DUP2 MSTORE PUSH2 0x2514 PUSH1 0x40 PUSH1 0x0 KECCAK256 SLOAD SWAP4 PUSH2 0x31F7 JUMP JUMPDEST SWAP1 SLOAD SWAP1 PUSH1 0x3 SHL SHR PUSH2 0x2541 DUP2 PUSH2 0x2528 DUP7 PUSH2 0x31F7 JUMP JUMPDEST SWAP1 SWAP2 SWAP1 DUP3 SLOAD SWAP1 PUSH1 0x3 SHL SWAP2 DUP3 SHL SWAP2 PUSH1 0x0 NOT SWAP1 SHL NOT AND OR SWAP1 SSTORE JUMP JUMPDEST PUSH1 0x0 MSTORE MSTORE PUSH1 0x40 PUSH1 0x0 KECCAK256 SSTORE PUSH1 0x0 MSTORE PUSH1 0x0 PUSH1 0x40 DUP2 KECCAK256 SSTORE DUP2 SLOAD DUP1 ISZERO PUSH2 0x257F JUMPI ADD SWAP1 PUSH2 0x257C PUSH2 0x256B DUP4 PUSH2 0x31F7 JUMP JUMPDEST DUP2 SLOAD SWAP1 PUSH1 0x0 NOT SWAP1 PUSH1 0x3 SHL SHL NOT AND SWAP1 SSTORE JUMP JUMPDEST SSTORE STOP JUMPDEST PUSH4 0x4E487B71 PUSH1 0xE0 SHL PUSH1 0x0 MSTORE PUSH1 0x31 PUSH1 0x4 MSTORE PUSH1 0x24 PUSH1 0x0 REVERT JUMPDEST PUSH2 0x25A0 JUMPI JUMPDEST POP PUSH2 0x24CE JUMP JUMPDEST PUSH2 0x25A9 DUP2 PUSH2 0x368D JUMP JUMPDEST SWAP1 DUP4 PUSH1 0x0 MSTORE PUSH1 0x0 DUP1 MLOAD PUSH1 0x20 PUSH2 0x43BF DUP4 CODECOPY DUP2 MLOAD SWAP2 MSTORE DUP1 DUP5 MSTORE PUSH1 0x40 PUSH1 0x0 KECCAK256 SLOAD SWAP1 DUP4 DUP3 SUB PUSH2 0x2608 JUMPI JUMPDEST POP POP DUP4 PUSH1 0x0 MSTORE PUSH1 0x0 PUSH1 0x40 DUP2 KECCAK256 SSTORE PUSH1 0x0 MSTORE PUSH1 0x0 DUP1 MLOAD PUSH1 0x20 PUSH2 0x43DF DUP4 CODECOPY DUP2 MLOAD SWAP2 MSTORE DUP3 MSTORE PUSH1 0x40 PUSH1 0x0 KECCAK256 SWAP1 PUSH1 0x0 MSTORE DUP2 MSTORE PUSH1 0x0 PUSH1 0x40 DUP2 KECCAK256 SSTORE DUP3 PUSH2 0x259A JUMP JUMPDEST DUP3 PUSH1 0x0 MSTORE PUSH1 0x0 DUP1 MLOAD PUSH1 0x20 PUSH2 0x43DF DUP4 CODECOPY DUP2 MLOAD SWAP2 MSTORE DUP1 DUP7 MSTORE PUSH1 0x40 PUSH1 0x0 KECCAK256 DUP6 PUSH1 0x0 MSTORE DUP7 MSTORE PUSH1 0x40 PUSH1 0x0 KECCAK256 SLOAD SWAP1 DUP5 PUSH1 0x0 MSTORE DUP7 MSTORE PUSH1 0x40 PUSH1 0x0 KECCAK256 DUP4 PUSH1 0x0 MSTORE DUP7 MSTORE DUP1 PUSH1 0x40 PUSH1 0x0 KECCAK256 SSTORE PUSH1 0x0 MSTORE DUP5 MSTORE PUSH1 0x40 PUSH1 0x0 KECCAK256 SSTORE DUP5 DUP1 PUSH2 0x25CF JUMP JUMPDEST PUSH2 0x2663 DUP7 PUSH2 0x39DE JUMP JUMPDEST PUSH2 0x266C DUP5 PUSH2 0x31BE JUMP JUMPDEST DUP1 SLOAD PUSH1 0x0 NOT ADD SWAP1 SSTORE PUSH2 0x245D JUMP JUMPDEST DUP2 PUSH2 0x26CA JUMPI JUMPDEST POP ISZERO PUSH2 0x268C JUMPI DUP5 DUP1 PUSH2 0x2450 JUMP JUMPDEST DUP4 DUP3 PUSH2 0x26AA JUMPI PUSH1 0x24 SWAP1 PUSH1 0x40 MLOAD SWAP1 PUSH4 0x7E273289 PUSH1 0xE0 SHL DUP3 MSTORE PUSH1 0x4 DUP3 ADD MSTORE REVERT JUMPDEST PUSH1 0x40 MLOAD PUSH4 0x177E802F PUSH1 0xE0 SHL DUP2 MSTORE CALLER PUSH1 0x4 DUP3 ADD MSTORE PUSH1 0x24 DUP2 ADD SWAP2 SWAP1 SWAP2 MSTORE PUSH1 0x44 SWAP1 REVERT JUMPDEST CALLER DUP5 EQ SWAP2 POP DUP2 ISZERO PUSH2 0x270B JUMPI JUMPDEST DUP2 ISZERO PUSH2 0x26E4 JUMPI JUMPDEST POP DUP6 PUSH2 0x267F JUMP JUMPDEST SWAP1 POP DUP5 PUSH1 0x0 MSTORE PUSH1 0x0 DUP1 MLOAD PUSH1 0x20 PUSH2 0x44FF DUP4 CODECOPY DUP2 MLOAD SWAP2 MSTORE DUP5 MSTORE CALLER SWAP1 PUSH1 0x40 PUSH1 0x0 KECCAK256 SLOAD AND EQ DUP6 PUSH2 0x26DD JUMP JUMPDEST SWAP1 POP PUSH2 0x2716 DUP4 PUSH2 0x3185 JUMP JUMPDEST CALLER PUSH1 0x0 MSTORE DUP5 MSTORE PUSH1 0xFF PUSH1 0x40 PUSH1 0x0 KECCAK256 SLOAD AND SWAP1 PUSH2 0x26D6 JUMP JUMPDEST PUSH1 0x84 SWAP1 PUSH1 0x40 MLOAD SWAP1 PUSH3 0x461BCD PUSH1 0xE5 SHL DUP3 MSTORE PUSH1 0x4 DUP3 ADD MSTORE PUSH1 0x24 DUP1 DUP3 ADD MSTORE PUSH1 0x0 DUP1 MLOAD PUSH1 0x20 PUSH2 0x441F DUP4 CODECOPY DUP2 MLOAD SWAP2 MSTORE PUSH1 0x44 DUP3 ADD MSTORE PUSH4 0x61626C65 PUSH1 0xE0 SHL PUSH1 0x64 DUP3 ADD MSTORE REVERT JUMPDEST CALLVALUE PUSH2 0x2EE JUMPI PUSH2 0x403 PUSH2 0x277A CALLDATASIZE PUSH2 0x3150 JUMP JUMPDEST SWAP1 PUSH1 0x40 MLOAD SWAP3 PUSH2 0x2788 DUP5 PUSH2 0x30D9 JUMP JUMPDEST PUSH1 0x0 DUP5 MSTORE PUSH2 0x53C DUP4 DUP4 DUP4 PUSH2 0x36C2 JUMP JUMPDEST CALLVALUE PUSH2 0x2EE JUMPI PUSH1 0x40 CALLDATASIZE PUSH1 0x3 NOT ADD SLT PUSH2 0x2EE JUMPI PUSH2 0x27B0 PUSH2 0x2F47 JUMP JUMPDEST PUSH1 0x1 PUSH1 0x1 PUSH1 0xA0 SHL SUB AND PUSH1 0x0 SWAP1 DUP2 MSTORE PUSH1 0x7 PUSH1 0x20 MSTORE PUSH1 0x40 SWAP1 KECCAK256 DUP1 SLOAD PUSH1 0x24 CALLDATALOAD SWAP2 SWAP1 DUP3 LT ISZERO PUSH2 0x2EE JUMPI PUSH1 0x20 SWAP2 PUSH2 0x23DC SWAP2 PUSH2 0x3250 JUMP JUMPDEST CALLVALUE PUSH2 0x2EE JUMPI PUSH1 0x20 DUP1 PUSH1 0x3 NOT CALLDATASIZE ADD SLT PUSH2 0x2EE JUMPI PUSH1 0x1 PUSH1 0x1 PUSH1 0xA0 SHL SUB PUSH2 0x2803 PUSH2 0x2F47 JUMP JUMPDEST AND PUSH1 0x0 MSTORE PUSH1 0x7 DUP2 MSTORE PUSH1 0x40 PUSH1 0x0 KECCAK256 SWAP1 PUSH1 0x40 MLOAD SWAP1 DUP2 DUP2 DUP5 SLOAD SWAP2 DUP3 DUP2 MSTORE ADD SWAP4 PUSH1 0x0 MSTORE DUP2 PUSH1 0x0 KECCAK256 SWAP2 PUSH1 0x0 SWAP1 JUMPDEST DUP3 DUP3 LT PUSH2 0x2842 JUMPI PUSH2 0x2D3 DUP6 PUSH2 0x2C7 DUP2 DUP10 SUB DUP3 PUSH2 0x310F JUMP JUMPDEST DUP4 SLOAD DUP7 MSTORE SWAP5 DUP6 ADD SWAP5 PUSH1 0x1 SWAP4 DUP5 ADD SWAP4 SWAP1 SWAP2 ADD SWAP1 PUSH2 0x282B JUMP JUMPDEST CALLVALUE PUSH2 0x2EE JUMPI PUSH1 0x0 CALLDATASIZE PUSH1 0x3 NOT ADD SLT PUSH2 0x2EE JUMPI PUSH2 0x2872 PUSH2 0x331E JUMP JUMPDEST PUSH1 0x0 DUP1 MLOAD PUSH1 0x20 PUSH2 0x44BF DUP4 CODECOPY DUP2 MLOAD SWAP2 MSTORE DUP1 SLOAD PUSH1 0xFF DUP2 AND ISZERO PUSH2 0x28BE JUMPI PUSH1 0xFF NOT AND SWAP1 SSTORE PUSH32 0x5DB9EE0A495BF2E6FF9C91A7834C1BA4FDD244A5E8AA4E537BD38AEAE4B073AA PUSH1 0x20 PUSH1 0x40 MLOAD CALLER DUP2 MSTORE LOG1 STOP JUMPDEST PUSH1 0x40 MLOAD PUSH4 0x8DFC202B PUSH1 0xE0 SHL DUP2 MSTORE PUSH1 0x4 SWAP1 REVERT JUMPDEST CALLVALUE PUSH2 0x2EE JUMPI PUSH1 0x40 CALLDATASIZE PUSH1 0x3 NOT ADD SLT PUSH2 0x2EE JUMPI PUSH2 0x28E9 PUSH2 0x2F5D JUMP JUMPDEST CALLER PUSH1 0x1 PUSH1 0x1 PUSH1 0xA0 SHL SUB DUP3 AND SUB PUSH2 0x2905 JUMPI PUSH2 0x403 SWAP1 PUSH1 0x4 CALLDATALOAD PUSH2 0x360A JUMP JUMPDEST PUSH1 0x40 MLOAD PUSH4 0x334BD919 PUSH1 0xE1 SHL DUP2 MSTORE PUSH1 0x4 SWAP1 REVERT JUMPDEST CALLVALUE PUSH2 0x2EE JUMPI PUSH1 0x40 CALLDATASIZE PUSH1 0x3 NOT ADD SLT PUSH2 0x2EE JUMPI PUSH1 0x20 PUSH2 0x1B5F PUSH2 0x2935 PUSH2 0x2F47 JUMP JUMPDEST PUSH1 0x24 CALLDATALOAD SWAP1 PUSH2 0x3BC6 JUMP JUMPDEST CALLVALUE PUSH2 0x2EE JUMPI PUSH1 0x40 CALLDATASIZE PUSH1 0x3 NOT ADD SLT PUSH2 0x2EE JUMPI PUSH2 0x403 PUSH1 0x4 CALLDATALOAD PUSH2 0x295D PUSH2 0x2F5D JUMP JUMPDEST SWAP1 DUP1 PUSH1 0x0 MSTORE PUSH1 0x0 DUP1 MLOAD PUSH1 0x20 PUSH2 0x449F DUP4 CODECOPY DUP2 MLOAD SWAP2 MSTORE PUSH1 0x20 MSTORE PUSH2 0x2985 PUSH1 0x1 PUSH1 0x40 PUSH1 0x0 KECCAK256 ADD SLOAD PUSH2 0x337A JUMP JUMPDEST PUSH2 0x3595 JUMP JUMPDEST CALLVALUE PUSH2 0x2EE JUMPI PUSH1 0x20 CALLDATASIZE PUSH1 0x3 NOT ADD SLT PUSH2 0x2EE JUMPI PUSH1 0x4 CALLDATALOAD PUSH1 0x0 MSTORE PUSH1 0x0 DUP1 MLOAD PUSH1 0x20 PUSH2 0x449F DUP4 CODECOPY DUP2 MLOAD SWAP2 MSTORE PUSH1 0x20 MSTORE PUSH1 0x20 PUSH1 0x1 PUSH1 0x40 PUSH1 0x0 KECCAK256 ADD SLOAD PUSH1 0x40 MLOAD SWAP1 DUP2 MSTORE RETURN JUMPDEST CALLVALUE PUSH2 0x2EE JUMPI PUSH2 0x403 PUSH2 0x29D7 CALLDATASIZE PUSH2 0x3150 JUMP JUMPDEST SWAP2 PUSH2 0x36C2 JUMP JUMPDEST CALLVALUE PUSH2 0x2EE JUMPI PUSH1 0x0 CALLDATASIZE PUSH1 0x3 NOT ADD SLT PUSH2 0x2EE JUMPI PUSH1 0x20 PUSH1 0x0 DUP1 MLOAD PUSH1 0x20 PUSH2 0x445F DUP4 CODECOPY DUP2 MLOAD SWAP2 MSTORE SLOAD PUSH1 0x40 MLOAD SWAP1 DUP2 MSTORE RETURN JUMPDEST CALLVALUE PUSH2 0x2EE JUMPI PUSH1 0x20 CALLDATASIZE PUSH1 0x3 NOT ADD SLT PUSH2 0x2EE JUMPI PUSH1 0x4 CALLDATALOAD PUSH1 0x0 MSTORE PUSH1 0x2 PUSH1 0x20 MSTORE PUSH1 0x40 PUSH1 0x0 KECCAK256 DUP1 SLOAD PUSH1 0x1 DUP3 ADD SLOAD SWAP2 PUSH2 0x2A9B PUSH1 0x2 DUP3 ADD SLOAD SWAP2 PUSH1 0xFF DUP4 PUSH1 0xA0 SHR AND PUSH1 0x5 PUSH1 0x40 MLOAD SWAP3 PUSH2 0x2A5F DUP5 PUSH2 0x2A58 DUP2 PUSH1 0x4 DUP6 ADD PUSH2 0x3028 JUMP JUMPDEST SUB DUP6 PUSH2 0x310F JUMP JUMPDEST ADD SLOAD SWAP4 PUSH1 0x40 MLOAD SWAP7 DUP8 SWAP7 DUP8 MSTORE PUSH1 0x20 DUP8 ADD MSTORE PUSH1 0x1 DUP1 PUSH1 0xA0 SHL SUB AND PUSH1 0x40 DUP7 ADD MSTORE PUSH2 0x2A85 DUP2 PUSH2 0x3130 JUMP JUMPDEST PUSH1 0x60 DUP6 ADD MSTORE PUSH1 0xC0 PUSH1 0x80 DUP6 ADD MSTORE PUSH1 0xC0 DUP5 ADD SWAP1 PUSH2 0x2FAE JUMP JUMPDEST SWAP1 PUSH1 0xA0 DUP4 ADD MSTORE SUB SWAP1 RETURN JUMPDEST CALLVALUE PUSH2 0x2EE JUMPI PUSH1 0x40 CALLDATASIZE PUSH1 0x3 NOT ADD SLT PUSH2 0x2EE JUMPI PUSH2 0x2ABE PUSH2 0x2F47 JUMP JUMPDEST PUSH1 0x24 CALLDATALOAD PUSH2 0x2ACA DUP2 PUSH2 0x3A0F JUMP JUMPDEST CALLER ISZERO ISZERO DUP1 PUSH2 0x2B79 JUMPI JUMPDEST DUP1 PUSH2 0x2B59 JUMPI JUMPDEST PUSH2 0x2B41 JUMPI PUSH1 0x1 PUSH1 0x1 PUSH1 0xA0 SHL SUB SWAP3 DUP4 AND SWAP3 DUP3 SWAP2 DUP5 SWAP2 AND PUSH32 0x8C5BE1E5EBEC7D5BD14F71427D1E84F3DD0314C0F7B2291E5B200AC8C7C3B925 PUSH1 0x0 DUP1 LOG4 PUSH1 0x0 SWAP1 DUP2 MSTORE PUSH1 0x0 DUP1 MLOAD PUSH1 0x20 PUSH2 0x44FF DUP4 CODECOPY DUP2 MLOAD SWAP2 MSTORE PUSH1 0x20 MSTORE PUSH1 0x40 SWAP1 KECCAK256 DUP1 SLOAD PUSH1 0x1 PUSH1 0x1 PUSH1 0xA0 SHL SUB NOT AND SWAP1 SWAP2 OR SWAP1 SSTORE STOP JUMPDEST PUSH1 0x40 MLOAD PUSH4 0xA9FBF51F PUSH1 0xE0 SHL DUP2 MSTORE CALLER PUSH1 0x4 DUP3 ADD MSTORE PUSH1 0x24 SWAP1 REVERT JUMPDEST POP PUSH2 0x2B63 DUP2 PUSH2 0x3185 JUMP JUMPDEST CALLER PUSH1 0x0 MSTORE PUSH1 0x20 MSTORE PUSH1 0xFF PUSH1 0x40 PUSH1 0x0 KECCAK256 SLOAD AND ISZERO PUSH2 0x2AD9 JUMP JUMPDEST POP PUSH1 0x1 PUSH1 0x1 PUSH1 0xA0 SHL SUB DUP2 AND CALLER EQ ISZERO PUSH2 0x2AD3 JUMP JUMPDEST CALLVALUE PUSH2 0x2EE JUMPI PUSH1 0x20 CALLDATASIZE PUSH1 0x3 NOT ADD SLT PUSH2 0x2EE JUMPI PUSH1 0x4 CALLDATALOAD PUSH2 0x2BA9 DUP2 PUSH2 0x3A0F JUMP JUMPDEST POP PUSH1 0x0 MSTORE PUSH1 0x0 DUP1 MLOAD PUSH1 0x20 PUSH2 0x44FF DUP4 CODECOPY DUP2 MLOAD SWAP2 MSTORE PUSH1 0x20 MSTORE PUSH1 0x20 PUSH1 0x1 DUP1 PUSH1 0xA0 SHL SUB PUSH1 0x40 PUSH1 0x0 KECCAK256 SLOAD AND PUSH1 0x40 MLOAD SWAP1 DUP2 MSTORE RETURN JUMPDEST CALLVALUE PUSH2 0x2EE JUMPI PUSH1 0x0 CALLDATASIZE PUSH1 0x3 NOT ADD SLT PUSH2 0x2EE JUMPI PUSH1 0x40 MLOAD PUSH1 0x0 PUSH1 0x0 DUP1 MLOAD PUSH1 0x20 PUSH2 0x43FF DUP4 CODECOPY DUP2 MLOAD SWAP2 MSTORE DUP1 SLOAD PUSH2 0x2C07 DUP2 PUSH2 0x2FEE JUMP JUMPDEST DUP1 DUP6 MSTORE SWAP2 PUSH1 0x1 SWAP2 DUP1 DUP4 AND SWAP1 DUP2 ISZERO PUSH2 0xD65 JUMPI POP PUSH1 0x1 EQ PUSH2 0x2C30 JUMPI PUSH2 0x2D3 DUP6 PUSH2 0x4D4 DUP2 DUP8 SUB DUP3 PUSH2 0x310F JUMP JUMPDEST PUSH1 0x0 SWAP1 DUP2 MSTORE SWAP3 POP PUSH32 0x37C58C799B6609234B945E882912EE9AD34948A1DFAA20A97485E1A7752BBF81 JUMPDEST DUP3 DUP5 LT PUSH2 0x2C74 JUMPI POP POP POP DUP2 ADD PUSH1 0x20 ADD PUSH2 0x4D4 DUP3 PUSH2 0x2D3 PUSH2 0xCF9 JUMP JUMPDEST DUP1 SLOAD PUSH1 0x20 DUP6 DUP8 ADD DUP2 ADD SWAP2 SWAP1 SWAP2 MSTORE SWAP1 SWAP4 ADD SWAP3 DUP2 ADD PUSH2 0x2C59 JUMP JUMPDEST CALLVALUE PUSH2 0x2EE JUMPI PUSH1 0x40 CALLDATASIZE PUSH1 0x3 NOT ADD SLT PUSH2 0x2EE JUMPI PUSH1 0x4 CALLDATALOAD PUSH2 0x2CA8 PUSH2 0x2F5D JUMP JUMPDEST SWAP1 PUSH2 0x2CB2 DUP2 PUSH2 0x3A57 JUMP JUMPDEST PUSH1 0x1 PUSH1 0x1 PUSH1 0xA0 SHL SUB SWAP1 CALLER SWAP1 DUP3 AND SUB PUSH2 0x2E0B JUMPI DUP2 PUSH1 0x0 MSTORE PUSH1 0x2 SWAP3 PUSH1 0x20 DUP5 DUP2 MSTORE PUSH1 0x40 PUSH1 0x0 KECCAK256 SLOAD TIMESTAMP GT ISZERO PUSH2 0x2DD3 JUMPI DUP4 PUSH1 0x0 MSTORE DUP5 DUP2 MSTORE PUSH1 0x1 PUSH1 0xFF DUP7 PUSH1 0x40 PUSH1 0x0 KECCAK256 ADD SLOAD PUSH1 0xA0 SHR AND PUSH2 0x2CFD DUP2 PUSH2 0x3130 JUMP JUMPDEST SUB PUSH2 0x2D7C JUMPI PUSH1 0x0 DUP5 DUP2 MSTORE DUP6 DUP3 MSTORE PUSH1 0x40 SWAP1 KECCAK256 DUP1 DUP7 ADD DUP1 SLOAD PUSH1 0xFF PUSH1 0xA0 SHL NOT DUP2 AND PUSH1 0x3 PUSH1 0xA0 SHL OR SWAP1 SWAP2 SSTORE DUP5 AND ISZERO PUSH2 0x106D JUMPI POP PUSH1 0x0 DUP5 DUP2 MSTORE DUP6 DUP3 MSTORE PUSH1 0x40 DUP1 DUP3 KECCAK256 DUP1 DUP9 ADD SLOAD PUSH1 0x1 SWAP1 SWAP2 ADD SLOAD SWAP2 MLOAD PUSH4 0xA9059CBB PUSH1 0xE0 SHL DUP2 MSTORE PUSH1 0x1 PUSH1 0x1 PUSH1 0xA0 SHL SUB DUP7 AND PUSH1 0x4 DUP3 ADD MSTORE PUSH1 0x24 DUP2 ADD SWAP3 SWAP1 SWAP3 MSTORE SWAP1 SWAP2 DUP4 SWAP2 DUP4 SWAP2 SWAP1 DUP8 AND SWAP1 DUP3 SWAP1 DUP2 PUSH1 0x44 DUP2 ADD PUSH2 0xFCF JUMP JUMPDEST PUSH1 0x84 SWAP1 PUSH1 0x40 MLOAD SWAP1 PUSH3 0x461BCD PUSH1 0xE5 SHL DUP3 MSTORE PUSH1 0x4 DUP3 ADD MSTORE PUSH1 0x2A PUSH1 0x24 DUP3 ADD MSTORE PUSH32 0x546F6B656E536166653A205361666520616C726561647920636C61696D656420 PUSH1 0x44 DUP3 ADD MSTORE PUSH10 0x1BDC88195E1C1A5C9959 PUSH1 0xB2 SHL PUSH1 0x64 DUP3 ADD MSTORE REVERT JUMPDEST PUSH1 0x64 SWAP1 PUSH1 0x40 MLOAD SWAP1 PUSH3 0x461BCD PUSH1 0xE5 SHL DUP3 MSTORE PUSH1 0x4 DUP3 ADD MSTORE PUSH1 0x11 PUSH1 0x24 DUP3 ADD MSTORE PUSH17 0x14D859994E88139BDD08115E1C1A5C9959 PUSH1 0x7A SHL PUSH1 0x44 DUP3 ADD MSTORE REVERT JUMPDEST PUSH1 0x40 MLOAD PUSH3 0x461BCD PUSH1 0xE5 SHL DUP2 MSTORE PUSH1 0x20 PUSH1 0x4 DUP3 ADD MSTORE PUSH1 0x14 PUSH1 0x24 DUP3 ADD MSTORE PUSH20 0x2A37B5B2B729B0B3329D102737BA1027BBB732B9 PUSH1 0x61 SHL PUSH1 0x44 DUP3 ADD MSTORE PUSH1 0x64 SWAP1 REVERT JUMPDEST CALLVALUE PUSH2 0x2EE JUMPI PUSH1 0x20 CALLDATASIZE PUSH1 0x3 NOT ADD SLT PUSH2 0x2EE JUMPI PUSH2 0x2E60 PUSH2 0x2F47 JUMP JUMPDEST PUSH2 0x2E69 DUP2 PUSH2 0x368D JUMP JUMPDEST PUSH2 0x2E72 DUP2 PUSH2 0x40B4 JUMP JUMPDEST SWAP2 PUSH1 0x0 JUMPDEST DUP3 DUP2 LT PUSH2 0x2E8B JUMPI PUSH1 0x40 MLOAD DUP1 PUSH2 0x2D3 DUP7 DUP3 PUSH2 0x2F73 JUMP JUMPDEST DUP1 PUSH2 0x2E99 PUSH2 0x2EA3 SWAP3 DUP5 PUSH2 0x3BC6 JUMP JUMPDEST PUSH2 0xE7D DUP3 DUP8 PUSH2 0x40E6 JUMP JUMPDEST PUSH2 0x2E76 JUMP JUMPDEST CALLVALUE PUSH2 0x2EE JUMPI PUSH1 0x20 CALLDATASIZE PUSH1 0x3 NOT ADD SLT PUSH2 0x2EE JUMPI PUSH1 0x4 CALLDATALOAD SWAP1 PUSH4 0xFFFFFFFF PUSH1 0xE0 SHL DUP3 AND DUP1 SWAP3 SUB PUSH2 0x2EE JUMPI PUSH1 0x20 SWAP2 PUSH4 0x7965DB0B PUSH1 0xE0 SHL DUP2 EQ SWAP1 DUP2 ISZERO PUSH2 0x2EEA JUMPI JUMPDEST POP ISZERO ISZERO DUP2 MSTORE RETURN JUMPDEST PUSH4 0x780E9D63 PUSH1 0xE0 SHL DUP2 EQ SWAP2 POP DUP2 ISZERO PUSH2 0x2F04 JUMPI JUMPDEST POP DUP4 PUSH2 0x2EE3 JUMP JUMPDEST PUSH4 0x80AC58CD PUSH1 0xE0 SHL DUP2 EQ SWAP2 POP DUP2 ISZERO PUSH2 0x2F36 JUMPI JUMPDEST DUP2 ISZERO PUSH2 0x2F25 JUMPI JUMPDEST POP DUP4 PUSH2 0x2EFD JUMP JUMPDEST PUSH4 0x1FFC9A7 PUSH1 0xE0 SHL EQ SWAP1 POP DUP4 PUSH2 0x2F1E JUMP JUMPDEST PUSH4 0x5B5E139F PUSH1 0xE0 SHL DUP2 EQ SWAP2 POP PUSH2 0x2F17 JUMP JUMPDEST PUSH1 0x4 CALLDATALOAD SWAP1 PUSH1 0x1 PUSH1 0x1 PUSH1 0xA0 SHL SUB DUP3 AND DUP3 SUB PUSH2 0x2EE JUMPI JUMP JUMPDEST PUSH1 0x24 CALLDATALOAD SWAP1 PUSH1 0x1 PUSH1 0x1 PUSH1 0xA0 SHL SUB DUP3 AND DUP3 SUB PUSH2 0x2EE JUMPI JUMP JUMPDEST PUSH1 0x20 SWAP1 DUP2 PUSH1 0x40 DUP2 DUP4 ADD SWAP3 DUP3 DUP2 MSTORE DUP6 MLOAD DUP1 SWAP5 MSTORE ADD SWAP4 ADD SWAP2 PUSH1 0x0 JUMPDEST DUP3 DUP2 LT PUSH2 0x2F9A JUMPI POP POP POP POP SWAP1 JUMP JUMPDEST DUP4 MLOAD DUP6 MSTORE SWAP4 DUP2 ADD SWAP4 SWAP3 DUP2 ADD SWAP3 PUSH1 0x1 ADD PUSH2 0x2F8C JUMP JUMPDEST SWAP2 SWAP1 DUP3 MLOAD SWAP3 DUP4 DUP3 MSTORE PUSH1 0x0 JUMPDEST DUP5 DUP2 LT PUSH2 0x2FDA JUMPI POP POP DUP3 PUSH1 0x0 PUSH1 0x20 DUP1 SWAP5 SWAP6 DUP5 ADD ADD MSTORE PUSH1 0x1F DUP1 NOT SWAP2 ADD AND ADD ADD SWAP1 JUMP JUMPDEST PUSH1 0x20 DUP2 DUP4 ADD DUP2 ADD MLOAD DUP5 DUP4 ADD DUP3 ADD MSTORE ADD PUSH2 0x2FB9 JUMP JUMPDEST SWAP1 PUSH1 0x1 DUP3 DUP2 SHR SWAP3 AND DUP1 ISZERO PUSH2 0x301E JUMPI JUMPDEST PUSH1 0x20 DUP4 LT EQ PUSH2 0x3008 JUMPI JUMP JUMPDEST PUSH4 0x4E487B71 PUSH1 0xE0 SHL PUSH1 0x0 MSTORE PUSH1 0x22 PUSH1 0x4 MSTORE PUSH1 0x24 PUSH1 0x0 REVERT JUMPDEST SWAP2 PUSH1 0x7F AND SWAP2 PUSH2 0x2FFD JUMP JUMPDEST SWAP1 PUSH1 0x0 SWAP3 SWAP2 DUP1 SLOAD SWAP2 PUSH2 0x3039 DUP4 PUSH2 0x2FEE JUMP JUMPDEST SWAP2 DUP3 DUP3 MSTORE PUSH1 0x1 SWAP4 DUP5 DUP2 AND SWAP1 DUP2 PUSH1 0x0 EQ PUSH2 0x309B JUMPI POP PUSH1 0x1 EQ PUSH2 0x305B JUMPI JUMPDEST POP POP POP POP JUMP JUMPDEST SWAP1 SWAP2 SWAP4 SWAP5 POP PUSH1 0x0 MSTORE PUSH1 0x20 SWAP3 DUP4 PUSH1 0x0 KECCAK256 SWAP3 DUP5 PUSH1 0x0 SWAP5 JUMPDEST DUP4 DUP7 LT PUSH2 0x3087 JUMPI POP POP POP POP ADD ADD SWAP1 CODESIZE DUP1 DUP1 DUP1 PUSH2 0x3055 JUMP JUMPDEST DUP1 SLOAD DUP6 DUP8 ADD DUP4 ADD MSTORE SWAP5 ADD SWAP4 DUP6 SWAP1 DUP3 ADD PUSH2 0x3070 JUMP JUMPDEST SWAP3 SWAP5 POP POP POP PUSH1 0x20 SWAP4 SWAP5 POP PUSH1 0xFF NOT AND DUP4 DUP4 ADD MSTORE ISZERO ISZERO PUSH1 0x5 SHL ADD ADD SWAP1 CODESIZE DUP1 DUP1 DUP1 PUSH2 0x3055 JUMP JUMPDEST PUSH1 0xE0 DUP2 ADD SWAP1 DUP2 LT PUSH1 0x1 PUSH1 0x1 PUSH1 0x40 SHL SUB DUP3 GT OR PUSH2 0x1722 JUMPI PUSH1 0x40 MSTORE JUMP JUMPDEST PUSH1 0x20 DUP2 ADD SWAP1 DUP2 LT PUSH1 0x1 PUSH1 0x1 PUSH1 0x40 SHL SUB DUP3 GT OR PUSH2 0x1722 JUMPI PUSH1 0x40 MSTORE JUMP JUMPDEST PUSH1 0x40 DUP2 ADD SWAP1 DUP2 LT PUSH1 0x1 PUSH1 0x1 PUSH1 0x40 SHL SUB DUP3 GT OR PUSH2 0x1722 JUMPI PUSH1 0x40 MSTORE JUMP JUMPDEST SWAP1 PUSH1 0x1F DUP1 NOT SWAP2 ADD AND DUP2 ADD SWAP1 DUP2 LT PUSH1 0x1 PUSH1 0x1 PUSH1 0x40 SHL SUB DUP3 GT OR PUSH2 0x1722 JUMPI PUSH1 0x40 MSTORE JUMP JUMPDEST PUSH1 0x4 GT ISZERO PUSH2 0x313A JUMPI JUMP JUMPDEST PUSH4 0x4E487B71 PUSH1 0xE0 SHL PUSH1 0x0 MSTORE PUSH1 0x21 PUSH1 0x4 MSTORE PUSH1 0x24 PUSH1 0x0 REVERT JUMPDEST PUSH1 0x60 SWAP1 PUSH1 0x3 NOT ADD SLT PUSH2 0x2EE JUMPI PUSH1 0x1 PUSH1 0x1 PUSH1 0xA0 SHL SUB SWAP1 PUSH1 0x4 CALLDATALOAD DUP3 DUP2 AND DUP2 SUB PUSH2 0x2EE JUMPI SWAP2 PUSH1 0x24 CALLDATALOAD SWAP1 DUP2 AND DUP2 SUB PUSH2 0x2EE JUMPI SWAP1 PUSH1 0x44 CALLDATALOAD SWAP1 JUMP JUMPDEST PUSH1 0x1 PUSH1 0x1 PUSH1 0xA0 SHL SUB AND PUSH1 0x0 SWAP1 DUP2 MSTORE PUSH32 0x80BB2B638CC20BC4D0A60D66940F3AB4A00C1D7B313497CA82FB0B4AB0079305 PUSH1 0x20 MSTORE PUSH1 0x40 SWAP1 KECCAK256 SWAP1 JUMP JUMPDEST PUSH1 0x1 PUSH1 0x1 PUSH1 0xA0 SHL SUB AND PUSH1 0x0 SWAP1 DUP2 MSTORE PUSH32 0x80BB2B638CC20BC4D0A60D66940F3AB4A00C1D7B313497CA82FB0B4AB0079303 PUSH1 0x20 MSTORE PUSH1 0x40 SWAP1 KECCAK256 SWAP1 JUMP JUMPDEST PUSH1 0x0 DUP1 MLOAD PUSH1 0x20 PUSH2 0x445F DUP4 CODECOPY DUP2 MLOAD SWAP2 MSTORE DUP1 SLOAD DUP3 LT ISZERO PUSH2 0x323A JUMPI PUSH1 0x0 MSTORE PUSH32 0xA42F15E5D656F8155FD7419D740A6073999F19CD6E061449CE4A257150545BF2 ADD SWAP1 PUSH1 0x0 SWAP1 JUMP JUMPDEST PUSH4 0x4E487B71 PUSH1 0xE0 SHL PUSH1 0x0 MSTORE PUSH1 0x32 PUSH1 0x4 MSTORE PUSH1 0x24 PUSH1 0x0 REVERT JUMPDEST DUP1 SLOAD DUP3 LT ISZERO PUSH2 0x323A JUMPI PUSH1 0x0 MSTORE PUSH1 0x20 PUSH1 0x0 KECCAK256 ADD SWAP1 PUSH1 0x0 SWAP1 JUMP JUMPDEST PUSH1 0x1 PUSH1 0x1 PUSH1 0x40 SHL SUB DUP2 GT PUSH2 0x1722 JUMPI PUSH1 0x1F ADD PUSH1 0x1F NOT AND PUSH1 0x20 ADD SWAP1 JUMP JUMPDEST DUP2 PUSH1 0x1F DUP3 ADD SLT ISZERO PUSH2 0x2EE JUMPI DUP1 CALLDATALOAD SWAP1 PUSH2 0x329A DUP3 PUSH2 0x3268 JUMP JUMPDEST SWAP3 PUSH2 0x32A8 PUSH1 0x40 MLOAD SWAP5 DUP6 PUSH2 0x310F JUMP JUMPDEST DUP3 DUP5 MSTORE PUSH1 0x20 DUP4 DUP4 ADD ADD GT PUSH2 0x2EE JUMPI DUP2 PUSH1 0x0 SWAP3 PUSH1 0x20 DUP1 SWAP4 ADD DUP4 DUP7 ADD CALLDATACOPY DUP4 ADD ADD MSTORE SWAP1 JUMP JUMPDEST PUSH1 0x1 PUSH1 0x1 PUSH1 0x40 SHL SUB DUP2 GT PUSH2 0x1722 JUMPI PUSH1 0x5 SHL PUSH1 0x20 ADD SWAP1 JUMP JUMPDEST SWAP1 DUP2 MLOAD DUP1 DUP3 MSTORE PUSH1 0x20 DUP1 DUP1 SWAP4 ADD SWAP4 ADD SWAP2 PUSH1 0x0 JUMPDEST DUP3 DUP2 LT PUSH2 0x3301 JUMPI POP POP POP POP SWAP1 JUMP JUMPDEST DUP4 MLOAD PUSH1 0x1 PUSH1 0x1 PUSH1 0xA0 SHL SUB AND DUP6 MSTORE SWAP4 DUP2 ADD SWAP4 SWAP3 DUP2 ADD SWAP3 PUSH1 0x1 ADD PUSH2 0x32F3 JUMP JUMPDEST CALLER PUSH1 0x0 SWAP1 DUP2 MSTORE PUSH32 0x75442B0A96088B5456BC4ED01394C96A4FEEC0F883C9494257D76B96AB1C9B6B PUSH1 0x20 MSTORE PUSH1 0x40 SWAP1 KECCAK256 SLOAD PUSH32 0x65D7A28E3265B37A6474929F336521B332C1681B933F6CB9F3376673440D862A SWAP1 PUSH1 0xFF AND ISZERO PUSH2 0x1E7D JUMPI POP JUMP JUMPDEST DUP1 PUSH1 0x0 MSTORE PUSH1 0x0 DUP1 MLOAD PUSH1 0x20 PUSH2 0x449F DUP4 CODECOPY DUP2 MLOAD SWAP2 MSTORE PUSH1 0x20 MSTORE PUSH1 0x40 PUSH1 0x0 KECCAK256 CALLER PUSH1 0x0 MSTORE PUSH1 0x20 MSTORE PUSH1 0xFF PUSH1 0x40 PUSH1 0x0 KECCAK256 SLOAD AND ISZERO PUSH2 0x1E7D JUMPI POP JUMP JUMPDEST PUSH1 0x1 PUSH1 0x1 PUSH1 0xA0 SHL SUB AND PUSH1 0x0 DUP2 DUP2 MSTORE PUSH32 0xB7DB2DD08FCB62D0C9E08C51941CAE53C267786A0B75803FB7960902FC8EF97D PUSH1 0x20 MSTORE PUSH1 0x40 DUP2 KECCAK256 SLOAD SWAP1 SWAP2 SWAP1 PUSH1 0x0 DUP1 MLOAD PUSH1 0x20 PUSH2 0x449F DUP4 CODECOPY DUP2 MLOAD SWAP2 MSTORE SWAP1 PUSH1 0xFF AND PUSH2 0x3436 JUMPI DUP3 DUP1 MSTORE PUSH1 0x20 MSTORE PUSH1 0x40 DUP3 KECCAK256 DUP2 DUP4 MSTORE PUSH1 0x20 MSTORE PUSH1 0x40 DUP3 KECCAK256 PUSH1 0x1 PUSH1 0xFF NOT DUP3 SLOAD AND OR SWAP1 SSTORE CALLER SWAP2 PUSH1 0x0 DUP1 MLOAD PUSH1 0x20 PUSH2 0x439F DUP4 CODECOPY DUP2 MLOAD SWAP2 MSTORE DUP2 DUP1 LOG4 PUSH1 0x1 SWAP1 JUMP JUMPDEST POP POP SWAP1 JUMP JUMPDEST PUSH1 0x1 PUSH1 0x1 PUSH1 0xA0 SHL SUB AND PUSH1 0x0 DUP2 DUP2 MSTORE PUSH32 0xAB71E3F32666744D246EDFF3F96E4BDAFEE2E9867098CDD118A979A7464786A8 PUSH1 0x20 MSTORE PUSH1 0x40 DUP2 KECCAK256 SLOAD SWAP1 SWAP2 SWAP1 PUSH32 0x189AB7A9244DF0848122154315AF71FE140F3DB0FE014031783B0946B8C9D2E3 SWAP1 PUSH1 0x0 DUP1 MLOAD PUSH1 0x20 PUSH2 0x449F DUP4 CODECOPY DUP2 MLOAD SWAP2 MSTORE SWAP1 PUSH1 0xFF AND PUSH2 0x34E5 JUMPI DUP2 DUP5 MSTORE PUSH1 0x20 MSTORE PUSH1 0x40 DUP4 KECCAK256 DUP3 DUP5 MSTORE PUSH1 0x20 MSTORE PUSH1 0x40 DUP4 KECCAK256 PUSH1 0x1 PUSH1 0xFF NOT DUP3 SLOAD AND OR SWAP1 SSTORE PUSH1 0x0 DUP1 MLOAD PUSH1 0x20 PUSH2 0x439F DUP4 CODECOPY DUP2 MLOAD SWAP2 MSTORE CALLER SWAP4 DUP1 LOG4 PUSH1 0x1 SWAP1 JUMP JUMPDEST POP POP POP SWAP1 JUMP JUMPDEST PUSH1 0x1 PUSH1 0x1 PUSH1 0xA0 SHL SUB AND PUSH1 0x0 DUP2 DUP2 MSTORE PUSH32 0x549FE2656C81D2947B3B913F0A53B9EA86C71E049F3A1B8AA23C09A8A05CB8D4 PUSH1 0x20 MSTORE PUSH1 0x40 DUP2 KECCAK256 SLOAD SWAP1 SWAP2 SWAP1 PUSH32 0x9F2DF0FED2C77648DE5860A4CC508CD0818C85B8B8A1AB4CEEEF8D981C8956A6 SWAP1 PUSH1 0x0 DUP1 MLOAD PUSH1 0x20 PUSH2 0x449F DUP4 CODECOPY DUP2 MLOAD SWAP2 MSTORE SWAP1 PUSH1 0xFF AND PUSH2 0x34E5 JUMPI DUP2 DUP5 MSTORE PUSH1 0x20 MSTORE PUSH1 0x40 DUP4 KECCAK256 DUP3 DUP5 MSTORE PUSH1 0x20 MSTORE PUSH1 0x40 DUP4 KECCAK256 PUSH1 0x1 PUSH1 0xFF NOT DUP3 SLOAD AND OR SWAP1 SSTORE PUSH1 0x0 DUP1 MLOAD PUSH1 0x20 PUSH2 0x439F DUP4 CODECOPY DUP2 MLOAD SWAP2 MSTORE CALLER SWAP4 DUP1 LOG4 PUSH1 0x1 SWAP1 JUMP JUMPDEST SWAP1 PUSH1 0x0 SWAP2 DUP1 DUP4 MSTORE PUSH1 0x0 DUP1 MLOAD PUSH1 0x20 PUSH2 0x449F DUP4 CODECOPY DUP2 MLOAD SWAP2 MSTORE DUP1 PUSH1 0x20 MSTORE PUSH1 0x40 DUP5 KECCAK256 SWAP3 PUSH1 0x1 DUP1 PUSH1 0xA0 SHL SUB AND SWAP3 DUP4 DUP6 MSTORE PUSH1 0x20 MSTORE PUSH1 0xFF PUSH1 0x40 DUP6 KECCAK256 SLOAD AND ISZERO PUSH1 0x0 EQ PUSH2 0x34E5 JUMPI DUP2 DUP5 MSTORE PUSH1 0x20 MSTORE PUSH1 0x40 DUP4 KECCAK256 DUP3 DUP5 MSTORE PUSH1 0x20 MSTORE PUSH1 0x40 DUP4 KECCAK256 PUSH1 0x1 PUSH1 0xFF NOT DUP3 SLOAD AND OR SWAP1 SSTORE PUSH1 0x0 DUP1 MLOAD PUSH1 0x20 PUSH2 0x439F DUP4 CODECOPY DUP2 MLOAD SWAP2 MSTORE CALLER SWAP4 DUP1 LOG4 PUSH1 0x1 SWAP1 JUMP JUMPDEST SWAP1 PUSH1 0x0 SWAP2 DUP1 DUP4 MSTORE PUSH1 0x0 DUP1 MLOAD PUSH1 0x20 PUSH2 0x449F DUP4 CODECOPY DUP2 MLOAD SWAP2 MSTORE DUP1 PUSH1 0x20 MSTORE PUSH1 0x40 DUP5 KECCAK256 SWAP3 PUSH1 0x1 DUP1 PUSH1 0xA0 SHL SUB AND SWAP3 DUP4 DUP6 MSTORE PUSH1 0x20 MSTORE PUSH1 0xFF PUSH1 0x40 DUP6 KECCAK256 SLOAD AND PUSH1 0x0 EQ PUSH2 0x34E5 JUMPI DUP2 DUP5 MSTORE PUSH1 0x20 MSTORE PUSH1 0x40 DUP4 KECCAK256 DUP3 DUP5 MSTORE PUSH1 0x20 MSTORE PUSH1 0x40 DUP4 KECCAK256 PUSH1 0xFF NOT DUP2 SLOAD AND SWAP1 SSTORE PUSH32 0xF6391F5C32D9C69D2A47EA670B442974B53935D1EDC7FD64EB21E047A839171B CALLER SWAP4 DUP1 LOG4 PUSH1 0x1 SWAP1 JUMP JUMPDEST PUSH1 0x1 PUSH1 0x1 PUSH1 0xA0 SHL SUB DUP2 AND ISZERO PUSH2 0x36A9 JUMPI PUSH2 0x36A5 SWAP1 PUSH2 0x31BE JUMP JUMPDEST SLOAD SWAP1 JUMP JUMPDEST PUSH1 0x40 MLOAD PUSH4 0x22718AD9 PUSH1 0xE2 SHL DUP2 MSTORE PUSH1 0x0 PUSH1 0x4 DUP3 ADD MSTORE PUSH1 0x24 SWAP1 REVERT JUMPDEST PUSH1 0x1 PUSH1 0x1 PUSH1 0xA0 SHL SUB DUP3 DUP2 AND SWAP4 SWAP2 DUP5 ISZERO PUSH2 0x1A27 JUMPI PUSH1 0x0 SWAP5 DUP4 DUP7 MSTORE PUSH1 0x20 SWAP6 PUSH1 0x2 DUP8 MSTORE PUSH1 0x40 SWAP7 DUP8 DUP3 KECCAK256 SLOAD TIMESTAMP LT PUSH2 0x39A1 JUMPI PUSH2 0x36F7 PUSH2 0x3D37 JUMP JUMPDEST DUP6 DUP3 MSTORE PUSH1 0x0 DUP1 MLOAD PUSH1 0x20 PUSH2 0x44DF DUP4 CODECOPY DUP2 MLOAD SWAP2 MSTORE SWAP7 DUP8 DUP3 MSTORE DUP6 DUP10 DUP5 KECCAK256 SLOAD AND SWAP8 CALLER ISZERO ISZERO DUP1 PUSH2 0x3907 JUMPI JUMPDEST POP DUP9 ISZERO SWAP1 DUP2 ISZERO PUSH2 0x38E8 JUMPI JUMPDEST PUSH2 0x3731 DUP4 PUSH2 0x31BE JUMP JUMPDEST DUP1 SLOAD PUSH1 0x1 ADD SWAP1 SSTORE DUP9 DUP6 MSTORE DUP4 MSTORE DUP10 DUP5 KECCAK256 DUP1 SLOAD PUSH1 0x1 PUSH1 0x1 PUSH1 0xA0 SHL SUB NOT AND DUP7 OR SWAP1 SSTORE DUP8 DUP6 DUP11 PUSH1 0x0 DUP1 MLOAD PUSH1 0x20 PUSH2 0x447F DUP4 CODECOPY DUP2 MLOAD SWAP2 MSTORE DUP8 DUP1 LOG4 ISZERO PUSH2 0x3843 JUMPI PUSH1 0x0 DUP1 MLOAD PUSH1 0x20 PUSH2 0x445F DUP4 CODECOPY DUP2 MLOAD SWAP2 MSTORE SLOAD DUP8 DUP5 MSTORE PUSH1 0x0 DUP1 MLOAD PUSH1 0x20 PUSH2 0x443F DUP4 CODECOPY DUP2 MLOAD SWAP2 MSTORE DUP4 MSTORE DUP10 DUP5 KECCAK256 SSTORE PUSH2 0x379B DUP8 PUSH2 0x3DC4 JUMP JUMPDEST DUP4 DUP9 SUB PUSH2 0x37D7 JUMPI JUMPDEST POP POP POP POP AND SWAP3 DUP4 DUP4 SUB PUSH2 0x37B6 JUMPI POP POP POP POP JUMP JUMPDEST PUSH1 0x64 SWAP5 POP MLOAD SWAP3 PUSH4 0x64283D7B PUSH1 0xE0 SHL DUP5 MSTORE PUSH1 0x4 DUP5 ADD MSTORE PUSH1 0x24 DUP4 ADD MSTORE PUSH1 0x44 DUP3 ADD MSTORE REVERT JUMPDEST PUSH2 0x37E0 SWAP1 PUSH2 0x368D JUMP JUMPDEST PUSH1 0x0 NOT DUP2 ADD SWAP4 SWAP1 DUP5 GT PUSH2 0x382F JUMPI DUP3 SWAP2 PUSH1 0x0 DUP1 MLOAD PUSH1 0x20 PUSH2 0x43BF DUP4 CODECOPY DUP2 MLOAD SWAP2 MSTORE SWAP2 DUP11 SWAP5 MSTORE PUSH1 0x0 DUP1 MLOAD PUSH1 0x20 PUSH2 0x43DF DUP4 CODECOPY DUP2 MLOAD SWAP2 MSTORE DUP2 MSTORE DUP4 DUP4 KECCAK256 DUP6 DUP5 MSTORE DUP2 MSTORE DUP8 DUP5 DUP5 KECCAK256 SSTORE DUP8 DUP4 MSTORE MSTORE KECCAK256 SSTORE CODESIZE DUP1 DUP1 DUP1 PUSH2 0x37A3 JUMP JUMPDEST PUSH4 0x4E487B71 PUSH1 0xE0 SHL DUP4 MSTORE PUSH1 0x11 PUSH1 0x4 MSTORE PUSH1 0x24 DUP4 REVERT JUMPDEST DUP8 DUP5 EQ PUSH2 0x379B JUMPI PUSH2 0x3853 DUP9 PUSH2 0x368D JUMP JUMPDEST DUP8 DUP5 MSTORE PUSH1 0x0 DUP1 MLOAD PUSH1 0x20 PUSH2 0x43BF DUP4 CODECOPY DUP2 MLOAD SWAP2 MSTORE DUP1 DUP5 MSTORE DUP11 DUP6 KECCAK256 SLOAD SWAP1 DUP3 DUP3 SUB PUSH2 0x38A5 JUMPI JUMPDEST POP POP DUP8 DUP5 MSTORE DUP4 DUP11 DUP2 KECCAK256 SSTORE DUP9 DUP5 MSTORE PUSH1 0x0 DUP1 MLOAD PUSH1 0x20 PUSH2 0x43DF DUP4 CODECOPY DUP2 MLOAD SWAP2 MSTORE DUP4 MSTORE DUP10 DUP5 KECCAK256 SWAP1 DUP5 MSTORE DUP3 MSTORE DUP3 DUP10 DUP2 KECCAK256 SSTORE PUSH2 0x379B JUMP JUMPDEST DUP11 DUP7 MSTORE PUSH1 0x0 DUP1 MLOAD PUSH1 0x20 PUSH2 0x43DF DUP4 CODECOPY DUP2 MLOAD SWAP2 MSTORE DUP1 DUP7 MSTORE DUP13 DUP8 KECCAK256 DUP5 DUP9 MSTORE DUP7 MSTORE DUP13 DUP8 KECCAK256 SLOAD SWAP1 DUP13 DUP9 MSTORE DUP7 MSTORE DUP13 DUP8 KECCAK256 DUP4 DUP9 MSTORE DUP7 MSTORE DUP1 DUP14 DUP9 KECCAK256 SSTORE DUP7 MSTORE DUP5 MSTORE DUP11 DUP6 KECCAK256 SSTORE CODESIZE DUP1 PUSH2 0x3875 JUMP JUMPDEST PUSH2 0x38F1 DUP10 PUSH2 0x39DE JUMP JUMPDEST PUSH2 0x38FA DUP11 PUSH2 0x31BE JUMP JUMPDEST DUP1 SLOAD PUSH1 0x0 NOT ADD SWAP1 SSTORE PUSH2 0x3728 JUMP JUMPDEST DUP1 PUSH2 0x3954 JUMPI JUMPDEST ISZERO PUSH2 0x3918 JUMPI CODESIZE PUSH2 0x371D JUMP JUMPDEST DUP10 DUP9 DUP11 PUSH2 0x3935 JUMPI PUSH1 0x24 SWAP2 MLOAD SWAP1 PUSH4 0x7E273289 PUSH1 0xE0 SHL DUP3 MSTORE PUSH1 0x4 DUP3 ADD MSTORE REVERT JUMPDEST SWAP1 MLOAD PUSH4 0x177E802F PUSH1 0xE0 SHL DUP2 MSTORE CALLER PUSH1 0x4 DUP3 ADD MSTORE PUSH1 0x24 DUP2 ADD SWAP2 SWAP1 SWAP2 MSTORE PUSH1 0x44 SWAP1 REVERT JUMPDEST POP CALLER DUP10 EQ DUP1 ISZERO PUSH2 0x3986 JUMPI JUMPDEST DUP1 PUSH2 0x390D JUMPI POP DUP8 DUP5 MSTORE PUSH1 0x0 DUP1 MLOAD PUSH1 0x20 PUSH2 0x44FF DUP4 CODECOPY DUP2 MLOAD SWAP2 MSTORE DUP4 MSTORE CALLER DUP8 DUP12 DUP7 KECCAK256 SLOAD AND EQ PUSH2 0x390D JUMP JUMPDEST POP PUSH2 0x3990 DUP10 PUSH2 0x3185 JUMP JUMPDEST CALLER DUP6 MSTORE DUP4 MSTORE PUSH1 0xFF DUP11 DUP6 KECCAK256 SLOAD AND PUSH2 0x395F JUMP JUMPDEST PUSH1 0x84 SWAP1 DUP9 MLOAD SWAP1 PUSH3 0x461BCD PUSH1 0xE5 SHL DUP3 MSTORE PUSH1 0x4 DUP3 ADD MSTORE PUSH1 0x24 DUP1 DUP3 ADD MSTORE PUSH1 0x0 DUP1 MLOAD PUSH1 0x20 PUSH2 0x441F DUP4 CODECOPY DUP2 MLOAD SWAP2 MSTORE PUSH1 0x44 DUP3 ADD MSTORE PUSH4 0x61626C65 PUSH1 0xE0 SHL PUSH1 0x64 DUP3 ADD MSTORE REVERT JUMPDEST PUSH1 0x0 MSTORE PUSH1 0x0 DUP1 MLOAD PUSH1 0x20 PUSH2 0x44FF DUP4 CODECOPY DUP2 MLOAD SWAP2 MSTORE PUSH1 0x20 MSTORE PUSH1 0x40 PUSH1 0x0 KECCAK256 PUSH12 0xFFFFFFFFFFFFFFFFFFFFFFFF PUSH1 0xA0 SHL DUP2 SLOAD AND SWAP1 SSTORE JUMP JUMPDEST PUSH1 0x0 DUP2 DUP2 MSTORE PUSH1 0x0 DUP1 MLOAD PUSH1 0x20 PUSH2 0x44DF DUP4 CODECOPY DUP2 MLOAD SWAP2 MSTORE PUSH1 0x20 MSTORE PUSH1 0x40 SWAP1 KECCAK256 SLOAD PUSH1 0x1 PUSH1 0x1 PUSH1 0xA0 SHL SUB AND SWAP1 DUP2 ISZERO PUSH2 0x3A3F JUMPI POP SWAP1 JUMP JUMPDEST PUSH1 0x24 SWAP1 PUSH1 0x40 MLOAD SWAP1 PUSH4 0x7E273289 PUSH1 0xE0 SHL DUP3 MSTORE PUSH1 0x4 DUP3 ADD MSTORE REVERT JUMPDEST PUSH1 0x0 SWAP1 DUP2 MSTORE PUSH1 0x0 DUP1 MLOAD PUSH1 0x20 PUSH2 0x44DF DUP4 CODECOPY DUP2 MLOAD SWAP2 MSTORE PUSH1 0x20 MSTORE PUSH1 0x40 SWAP1 KECCAK256 SLOAD PUSH1 0x1 PUSH1 0x1 PUSH1 0xA0 SHL SUB AND SWAP1 JUMP JUMPDEST RETURNDATASIZE ISZERO PUSH2 0x3AAA JUMPI RETURNDATASIZE SWAP1 PUSH2 0x3A90 DUP3 PUSH2 0x3268 JUMP JUMPDEST SWAP2 PUSH2 0x3A9E PUSH1 0x40 MLOAD SWAP4 DUP5 PUSH2 0x310F JUMP JUMPDEST DUP3 MSTORE RETURNDATASIZE PUSH1 0x0 PUSH1 0x20 DUP5 ADD RETURNDATACOPY JUMP JUMPDEST PUSH1 0x60 SWAP1 JUMP JUMPDEST SWAP2 SWAP1 DUP1 EXTCODESIZE PUSH2 0x3ABD JUMPI POP POP POP POP JUMP JUMPDEST PUSH2 0x3AFF PUSH1 0x1 DUP1 PUSH1 0xA0 SHL SUB DUP1 SWAP3 AND SWAP5 PUSH1 0x40 MLOAD SWAP4 DUP5 SWAP4 PUSH4 0xA85BD01 PUSH1 0xE1 SHL SWAP7 DUP8 DUP7 MSTORE CALLER PUSH1 0x4 DUP8 ADD MSTORE AND PUSH1 0x24 DUP6 ADD MSTORE PUSH1 0x44 DUP5 ADD MSTORE PUSH1 0x80 PUSH1 0x64 DUP5 ADD MSTORE PUSH1 0x84 DUP4 ADD SWAP1 PUSH2 0x2FAE JUMP JUMPDEST SUB SWAP1 PUSH1 0x20 DUP2 PUSH1 0x0 SWAP4 DUP2 DUP6 DUP9 GAS CALL SWAP1 DUP3 SWAP1 DUP3 PUSH2 0x3B77 JUMPI JUMPDEST POP POP PUSH2 0x3B46 JUMPI DUP3 PUSH2 0x3B24 PUSH2 0x3A7F JUMP JUMPDEST DUP1 MLOAD SWAP2 SWAP1 DUP3 PUSH2 0x1804 JUMPI PUSH1 0x40 MLOAD PUSH4 0x32505749 PUSH1 0xE1 SHL DUP2 MSTORE PUSH1 0x4 DUP2 ADD DUP4 SWAP1 MSTORE PUSH1 0x24 SWAP1 REVERT JUMPDEST PUSH1 0x1 PUSH1 0x1 PUSH1 0xE0 SHL SUB NOT AND SUB PUSH2 0x3B5F JUMPI POP CODESIZE DUP1 DUP1 DUP1 PUSH2 0x3055 JUMP JUMPDEST PUSH1 0x24 SWAP1 PUSH1 0x40 MLOAD SWAP1 PUSH4 0x32505749 PUSH1 0xE1 SHL DUP3 MSTORE PUSH1 0x4 DUP3 ADD MSTORE REVERT JUMPDEST SWAP1 SWAP2 SWAP3 POP PUSH1 0x20 DUP2 RETURNDATASIZE DUP3 GT PUSH2 0x3BBE JUMPI JUMPDEST DUP2 PUSH2 0x3B93 PUSH1 0x20 SWAP4 DUP4 PUSH2 0x310F JUMP JUMPDEST DUP2 ADD SUB SLT PUSH2 0x3BBA JUMPI MLOAD SWAP1 PUSH1 0x1 PUSH1 0x1 PUSH1 0xE0 SHL SUB NOT DUP3 AND DUP3 SUB PUSH2 0x3BB7 JUMPI POP SWAP1 CODESIZE DUP1 PUSH2 0x3B15 JUMP JUMPDEST DUP1 REVERT JUMPDEST POP DUP1 REVERT JUMPDEST RETURNDATASIZE SWAP2 POP PUSH2 0x3B86 JUMP JUMPDEST PUSH2 0x3BCF DUP2 PUSH2 0x368D JUMP JUMPDEST DUP3 LT ISZERO PUSH2 0x3C08 JUMPI PUSH1 0x1 DUP1 PUSH1 0xA0 SHL SUB AND PUSH1 0x0 MSTORE PUSH1 0x0 DUP1 MLOAD PUSH1 0x20 PUSH2 0x43DF DUP4 CODECOPY DUP2 MLOAD SWAP2 MSTORE PUSH1 0x20 MSTORE PUSH1 0x40 PUSH1 0x0 KECCAK256 SWAP1 PUSH1 0x0 MSTORE PUSH1 0x20 MSTORE PUSH1 0x40 PUSH1 0x0 KECCAK256 SLOAD SWAP1 JUMP JUMPDEST PUSH1 0x40 MLOAD PUSH4 0x295F44F7 PUSH1 0xE2 SHL DUP2 MSTORE PUSH1 0x1 PUSH1 0x1 PUSH1 0xA0 SHL SUB SWAP2 SWAP1 SWAP2 AND PUSH1 0x4 DUP3 ADD MSTORE PUSH1 0x24 DUP2 ADD SWAP2 SWAP1 SWAP2 MSTORE PUSH1 0x44 SWAP1 REVERT JUMPDEST PUSH1 0x0 DUP1 MLOAD PUSH1 0x20 PUSH2 0x445F DUP4 CODECOPY DUP2 MLOAD SWAP2 MSTORE SLOAD DUP2 LT ISZERO PUSH2 0x3C5D JUMPI PUSH2 0x3C53 SWAP1 PUSH2 0x31F7 JUMP JUMPDEST SWAP1 SLOAD SWAP1 PUSH1 0x3 SHL SHR SWAP1 JUMP JUMPDEST PUSH1 0x44 SWAP1 PUSH1 0x40 MLOAD SWAP1 PUSH4 0x295F44F7 PUSH1 0xE2 SHL DUP3 MSTORE PUSH1 0x0 PUSH1 0x4 DUP4 ADD MSTORE PUSH1 0x24 DUP3 ADD MSTORE REVERT JUMPDEST SWAP1 PUSH2 0x3CA3 JUMPI POP DUP1 MLOAD ISZERO PUSH2 0x3C91 JUMPI DUP1 MLOAD SWAP1 PUSH1 0x20 ADD REVERT JUMPDEST PUSH1 0x40 MLOAD PUSH4 0xA12F521 PUSH1 0xE1 SHL DUP2 MSTORE PUSH1 0x4 SWAP1 REVERT JUMPDEST DUP2 MLOAD ISZERO DUP1 PUSH2 0x3CD6 JUMPI JUMPDEST PUSH2 0x3CB4 JUMPI POP SWAP1 JUMP JUMPDEST PUSH1 0x40 MLOAD PUSH4 0x9996B315 PUSH1 0xE0 SHL DUP2 MSTORE PUSH1 0x1 PUSH1 0x1 PUSH1 0xA0 SHL SUB SWAP1 SWAP2 AND PUSH1 0x4 DUP3 ADD MSTORE PUSH1 0x24 SWAP1 REVERT JUMPDEST POP DUP1 EXTCODESIZE ISZERO PUSH2 0x3CAC JUMP JUMPDEST PUSH1 0xFF PUSH32 0xF0C57E16840DF040F15088DC2F81FE391C3923BEC73E23A9662EFC9C229C6A00 SLOAD PUSH1 0x40 SHR AND ISZERO PUSH2 0x3D0E JUMPI JUMP JUMPDEST PUSH1 0x40 MLOAD PUSH4 0x1AFCD79F PUSH1 0xE3 SHL DUP2 MSTORE PUSH1 0x4 SWAP1 REVERT JUMPDEST DUP2 DUP2 LT PUSH2 0x3D2B JUMPI POP POP JUMP JUMPDEST PUSH1 0x0 DUP2 SSTORE PUSH1 0x1 ADD PUSH2 0x3D20 JUMP JUMPDEST PUSH1 0xFF PUSH1 0x0 DUP1 MLOAD PUSH1 0x20 PUSH2 0x44BF DUP4 CODECOPY DUP2 MLOAD SWAP2 MSTORE SLOAD AND PUSH2 0x3D50 JUMPI JUMP JUMPDEST PUSH1 0x40 MLOAD PUSH4 0xD93C0665 PUSH1 0xE0 SHL DUP2 MSTORE PUSH1 0x4 SWAP1 REVERT JUMPDEST SWAP1 DUP2 PUSH1 0x20 SWAP2 SUB SLT PUSH2 0x2EE JUMPI MLOAD DUP1 ISZERO ISZERO DUP2 SUB PUSH2 0x2EE JUMPI SWAP1 JUMP JUMPDEST PUSH1 0x0 NOT DUP2 EQ PUSH2 0x897 JUMPI PUSH1 0x1 ADD SWAP1 JUMP JUMPDEST DUP1 SLOAD PUSH1 0x1 PUSH1 0x40 SHL DUP2 LT ISZERO PUSH2 0x1722 JUMPI PUSH2 0x3DA6 SWAP2 PUSH1 0x1 DUP3 ADD DUP2 SSTORE PUSH2 0x3250 JUMP JUMPDEST DUP2 SWAP3 SWAP2 SLOAD SWAP1 PUSH1 0x3 SHL SWAP2 PUSH1 0x1 DUP1 PUSH1 0xA0 SHL SUB DUP1 SWAP2 AND DUP4 SHL SWAP3 SHL NOT AND OR SWAP1 SSTORE JUMP JUMPDEST PUSH1 0x0 DUP1 MLOAD PUSH1 0x20 PUSH2 0x445F DUP4 CODECOPY DUP2 MLOAD SWAP2 MSTORE SWAP1 DUP2 SLOAD SWAP2 PUSH1 0x1 PUSH1 0x40 SHL DUP4 LT ISZERO PUSH2 0x1722 JUMPI DUP3 PUSH2 0x2528 SWAP2 PUSH1 0x1 PUSH2 0x3DF6 SWAP6 ADD SWAP1 SSTORE PUSH2 0x31F7 JUMP JUMPDEST JUMP JUMPDEST SWAP1 DUP2 SLOAD SWAP2 PUSH1 0x1 PUSH1 0x40 SHL DUP4 LT ISZERO PUSH2 0x1722 JUMPI DUP3 PUSH2 0x2528 SWAP2 PUSH1 0x1 PUSH2 0x3DF6 SWAP6 ADD DUP2 SSTORE PUSH2 0x3250 JUMP JUMPDEST SWAP1 SWAP3 PUSH1 0x80 SWAP3 PUSH2 0x3E46 SWAP6 SWAP5 DUP4 MSTORE PUSH1 0x20 DUP4 ADD MSTORE PUSH1 0x1 DUP1 PUSH1 0xA0 SHL SUB AND PUSH1 0x40 DUP3 ADD MSTORE DUP2 PUSH1 0x60 DUP3 ADD MSTORE ADD SWAP1 PUSH2 0x3028 JUMP JUMPDEST SWAP1 JUMP JUMPDEST PUSH1 0x0 DUP2 DUP2 MSTORE PUSH1 0x20 PUSH1 0x2 DUP2 MSTORE PUSH1 0x40 SWAP2 DUP3 DUP2 KECCAK256 SLOAD TIMESTAMP LT PUSH2 0x4077 JUMPI PUSH2 0x3E69 PUSH2 0x3D37 JUMP JUMPDEST DUP4 DUP2 MSTORE PUSH1 0x0 DUP1 MLOAD PUSH1 0x20 PUSH2 0x44DF DUP4 CODECOPY DUP2 MLOAD SWAP2 MSTORE DUP1 DUP4 MSTORE DUP4 DUP3 KECCAK256 SLOAD PUSH1 0x1 PUSH1 0x1 PUSH1 0xA0 SHL SUB AND DUP1 ISZERO SWAP4 SWAP2 DUP5 ISZERO SWAP1 DUP2 PUSH2 0x4058 JUMPI JUMPDEST DUP8 DUP6 MSTORE DUP4 MSTORE DUP6 DUP5 KECCAK256 DUP1 SLOAD PUSH1 0x1 PUSH1 0x1 PUSH1 0xA0 SHL SUB NOT AND SWAP1 SSTORE DUP7 DUP5 DUP4 PUSH1 0x0 DUP1 MLOAD PUSH1 0x20 PUSH2 0x447F DUP4 CODECOPY DUP2 MLOAD SWAP2 MSTORE DUP3 DUP1 LOG4 DUP5 ISZERO PUSH2 0x3FAE JUMPI POP POP PUSH1 0x0 DUP1 MLOAD PUSH1 0x20 PUSH2 0x445F DUP4 CODECOPY DUP2 MLOAD SWAP2 MSTORE SLOAD DUP6 DUP4 MSTORE PUSH1 0x0 DUP1 MLOAD PUSH1 0x20 PUSH2 0x443F DUP4 CODECOPY DUP2 MLOAD SWAP2 MSTORE DUP3 MSTORE DUP5 DUP4 KECCAK256 SSTORE PUSH2 0x3EFC DUP6 PUSH2 0x3DC4 JUMP JUMPDEST PUSH1 0x0 DUP1 MLOAD PUSH1 0x20 PUSH2 0x445F DUP4 CODECOPY DUP2 MLOAD SWAP2 MSTORE SWAP2 DUP3 SLOAD PUSH1 0x0 NOT SWAP3 DUP4 DUP3 ADD SWAP2 DUP3 GT PUSH2 0x382F JUMPI DUP8 DUP4 MSTORE PUSH1 0x0 DUP1 MLOAD PUSH1 0x20 PUSH2 0x443F DUP4 CODECOPY DUP2 MLOAD SWAP2 MSTORE SWAP1 DUP2 DUP2 MSTORE PUSH2 0x3F3F DUP9 DUP6 KECCAK256 SLOAD SWAP4 PUSH2 0x31F7 JUMP JUMPDEST SWAP1 SLOAD SWAP1 PUSH1 0x3 SHL SHR PUSH2 0x3F53 DUP2 PUSH2 0x2528 DUP7 PUSH2 0x31F7 JUMP JUMPDEST DUP5 MSTORE MSTORE DUP6 DUP3 KECCAK256 SSTORE DUP6 DUP2 MSTORE DUP1 DUP6 DUP2 KECCAK256 SSTORE DUP3 SLOAD SWAP1 DUP2 ISZERO PUSH2 0x3F9A JUMPI POP ADD SWAP1 PUSH2 0x3F7A PUSH2 0x256B DUP4 PUSH2 0x31F7 JUMP JUMPDEST SSTORE PUSH2 0x3F83 JUMPI POP POP JUMP JUMPDEST PUSH1 0x24 SWAP3 POP MLOAD SWAP1 PUSH4 0x7E273289 PUSH1 0xE0 SHL DUP3 MSTORE PUSH1 0x4 DUP3 ADD MSTORE REVERT JUMPDEST PUSH4 0x4E487B71 PUSH1 0xE0 SHL DUP2 MSTORE PUSH1 0x31 PUSH1 0x4 MSTORE PUSH1 0x24 SWAP1 REVERT JUMPDEST PUSH2 0x3FB9 JUMPI JUMPDEST POP PUSH2 0x3EFC JUMP JUMPDEST PUSH2 0x3FC2 DUP2 PUSH2 0x368D JUMP JUMPDEST SWAP1 DUP7 DUP5 MSTORE PUSH1 0x0 DUP1 MLOAD PUSH1 0x20 PUSH2 0x43BF DUP4 CODECOPY DUP2 MLOAD SWAP2 MSTORE DUP1 DUP5 MSTORE DUP7 DUP6 KECCAK256 SLOAD SWAP1 DUP4 DUP3 SUB PUSH2 0x4015 JUMPI JUMPDEST POP POP DUP7 DUP5 MSTORE DUP4 DUP7 DUP2 KECCAK256 SSTORE DUP4 MSTORE PUSH1 0x0 DUP1 MLOAD PUSH1 0x20 PUSH2 0x43DF DUP4 CODECOPY DUP2 MLOAD SWAP2 MSTORE DUP3 MSTORE DUP5 DUP4 KECCAK256 SWAP1 DUP4 MSTORE DUP2 MSTORE DUP2 DUP5 DUP2 KECCAK256 SSTORE CODESIZE PUSH2 0x3FB3 JUMP JUMPDEST DUP3 DUP7 MSTORE PUSH1 0x0 DUP1 MLOAD PUSH1 0x20 PUSH2 0x43DF DUP4 CODECOPY DUP2 MLOAD SWAP2 MSTORE DUP1 DUP7 MSTORE DUP9 DUP8 KECCAK256 DUP6 DUP9 MSTORE DUP7 MSTORE DUP9 DUP8 KECCAK256 SLOAD SWAP1 DUP5 DUP9 MSTORE DUP7 MSTORE DUP9 DUP8 KECCAK256 DUP4 DUP9 MSTORE DUP7 MSTORE DUP1 DUP10 DUP9 KECCAK256 SSTORE DUP7 MSTORE DUP5 MSTORE DUP7 DUP6 KECCAK256 SSTORE CODESIZE DUP1 PUSH2 0x3FE5 JUMP JUMPDEST PUSH2 0x4061 DUP9 PUSH2 0x39DE JUMP JUMPDEST PUSH2 0x406A DUP4 PUSH2 0x31BE JUMP JUMPDEST DUP1 SLOAD PUSH1 0x0 NOT ADD SWAP1 SSTORE PUSH2 0x3E98 JUMP JUMPDEST POP PUSH1 0x84 SWAP2 MLOAD SWAP1 PUSH3 0x461BCD PUSH1 0xE5 SHL DUP3 MSTORE PUSH1 0x4 DUP3 ADD MSTORE PUSH1 0x24 DUP1 DUP3 ADD MSTORE PUSH1 0x0 DUP1 MLOAD PUSH1 0x20 PUSH2 0x441F DUP4 CODECOPY DUP2 MLOAD SWAP2 MSTORE PUSH1 0x44 DUP3 ADD MSTORE PUSH4 0x61626C65 PUSH1 0xE0 SHL PUSH1 0x64 DUP3 ADD MSTORE REVERT JUMPDEST SWAP1 PUSH2 0x40BE DUP3 PUSH2 0x32CA JUMP JUMPDEST PUSH2 0x40CB PUSH1 0x40 MLOAD SWAP2 DUP3 PUSH2 0x310F JUMP JUMPDEST DUP3 DUP2 MSTORE DUP1 SWAP3 PUSH2 0x40DC PUSH1 0x1F NOT SWAP2 PUSH2 0x32CA JUMP JUMPDEST ADD SWAP1 PUSH1 0x20 CALLDATASIZE SWAP2 ADD CALLDATACOPY JUMP JUMPDEST DUP1 MLOAD DUP3 LT ISZERO PUSH2 0x323A JUMPI PUSH1 0x20 SWAP2 PUSH1 0x5 SHL ADD ADD SWAP1 JUMP JUMPDEST SWAP1 PUSH1 0x40 MLOAD SWAP2 DUP3 DUP2 SLOAD SWAP2 DUP3 DUP3 MSTORE PUSH1 0x20 SWAP3 DUP4 DUP4 ADD SWAP2 PUSH1 0x0 MSTORE DUP4 PUSH1 0x0 KECCAK256 SWAP4 PUSH1 0x0 SWAP1 JUMPDEST DUP3 DUP3 LT PUSH2 0x412F JUMPI POP POP POP PUSH2 0x3DF6 SWAP3 POP SUB DUP4 PUSH2 0x310F JUMP JUMPDEST DUP6 SLOAD PUSH1 0x1 PUSH1 0x1 PUSH1 0xA0 SHL SUB AND DUP5 MSTORE PUSH1 0x1 SWAP6 DUP7 ADD SWAP6 DUP9 SWAP6 POP SWAP4 DUP2 ADD SWAP4 SWAP1 SWAP2 ADD SWAP1 PUSH2 0x4119 JUMP JUMPDEST PUSH1 0x0 MSTORE PUSH1 0x1 PUSH1 0x20 MSTORE PUSH2 0x4171 PUSH2 0x4178 PUSH1 0x40 PUSH1 0x0 KECCAK256 PUSH1 0x40 MLOAD SWAP3 DUP4 DUP1 SWAP3 PUSH2 0x3028 JUMP JUMPDEST SUB DUP3 PUSH2 0x310F JUMP JUMPDEST PUSH1 0x0 PUSH1 0x40 MLOAD PUSH2 0x4186 DUP2 PUSH2 0x30D9 JUMP JUMPDEST MSTORE SWAP1 JUMP JUMPDEST SWAP2 SWAP1 PUSH1 0x0 SWAP3 DUP1 DUP5 MSTORE PUSH1 0x1 SWAP4 PUSH1 0x20 SWAP3 DUP6 DUP5 MSTORE PUSH1 0x40 DUP3 KECCAK256 SWAP2 DUP2 MLOAD SWAP2 PUSH1 0x1 PUSH1 0x1 PUSH1 0x40 SHL SUB DUP4 GT PUSH2 0x42D2 JUMPI PUSH2 0x41BB DUP5 SLOAD PUSH2 0x2FEE JUMP JUMPDEST PUSH1 0x1F DUP2 GT PUSH2 0x42A4 JUMPI JUMPDEST POP DUP6 SWAP2 PUSH1 0x1F DUP5 GT PUSH1 0x1 EQ PUSH2 0x4225 JUMPI SWAP7 SWAP8 PUSH32 0xF8E1A15ABA9398E019F0B49DF1A4FDE98EE17AE345CB5F6B5E2C27F5033E8CE7 SWAP8 SWAP3 DUP5 SWAP3 DUP4 PUSH2 0x421A JUMPI JUMPDEST POP POP SHL SWAP2 PUSH1 0x0 NOT SWAP1 PUSH1 0x3 SHL SHR NOT AND OR SWAP1 SSTORE JUMPDEST PUSH1 0x40 MLOAD SWAP1 DUP2 MSTORE LOG1 JUMP JUMPDEST ADD MLOAD SWAP3 POP CODESIZE DUP1 PUSH2 0x41FF JUMP JUMPDEST SWAP1 SWAP8 SWAP3 SWAP2 PUSH1 0x1F NOT DUP4 AND DUP6 DUP4 MSTORE DUP8 DUP4 KECCAK256 SWAP3 JUMPDEST DUP2 DUP2 LT PUSH2 0x428F JUMPI POP SWAP9 DUP4 PUSH32 0xF8E1A15ABA9398E019F0B49DF1A4FDE98EE17AE345CB5F6B5E2C27F5033E8CE7 SWAP10 SWAP11 LT PUSH2 0x4276 JUMPI JUMPDEST POP POP POP DUP2 SHL ADD SWAP1 SSTORE PUSH2 0x4211 JUMP JUMPDEST ADD MLOAD PUSH1 0x0 NOT PUSH1 0xF8 DUP5 PUSH1 0x3 SHL AND SHR NOT AND SWAP1 SSTORE CODESIZE DUP1 DUP1 PUSH2 0x4269 JUMP JUMPDEST DUP11 DUP4 ADD MLOAD DUP5 SSTORE SWAP3 DUP6 ADD SWAP3 SWAP2 DUP9 ADD SWAP2 DUP9 ADD PUSH2 0x4236 JUMP JUMPDEST PUSH2 0x42CC SWAP1 DUP6 DUP5 MSTORE DUP8 DUP5 KECCAK256 PUSH1 0x1F DUP7 ADD PUSH1 0x5 SHR DUP2 ADD SWAP2 DUP10 DUP8 LT PUSH2 0x1718 JUMPI PUSH1 0x1F ADD PUSH1 0x5 SHR ADD SWAP1 PUSH2 0x3D20 JUMP JUMPDEST CODESIZE PUSH2 0x41C4 JUMP JUMPDEST PUSH4 0x4E487B71 PUSH1 0xE0 SHL DUP3 MSTORE PUSH1 0x41 PUSH1 0x4 MSTORE PUSH1 0x24 DUP3 REVERT JUMPDEST ISZERO PUSH2 0x42ED JUMPI JUMP JUMPDEST PUSH1 0x40 MLOAD PUSH3 0x461BCD PUSH1 0xE5 SHL DUP2 MSTORE PUSH1 0x20 PUSH1 0x4 DUP3 ADD MSTORE PUSH1 0x23 PUSH1 0x24 DUP3 ADD MSTORE PUSH32 0x45706865536166653A20496E76616C696420726563697069656E742061646472 PUSH1 0x44 DUP3 ADD MSTORE PUSH3 0x657373 PUSH1 0xE8 SHL PUSH1 0x64 DUP3 ADD MSTORE PUSH1 0x84 SWAP1 REVERT JUMPDEST PUSH1 0x0 MSTORE PUSH1 0x2 PUSH1 0x20 MSTORE PUSH2 0x4356 PUSH1 0x3 PUSH1 0x40 PUSH1 0x0 KECCAK256 ADD PUSH2 0x40FA JUMP JUMPDEST SWAP1 PUSH1 0x0 JUMPDEST DUP3 MLOAD DUP2 LT ISZERO PUSH2 0x4396 JUMPI PUSH1 0x1 PUSH1 0x1 PUSH1 0xA0 SHL SUB DUP1 PUSH2 0x4376 DUP4 DUP7 PUSH2 0x40E6 JUMP JUMPDEST MLOAD AND SWAP1 DUP4 AND EQ PUSH2 0x438E JUMPI PUSH2 0x4389 SWAP1 PUSH2 0x3D7A JUMP JUMPDEST PUSH2 0x435A JUMP JUMPDEST POP POP POP PUSH1 0x1 SWAP1 JUMP JUMPDEST POP POP POP PUSH1 0x0 SWAP1 JUMP INVALID 0x2F DUP8 DUP9 GT PUSH31 0x7EFF1D82E926EC794901D17C78024A50270940304540A733656F0D645E0397 SDIV 0x49 STOP DUP9 0xDA 0xAD DUP10 0xBA 0xE2 POP 0x49 LOG3 0x4F 0x4A SWAP1 PUSH19 0xD398537B1AB2425F24CBED01645E0397054900 DUP9 0xDA 0xAD DUP10 0xBA 0xE2 POP 0x49 LOG3 0x4F 0x4A SWAP1 PUSH19 0xD398537B1AB2425F24CBED0080BB2B638CC20B 0xC4 0xD0 0xA6 0xD PUSH7 0x940F3AB4A00C1D PUSH28 0x313497CA82FB0B4AB0079300546F6B656E536166653A205361666520 0x4E CHAINID SLOAD KECCAK256 PUSH15 0x6F74207472616E73666572645E0397 SDIV 0x49 STOP DUP9 0xDA 0xAD DUP10 0xBA 0xE2 POP 0x49 LOG3 0x4F 0x4A SWAP1 PUSH19 0xD398537B1AB2425F24CBED03645E0397054900 DUP9 0xDA 0xAD DUP10 0xBA 0xE2 POP 0x49 LOG3 0x4F 0x4A SWAP1 PUSH19 0xD398537B1AB2425F24CBED02DDF252AD1BE2C8 SWAP12 PUSH10 0xC2B068FC378DAA952BA7 CALL PUSH4 0xC4A11628 CREATE2 GAS 0x4D CREATE2 0x23 0xB3 0xEF MUL 0xDD PUSH28 0xC7DEC4DCEEDDA775E58DD541E08A116C6C53815C0BD028192F7B6268 STOP 0xCD 0x5E 0xD1 0x5C PUSH15 0x187E77E9AEE88184C21F4F2182AB58 0x27 0xCB EXTCODESIZE PUSH31 0x7FBEDCD63F0330080BB2B638CC20BC4D0A60D66940F3AB4A00C1D7B313497 0xCA DUP3 0xFB SIGNEXTEND 0x4A 0xB0 SMOD SWAP4 MUL DUP1 0xBB 0x2B PUSH4 0x8CC20BC4 0xD0 0xA6 0xD PUSH7 0x940F3AB4A00C1D PUSH28 0x313497CA82FB0B4AB0079304A26469706673582212208989B0851BC6 0xDA 0xC0 DUP3 0x25 0xB8 0xB6 DIV CODECOPY 0xBE 0xBA ADD SWAP9 0xFB 0x25 PUSH27 0xD8EFCD9B93F5F72742222764736F6C634300081400330000000000 "},"gasEstimates":{"creation":{"codeDepositCost":"3549600","executionCost":"infinite","totalCost":"infinite"},"external":{"ADMIN_ROLE()":"749","DEFAULT_ADMIN_ROLE()":"991","MINTER_ROLE()":"1189","PAUSER_ROLE()":"1233","UPGRADER_ROLE()":"1277","UPGRADE_INTERFACE_VERSION()":"infinite","_nextTokenId()":"2698","addMultiSafeAuthorizer(address,uint256)":"52041","approve(address,uint256)":"infinite","approveOrExecuteEmergencyUnlock(uint256,address)":"infinite","balanceOf(address)":"3081","burn(uint256)":"infinite","claimSafe(uint256)":"infinite","claimSafeAtAddress(uint256,address)":"infinite","emergencyUnlockState(uint256)":"5210","getAllMultiSafeAuthorityTokens(address)":"infinite","getAllSafes()":"infinite","getAllSafesOfOwner(address)":"infinite","getApproved(uint256)":"infinite","getIssuedSafes(address)":"infinite","getRoleAdmin(bytes32)":"infinite","getSafeInfo(uint256)":"infinite","grantRole(bytes32,address)":"infinite","hasRole(bytes32,address)":"infinite","initialize(address,address)":"infinite","isApprovedForAll(address,address)":"3711","mintSafe(address,string,uint256,uint256,address,address[],string,uint256)":"infinite","multiSafeAuthorizers(address,uint256)":"7109","name()":"infinite","ownerOf(uint256)":"infinite","pause()":"infinite","paused()":"infinite","proxiableUUID()":"infinite","renounceRole(bytes32,address)":"29096","revokeRole(bytes32,address)":"infinite","safeInfo(uint256)":"infinite","safeIssuers(address,uint256)":"7175","safeTransferFrom(address,address,uint256)":"infinite","safeTransferFrom(address,address,uint256,bytes)":"infinite","setApprovalForAll(address,bool)":"27336","supportsInterface(bytes4)":"437","symbol()":"infinite","tokenByIndex(uint256)":"infinite","tokenOfOwnerByIndex(address,uint256)":"infinite","tokenURI(uint256)":"infinite","totalBurntSafes()":"2984","totalClaimedSafes()":"2896","totalSupply()":"infinite","transferFrom(address,address,uint256)":"infinite","unpause()":"infinite","updateTokenIssuer(address,uint256)":"51821","updateTokenUri(uint256,string)":"infinite","upgradeToAndCall(address,bytes)":"infinite"},"internal":{"_authorizeUpgrade(address)":"infinite","_increaseBalance(address,uint128)":"infinite","_setTokenURI(uint256,string memory)":"infinite","_update(address,uint256,address)":"infinite","executeEmergencyUnlock(uint256,address)":"infinite","isSafeAddress(uint256,address)":"infinite"}},"methodIdentifiers":{"ADMIN_ROLE()":"75b238fc","DEFAULT_ADMIN_ROLE()":"a217fddf","MINTER_ROLE()":"d5391393","PAUSER_ROLE()":"e63ab1e9","UPGRADER_ROLE()":"f72c0d8b","UPGRADE_INTERFACE_VERSION()":"ad3cb1cc","_nextTokenId()":"4a60f620","addMultiSafeAuthorizer(address,uint256)":"cfe3c33a","approve(address,uint256)":"095ea7b3","approveOrExecuteEmergencyUnlock(uint256,address)":"b87fee89","balanceOf(address)":"70a08231","burn(uint256)":"42966c68","claimSafe(uint256)":"84e3a1df","claimSafeAtAddress(uint256,address)":"06286651","emergencyUnlockState(uint256)":"899ac097","getAllMultiSafeAuthorityTokens(address)":"40c856cb","getAllSafes()":"8cbf46ae","getAllSafesOfOwner(address)":"04d1d889","getApproved(uint256)":"081812fc","getIssuedSafes(address)":"fde5b1e6","getRoleAdmin(bytes32)":"248a9ca3","getSafeInfo(uint256)":"a893c821","grantRole(bytes32,address)":"2f2ff15d","hasRole(bytes32,address)":"91d14854","initialize(address,address)":"485cc955","isApprovedForAll(address,address)":"e985e9c5","mintSafe(address,string,uint256,uint256,address,address[],string,uint256)":"7776f214","multiSafeAuthorizers(address,uint256)":"418af67e","name()":"06fdde03","ownerOf(uint256)":"6352211e","pause()":"8456cb59","paused()":"5c975abb","proxiableUUID()":"52d1902d","renounceRole(bytes32,address)":"36568abe","revokeRole(bytes32,address)":"d547741f","safeInfo(uint256)":"0c415ca9","safeIssuers(address,uint256)":"46c0c1c0","safeTransferFrom(address,address,uint256)":"42842e0e","safeTransferFrom(address,address,uint256,bytes)":"b88d4fde","setApprovalForAll(address,bool)":"a22cb465","supportsInterface(bytes4)":"01ffc9a7","symbol()":"95d89b41","tokenByIndex(uint256)":"4f6ccce7","tokenOfOwnerByIndex(address,uint256)":"2f745c59","tokenURI(uint256)":"c87b56dd","totalBurntSafes()":"8af12723","totalClaimedSafes()":"81dc9114","totalSupply()":"18160ddd","transferFrom(address,address,uint256)":"23b872dd","unpause()":"3f4ba83a","updateTokenIssuer(address,uint256)":"8fa12c3e","updateTokenUri(uint256,string)":"d31af484","upgradeToAndCall(address,bytes)":"4f1ef286"}},"storageLayout":{"storage":[{"astId":5434,"contract":"contracts/EpheSafe.sol:EpheSafe","label":"_nextTokenId","offset":0,"slot":"0","type":"t_uint256"},{"astId":5482,"contract":"contracts/EpheSafe.sol:EpheSafe","label":"_tokenURIs","offset":0,"slot":"1","type":"t_mapping(t_uint256,t_string_storage)"},{"astId":5487,"contract":"contracts/EpheSafe.sol:EpheSafe","label":"safeInfo","offset":0,"slot":"2","type":"t_mapping(t_uint256,t_struct(SafeInfo)5456_storage)"},{"astId":5492,"contract":"contracts/EpheSafe.sol:EpheSafe","label":"emergencyUnlockState","offset":0,"slot":"3","type":"t_mapping(t_uint256,t_struct(EmergencyUnlockState)5478_storage)"},{"astId":5494,"contract":"contracts/EpheSafe.sol:EpheSafe","label":"totalClaimedSafes","offset":0,"slot":"4","type":"t_uint256"},{"astId":5496,"contract":"contracts/EpheSafe.sol:EpheSafe","label":"totalBurntSafes","offset":0,"slot":"5","type":"t_uint256"},{"astId":5501,"contract":"contracts/EpheSafe.sol:EpheSafe","label":"safeIssuers","offset":0,"slot":"6","type":"t_mapping(t_address,t_array(t_uint256)dyn_storage)"},{"astId":5506,"contract":"contracts/EpheSafe.sol:EpheSafe","label":"multiSafeAuthorizers","offset":0,"slot":"7","type":"t_mapping(t_address,t_array(t_uint256)dyn_storage)"}],"types":{"t_address":{"encoding":"inplace","label":"address","numberOfBytes":"20"},"t_array(t_address)dyn_storage":{"base":"t_address","encoding":"dynamic_array","label":"address[]","numberOfBytes":"32"},"t_array(t_uint256)dyn_storage":{"base":"t_uint256","encoding":"dynamic_array","label":"uint256[]","numberOfBytes":"32"},"t_bool":{"encoding":"inplace","label":"bool","numberOfBytes":"1"},"t_enum(EmergencyUnlockStatus)5461":{"encoding":"inplace","label":"enum EpheSafe.EmergencyUnlockStatus","numberOfBytes":"1"},"t_enum(SafeStatus)5439":{"encoding":"inplace","label":"enum EpheSafe.SafeStatus","numberOfBytes":"1"},"t_mapping(t_address,t_array(t_uint256)dyn_storage)":{"encoding":"mapping","key":"t_address","label":"mapping(address => uint256[])","numberOfBytes":"32","value":"t_array(t_uint256)dyn_storage"},"t_mapping(t_address,t_bool)":{"encoding":"mapping","key":"t_address","label":"mapping(address => bool)","numberOfBytes":"32","value":"t_bool"},"t_mapping(t_address,t_uint256)":{"encoding":"mapping","key":"t_address","label":"mapping(address => uint256)","numberOfBytes":"32","value":"t_uint256"},"t_mapping(t_uint256,t_string_storage)":{"encoding":"mapping","key":"t_uint256","label":"mapping(uint256 => string)","numberOfBytes":"32","value":"t_string_storage"},"t_mapping(t_uint256,t_struct(EmergencyUnlockState)5478_storage)":{"encoding":"mapping","key":"t_uint256","label":"mapping(uint256 => struct EpheSafe.EmergencyUnlockState)","numberOfBytes":"32","value":"t_struct(EmergencyUnlockState)5478_storage"},"t_mapping(t_uint256,t_struct(SafeInfo)5456_storage)":{"encoding":"mapping","key":"t_uint256","label":"mapping(uint256 => struct EpheSafe.SafeInfo)","numberOfBytes":"32","value":"t_struct(SafeInfo)5456_storage"},"t_string_storage":{"encoding":"bytes","label":"string","numberOfBytes":"32"},"t_struct(EmergencyUnlockState)5478_storage":{"encoding":"inplace","label":"struct EpheSafe.EmergencyUnlockState","members":[{"astId":5464,"contract":"contracts/EpheSafe.sol:EpheSafe","label":"status","offset":0,"slot":"0","type":"t_enum(EmergencyUnlockStatus)5461"},{"astId":5467,"contract":"contracts/EpheSafe.sol:EpheSafe","label":"unlockAddresses","offset":0,"slot":"1","type":"t_array(t_address)dyn_storage"},{"astId":5471,"contract":"contracts/EpheSafe.sol:EpheSafe","label":"unlockAddressApprovalCount","offset":0,"slot":"2","type":"t_mapping(t_address,t_uint256)"},{"astId":5475,"contract":"contracts/EpheSafe.sol:EpheSafe","label":"approvals","offset":0,"slot":"3","type":"t_mapping(t_address,t_bool)"},{"astId":5477,"contract":"contracts/EpheSafe.sol:EpheSafe","label":"approvalCount","offset":0,"slot":"4","type":"t_uint256"}],"numberOfBytes":"160"},"t_struct(SafeInfo)5456_storage":{"encoding":"inplace","label":"struct EpheSafe.SafeInfo","members":[{"astId":5441,"contract":"contracts/EpheSafe.sol:EpheSafe","label":"expiry","offset":0,"slot":"0","type":"t_uint256"},{"astId":5443,"contract":"contracts/EpheSafe.sol:EpheSafe","label":"amount","offset":0,"slot":"1","type":"t_uint256"},{"astId":5445,"contract":"contracts/EpheSafe.sol:EpheSafe","label":"tokenAddress","offset":0,"slot":"2","type":"t_address"},{"astId":5448,"contract":"contracts/EpheSafe.sol:EpheSafe","label":"status","offset":20,"slot":"2","type":"t_enum(SafeStatus)5439"},{"astId":5451,"contract":"contracts/EpheSafe.sol:EpheSafe","label":"multiSafeAddresses","offset":0,"slot":"3","type":"t_array(t_address)dyn_storage"},{"astId":5453,"contract":"contracts/EpheSafe.sol:EpheSafe","label":"safeMetadata","offset":0,"slot":"4","type":"t_string_storage"},{"astId":5455,"contract":"contracts/EpheSafe.sol:EpheSafe","label":"noOfApprovalsRequired","offset":0,"slot":"5","type":"t_uint256"}],"numberOfBytes":"192"},"t_uint256":{"encoding":"inplace","label":"uint256","numberOfBytes":"32"}}},"userdoc":{"kind":"user","methods":{},"version":1}}}}