{"contracts/VeCycle.sol":{"VeCycle":{"abi":[{"inputs":[],"name":"AccessControlBadConfirmation","type":"error"},{"inputs":[{"internalType":"address","name":"account","type":"address"},{"internalType":"bytes32","name":"neededRole","type":"bytes32"}],"name":"AccessControlUnauthorizedAccount","type":"error"},{"inputs":[{"internalType":"address","name":"target","type":"address"}],"name":"AddressEmptyCode","type":"error"},{"inputs":[{"internalType":"address","name":"implementation","type":"address"}],"name":"ERC1967InvalidImplementation","type":"error"},{"inputs":[],"name":"ERC1967NonPayable","type":"error"},{"inputs":[],"name":"ERC721EnumerableForbiddenBatchMint","type":"error"},{"inputs":[{"internalType":"address","name":"sender","type":"address"},{"internalType":"uint256","name":"tokenId","type":"uint256"},{"internalType":"address","name":"owner","type":"address"}],"name":"ERC721IncorrectOwner","type":"error"},{"inputs":[{"internalType":"address","name":"operator","type":"address"},{"internalType":"uint256","name":"tokenId","type":"uint256"}],"name":"ERC721InsufficientApproval","type":"error"},{"inputs":[{"internalType":"address","name":"approver","type":"address"}],"name":"ERC721InvalidApprover","type":"error"},{"inputs":[{"internalType":"address","name":"operator","type":"address"}],"name":"ERC721InvalidOperator","type":"error"},{"inputs":[{"internalType":"address","name":"owner","type":"address"}],"name":"ERC721InvalidOwner","type":"error"},{"inputs":[{"internalType":"address","name":"receiver","type":"address"}],"name":"ERC721InvalidReceiver","type":"error"},{"inputs":[{"internalType":"address","name":"sender","type":"address"}],"name":"ERC721InvalidSender","type":"error"},{"inputs":[{"internalType":"uint256","name":"tokenId","type":"uint256"}],"name":"ERC721NonexistentToken","type":"error"},{"inputs":[{"internalType":"address","name":"owner","type":"address"},{"internalType":"uint256","name":"index","type":"uint256"}],"name":"ERC721OutOfBoundsIndex","type":"error"},{"inputs":[],"name":"EnforcedPause","type":"error"},{"inputs":[],"name":"ExpectedPause","type":"error"},{"inputs":[],"name":"FailedInnerCall","type":"error"},{"inputs":[],"name":"InvalidInitialization","type":"error"},{"inputs":[],"name":"NotInitializing","type":"error"},{"inputs":[],"name":"UUPSUnauthorizedCallContext","type":"error"},{"inputs":[{"internalType":"bytes32","name":"slot","type":"bytes32"}],"name":"UUPSUnsupportedProxiableUUID","type":"error"},{"anonymous":false,"inputs":[{"indexed":true,"internalType":"address","name":"owner","type":"address"},{"indexed":true,"internalType":"address","name":"approved","type":"address"},{"indexed":true,"internalType":"uint256","name":"tokenId","type":"uint256"}],"name":"Approval","type":"event"},{"anonymous":false,"inputs":[{"indexed":true,"internalType":"address","name":"owner","type":"address"},{"indexed":true,"internalType":"address","name":"operator","type":"address"},{"indexed":false,"internalType":"bool","name":"approved","type":"bool"}],"name":"ApprovalForAll","type":"event"},{"anonymous":false,"inputs":[{"indexed":true,"internalType":"uint256","name":"contentId","type":"uint256"},{"indexed":true,"internalType":"address","name":"creator","type":"address"},{"indexed":false,"internalType":"string","name":"title","type":"string"}],"name":"ContentSubmitted","type":"event"},{"anonymous":false,"inputs":[{"indexed":true,"internalType":"address","name":"buyer","type":"address"},{"indexed":true,"internalType":"uint256","name":"productId","type":"uint256"},{"indexed":false,"internalType":"string","name":"reason","type":"string"}],"name":"DisputeRaised","type":"event"},{"anonymous":false,"inputs":[{"indexed":true,"internalType":"uint256","name":"productId","type":"uint256"},{"indexed":false,"internalType":"bool","name":"approved","type":"bool"}],"name":"DisputeResolved","type":"event"},{"anonymous":false,"inputs":[{"indexed":false,"internalType":"uint64","name":"version","type":"uint64"}],"name":"Initialized","type":"event"},{"anonymous":false,"inputs":[{"indexed":false,"internalType":"uint256","name":"_tokenId","type":"uint256"}],"name":"MetadataUpdate","type":"event"},{"anonymous":false,"inputs":[{"indexed":false,"internalType":"address","name":"account","type":"address"}],"name":"Paused","type":"event"},{"anonymous":false,"inputs":[{"indexed":true,"internalType":"address","name":"buyer","type":"address"},{"indexed":true,"internalType":"uint256","name":"productId","type":"uint256"},{"indexed":false,"internalType":"uint256","name":"amount","type":"uint256"}],"name":"ProductBought","type":"event"},{"anonymous":false,"inputs":[{"indexed":true,"internalType":"address","name":"seller","type":"address"},{"indexed":true,"internalType":"uint256","name":"productId","type":"uint256"}],"name":"ProductDelivered","type":"event"},{"anonymous":false,"inputs":[{"indexed":true,"internalType":"address","name":"seller","type":"address"},{"indexed":true,"internalType":"uint256","name":"productId","type":"uint256"},{"indexed":false,"internalType":"uint256","name":"price","type":"uint256"},{"indexed":false,"internalType":"string","name":"metadata","type":"string"}],"name":"ProductListed","type":"event"},{"anonymous":false,"inputs":[{"indexed":true,"internalType":"uint256","name":"productId","type":"uint256"},{"indexed":true,"internalType":"address","name":"seller","type":"address"}],"name":"RewardDistributed","type":"event"},{"anonymous":false,"inputs":[{"indexed":true,"internalType":"bytes32","name":"role","type":"bytes32"},{"indexed":true,"internalType":"bytes32","name":"previousAdminRole","type":"bytes32"},{"indexed":true,"internalType":"bytes32","name":"newAdminRole","type":"bytes32"}],"name":"RoleAdminChanged","type":"event"},{"anonymous":false,"inputs":[{"indexed":true,"internalType":"bytes32","name":"role","type":"bytes32"},{"indexed":true,"internalType":"address","name":"account","type":"address"},{"indexed":true,"internalType":"address","name":"sender","type":"address"}],"name":"RoleGranted","type":"event"},{"anonymous":false,"inputs":[{"indexed":true,"internalType":"bytes32","name":"role","type":"bytes32"},{"indexed":true,"internalType":"address","name":"account","type":"address"},{"indexed":true,"internalType":"address","name":"sender","type":"address"}],"name":"RoleRevoked","type":"event"},{"anonymous":false,"inputs":[{"indexed":true,"internalType":"address","name":"from","type":"address"},{"indexed":true,"internalType":"address","name":"to","type":"address"},{"indexed":true,"internalType":"uint256","name":"tokenId","type":"uint256"}],"name":"Transfer","type":"event"},{"anonymous":false,"inputs":[{"indexed":false,"internalType":"address","name":"account","type":"address"}],"name":"Unpaused","type":"event"},{"anonymous":false,"inputs":[{"indexed":true,"internalType":"address","name":"implementation","type":"address"}],"name":"Upgraded","type":"event"},{"inputs":[],"name":"ADMIN_ROLE","outputs":[{"internalType":"bytes32","name":"","type":"bytes32"}],"stateMutability":"view","type":"function"},{"inputs":[],"name":"APPROVALS_NEEDED","outputs":[{"internalType":"uint256","name":"","type":"uint256"}],"stateMutability":"view","type":"function"},{"inputs":[],"name":"APP_ID","outputs":[{"internalType":"uint256","name":"","type":"uint256"}],"stateMutability":"view","type":"function"},{"inputs":[],"name":"DEFAULT_ADMIN_ROLE","outputs":[{"internalType":"bytes32","name":"","type":"bytes32"}],"stateMutability":"view","type":"function"},{"inputs":[],"name":"MINTER_ROLE","outputs":[{"internalType":"bytes32","name":"","type":"bytes32"}],"stateMutability":"view","type":"function"},{"inputs":[],"name":"PAUSER_ROLE","outputs":[{"internalType":"bytes32","name":"","type":"bytes32"}],"stateMutability":"view","type":"function"},{"inputs":[],"name":"UPGRADER_ROLE","outputs":[{"internalType":"bytes32","name":"","type":"bytes32"}],"stateMutability":"view","type":"function"},{"inputs":[],"name":"UPGRADE_INTERFACE_VERSION","outputs":[{"internalType":"string","name":"","type":"string"}],"stateMutability":"view","type":"function"},{"inputs":[],"name":"_nextContentEntryId","outputs":[{"internalType":"uint256","name":"","type":"uint256"}],"stateMutability":"view","type":"function"},{"inputs":[],"name":"_nextDisputeId","outputs":[{"internalType":"uint256","name":"","type":"uint256"}],"stateMutability":"view","type":"function"},{"inputs":[],"name":"_nextTokenId","outputs":[{"internalType":"uint256","name":"","type":"uint256"}],"stateMutability":"view","type":"function"},{"inputs":[{"internalType":"address","name":"to","type":"address"},{"internalType":"uint256","name":"tokenId","type":"uint256"}],"name":"approve","outputs":[],"stateMutability":"nonpayable","type":"function"},{"inputs":[{"internalType":"uint256","name":"_contentId","type":"uint256"}],"name":"approveContent","outputs":[],"stateMutability":"nonpayable","type":"function"},{"inputs":[{"internalType":"address","name":"owner","type":"address"}],"name":"balanceOf","outputs":[{"internalType":"uint256","name":"","type":"uint256"}],"stateMutability":"view","type":"function"},{"inputs":[{"internalType":"uint256","name":"tokenId","type":"uint256"}],"name":"burn","outputs":[],"stateMutability":"nonpayable","type":"function"},{"inputs":[{"internalType":"uint256","name":"productId","type":"uint256"},{"internalType":"address","name":"buyer","type":"address"},{"internalType":"uint256","name":"amount","type":"uint256"}],"name":"buyProduct","outputs":[],"stateMutability":"nonpayable","type":"function"},{"inputs":[{"internalType":"uint256","name":"","type":"uint256"}],"name":"contentEntries","outputs":[{"internalType":"string","name":"contentType","type":"string"},{"internalType":"string","name":"title","type":"string"},{"internalType":"string","name":"description","type":"string"},{"internalType":"string","name":"twitterLink","type":"string"},{"internalType":"string","name":"contentLink","type":"string"},{"internalType":"address","name":"creator","type":"address"},{"internalType":"bool","name":"approved","type":"bool"}],"stateMutability":"view","type":"function"},{"inputs":[{"internalType":"uint256","name":"","type":"uint256"}],"name":"deliveryTimers","outputs":[{"internalType":"uint256","name":"","type":"uint256"}],"stateMutability":"view","type":"function"},{"inputs":[{"internalType":"uint256","name":"","type":"uint256"}],"name":"disputeInfo","outputs":[{"internalType":"string","name":"reason","type":"string"},{"internalType":"bool","name":"resolved","type":"bool"},{"internalType":"bool","name":"approved","type":"bool"},{"internalType":"uint256","name":"approvals","type":"uint256"},{"internalType":"uint256","name":"rejections","type":"uint256"}],"stateMutability":"view","type":"function"},{"inputs":[{"internalType":"uint256","name":"tokenId","type":"uint256"}],"name":"getApproved","outputs":[{"internalType":"address","name":"","type":"address"}],"stateMutability":"view","type":"function"},{"inputs":[{"internalType":"uint256","name":"_contentId","type":"uint256"}],"name":"getContent","outputs":[{"components":[{"internalType":"string","name":"contentType","type":"string"},{"internalType":"string","name":"title","type":"string"},{"internalType":"string","name":"description","type":"string"},{"internalType":"string","name":"twitterLink","type":"string"},{"internalType":"string","name":"contentLink","type":"string"},{"internalType":"address","name":"creator","type":"address"},{"internalType":"bool","name":"approved","type":"bool"}],"internalType":"struct VeCycle.ContentEntry","name":"","type":"tuple"}],"stateMutability":"view","type":"function"},{"inputs":[],"name":"getContentCount","outputs":[{"internalType":"uint256","name":"","type":"uint256"}],"stateMutability":"view","type":"function"},{"inputs":[{"internalType":"bytes32","name":"role","type":"bytes32"}],"name":"getRoleAdmin","outputs":[{"internalType":"bytes32","name":"","type":"bytes32"}],"stateMutability":"view","type":"function"},{"inputs":[{"internalType":"address","name":"_user","type":"address"}],"name":"getUserContentEntries","outputs":[{"internalType":"uint256[]","name":"","type":"uint256[]"}],"stateMutability":"view","type":"function"},{"inputs":[{"internalType":"address","name":"_user","type":"address"}],"name":"getUserListedProducts","outputs":[{"internalType":"uint256[]","name":"","type":"uint256[]"}],"stateMutability":"view","type":"function"},{"inputs":[{"internalType":"bytes32","name":"role","type":"bytes32"},{"internalType":"address","name":"account","type":"address"}],"name":"grantRole","outputs":[],"stateMutability":"nonpayable","type":"function"},{"inputs":[{"internalType":"bytes32","name":"role","type":"bytes32"},{"internalType":"address","name":"account","type":"address"}],"name":"hasRole","outputs":[{"internalType":"bool","name":"","type":"bool"}],"stateMutability":"view","type":"function"},{"inputs":[{"internalType":"address","name":"_owner","type":"address"},{"internalType":"address","name":"minter","type":"address"},{"internalType":"address","name":"_rewardsPool","type":"address"},{"internalType":"uint256","name":"_appId","type":"uint256"},{"internalType":"address","name":"_paymentTokenAddress","type":"address"}],"name":"initialize","outputs":[],"stateMutability":"nonpayable","type":"function"},{"inputs":[{"internalType":"address","name":"owner","type":"address"},{"internalType":"address","name":"operator","type":"address"}],"name":"isApprovedForAll","outputs":[{"internalType":"bool","name":"","type":"bool"}],"stateMutability":"view","type":"function"},{"inputs":[{"internalType":"uint256","name":"price","type":"uint256"},{"internalType":"string","name":"metadata","type":"string"},{"internalType":"uint256","name":"rewardRate","type":"uint256"},{"internalType":"string","name":"uri","type":"string"},{"internalType":"uint256","name":"expectedDeliveryTime","type":"uint256"}],"name":"listProduct","outputs":[],"stateMutability":"nonpayable","type":"function"},{"inputs":[{"internalType":"uint256","name":"productId","type":"uint256"}],"name":"markProductAsDelivered","outputs":[],"stateMutability":"nonpayable","type":"function"},{"inputs":[],"name":"name","outputs":[{"internalType":"string","name":"","type":"string"}],"stateMutability":"view","type":"function"},{"inputs":[{"internalType":"uint256","name":"tokenId","type":"uint256"}],"name":"ownerOf","outputs":[{"internalType":"address","name":"","type":"address"}],"stateMutability":"view","type":"function"},{"inputs":[],"name":"paused","outputs":[{"internalType":"bool","name":"","type":"bool"}],"stateMutability":"view","type":"function"},{"inputs":[{"internalType":"uint256","name":"","type":"uint256"}],"name":"productInfo","outputs":[{"internalType":"uint256","name":"price","type":"uint256"},{"internalType":"uint256","name":"quantity","type":"uint256"},{"internalType":"enum VeCycle.ProductListingStatus","name":"listingStatus","type":"uint8"},{"internalType":"enum VeCycle.ProductApprovalStatus","name":"approvalStatus","type":"uint8"},{"internalType":"string","name":"metadata","type":"string"},{"internalType":"uint256","name":"rewardRate","type":"uint256"},{"internalType":"uint256","name":"deliveryTime","type":"uint256"},{"internalType":"uint256","name":"deliveredTime","type":"uint256"},{"internalType":"bool","name":"disputeRaised","type":"bool"},{"internalType":"uint256","name":"disputeId","type":"uint256"}],"stateMutability":"view","type":"function"},{"inputs":[],"name":"proxiableUUID","outputs":[{"internalType":"bytes32","name":"","type":"bytes32"}],"stateMutability":"view","type":"function"},{"inputs":[{"internalType":"uint256","name":"productId","type":"uint256"},{"internalType":"string","name":"reason","type":"string"}],"name":"raiseDispute","outputs":[],"stateMutability":"nonpayable","type":"function"},{"inputs":[{"internalType":"bytes32","name":"role","type":"bytes32"},{"internalType":"address","name":"callerConfirmation","type":"address"}],"name":"renounceRole","outputs":[],"stateMutability":"nonpayable","type":"function"},{"inputs":[{"internalType":"bytes32","name":"role","type":"bytes32"},{"internalType":"address","name":"account","type":"address"}],"name":"revokeRole","outputs":[],"stateMutability":"nonpayable","type":"function"},{"inputs":[],"name":"rewardsPool","outputs":[{"internalType":"contract IX2EarnRewardsPool","name":"","type":"address"}],"stateMutability":"view","type":"function"},{"inputs":[{"internalType":"address","name":"from","type":"address"},{"internalType":"address","name":"to","type":"address"},{"internalType":"uint256","name":"tokenId","type":"uint256"}],"name":"safeTransferFrom","outputs":[],"stateMutability":"nonpayable","type":"function"},{"inputs":[{"internalType":"address","name":"from","type":"address"},{"internalType":"address","name":"to","type":"address"},{"internalType":"uint256","name":"tokenId","type":"uint256"},{"internalType":"bytes","name":"data","type":"bytes"}],"name":"safeTransferFrom","outputs":[],"stateMutability":"nonpayable","type":"function"},{"inputs":[{"internalType":"address","name":"operator","type":"address"},{"internalType":"bool","name":"approved","type":"bool"}],"name":"setApprovalForAll","outputs":[],"stateMutability":"nonpayable","type":"function"},{"inputs":[{"internalType":"string","name":"_contentType","type":"string"},{"internalType":"string","name":"_dataLink","type":"string"},{"internalType":"string","name":"_title","type":"string"},{"internalType":"string","name":"_description","type":"string"},{"internalType":"string","name":"_twitterLink","type":"string"}],"name":"submitContent","outputs":[],"stateMutability":"nonpayable","type":"function"},{"inputs":[{"internalType":"bytes4","name":"interfaceId","type":"bytes4"}],"name":"supportsInterface","outputs":[{"internalType":"bool","name":"","type":"bool"}],"stateMutability":"view","type":"function"},{"inputs":[],"name":"symbol","outputs":[{"internalType":"string","name":"","type":"string"}],"stateMutability":"view","type":"function"},{"inputs":[{"internalType":"uint256","name":"index","type":"uint256"}],"name":"tokenByIndex","outputs":[{"internalType":"uint256","name":"","type":"uint256"}],"stateMutability":"view","type":"function"},{"inputs":[{"internalType":"address","name":"owner","type":"address"},{"internalType":"uint256","name":"index","type":"uint256"}],"name":"tokenOfOwnerByIndex","outputs":[{"internalType":"uint256","name":"","type":"uint256"}],"stateMutability":"view","type":"function"},{"inputs":[{"internalType":"uint256","name":"tokenId","type":"uint256"}],"name":"tokenURI","outputs":[{"internalType":"string","name":"","type":"string"}],"stateMutability":"view","type":"function"},{"inputs":[],"name":"totalSupply","outputs":[{"internalType":"uint256","name":"","type":"uint256"}],"stateMutability":"view","type":"function"},{"inputs":[{"internalType":"address","name":"from","type":"address"},{"internalType":"address","name":"to","type":"address"},{"internalType":"uint256","name":"tokenId","type":"uint256"}],"name":"transferFrom","outputs":[],"stateMutability":"nonpayable","type":"function"},{"inputs":[{"internalType":"address","name":"newImplementation","type":"address"},{"internalType":"bytes","name":"data","type":"bytes"}],"name":"upgradeToAndCall","outputs":[],"stateMutability":"payable","type":"function"},{"inputs":[{"internalType":"address","name":"","type":"address"},{"internalType":"uint256","name":"","type":"uint256"}],"name":"userContentEntries","outputs":[{"internalType":"uint256","name":"","type":"uint256"}],"stateMutability":"view","type":"function"},{"inputs":[{"internalType":"address","name":"","type":"address"},{"internalType":"uint256","name":"","type":"uint256"}],"name":"userListedProducts","outputs":[{"internalType":"uint256","name":"","type":"uint256"}],"stateMutability":"view","type":"function"},{"inputs":[{"internalType":"uint256","name":"productId","type":"uint256"},{"internalType":"bool","name":"approve","type":"bool"}],"name":"voteOnDispute","outputs":[],"stateMutability":"nonpayable","type":"function"}],"devdoc":{"errors":{"AccessControlBadConfirmation()":[{"details":"The caller of a function is not the expected one. NOTE: Don't confuse with {AccessControlUnauthorizedAccount}."}],"AccessControlUnauthorizedAccount(address,bytes32)":[{"details":"The `account` is missing a role."}],"AddressEmptyCode(address)":[{"details":"There's no code at `target` (it is not a contract)."}],"ERC1967InvalidImplementation(address)":[{"details":"The `implementation` of the proxy is invalid."}],"ERC1967NonPayable()":[{"details":"An upgrade function sees `msg.value > 0` that may be lost."}],"ERC721EnumerableForbiddenBatchMint()":[{"details":"Batch mint is not allowed."}],"ERC721IncorrectOwner(address,uint256,address)":[{"details":"Indicates an error related to the ownership over a particular token. Used in transfers.","params":{"owner":"Address of the current owner of a token.","sender":"Address whose tokens are being transferred.","tokenId":"Identifier number of a token."}}],"ERC721InsufficientApproval(address,uint256)":[{"details":"Indicates a failure with the `operator`s approval. Used in transfers.","params":{"operator":"Address that may be allowed to operate on tokens without being their owner.","tokenId":"Identifier number of a token."}}],"ERC721InvalidApprover(address)":[{"details":"Indicates a failure with the `approver` of a token to be approved. Used in approvals.","params":{"approver":"Address initiating an approval operation."}}],"ERC721InvalidOperator(address)":[{"details":"Indicates a failure with the `operator` to be approved. Used in approvals.","params":{"operator":"Address that may be allowed to operate on tokens without being their owner."}}],"ERC721InvalidOwner(address)":[{"details":"Indicates that an address can't be an owner. For example, `address(0)` is a forbidden owner in EIP-20. Used in balance queries.","params":{"owner":"Address of the current owner of a token."}}],"ERC721InvalidReceiver(address)":[{"details":"Indicates a failure with the token `receiver`. Used in transfers.","params":{"receiver":"Address to which tokens are being transferred."}}],"ERC721InvalidSender(address)":[{"details":"Indicates a failure with the token `sender`. Used in transfers.","params":{"sender":"Address whose tokens are being transferred."}}],"ERC721NonexistentToken(uint256)":[{"details":"Indicates a `tokenId` whose `owner` is the zero address.","params":{"tokenId":"Identifier number of a token."}}],"ERC721OutOfBoundsIndex(address,uint256)":[{"details":"An `owner`'s token query was out of bounds for `index`. NOTE: The owner being `address(0)` indicates a global out of bounds index."}],"EnforcedPause()":[{"details":"The operation failed because the contract is paused."}],"ExpectedPause()":[{"details":"The operation failed because the contract is not paused."}],"FailedInnerCall()":[{"details":"A call to an address target failed. The target may have reverted."}],"InvalidInitialization()":[{"details":"The contract is already initialized."}],"NotInitializing()":[{"details":"The contract is not initializing."}],"UUPSUnauthorizedCallContext()":[{"details":"The call is from an unauthorized context."}],"UUPSUnsupportedProxiableUUID(bytes32)":[{"details":"The storage `slot` is unsupported as a UUID."}]},"events":{"Approval(address,address,uint256)":{"details":"Emitted when `owner` enables `approved` to manage the `tokenId` token."},"ApprovalForAll(address,address,bool)":{"details":"Emitted when `owner` enables or disables (`approved`) `operator` to manage all of its assets."},"Initialized(uint64)":{"details":"Triggered when the contract has been initialized or reinitialized."},"Paused(address)":{"details":"Emitted when the pause is triggered by `account`."},"RoleAdminChanged(bytes32,bytes32,bytes32)":{"details":"Emitted when `newAdminRole` is set as ``role``'s admin role, replacing `previousAdminRole` `DEFAULT_ADMIN_ROLE` is the starting admin for all roles, despite {RoleAdminChanged} not being emitted signaling this."},"RoleGranted(bytes32,address,address)":{"details":"Emitted when `account` is granted `role`. `sender` is the account that originated the contract call, an admin role bearer except when using {AccessControl-_setupRole}."},"RoleRevoked(bytes32,address,address)":{"details":"Emitted when `account` is revoked `role`. `sender` is the account that originated the contract call:   - if using `revokeRole`, it is the admin role bearer   - if using `renounceRole`, it is the role bearer (i.e. `account`)"},"Transfer(address,address,uint256)":{"details":"Emitted when `tokenId` token is transferred from `from` to `to`."},"Unpaused(address)":{"details":"Emitted when the pause is lifted by `account`."},"Upgraded(address)":{"details":"Emitted when the implementation is upgraded."}},"kind":"dev","methods":{"approve(address,uint256)":{"details":"See {IERC721-approve}."},"balanceOf(address)":{"details":"See {IERC721-balanceOf}."},"burn(uint256)":{"details":"Burns `tokenId`. See {ERC721-_burn}. Requirements: - The caller must own `tokenId` or be an approved operator."},"getApproved(uint256)":{"details":"See {IERC721-getApproved}."},"getRoleAdmin(bytes32)":{"details":"Returns the admin role that controls `role`. See {grantRole} and {revokeRole}. To change a role's admin, use {_setRoleAdmin}."},"grantRole(bytes32,address)":{"details":"Grants `role` to `account`. If `account` had not been already granted `role`, emits a {RoleGranted} event. Requirements: - the caller must have ``role``'s admin role. May emit a {RoleGranted} event."},"hasRole(bytes32,address)":{"details":"Returns `true` if `account` has been granted `role`."},"isApprovedForAll(address,address)":{"details":"See {IERC721-isApprovedForAll}."},"name()":{"details":"See {IERC721Metadata-name}."},"ownerOf(uint256)":{"details":"See {IERC721-ownerOf}."},"paused()":{"details":"Returns true if the contract is paused, and false otherwise."},"proxiableUUID()":{"details":"Implementation of the ERC1822 {proxiableUUID} function. This returns the storage slot used by the implementation. It is used to validate the implementation's compatibility when performing an upgrade. IMPORTANT: A proxy pointing at a proxiable contract should not be considered proxiable itself, because this risks bricking a proxy that upgrades to it, by delegating to itself until out of gas. Thus it is critical that this function revert if invoked through a proxy. This is guaranteed by the `notDelegated` modifier."},"renounceRole(bytes32,address)":{"details":"Revokes `role` from the calling account. Roles are often managed via {grantRole} and {revokeRole}: this function's purpose is to provide a mechanism for accounts to lose their privileges if they are compromised (such as when a trusted device is misplaced). If the calling account had been revoked `role`, emits a {RoleRevoked} event. Requirements: - the caller must be `callerConfirmation`. May emit a {RoleRevoked} event."},"revokeRole(bytes32,address)":{"details":"Revokes `role` from `account`. If `account` had been granted `role`, emits a {RoleRevoked} event. Requirements: - the caller must have ``role``'s admin role. May emit a {RoleRevoked} event."},"safeTransferFrom(address,address,uint256)":{"details":"See {IERC721-safeTransferFrom}."},"safeTransferFrom(address,address,uint256,bytes)":{"details":"See {IERC721-safeTransferFrom}."},"setApprovalForAll(address,bool)":{"details":"See {IERC721-setApprovalForAll}."},"symbol()":{"details":"See {IERC721Metadata-symbol}."},"tokenByIndex(uint256)":{"details":"See {IERC721Enumerable-tokenByIndex}."},"tokenOfOwnerByIndex(address,uint256)":{"details":"See {IERC721Enumerable-tokenOfOwnerByIndex}."},"tokenURI(uint256)":{"details":"See {IERC721Metadata-tokenURI}."},"totalSupply()":{"details":"See {IERC721Enumerable-totalSupply}."},"transferFrom(address,address,uint256)":{"details":"See {IERC721-transferFrom}."},"upgradeToAndCall(address,bytes)":{"custom:oz-upgrades-unsafe-allow-reachable":"delegatecall","details":"Upgrade the implementation of the proxy to `newImplementation`, and subsequently execute the function call encoded in `data`. Calls {_authorizeUpgrade}. Emits an {Upgraded} event."}},"version":1},"evm":{"bytecode":{"linkReferences":{},"object":"60a0806040523461002a57306080526145009081610030823960805181818161274601526128440152f35b600080fdfe608080604052600436101561001357600080fd5b60e0600035811c91826301ffc9a714613565575081630355a3fb146133ec5781630359fea9146133c357816306fdde0314613320578163081812fc146132d5578163095ea7b3146131ee5781630b7ad54c14613071578163101e194014612ff857816318160ddd14612fcd57816323b872dd14612fb6578163248a9ca314612f7a5781632f2ff15d14612f2e5781632f745c5914612e9d57816336568abe14612e5657816342842e0e14612e2857816342966c6814612ae45781634a60f62014612ac65781634e99775e14612a4e5781634f1ef286146128055781634f6ccce7146127b057816352d1902d14612733578163530b97a4146121d757816357dfe3fc146120fd578163589c9648146120b75781635aef573c14611e1b5781635c975abb14611deb5781635e534f40146116f85781636352211e146116c857816370a082311461169d57816374449ca41461027e57816375b238fc1461166257816391d148541461160857816395d89b4114611526578163995ab152146114a25781639b5f142314611484578163a1d795d11461143a578163a217fddf1461141e578163a22cb4651461137e578163a4f5df1214610f2b578163a9aa007214610f0f578163ad3cb1cc14610ec9578163b88d4fde14610e70578163bb119f6e14610daa57508063c187bbc114610d8c578063c87b56dd14610d39578063d539139314610cfe578063d547741f14610cb0578063e085402d14610547578063e63ab1e91461050c578063e985e9c5146104be578063ebcc2cb114610492578063f09cc7f11461043a578063f197b6ba146102dc578063f72c0d8b146102a15763f73d2d2f1461027e57600080fd5b3461029c57600036600319011261029c576020600a54604051908152f35b600080fd5b3461029c57600036600319011261029c5760206040517f189ab7a9244df0848122154315af71fe140f3db0fe014031783b0946b8c9d2e38152f35b3461029c57602036600319011261029c57600435806000526006602052604060002061030782613fe9565b336001600160a01b03909116036103e75760028101805460ff811660058110156103d15760010361038c5760029060ff1916179055620151804201908142116103765760060155337f37220827a98f28702374a6637afb3f3cf91fb0b001f5afa52507535b8ae09380600080a3005b634e487b7160e01b600052601160045260246000fd5b60405162461bcd60e51b815260206004820152601d60248201527f50726f64756374206973206e6f7420696e20736f6c64207374617475730000006044820152606490fd5b634e487b7160e01b600052602160045260246000fd5b60405162461bcd60e51b815260206004820152602560248201527f4f6e6c79207468652073656c6c65722063616e206d61726b2061732064656c696044820152641d995c995960da1b6064820152608490fd5b3461029c57604036600319011261029c5761045361361a565b6001600160a01b03166000908152600c602052604090208054602435919082101561029c576020916104849161395f565b90546040519160031b1c8152f35b3461029c57602036600319011261029c5760043560005260086020526020604060002054604051908152f35b3461029c57604036600319011261029c576104d761361a565b6104e86104e2613604565b91613894565b9060018060a01b0316600052602052602060ff604060002054166040519015158152f35b3461029c57600036600319011261029c5760206040517f65d7a28e3265b37a6474929f336521b332c1681b933f6cb9f3376673440d862a8152f35b3461029c5760a036600319011261029c576004356001600160401b03811161029c5761057790369060040161384d565b6024356001600160401b03811161029c5761059690369060040161384d565b906044356001600160401b03811161029c576105b690369060040161384d565b916064356001600160401b03811161029c576105d690369060040161384d565b6084356001600160401b03811161029c576105f590369060040161384d565b9060405193610603856136aa565b84528460208501526040840152606083015260808201523360a0820152600060c0820152600a549061063482614212565b600a5581600052600b602052604060002081518051906001600160401b0382116109635781906106648454613670565b601f8111610c60575b50602090601f8311600114610bf457600092610be9575b50508160011b916000199060031b1c19161781555b60208201518051906001600160401b0382116109635781906106be6001850154613670565b601f8111610b96575b50602090601f8311600114610b2457600092610b19575b50508160011b916000199060031b1c19161760018201555b60408201518051906001600160401b03821161096357819061071b6002850154613670565b601f8111610ac6575b50602090601f8311600114610a5457600092610a49575b50508160011b916000199060031b1c19161760028201555b60608201518051906001600160401b0382116109635781906107786003850154613670565b601f81116109f6575b50602090601f831160011461098457600092610979575b50508160011b916000199060031b1c19161760038201555b60808201518051906001600160401b038211610963576107d36004840154613670565b601f8111610918575b50602090601f83116001146108a75760059392916000918361089c575b50508160011b916000199060031b1c19161760048201555b019060018060a01b0360a08201511682549160c060ff60a01b910151151560a01b16916affffffffffffffffffffff60a81b161717905533600052600c60205261085f816040600020614253565b7f2cfd2fa56abf708d8f55efeadd4bb72c8204e046f62d90de877b743abfd6081d604051602081528061089733956020830190613630565b0390a3005b0151905087806107f9565b90601f198316916004850160005260206000209260005b81811061090057509160019391856005979694106108e7575b505050811b016004820155610811565b015160001960f88460031b161c191690558780806108d7565b929360206001819287860151815501950193016108be565b600484016000526020600020601f840160051c81019160208510610959575b601f0160051c01905b81811061094d57506107dc565b60008155600101610940565b9091508190610937565b634e487b7160e01b600052604160045260246000fd5b015190508680610798565b9250600384016000526020600020906000935b601f19841685106109db576001945083601f198116106109c2575b505050811b0160038201556107b0565b015160001960f88460031b161c191690558680806109b2565b81810151835560209485019460019093019290910190610997565b909150600384016000526020600020601f840160051c810160208510610a42575b90849392915b601f830160051c82018110610a33575050610781565b60008155859450600101610a1d565b5080610a17565b01519050868061073b565b9250600284016000526020600020906000935b601f1984168510610aab576001945083601f19811610610a92575b505050811b016002820155610753565b015160001960f88460031b161c19169055868080610a82565b81810151835560209485019460019093019290910190610a67565b909150600284016000526020600020601f840160051c810160208510610b12575b90849392915b601f830160051c82018110610b03575050610724565b60008155859450600101610aed565b5080610ae7565b0151905086806106de565b9250600184016000526020600020906000935b601f1984168510610b7b576001945083601f19811610610b62575b505050811b0160018201556106f6565b015160001960f88460031b161c19169055868080610b52565b81810151835560209485019460019093019290910190610b37565b909150600184016000526020600020601f840160051c810160208510610be2575b90849392915b601f830160051c82018110610bd35750506106c7565b60008155859450600101610bbd565b5080610bb7565b015190508680610684565b9250836000526020600020906000935b601f1984168510610c45576001945083601f19811610610c2c575b505050811b018155610699565b015160001960f88460031b161c19169055868080610c1f565b81810151835560209485019460019093019290910190610c04565b909150836000526020600020601f840160051c810160208510610ca9575b90849392915b601f830160051c82018110610c9a57505061066d565b60008155859450600101610c84565b5080610c7e565b3461029c57604036600319011261029c57610cfc600435610ccf613604565b90806000526000805160206143eb833981519152602052610cf7600160406000200154613986565b613c16565b005b3461029c57600036600319011261029c5760206040517f9f2df0fed2c77648de5860a4cc508cd0818c85b8b8a1ab4ceeef8d981c8956a68152f35b3461029c57602036600319011261029c576004356000526002602052610d88610d65604060002061371c565b6000604051610d73816136c5565b52604051918291602083526020830190613630565b0390f35b3461029c57600036600319011261029c576020600454604051908152f35b3461029c57602036600319011261029c576004356000526006602052604060002090815491600181015460028201549160ff8084169360081c1692610df16003830161371c565b94600483015494600584015490600685015493600860ff600788015416960154966040519a8b5260208b015260058110156103d15760408a015260038110156103d1578897610e509160608a01526101408060808b0152890190613630565b9560a088015260c087015285015215156101008401526101208301520390f35b3461029c57608036600319011261029c57610e8961361a565b610e91613604565b90604435606435926001600160401b03841161029c57610eb8610cfc94369060040161384d565b92610ec4838383613cce565b614061565b3461029c57600036600319011261029c57610d88604051610ee9816136e0565b60058152640352e302e360dc1b6020820152604051918291602083526020830190613630565b3461029c57600036600319011261029c57602060405160018152f35b3461029c57604036600319011261029c57600435610f47613977565b3360009081527fb16e88c42fd4e48df2dd6a2eabd6bc9aec654ec170056b470819f8892cc6431c60209081526040909120547fa49807205ce4d355092ef5a8a18f56e8913cf4a201fbe287825b095693c217759060ff161561136057508260005260068152604060002060ff60028201541660058110156103d1576004036113275760080180549081600052600791828452600460406000200133600052845260ff604060002054166112f257600052818352600460406000200133600052835260406000209360ff19946001868254161790556000146112b8578054600052818352600260406000200161103c8154614212565b9055805460005281835261105733600560406000200161428e565b5460005280825260406000206001600282015410156000146111a857506110e09284600052600683526040600020906003600283019182541617905560018060a01b03918383600554166110aa88613fe9565b845460405163a9059cbb60e01b81526001600160a01b039092166004830152602482015296879190829060009082906044820190565b03925af191821561119c577f5a87909bff68caaaaf0b3fd9c74eeccc928832f879315e5c6fb7a73612f26c0c9560ff9361116f575b50015416158015611167575b611131575b5060405160018152a2005b61113a84613fe9565b16837f3f1e255a6ea92490593e747297e412cf02cf52504dd965366dce991f916d2ae1600080a383611126565b506001611121565b61118e90863d8811611195575b61118681836136fb565b810190614276565b5087611115565b503d61117c565b6040513d6000823e3d90fd5b6003600191015410156111b757005b6000848152600683526040808220600281018054969096166003179095556005548554915163a9059cbb60e01b8152336004820152602481019290925290946001600160a01b03939092909185918791604491839188165af191821561119c577f5a87909bff68caaaaf0b3fd9c74eeccc928832f879315e5c6fb7a73612f26c0c9560ff9361129b575b50015416158015611293575b61125d575b5060405160008152a2005b61126684613fe9565b16837f3f1e255a6ea92490593e747297e412cf02cf52504dd965366dce991f916d2ae1600080a383611252565b50600061124d565b6112b190863d88116111955761118681836136fb565b5087611241565b805460005281835260036040600020016112d28154614212565b905580546000528183526112ed33600660406000200161428e565b611057565b60405162461bcd60e51b815260048101859052600d60248201526c105b1c9958591e481d9bdd1959609a1b6044820152606490fd5b60405162461bcd60e51b81526004810183905260116024820152704e6f20616374697665206469737075746560781b6044820152606490fd5b6044906040519063e2517d3f60e01b82523360048301526024820152fd5b3461029c57604036600319011261029c5761139761361a565b61139f613977565b6001600160a01b03909116908115611405576113ba33613894565b8260005260205260406000209015159060ff1981541660ff83161790556040519081527f17307eab39ab6107e8899845ad3d59bd9653f200f220920489ca2b5937696c3160203392a3005b604051630b61174360e31b815260048101839052602490fd5b3461029c57600036600319011261029c57602060405160008152f35b3461029c57604036600319011261029c5761145361361a565b6001600160a01b031660009081526009602052604090208054602435919082101561029c576020916104849161395f565b3461029c57600036600319011261029c576020600154604051908152f35b3461029c5760208060031936011261029c576001600160a01b036114c461361a565b16600052600c8152604060002090604051908181845491828152019360005281600020916000905b82821061150f57610d8885611503818903826136fb565b604051918291826137f7565b8354865294850194600193840193909101906114ec565b3461029c57600036600319011261029c57604051600060008051602061448b833981519152805461155681613670565b808552916001918083169081156115de5750600114611594575b610d8885611580818703826136fb565b604051918291602083526020830190613630565b6000908152925060008051602061438b8339815191525b8284106115c657505050810160200161158082610d88611570565b805460208587018101919091529093019281016115ab565b869550610d889693506020925061158094915060ff191682840152151560051b8201019293611570565b3461029c57604036600319011261029c57611621613604565b6004356000526000805160206143eb83398151915260205260406000209060018060a01b0316600052602052602060ff604060002054166040519015158152f35b3461029c57600036600319011261029c5760206040517fa49807205ce4d355092ef5a8a18f56e8913cf4a201fbe287825b095693c217758152f35b3461029c57602036600319011261029c5760206116c06116bb61361a565b613c99565b604051908152f35b3461029c57602036600319011261029c5760206116e6600435613fe9565b6040516001600160a01b039091168152f35b3461029c5760a036600319011261029c576024356001600160401b03811161029c5761172890369060040161384d565b6064356001600160401b03811161029c5761174790369060040161384d565b9060043515611da6576000549061175d82614212565b600055816000526006602052604060002060043581556001808201556002810161ffff19815416905581516001600160401b038111610963576117a36003830154613670565b601f8111611d5f575b50806020601f8211600114611cf457600091611ce9575b508160011b916000199060031b1c19161760038201555b604435600482015560066084359101556040516117f6816136c5565b600081523315611cd05760ff60008051602061440b8339815191525416611cbe57600083815260008051602061442b83398151915260208190526040909120546001600160a01b0316801580159283611c9f575b611853336138cd565b60018154019055866000526020526040600020336001600160601b0360a01b8254161790558533837fddf252ad1be2c89b69c2b068fc378daa952ba7f163c4a11628f55a4df523b3ef600080a415611bf0576000805160206143cb83398151915254856000526000805160206143ab8339815191526020526040600020556118da85614221565b3303611b91575b611b7857333b611a8a575b50816000526002602052604060002083516001600160401b038111610963576119158254613670565b601f8111611a42575b50602094601f82116001146119dc579481929394956000926119d1575b50508160011b916000199060031b1c19161790555b7ff8e1a15aba9398e019f0b49df1a4fde98ee17ae345cb5f6b5e2c27f5033e8ce76020604051848152a1336000526009602052611991826040600020614253565b7f0c07c154191e04d957822b18a0e8e3c868a069df9e4be39ccd5d2b3f4a2141576040516004358152604060208201528061089733946040830190613630565b01519050858061193b565b601f198216958360005260206000209160005b888110611a2a57508360019596979810611a11575b505050811b019055611950565b015160001960f88460031b161c19169055858080611a04565b919260206001819286850151815501940192016119ef565b826000526020600020601f830160051c81019160208410611a80575b601f0160051c01905b818110611a74575061191e565b60008155600101611a67565b9091508190611a5e565b60405160208180611ac4630a85bd0160e11b9586835233600484015260006024840152886044840152608060648401526084830190613630565b03816000335af160009181611b33575b50611b0657611ae1614031565b80519081611b0157604051633250574960e11b8152336004820152602490fd5b602001fd5b6001600160e01b03191603611b1b57836118ec565b604051633250574960e11b8152336004820152602490fd5b9091506020813d602011611b70575b81611b4f602093836136fb565b8101031261029c57516001600160e01b03198116810361029c579086611ad4565b3d9150611b42565b6040516339e3563760e11b815260006004820152602490fd5b611b9a33613c99565b6000198101908111610376573360005260008051602061434b833981519152602052604060002081600052602052846040600020558460005260008051602061432b8339815191526020526040600020556118e1565b3381146118da57611c0081613c99565b8560005260008051602061432b8339815191528060205260406000205490828203611c61575b505085600052600060408120558160005260008051602061434b833981519152602052604060002090600052602052600060408120556118da565b600084815260008051602061434b83398151915260209081526040808320868452825280832054858452818420819055835292905220558780611c26565b611ca887613fbd565b611cb1836138cd565b805460001901905561184a565b60405163d93c066560e01b8152600490fd5b604051633250574960e11b815260006004820152602490fd5b9050830151866117c3565b600384016000908152602081209250601f198416905b818110611d4757509083600194939210611d2e575b5050811b0160038201556117da565b85015160001960f88460031b161c191690558680611d1f565b9192602060018192868a015181550194019201611d0a565b600383016000526020600020601f830160051c810160208410611d9f575b601f830160051c82018110611d935750506117ac565b60008155600101611d7d565b5080611d7d565b60405162461bcd60e51b815260206004820152601c60248201527f5072696365206d7573742062652067726561746572207468616e2030000000006044820152606490fd5b3461029c57600036600319011261029c57602060ff60008051602061440b83398151915254166040519015158152f35b3461029c57604036600319011261029c576004356001600160401b0360243581811161029c57611e4f90369060040161384d565b826000526020916006835260406000206002810180549060ff821660058110156103d1576002036120685760068301544210156120235760ff1991821660041790556001805493611e9f85614212565b82558460005260078752604060002090865190811161096357611ec28254613670565b601f8111611fda575b5087601f8211600114611f4d57927f0bb7a23845d4dda060fe674c403648d584f43f2b7d4e823e19203b9276431ee197959282610897989693600896600091611f42575b50600019600383901b1c191690831b1790555b600783019182541617905501556040519182918583523395830190613630565b90508801518d611f0f565b601f1982169083600052896000209160005b8b828210611fc6575050948381937f0bb7a23845d4dda060fe674c403648d584f43f2b7d4e823e19203b9276431ee19b9996936108979b999660089910611fad575b5050811b019055611f22565b8a015160001960f88460031b161c191690558d80611fa1565b8b8401518555938701939283019201611f5f565b8260005288600020601f830160051c8101918a8410612019575b601f0160051c019084905b82811061200d575050611ecb565b60008155018490611fff565b9091508190611ff4565b60405162461bcd60e51b815260048101879052601960248201527f446973707574652077696e646f772068617320706173736564000000000000006044820152606490fd5b60405162461bcd60e51b815260048101879052602160248201527f50726f64756374206973206e6f7420696e2064656c69766572656420737461746044820152606560f81b6064820152608490fd5b3461029c57602036600319011261029c576004356120d9600a548211156142c9565b6000908152600b60205260409020600501805460ff60a01b1916600160a01b179055005b3461029c57602036600319011261029c57600435600052600b60205280604060002060ff6121b961212d8361371c565b926121ab61213d6001830161371c565b61219d61214c6002850161371c565b61218f61215b6003870161371c565b93612181600561216d60048a0161371c565b9801549a6040519d8e9d8e528d0190613630565b908b820360208d0152613630565b9089820360408b0152613630565b908782036060890152613630565b908582036080870152613630565b9160018060a01b03811660a085015260a01c16151560c08301520390f35b3461029c5760a036600319011261029c576121f061361a565b6121f8613604565b6044356001600160a01b03808216820361029c57608435818116810361029c5760008051602061446b83398151915254936001600160401b03851680159081612723575b6001149081612719575b159081612710575b506126fe5760016001600160401b031986161760008051602061446b8339815191525560ff8560401c16156126d1575b6040519561228b876136e0565b600787526656654379636c6560c81b6020880152604051966122ac886136e0565b600388526256434560e81b60208901526122c46141e3565b6122cc6141e3565b8051906001600160401b0382116109635781906122f760008051602061436b83398151915254613670565b601f8111612650575b50602090601f83116001146125be576000926125b3575b50508160011b916000199060031b1c19161760008051602061436b833981519152555b86516001600160401b0381116109635761236260008051602061448b83398151915254613670565b601f811161253d575b506020601f82116001146124a45791816124079261240d959460ff9b600092612499575b50508160011b916000199060031b1c19161760008051602061448b833981519152555b6123ba6141e3565b6123c26141e3565b6123ca6141e3565b60008051602061440b833981519152891981541690556123e86141e3565b6123f06141e3565b6123f86141e3565b612401816139b9565b50613a47565b50613af7565b50816001600160601b0360a01b93168360035416176003556064356004551690600554161760055560401c161561244057005b68ff00000000000000001960008051602061446b833981519152541660008051602061446b833981519152557fc7f505b2f371ae2175ee4913f4499e1f2633a7b5936321eed1cdaeb6115181d2602060405160018152a1005b015190508b8061238f565b60008051602061448b83398151915260005260008051602061438b8339815191529860005b601f198416811061252557508260ff9a61240d96959360019361240796601f1981161061250c575b505050811b0160008051602061448b833981519152556123b2565b015160001960f88460031b161c191690558b80806124f1565b828201518b556001909a0199602092830192016124c9565b60008051602061448b833981519152600052601f820160051c60008051602061438b833981519152016020831061259e575b601f820160051c60008051602061438b833981519152018110612592575061236b565b6000815560010161256f565b5060008051602061438b83398151915261256f565b015190508980612317565b925060008051602061436b8339815191526000526000805160206144ab833981519152906000935b601f1984168510612635576001945083601f1981161061261c575b505050811b0160008051602061436b8339815191525561233a565b015160001960f88460031b161c19169055898080612601565b818101518355602094850194600190930192909101906125e6565b90915060008051602061436b833981519152600052601f830160051c6000805160206144ab83398151915201602084106126bc575b908392915b601f820160051c6000805160206144ab8339815191520181106126ad5750612300565b6000815584935060010161268a565b506000805160206144ab833981519152612685565b68ffffffffffffffffff198516680100000000000000011760008051602061446b8339815191525561227e565b60405163f92ee8a960e01b8152600490fd5b9050158761224e565b303b159150612246565b604087901c60ff1615915061223c565b3461029c57600036600319011261029c577f00000000000000000000000000000000000000000000000000000000000000006001600160a01b0316300361279e5760206040517f360894a13ba1a3210667c828492db98dca3e2076cc3735a920a3ca505d382bbc8152f35b60405163703e46dd60e11b8152600490fd5b3461029c57602036600319011261029c576004356000805160206143cb833981519152548110156127e657610484602091613906565b6044906040519063295f44f760e21b8252600060048301526024820152fd5b604036600319011261029c5761281961361a565b6024356001600160401b03811161029c5761283890369060040161384d565b906001600160a01b03907f00000000000000000000000000000000000000000000000000000000000000008216308114908115612a20575b5061279e573360009081527fab71e3f32666744d246edff3f96e4bdafee2e9867098cdd118a979a7464786a860209081526040909120549092907f189ab7a9244df0848122154315af71fe140f3db0fe014031783b0946b8c9d2e39060ff161561136057508116916040516352d1902d60e01b81528181600481875afa600091816129f1575b5061291457604051634c9c8ce360e01b815260048101859052602490fd5b9284937f360894a13ba1a3210667c828492db98dca3e2076cc3735a920a3ca505d382bbc908181036129d95750833b156129c05780546001600160a01b03191682179055604051907fbc7cd75a20ee27fd9adebab32041f755214dbc6bffa90cc0225b39da2e5c2d3b600080a28351156129a657506000838192610cfc95519101845af46129a0614031565b91614180565b92505050346129b157005b63b398979f60e01b8152600490fd5b604051634c9c8ce360e01b815260048101839052602490fd5b60249060405190632a87526960e21b82526004820152fd5b9091508281813d8311612a19575b612a0981836136fb565b8101031261029c575190866128f6565b503d6129ff565b9050827f360894a13ba1a3210667c828492db98dca3e2076cc3735a920a3ca505d382bbc5416141584612870565b3461029c5760208060031936011261029c576001600160a01b03612a7061361a565b1660005260098152604060002090604051908181845491828152019360005281600020916000905b828210612aaf57610d8885611503818903826136fb565b835486529485019460019384019390910190612a98565b3461029c57600036600319011261029c576020600054604051908152f35b3461029c5760208060031936011261029c5760043560ff60008051602061440b8339815191525416611cbe57600081815260008051602061442b8339815191528084526040909120546001600160a01b0390811691903315159081612d77575b5050811580159182612d58575b84600052855260406000206001600160601b0360a01b8154169055836000847fddf252ad1be2c89b69c2b068fc378daa952ba7f163c4a11628f55a4df523b3ef8280a415612c935750506000805160206143cb83398151915254816000526000805160206143ab8339815191528352604060002055612bcf81614221565b6000805160206143cb8339815191529081546000199384820191821161037657826000526000805160206143ab83398151915290818152612c1560406000205493613906565b90549060031b1c612c4281612c2986613906565b90919082549060031b91821b91600019901b1916179055565b600052526040600020556000526000604081205580548015612c7d57820191612c6a83613906565b909182549160031b1b1916905555600080f35b634e487b7160e01b600052603160045260246000fd5b612c9e575b50612bcf565b612ca781613c99565b908260005260008051602061432b83398151915280855260406000205490838203612d06575b5050826000526000604081205560005260008051602061434b833981519152835260406000209060005282526000604081205582612c98565b8260005260008051602061434b83398151915280875260406000208560005287526040600020549084600052875260406000208360005287528060406000205560005285526040600020558480612ccd565b612d6185613fbd565b612d6a846138cd565b8054600019019055612b51565b81612dc7575b5015612d8a578480612b44565b50612da75760249060405190637e27328960e01b82526004820152fd5b60405163177e802f60e01b81523360048201526024810191909152604490fd5b33841491508115612e08575b8115612de1575b5085612d7d565b90508360005260008051602061444b83398151915285523390604060002054161485612dda565b9050612e1383613894565b33600052855260ff6040600020541690612dd3565b3461029c57610cfc612e39366137c2565b9060405192612e47846136c5565b60008452610ec4838383613cce565b3461029c57604036600319011261029c57612e6f613604565b336001600160a01b03821603612e8b57610cfc90600435613c16565b60405163334bd91960e11b8152600490fd5b3461029c57604036600319011261029c57612eb661361a565b60243590612ec381613c99565b821015612f035760018060a01b031660005260008051602061434b8339815191526020526040600020906000526020526020604060002054604051908152f35b60405163295f44f760e21b81526001600160a01b039190911660048201526024810191909152604490fd5b3461029c57604036600319011261029c57610cfc600435612f4d613604565b90806000526000805160206143eb833981519152602052612f75600160406000200154613986565b613ba1565b3461029c57602036600319011261029c576004356000526000805160206143eb8339815191526020526020600160406000200154604051908152f35b3461029c57610cfc612fc7366137c2565b91613cce565b3461029c57600036600319011261029c5760206000805160206143cb83398151915254604051908152f35b3461029c57602036600319011261029c57600435600052600760205261304d60406000206130258161371c565b90600181015490600360028201549101549060ff60405195869560a0875260a0870190613630565b938181161515602087015260081c1615156040850152606084015260808301520390f35b3461029c5760208060031936011261029c57604051600435613092826136aa565b6060918281528284820152826040820152828082015282608082015260a081016000905260c00160009052600a548111156130cc906142c9565b600052600b825282604060002091604051936130e7856136aa565b6130f08461371c565b85526130fe6001850161371c565b8582019081526131106002860161371c565b60408701908152946131246003820161371c565b8785019081526131366004830161371c565b9160808901928352600501549460a0890197600160a01b60019003958688168a5260c08b019760a01c60ff16151588526040519b8c9b828d5251918c01526101008b0161318291613630565b9451601f1995868c82030160408d015261319b91613630565b905191858b830301908b01526131b091613630565b905190838982030160808a01526131c691613630565b9051918782030160a08801526131db91613630565b93511660c0850152511515908301520390f35b3461029c57604036600319011261029c5761320761361a565b60243561321381613fe9565b331515806132c2575b806132a2575b61328a576001600160a01b039283169282918491167f8c5be1e5ebec7d5bd14f71427d1e84f3dd0314c0f7b2291e5b200ac8c7c3b925600080a4600090815260008051602061444b8339815191526020526040902080546001600160a01b0319169091179055005b60405163a9fbf51f60e01b8152336004820152602490fd5b506132ac81613894565b3360005260205260ff6040600020541615613222565b506001600160a01b03811633141561321c565b3461029c57602036600319011261029c576004356132f281613fe9565b5060005260008051602061444b833981519152602052602060018060a01b0360406000205416604051908152f35b3461029c57600036600319011261029c57604051600060008051602061436b833981519152805461335081613670565b808552916001918083169081156115de575060011461337957610d8885611580818703826136fb565b600090815292506000805160206144ab8339815191525b8284106133ab57505050810160200161158082610d88611570565b80546020858701810191909152909301928101613390565b3461029c57600036600319011261029c576003546040516001600160a01b039091168152602090f35b3461029c57606036600319011261029c57600435613408613604565b60443582600052602090600682526040600020600281019060ff82541660058110156103d157613512575482106134d65790829160009360018060a01b03606481600554169760405197889384926323b872dd60e01b845216998a60048401523060248401528760448401525af193841561119c577fc032f62758cac23a902e648ab54b6825665b9bc19e7cd0a8ab915cbf3eea4fa0946134b9575b50805460ff19166001179055604051908152a3005b6134cf90843d86116111955761118681836136fb565b50866134a4565b60405162461bcd60e51b8152600481018490526014602482015273125b9cdd59999a58da595b9d081c185e5b595b9d60621b6044820152606490fd5b60405162461bcd60e51b815260048101859052602560248201527f50726f64756374206973206e6f7420617661696c61626c6520666f7220707572604482015264636861736560d81b6064820152608490fd5b3461029c57602036600319011261029c576004359063ffffffff60e01b821680920361029c57602091637965db0b60e01b81149081156135a7575b5015158152f35b63780e9d6360e01b8114915081156135c1575b50836135a0565b6380ac58cd60e01b8114915081156135f3575b81156135e2575b50836135ba565b6301ffc9a760e01b149050836135db565b635b5e139f60e01b811491506135d4565b602435906001600160a01b038216820361029c57565b600435906001600160a01b038216820361029c57565b919082519283825260005b84811061365c575050826000602080949584010152601f8019910116010190565b60208183018101518483018201520161363b565b90600182811c921680156136a0575b602083101461368a57565b634e487b7160e01b600052602260045260246000fd5b91607f169161367f565b60e081019081106001600160401b0382111761096357604052565b602081019081106001600160401b0382111761096357604052565b604081019081106001600160401b0382111761096357604052565b90601f801991011681019081106001600160401b0382111761096357604052565b906040519182600082549261373084613670565b90818452600194858116908160001461379f575060011461375c575b505061375a925003836136fb565b565b9093915060005260209081600020936000915b81831061378757505061375a9350820101388061374c565b8554888401850152948501948794509183019161376f565b91505061375a94506020925060ff191682840152151560051b820101388061374c565b606090600319011261029c576001600160a01b0390600435828116810361029c5791602435908116810361029c579060443590565b6020908160408183019282815285518094520193019160005b82811061381e575050505090565b835185529381019392810192600101613810565b6001600160401b03811161096357601f01601f191660200190565b81601f8201121561029c5780359061386482613832565b9261387260405194856136fb565b8284526020838301011161029c57816000926020809301838601378301015290565b6001600160a01b031660009081527f80bb2b638cc20bc4d0a60d66940f3ab4a00c1d7b313497ca82fb0b4ab00793056020526040902090565b6001600160a01b031660009081527f80bb2b638cc20bc4d0a60d66940f3ab4a00c1d7b313497ca82fb0b4ab00793036020526040902090565b6000805160206143cb8339815191528054821015613949576000527fa42f15e5d656f8155fd7419d740a6073999f19cd6e061449ce4a257150545bf20190600090565b634e487b7160e01b600052603260045260246000fd5b80548210156139495760005260206000200190600090565b60243590811515820361029c57565b806000526000805160206143eb83398151915260205260406000203360005260205260ff60406000205416156113605750565b6001600160a01b031660008181527fb7db2dd08fcb62d0c9e08c51941cae53c267786a0b75803fb7960902fc8ef97d60205260408120549091906000805160206143eb8339815191529060ff16613a42578280526020526040822081835260205260408220600160ff19825416179055339160008051602061430b8339815191528180a4600190565b505090565b6001600160a01b031660008181527fab71e3f32666744d246edff3f96e4bdafee2e9867098cdd118a979a7464786a860205260408120549091907f189ab7a9244df0848122154315af71fe140f3db0fe014031783b0946b8c9d2e3906000805160206143eb8339815191529060ff16613af1578184526020526040832082845260205260408320600160ff1982541617905560008051602061430b833981519152339380a4600190565b50505090565b6001600160a01b031660008181527f549fe2656c81d2947b3b913f0a53b9ea86c71e049f3a1b8aa23c09a8a05cb8d460205260408120549091907f9f2df0fed2c77648de5860a4cc508cd0818c85b8b8a1ab4ceeef8d981c8956a6906000805160206143eb8339815191529060ff16613af1578184526020526040832082845260205260408320600160ff1982541617905560008051602061430b833981519152339380a4600190565b906000918083526000805160206143eb83398151915280602052604084209260018060a01b03169283855260205260ff60408520541615600014613af1578184526020526040832082845260205260408320600160ff1982541617905560008051602061430b833981519152339380a4600190565b906000918083526000805160206143eb83398151915280602052604084209260018060a01b03169283855260205260ff604085205416600014613af157818452602052604083208284526020526040832060ff1981541690557ff6391f5c32d9c69d2a47ea670b442974b53935d1edc7fd64eb21e047a839171b339380a4600190565b6001600160a01b03811615613cb557613cb1906138cd565b5490565b6040516322718ad960e21b815260006004820152602490fd5b90916001600160a01b03808416928315611cd05760ff60008051602061440b8339815191525416611cbe5760009383855260008051602061442b8339815191529460208681526040978589842054169733151580613f23575b508815908115613f04575b613d3b836138cd565b80546001019055888552835289842080546001600160a01b0319168617905587858a7fddf252ad1be2c89b69c2b068fc378daa952ba7f163c4a11628f55a4df523b3ef8780a415613e5f576000805160206143cb833981519152548784526000805160206143ab833981519152835289842055613db787614221565b838803613df3575b505050501692838303613dd25750505050565b6064945051926364283d7b60e01b8452600484015260248301526044820152fd5b613dfc90613c99565b600019810193908411613e4b57829160008051602061432b833981519152918a945260008051602061434b83398151915281528383208584528152878484205587835252205538808080613dbf565b634e487b7160e01b83526011600452602483fd5b878414613db757613e6f88613c99565b87845260008051602061432b8339815191528084528a85205490828203613ec1575b5050878452838a81205588845260008051602061434b833981519152835289842090845282528289812055613db7565b8a865260008051602061434b8339815191528086528c872084885286528c872054908c885286528c87208388528652808d882055865284528a8520553880613e91565b613f0d89613fbd565b613f168a6138cd565b8054600019019055613d32565b80613f70575b15613f345738613d27565b89888a613f51576024915190637e27328960e01b82526004820152fd5b905163177e802f60e01b81523360048201526024810191909152604490fd5b503389148015613fa2575b80613f29575087845260008051602061444b833981519152835233878b8620541614613f29565b50613fac89613894565b338552835260ff8a85205416613f7b565b60005260008051602061444b83398151915260205260406000206001600160601b0360a01b8154169055565b600081815260008051602061442b83398151915260205260409020546001600160a01b0316908115614019575090565b60249060405190637e27328960e01b82526004820152fd5b3d1561405c573d9061404282613832565b9161405060405193846136fb565b82523d6000602084013e565b606090565b9190803b614070575b50505050565b6140b260018060a01b0380921694604051938493630a85bd0160e11b968786523360048701521660248501526044840152608060648401526084830190613630565b03906020816000938185885af190829082614131575b505061410057826140d7614031565b80519190826140f957604051633250574960e11b815260048101839052602490fd5b9050602001fd5b6001600160e01b0319160361411957503880808061406a565b60249060405190633250574960e11b82526004820152fd5b909192506020813d8211614178575b8161414d602093836136fb565b810103126141745751906001600160e01b03198216820361417157509038806140c8565b80fd5b5080fd5b3d9150614140565b906141a7575080511561419557805190602001fd5b604051630a12f52160e11b8152600490fd5b815115806141da575b6141b8575090565b604051639996b31560e01b81526001600160a01b039091166004820152602490fd5b50803b156141b0565b60ff60008051602061446b8339815191525460401c161561420057565b604051631afcd79f60e31b8152600490fd5b60001981146103765760010190565b6000805160206143cb83398151915290815491600160401b8310156109635782612c2991600161375a95019055613906565b90815491600160401b8310156109635782612c2991600161375a9501815561395f565b9081602091031261029c5751801515810361029c5790565b8054600160401b811015610963576142ab9160018201815561395f565b819291549060031b9160018060a01b03809116831b921b1916179055565b156142d057565b60405162461bcd60e51b8152602060048201526012602482015271125b9d985b1a590818dbdb9d195b9d08125160721b6044820152606490fdfe2f8788117e7eff1d82e926ec794901d17c78024a50270940304540a733656f0d645e039705490088daad89bae25049a34f4a9072d398537b1ab2425f24cbed01645e039705490088daad89bae25049a34f4a9072d398537b1ab2425f24cbed0080bb2b638cc20bc4d0a60d66940f3ab4a00c1d7b313497ca82fb0b4ab0079300f4bad0a69248f59680a4f2b3000328cec71a413447c96781cfe5996daa8c456e645e039705490088daad89bae25049a34f4a9072d398537b1ab2425f24cbed03645e039705490088daad89bae25049a34f4a9072d398537b1ab2425f24cbed0202dd7bc7dec4dceedda775e58dd541e08a116c6c53815c0bd028192f7b626800cd5ed15c6e187e77e9aee88184c21f4f2182ab5827cb3b7e07fbedcd63f0330080bb2b638cc20bc4d0a60d66940f3ab4a00c1d7b313497ca82fb0b4ab007930280bb2b638cc20bc4d0a60d66940f3ab4a00c1d7b313497ca82fb0b4ab0079304f0c57e16840df040f15088dc2f81fe391c3923bec73e23a9662efc9c229c6a0080bb2b638cc20bc4d0a60d66940f3ab4a00c1d7b313497ca82fb0b4ab007930137c58c799b6609234b945e882912ee9ad34948a1dfaa20a97485e1a7752bbf81a2646970667358221220cd1d2ef149754fa210b848ac7a78ab0783c1778fba856671318d962acc810ee564736f6c63430008140033","opcodes":"PUSH1 0xA0 DUP1 PUSH1 0x40 MSTORE CALLVALUE PUSH2 0x2A JUMPI ADDRESS PUSH1 0x80 MSTORE PUSH2 0x4500 SWAP1 DUP2 PUSH2 0x30 DUP3 CODECOPY PUSH1 0x80 MLOAD DUP2 DUP2 DUP2 PUSH2 0x2746 ADD MSTORE PUSH2 0x2844 ADD MSTORE RETURN JUMPDEST PUSH1 0x0 DUP1 REVERT INVALID PUSH1 0x80 DUP1 PUSH1 0x40 MSTORE PUSH1 0x4 CALLDATASIZE LT ISZERO PUSH2 0x13 JUMPI PUSH1 0x0 DUP1 REVERT JUMPDEST PUSH1 0xE0 PUSH1 0x0 CALLDATALOAD DUP2 SHR SWAP2 DUP3 PUSH4 0x1FFC9A7 EQ PUSH2 0x3565 JUMPI POP DUP2 PUSH4 0x355A3FB EQ PUSH2 0x33EC JUMPI DUP2 PUSH4 0x359FEA9 EQ PUSH2 0x33C3 JUMPI DUP2 PUSH4 0x6FDDE03 EQ PUSH2 0x3320 JUMPI DUP2 PUSH4 0x81812FC EQ PUSH2 0x32D5 JUMPI DUP2 PUSH4 0x95EA7B3 EQ PUSH2 0x31EE JUMPI DUP2 PUSH4 0xB7AD54C EQ PUSH2 0x3071 JUMPI DUP2 PUSH4 0x101E1940 EQ PUSH2 0x2FF8 JUMPI DUP2 PUSH4 0x18160DDD EQ PUSH2 0x2FCD JUMPI DUP2 PUSH4 0x23B872DD EQ PUSH2 0x2FB6 JUMPI DUP2 PUSH4 0x248A9CA3 EQ PUSH2 0x2F7A JUMPI DUP2 PUSH4 0x2F2FF15D EQ PUSH2 0x2F2E JUMPI DUP2 PUSH4 0x2F745C59 EQ PUSH2 0x2E9D JUMPI DUP2 PUSH4 0x36568ABE EQ PUSH2 0x2E56 JUMPI DUP2 PUSH4 0x42842E0E EQ PUSH2 0x2E28 JUMPI DUP2 PUSH4 0x42966C68 EQ PUSH2 0x2AE4 JUMPI DUP2 PUSH4 0x4A60F620 EQ PUSH2 0x2AC6 JUMPI DUP2 PUSH4 0x4E99775E EQ PUSH2 0x2A4E JUMPI DUP2 PUSH4 0x4F1EF286 EQ PUSH2 0x2805 JUMPI DUP2 PUSH4 0x4F6CCCE7 EQ PUSH2 0x27B0 JUMPI DUP2 PUSH4 0x52D1902D EQ PUSH2 0x2733 JUMPI DUP2 PUSH4 0x530B97A4 EQ PUSH2 0x21D7 JUMPI DUP2 PUSH4 0x57DFE3FC EQ PUSH2 0x20FD JUMPI DUP2 PUSH4 0x589C9648 EQ PUSH2 0x20B7 JUMPI DUP2 PUSH4 0x5AEF573C EQ PUSH2 0x1E1B JUMPI DUP2 PUSH4 0x5C975ABB EQ PUSH2 0x1DEB JUMPI DUP2 PUSH4 0x5E534F40 EQ PUSH2 0x16F8 JUMPI DUP2 PUSH4 0x6352211E EQ PUSH2 0x16C8 JUMPI DUP2 PUSH4 0x70A08231 EQ PUSH2 0x169D JUMPI DUP2 PUSH4 0x74449CA4 EQ PUSH2 0x27E JUMPI DUP2 PUSH4 0x75B238FC EQ PUSH2 0x1662 JUMPI DUP2 PUSH4 0x91D14854 EQ PUSH2 0x1608 JUMPI DUP2 PUSH4 0x95D89B41 EQ PUSH2 0x1526 JUMPI DUP2 PUSH4 0x995AB152 EQ PUSH2 0x14A2 JUMPI DUP2 PUSH4 0x9B5F1423 EQ PUSH2 0x1484 JUMPI DUP2 PUSH4 0xA1D795D1 EQ PUSH2 0x143A JUMPI DUP2 PUSH4 0xA217FDDF EQ PUSH2 0x141E JUMPI DUP2 PUSH4 0xA22CB465 EQ PUSH2 0x137E JUMPI DUP2 PUSH4 0xA4F5DF12 EQ PUSH2 0xF2B JUMPI DUP2 PUSH4 0xA9AA0072 EQ PUSH2 0xF0F JUMPI DUP2 PUSH4 0xAD3CB1CC EQ PUSH2 0xEC9 JUMPI DUP2 PUSH4 0xB88D4FDE EQ PUSH2 0xE70 JUMPI DUP2 PUSH4 0xBB119F6E EQ PUSH2 0xDAA JUMPI POP DUP1 PUSH4 0xC187BBC1 EQ PUSH2 0xD8C JUMPI DUP1 PUSH4 0xC87B56DD EQ PUSH2 0xD39 JUMPI DUP1 PUSH4 0xD5391393 EQ PUSH2 0xCFE JUMPI DUP1 PUSH4 0xD547741F EQ PUSH2 0xCB0 JUMPI DUP1 PUSH4 0xE085402D EQ PUSH2 0x547 JUMPI DUP1 PUSH4 0xE63AB1E9 EQ PUSH2 0x50C JUMPI DUP1 PUSH4 0xE985E9C5 EQ PUSH2 0x4BE JUMPI DUP1 PUSH4 0xEBCC2CB1 EQ PUSH2 0x492 JUMPI DUP1 PUSH4 0xF09CC7F1 EQ PUSH2 0x43A JUMPI DUP1 PUSH4 0xF197B6BA EQ PUSH2 0x2DC JUMPI DUP1 PUSH4 0xF72C0D8B EQ PUSH2 0x2A1 JUMPI PUSH4 0xF73D2D2F EQ PUSH2 0x27E JUMPI PUSH1 0x0 DUP1 REVERT JUMPDEST CALLVALUE PUSH2 0x29C JUMPI PUSH1 0x0 CALLDATASIZE PUSH1 0x3 NOT ADD SLT PUSH2 0x29C JUMPI PUSH1 0x20 PUSH1 0xA SLOAD PUSH1 0x40 MLOAD SWAP1 DUP2 MSTORE RETURN JUMPDEST PUSH1 0x0 DUP1 REVERT JUMPDEST CALLVALUE PUSH2 0x29C JUMPI PUSH1 0x0 CALLDATASIZE PUSH1 0x3 NOT ADD SLT PUSH2 0x29C JUMPI PUSH1 0x20 PUSH1 0x40 MLOAD PUSH32 0x189AB7A9244DF0848122154315AF71FE140F3DB0FE014031783B0946B8C9D2E3 DUP2 MSTORE RETURN JUMPDEST CALLVALUE PUSH2 0x29C JUMPI PUSH1 0x20 CALLDATASIZE PUSH1 0x3 NOT ADD SLT PUSH2 0x29C JUMPI PUSH1 0x4 CALLDATALOAD DUP1 PUSH1 0x0 MSTORE PUSH1 0x6 PUSH1 0x20 MSTORE PUSH1 0x40 PUSH1 0x0 KECCAK256 PUSH2 0x307 DUP3 PUSH2 0x3FE9 JUMP JUMPDEST CALLER PUSH1 0x1 PUSH1 0x1 PUSH1 0xA0 SHL SUB SWAP1 SWAP2 AND SUB PUSH2 0x3E7 JUMPI PUSH1 0x2 DUP2 ADD DUP1 SLOAD PUSH1 0xFF DUP2 AND PUSH1 0x5 DUP2 LT ISZERO PUSH2 0x3D1 JUMPI PUSH1 0x1 SUB PUSH2 0x38C JUMPI PUSH1 0x2 SWAP1 PUSH1 0xFF NOT AND OR SWAP1 SSTORE PUSH3 0x15180 TIMESTAMP ADD SWAP1 DUP2 TIMESTAMP GT PUSH2 0x376 JUMPI PUSH1 0x6 ADD SSTORE CALLER PUSH32 0x37220827A98F28702374A6637AFB3F3CF91FB0B001F5AFA52507535B8AE09380 PUSH1 0x0 DUP1 LOG3 STOP JUMPDEST PUSH4 0x4E487B71 PUSH1 0xE0 SHL PUSH1 0x0 MSTORE PUSH1 0x11 PUSH1 0x4 MSTORE PUSH1 0x24 PUSH1 0x0 REVERT JUMPDEST PUSH1 0x40 MLOAD PUSH3 0x461BCD PUSH1 0xE5 SHL DUP2 MSTORE PUSH1 0x20 PUSH1 0x4 DUP3 ADD MSTORE PUSH1 0x1D PUSH1 0x24 DUP3 ADD MSTORE PUSH32 0x50726F64756374206973206E6F7420696E20736F6C6420737461747573000000 PUSH1 0x44 DUP3 ADD MSTORE PUSH1 0x64 SWAP1 REVERT JUMPDEST PUSH4 0x4E487B71 PUSH1 0xE0 SHL PUSH1 0x0 MSTORE PUSH1 0x21 PUSH1 0x4 MSTORE PUSH1 0x24 PUSH1 0x0 REVERT JUMPDEST PUSH1 0x40 MLOAD PUSH3 0x461BCD PUSH1 0xE5 SHL DUP2 MSTORE PUSH1 0x20 PUSH1 0x4 DUP3 ADD MSTORE PUSH1 0x25 PUSH1 0x24 DUP3 ADD MSTORE PUSH32 0x4F6E6C79207468652073656C6C65722063616E206D61726B2061732064656C69 PUSH1 0x44 DUP3 ADD MSTORE PUSH5 0x1D995C9959 PUSH1 0xDA SHL PUSH1 0x64 DUP3 ADD MSTORE PUSH1 0x84 SWAP1 REVERT JUMPDEST CALLVALUE PUSH2 0x29C JUMPI PUSH1 0x40 CALLDATASIZE PUSH1 0x3 NOT ADD SLT PUSH2 0x29C JUMPI PUSH2 0x453 PUSH2 0x361A JUMP JUMPDEST PUSH1 0x1 PUSH1 0x1 PUSH1 0xA0 SHL SUB AND PUSH1 0x0 SWAP1 DUP2 MSTORE PUSH1 0xC PUSH1 0x20 MSTORE PUSH1 0x40 SWAP1 KECCAK256 DUP1 SLOAD PUSH1 0x24 CALLDATALOAD SWAP2 SWAP1 DUP3 LT ISZERO PUSH2 0x29C JUMPI PUSH1 0x20 SWAP2 PUSH2 0x484 SWAP2 PUSH2 0x395F JUMP JUMPDEST SWAP1 SLOAD PUSH1 0x40 MLOAD SWAP2 PUSH1 0x3 SHL SHR DUP2 MSTORE RETURN JUMPDEST CALLVALUE PUSH2 0x29C JUMPI PUSH1 0x20 CALLDATASIZE PUSH1 0x3 NOT ADD SLT PUSH2 0x29C JUMPI PUSH1 0x4 CALLDATALOAD PUSH1 0x0 MSTORE PUSH1 0x8 PUSH1 0x20 MSTORE PUSH1 0x20 PUSH1 0x40 PUSH1 0x0 KECCAK256 SLOAD PUSH1 0x40 MLOAD SWAP1 DUP2 MSTORE RETURN JUMPDEST CALLVALUE PUSH2 0x29C JUMPI PUSH1 0x40 CALLDATASIZE PUSH1 0x3 NOT ADD SLT PUSH2 0x29C JUMPI PUSH2 0x4D7 PUSH2 0x361A JUMP JUMPDEST PUSH2 0x4E8 PUSH2 0x4E2 PUSH2 0x3604 JUMP JUMPDEST SWAP2 PUSH2 0x3894 JUMP JUMPDEST SWAP1 PUSH1 0x1 DUP1 PUSH1 0xA0 SHL SUB AND PUSH1 0x0 MSTORE PUSH1 0x20 MSTORE PUSH1 0x20 PUSH1 0xFF PUSH1 0x40 PUSH1 0x0 KECCAK256 SLOAD AND PUSH1 0x40 MLOAD SWAP1 ISZERO ISZERO DUP2 MSTORE RETURN JUMPDEST CALLVALUE PUSH2 0x29C JUMPI PUSH1 0x0 CALLDATASIZE PUSH1 0x3 NOT ADD SLT PUSH2 0x29C JUMPI PUSH1 0x20 PUSH1 0x40 MLOAD PUSH32 0x65D7A28E3265B37A6474929F336521B332C1681B933F6CB9F3376673440D862A DUP2 MSTORE RETURN JUMPDEST CALLVALUE PUSH2 0x29C JUMPI PUSH1 0xA0 CALLDATASIZE PUSH1 0x3 NOT ADD SLT PUSH2 0x29C JUMPI PUSH1 0x4 CALLDATALOAD PUSH1 0x1 PUSH1 0x1 PUSH1 0x40 SHL SUB DUP2 GT PUSH2 0x29C JUMPI PUSH2 0x577 SWAP1 CALLDATASIZE SWAP1 PUSH1 0x4 ADD PUSH2 0x384D JUMP JUMPDEST PUSH1 0x24 CALLDATALOAD PUSH1 0x1 PUSH1 0x1 PUSH1 0x40 SHL SUB DUP2 GT PUSH2 0x29C JUMPI PUSH2 0x596 SWAP1 CALLDATASIZE SWAP1 PUSH1 0x4 ADD PUSH2 0x384D JUMP JUMPDEST SWAP1 PUSH1 0x44 CALLDATALOAD PUSH1 0x1 PUSH1 0x1 PUSH1 0x40 SHL SUB DUP2 GT PUSH2 0x29C JUMPI PUSH2 0x5B6 SWAP1 CALLDATASIZE SWAP1 PUSH1 0x4 ADD PUSH2 0x384D JUMP JUMPDEST SWAP2 PUSH1 0x64 CALLDATALOAD PUSH1 0x1 PUSH1 0x1 PUSH1 0x40 SHL SUB DUP2 GT PUSH2 0x29C JUMPI PUSH2 0x5D6 SWAP1 CALLDATASIZE SWAP1 PUSH1 0x4 ADD PUSH2 0x384D JUMP JUMPDEST PUSH1 0x84 CALLDATALOAD PUSH1 0x1 PUSH1 0x1 PUSH1 0x40 SHL SUB DUP2 GT PUSH2 0x29C JUMPI PUSH2 0x5F5 SWAP1 CALLDATASIZE SWAP1 PUSH1 0x4 ADD PUSH2 0x384D JUMP JUMPDEST SWAP1 PUSH1 0x40 MLOAD SWAP4 PUSH2 0x603 DUP6 PUSH2 0x36AA JUMP JUMPDEST DUP5 MSTORE DUP5 PUSH1 0x20 DUP6 ADD MSTORE PUSH1 0x40 DUP5 ADD MSTORE PUSH1 0x60 DUP4 ADD MSTORE PUSH1 0x80 DUP3 ADD MSTORE CALLER PUSH1 0xA0 DUP3 ADD MSTORE PUSH1 0x0 PUSH1 0xC0 DUP3 ADD MSTORE PUSH1 0xA SLOAD SWAP1 PUSH2 0x634 DUP3 PUSH2 0x4212 JUMP JUMPDEST PUSH1 0xA SSTORE DUP2 PUSH1 0x0 MSTORE PUSH1 0xB PUSH1 0x20 MSTORE PUSH1 0x40 PUSH1 0x0 KECCAK256 DUP2 MLOAD DUP1 MLOAD SWAP1 PUSH1 0x1 PUSH1 0x1 PUSH1 0x40 SHL SUB DUP3 GT PUSH2 0x963 JUMPI DUP2 SWAP1 PUSH2 0x664 DUP5 SLOAD PUSH2 0x3670 JUMP JUMPDEST PUSH1 0x1F DUP2 GT PUSH2 0xC60 JUMPI JUMPDEST POP PUSH1 0x20 SWAP1 PUSH1 0x1F DUP4 GT PUSH1 0x1 EQ PUSH2 0xBF4 JUMPI PUSH1 0x0 SWAP3 PUSH2 0xBE9 JUMPI JUMPDEST POP POP DUP2 PUSH1 0x1 SHL SWAP2 PUSH1 0x0 NOT SWAP1 PUSH1 0x3 SHL SHR NOT AND OR DUP2 SSTORE JUMPDEST PUSH1 0x20 DUP3 ADD MLOAD DUP1 MLOAD SWAP1 PUSH1 0x1 PUSH1 0x1 PUSH1 0x40 SHL SUB DUP3 GT PUSH2 0x963 JUMPI DUP2 SWAP1 PUSH2 0x6BE PUSH1 0x1 DUP6 ADD SLOAD PUSH2 0x3670 JUMP JUMPDEST PUSH1 0x1F DUP2 GT PUSH2 0xB96 JUMPI JUMPDEST POP PUSH1 0x20 SWAP1 PUSH1 0x1F DUP4 GT PUSH1 0x1 EQ PUSH2 0xB24 JUMPI PUSH1 0x0 SWAP3 PUSH2 0xB19 JUMPI JUMPDEST POP POP DUP2 PUSH1 0x1 SHL SWAP2 PUSH1 0x0 NOT SWAP1 PUSH1 0x3 SHL SHR NOT AND OR PUSH1 0x1 DUP3 ADD SSTORE JUMPDEST PUSH1 0x40 DUP3 ADD MLOAD DUP1 MLOAD SWAP1 PUSH1 0x1 PUSH1 0x1 PUSH1 0x40 SHL SUB DUP3 GT PUSH2 0x963 JUMPI DUP2 SWAP1 PUSH2 0x71B PUSH1 0x2 DUP6 ADD SLOAD PUSH2 0x3670 JUMP JUMPDEST PUSH1 0x1F DUP2 GT PUSH2 0xAC6 JUMPI JUMPDEST POP PUSH1 0x20 SWAP1 PUSH1 0x1F DUP4 GT PUSH1 0x1 EQ PUSH2 0xA54 JUMPI PUSH1 0x0 SWAP3 PUSH2 0xA49 JUMPI JUMPDEST POP POP DUP2 PUSH1 0x1 SHL SWAP2 PUSH1 0x0 NOT SWAP1 PUSH1 0x3 SHL SHR NOT AND OR PUSH1 0x2 DUP3 ADD SSTORE JUMPDEST PUSH1 0x60 DUP3 ADD MLOAD DUP1 MLOAD SWAP1 PUSH1 0x1 PUSH1 0x1 PUSH1 0x40 SHL SUB DUP3 GT PUSH2 0x963 JUMPI DUP2 SWAP1 PUSH2 0x778 PUSH1 0x3 DUP6 ADD SLOAD PUSH2 0x3670 JUMP JUMPDEST PUSH1 0x1F DUP2 GT PUSH2 0x9F6 JUMPI JUMPDEST POP PUSH1 0x20 SWAP1 PUSH1 0x1F DUP4 GT PUSH1 0x1 EQ PUSH2 0x984 JUMPI PUSH1 0x0 SWAP3 PUSH2 0x979 JUMPI JUMPDEST POP POP DUP2 PUSH1 0x1 SHL SWAP2 PUSH1 0x0 NOT SWAP1 PUSH1 0x3 SHL SHR NOT AND OR PUSH1 0x3 DUP3 ADD SSTORE JUMPDEST PUSH1 0x80 DUP3 ADD MLOAD DUP1 MLOAD SWAP1 PUSH1 0x1 PUSH1 0x1 PUSH1 0x40 SHL SUB DUP3 GT PUSH2 0x963 JUMPI PUSH2 0x7D3 PUSH1 0x4 DUP5 ADD SLOAD PUSH2 0x3670 JUMP JUMPDEST PUSH1 0x1F DUP2 GT PUSH2 0x918 JUMPI JUMPDEST POP PUSH1 0x20 SWAP1 PUSH1 0x1F DUP4 GT PUSH1 0x1 EQ PUSH2 0x8A7 JUMPI PUSH1 0x5 SWAP4 SWAP3 SWAP2 PUSH1 0x0 SWAP2 DUP4 PUSH2 0x89C JUMPI JUMPDEST POP POP DUP2 PUSH1 0x1 SHL SWAP2 PUSH1 0x0 NOT SWAP1 PUSH1 0x3 SHL SHR NOT AND OR PUSH1 0x4 DUP3 ADD SSTORE JUMPDEST ADD SWAP1 PUSH1 0x1 DUP1 PUSH1 0xA0 SHL SUB PUSH1 0xA0 DUP3 ADD MLOAD AND DUP3 SLOAD SWAP2 PUSH1 0xC0 PUSH1 0xFF PUSH1 0xA0 SHL SWAP2 ADD MLOAD ISZERO ISZERO PUSH1 0xA0 SHL AND SWAP2 PUSH11 0xFFFFFFFFFFFFFFFFFFFFFF PUSH1 0xA8 SHL AND OR OR SWAP1 SSTORE CALLER PUSH1 0x0 MSTORE PUSH1 0xC PUSH1 0x20 MSTORE PUSH2 0x85F DUP2 PUSH1 0x40 PUSH1 0x0 KECCAK256 PUSH2 0x4253 JUMP JUMPDEST PUSH32 0x2CFD2FA56ABF708D8F55EFEADD4BB72C8204E046F62D90DE877B743ABFD6081D PUSH1 0x40 MLOAD PUSH1 0x20 DUP2 MSTORE DUP1 PUSH2 0x897 CALLER SWAP6 PUSH1 0x20 DUP4 ADD SWAP1 PUSH2 0x3630 JUMP JUMPDEST SUB SWAP1 LOG3 STOP JUMPDEST ADD MLOAD SWAP1 POP DUP8 DUP1 PUSH2 0x7F9 JUMP JUMPDEST SWAP1 PUSH1 0x1F NOT DUP4 AND SWAP2 PUSH1 0x4 DUP6 ADD PUSH1 0x0 MSTORE PUSH1 0x20 PUSH1 0x0 KECCAK256 SWAP3 PUSH1 0x0 JUMPDEST DUP2 DUP2 LT PUSH2 0x900 JUMPI POP SWAP2 PUSH1 0x1 SWAP4 SWAP2 DUP6 PUSH1 0x5 SWAP8 SWAP7 SWAP5 LT PUSH2 0x8E7 JUMPI JUMPDEST POP POP POP DUP2 SHL ADD PUSH1 0x4 DUP3 ADD SSTORE PUSH2 0x811 JUMP JUMPDEST ADD MLOAD PUSH1 0x0 NOT PUSH1 0xF8 DUP5 PUSH1 0x3 SHL AND SHR NOT AND SWAP1 SSTORE DUP8 DUP1 DUP1 PUSH2 0x8D7 JUMP JUMPDEST SWAP3 SWAP4 PUSH1 0x20 PUSH1 0x1 DUP2 SWAP3 DUP8 DUP7 ADD MLOAD DUP2 SSTORE ADD SWAP6 ADD SWAP4 ADD PUSH2 0x8BE JUMP JUMPDEST PUSH1 0x4 DUP5 ADD PUSH1 0x0 MSTORE PUSH1 0x20 PUSH1 0x0 KECCAK256 PUSH1 0x1F DUP5 ADD PUSH1 0x5 SHR DUP2 ADD SWAP2 PUSH1 0x20 DUP6 LT PUSH2 0x959 JUMPI JUMPDEST PUSH1 0x1F ADD PUSH1 0x5 SHR ADD SWAP1 JUMPDEST DUP2 DUP2 LT PUSH2 0x94D JUMPI POP PUSH2 0x7DC JUMP JUMPDEST PUSH1 0x0 DUP2 SSTORE PUSH1 0x1 ADD PUSH2 0x940 JUMP JUMPDEST SWAP1 SWAP2 POP DUP2 SWAP1 PUSH2 0x937 JUMP JUMPDEST PUSH4 0x4E487B71 PUSH1 0xE0 SHL PUSH1 0x0 MSTORE PUSH1 0x41 PUSH1 0x4 MSTORE PUSH1 0x24 PUSH1 0x0 REVERT JUMPDEST ADD MLOAD SWAP1 POP DUP7 DUP1 PUSH2 0x798 JUMP JUMPDEST SWAP3 POP PUSH1 0x3 DUP5 ADD PUSH1 0x0 MSTORE PUSH1 0x20 PUSH1 0x0 KECCAK256 SWAP1 PUSH1 0x0 SWAP4 JUMPDEST PUSH1 0x1F NOT DUP5 AND DUP6 LT PUSH2 0x9DB JUMPI PUSH1 0x1 SWAP5 POP DUP4 PUSH1 0x1F NOT DUP2 AND LT PUSH2 0x9C2 JUMPI JUMPDEST POP POP POP DUP2 SHL ADD PUSH1 0x3 DUP3 ADD SSTORE PUSH2 0x7B0 JUMP JUMPDEST ADD MLOAD PUSH1 0x0 NOT PUSH1 0xF8 DUP5 PUSH1 0x3 SHL AND SHR NOT AND SWAP1 SSTORE DUP7 DUP1 DUP1 PUSH2 0x9B2 JUMP JUMPDEST DUP2 DUP2 ADD MLOAD DUP4 SSTORE PUSH1 0x20 SWAP5 DUP6 ADD SWAP5 PUSH1 0x1 SWAP1 SWAP4 ADD SWAP3 SWAP1 SWAP2 ADD SWAP1 PUSH2 0x997 JUMP JUMPDEST SWAP1 SWAP2 POP PUSH1 0x3 DUP5 ADD PUSH1 0x0 MSTORE PUSH1 0x20 PUSH1 0x0 KECCAK256 PUSH1 0x1F DUP5 ADD PUSH1 0x5 SHR DUP2 ADD PUSH1 0x20 DUP6 LT PUSH2 0xA42 JUMPI JUMPDEST SWAP1 DUP5 SWAP4 SWAP3 SWAP2 JUMPDEST PUSH1 0x1F DUP4 ADD PUSH1 0x5 SHR DUP3 ADD DUP2 LT PUSH2 0xA33 JUMPI POP POP PUSH2 0x781 JUMP JUMPDEST PUSH1 0x0 DUP2 SSTORE DUP6 SWAP5 POP PUSH1 0x1 ADD PUSH2 0xA1D JUMP JUMPDEST POP DUP1 PUSH2 0xA17 JUMP JUMPDEST ADD MLOAD SWAP1 POP DUP7 DUP1 PUSH2 0x73B JUMP JUMPDEST SWAP3 POP PUSH1 0x2 DUP5 ADD PUSH1 0x0 MSTORE PUSH1 0x20 PUSH1 0x0 KECCAK256 SWAP1 PUSH1 0x0 SWAP4 JUMPDEST PUSH1 0x1F NOT DUP5 AND DUP6 LT PUSH2 0xAAB JUMPI PUSH1 0x1 SWAP5 POP DUP4 PUSH1 0x1F NOT DUP2 AND LT PUSH2 0xA92 JUMPI JUMPDEST POP POP POP DUP2 SHL ADD PUSH1 0x2 DUP3 ADD SSTORE PUSH2 0x753 JUMP JUMPDEST ADD MLOAD PUSH1 0x0 NOT PUSH1 0xF8 DUP5 PUSH1 0x3 SHL AND SHR NOT AND SWAP1 SSTORE DUP7 DUP1 DUP1 PUSH2 0xA82 JUMP JUMPDEST DUP2 DUP2 ADD MLOAD DUP4 SSTORE PUSH1 0x20 SWAP5 DUP6 ADD SWAP5 PUSH1 0x1 SWAP1 SWAP4 ADD SWAP3 SWAP1 SWAP2 ADD SWAP1 PUSH2 0xA67 JUMP JUMPDEST SWAP1 SWAP2 POP PUSH1 0x2 DUP5 ADD PUSH1 0x0 MSTORE PUSH1 0x20 PUSH1 0x0 KECCAK256 PUSH1 0x1F DUP5 ADD PUSH1 0x5 SHR DUP2 ADD PUSH1 0x20 DUP6 LT PUSH2 0xB12 JUMPI JUMPDEST SWAP1 DUP5 SWAP4 SWAP3 SWAP2 JUMPDEST PUSH1 0x1F DUP4 ADD PUSH1 0x5 SHR DUP3 ADD DUP2 LT PUSH2 0xB03 JUMPI POP POP PUSH2 0x724 JUMP JUMPDEST PUSH1 0x0 DUP2 SSTORE DUP6 SWAP5 POP PUSH1 0x1 ADD PUSH2 0xAED JUMP JUMPDEST POP DUP1 PUSH2 0xAE7 JUMP JUMPDEST ADD MLOAD SWAP1 POP DUP7 DUP1 PUSH2 0x6DE JUMP JUMPDEST SWAP3 POP PUSH1 0x1 DUP5 ADD PUSH1 0x0 MSTORE PUSH1 0x20 PUSH1 0x0 KECCAK256 SWAP1 PUSH1 0x0 SWAP4 JUMPDEST PUSH1 0x1F NOT DUP5 AND DUP6 LT PUSH2 0xB7B JUMPI PUSH1 0x1 SWAP5 POP DUP4 PUSH1 0x1F NOT DUP2 AND LT PUSH2 0xB62 JUMPI JUMPDEST POP POP POP DUP2 SHL ADD PUSH1 0x1 DUP3 ADD SSTORE PUSH2 0x6F6 JUMP JUMPDEST ADD MLOAD PUSH1 0x0 NOT PUSH1 0xF8 DUP5 PUSH1 0x3 SHL AND SHR NOT AND SWAP1 SSTORE DUP7 DUP1 DUP1 PUSH2 0xB52 JUMP JUMPDEST DUP2 DUP2 ADD MLOAD DUP4 SSTORE PUSH1 0x20 SWAP5 DUP6 ADD SWAP5 PUSH1 0x1 SWAP1 SWAP4 ADD SWAP3 SWAP1 SWAP2 ADD SWAP1 PUSH2 0xB37 JUMP JUMPDEST SWAP1 SWAP2 POP PUSH1 0x1 DUP5 ADD PUSH1 0x0 MSTORE PUSH1 0x20 PUSH1 0x0 KECCAK256 PUSH1 0x1F DUP5 ADD PUSH1 0x5 SHR DUP2 ADD PUSH1 0x20 DUP6 LT PUSH2 0xBE2 JUMPI JUMPDEST SWAP1 DUP5 SWAP4 SWAP3 SWAP2 JUMPDEST PUSH1 0x1F DUP4 ADD PUSH1 0x5 SHR DUP3 ADD DUP2 LT PUSH2 0xBD3 JUMPI POP POP PUSH2 0x6C7 JUMP JUMPDEST PUSH1 0x0 DUP2 SSTORE DUP6 SWAP5 POP PUSH1 0x1 ADD PUSH2 0xBBD JUMP JUMPDEST POP DUP1 PUSH2 0xBB7 JUMP JUMPDEST ADD MLOAD SWAP1 POP DUP7 DUP1 PUSH2 0x684 JUMP JUMPDEST SWAP3 POP DUP4 PUSH1 0x0 MSTORE PUSH1 0x20 PUSH1 0x0 KECCAK256 SWAP1 PUSH1 0x0 SWAP4 JUMPDEST PUSH1 0x1F NOT DUP5 AND DUP6 LT PUSH2 0xC45 JUMPI PUSH1 0x1 SWAP5 POP DUP4 PUSH1 0x1F NOT DUP2 AND LT PUSH2 0xC2C JUMPI JUMPDEST POP POP POP DUP2 SHL ADD DUP2 SSTORE PUSH2 0x699 JUMP JUMPDEST ADD MLOAD PUSH1 0x0 NOT PUSH1 0xF8 DUP5 PUSH1 0x3 SHL AND SHR NOT AND SWAP1 SSTORE DUP7 DUP1 DUP1 PUSH2 0xC1F JUMP JUMPDEST DUP2 DUP2 ADD MLOAD DUP4 SSTORE PUSH1 0x20 SWAP5 DUP6 ADD SWAP5 PUSH1 0x1 SWAP1 SWAP4 ADD SWAP3 SWAP1 SWAP2 ADD SWAP1 PUSH2 0xC04 JUMP JUMPDEST SWAP1 SWAP2 POP DUP4 PUSH1 0x0 MSTORE PUSH1 0x20 PUSH1 0x0 KECCAK256 PUSH1 0x1F DUP5 ADD PUSH1 0x5 SHR DUP2 ADD PUSH1 0x20 DUP6 LT PUSH2 0xCA9 JUMPI JUMPDEST SWAP1 DUP5 SWAP4 SWAP3 SWAP2 JUMPDEST PUSH1 0x1F DUP4 ADD PUSH1 0x5 SHR DUP3 ADD DUP2 LT PUSH2 0xC9A JUMPI POP POP PUSH2 0x66D JUMP JUMPDEST PUSH1 0x0 DUP2 SSTORE DUP6 SWAP5 POP PUSH1 0x1 ADD PUSH2 0xC84 JUMP JUMPDEST POP DUP1 PUSH2 0xC7E JUMP JUMPDEST CALLVALUE PUSH2 0x29C JUMPI PUSH1 0x40 CALLDATASIZE PUSH1 0x3 NOT ADD SLT PUSH2 0x29C JUMPI PUSH2 0xCFC PUSH1 0x4 CALLDATALOAD PUSH2 0xCCF PUSH2 0x3604 JUMP JUMPDEST SWAP1 DUP1 PUSH1 0x0 MSTORE PUSH1 0x0 DUP1 MLOAD PUSH1 0x20 PUSH2 0x43EB DUP4 CODECOPY DUP2 MLOAD SWAP2 MSTORE PUSH1 0x20 MSTORE PUSH2 0xCF7 PUSH1 0x1 PUSH1 0x40 PUSH1 0x0 KECCAK256 ADD SLOAD PUSH2 0x3986 JUMP JUMPDEST PUSH2 0x3C16 JUMP JUMPDEST STOP JUMPDEST CALLVALUE PUSH2 0x29C JUMPI PUSH1 0x0 CALLDATASIZE PUSH1 0x3 NOT ADD SLT PUSH2 0x29C JUMPI PUSH1 0x20 PUSH1 0x40 MLOAD PUSH32 0x9F2DF0FED2C77648DE5860A4CC508CD0818C85B8B8A1AB4CEEEF8D981C8956A6 DUP2 MSTORE RETURN JUMPDEST CALLVALUE PUSH2 0x29C JUMPI PUSH1 0x20 CALLDATASIZE PUSH1 0x3 NOT ADD SLT PUSH2 0x29C JUMPI PUSH1 0x4 CALLDATALOAD PUSH1 0x0 MSTORE PUSH1 0x2 PUSH1 0x20 MSTORE PUSH2 0xD88 PUSH2 0xD65 PUSH1 0x40 PUSH1 0x0 KECCAK256 PUSH2 0x371C JUMP JUMPDEST PUSH1 0x0 PUSH1 0x40 MLOAD PUSH2 0xD73 DUP2 PUSH2 0x36C5 JUMP JUMPDEST MSTORE PUSH1 0x40 MLOAD SWAP2 DUP3 SWAP2 PUSH1 0x20 DUP4 MSTORE PUSH1 0x20 DUP4 ADD SWAP1 PUSH2 0x3630 JUMP JUMPDEST SUB SWAP1 RETURN JUMPDEST CALLVALUE PUSH2 0x29C JUMPI PUSH1 0x0 CALLDATASIZE PUSH1 0x3 NOT ADD SLT PUSH2 0x29C JUMPI PUSH1 0x20 PUSH1 0x4 SLOAD PUSH1 0x40 MLOAD SWAP1 DUP2 MSTORE RETURN JUMPDEST CALLVALUE PUSH2 0x29C JUMPI PUSH1 0x20 CALLDATASIZE PUSH1 0x3 NOT ADD SLT PUSH2 0x29C JUMPI PUSH1 0x4 CALLDATALOAD PUSH1 0x0 MSTORE PUSH1 0x6 PUSH1 0x20 MSTORE PUSH1 0x40 PUSH1 0x0 KECCAK256 SWAP1 DUP2 SLOAD SWAP2 PUSH1 0x1 DUP2 ADD SLOAD PUSH1 0x2 DUP3 ADD SLOAD SWAP2 PUSH1 0xFF DUP1 DUP5 AND SWAP4 PUSH1 0x8 SHR AND SWAP3 PUSH2 0xDF1 PUSH1 0x3 DUP4 ADD PUSH2 0x371C JUMP JUMPDEST SWAP5 PUSH1 0x4 DUP4 ADD SLOAD SWAP5 PUSH1 0x5 DUP5 ADD SLOAD SWAP1 PUSH1 0x6 DUP6 ADD SLOAD SWAP4 PUSH1 0x8 PUSH1 0xFF PUSH1 0x7 DUP9 ADD SLOAD AND SWAP7 ADD SLOAD SWAP7 PUSH1 0x40 MLOAD SWAP11 DUP12 MSTORE PUSH1 0x20 DUP12 ADD MSTORE PUSH1 0x5 DUP2 LT ISZERO PUSH2 0x3D1 JUMPI PUSH1 0x40 DUP11 ADD MSTORE PUSH1 0x3 DUP2 LT ISZERO PUSH2 0x3D1 JUMPI DUP9 SWAP8 PUSH2 0xE50 SWAP2 PUSH1 0x60 DUP11 ADD MSTORE PUSH2 0x140 DUP1 PUSH1 0x80 DUP12 ADD MSTORE DUP10 ADD SWAP1 PUSH2 0x3630 JUMP JUMPDEST SWAP6 PUSH1 0xA0 DUP9 ADD MSTORE PUSH1 0xC0 DUP8 ADD MSTORE DUP6 ADD MSTORE ISZERO ISZERO PUSH2 0x100 DUP5 ADD MSTORE PUSH2 0x120 DUP4 ADD MSTORE SUB SWAP1 RETURN JUMPDEST CALLVALUE PUSH2 0x29C JUMPI PUSH1 0x80 CALLDATASIZE PUSH1 0x3 NOT ADD SLT PUSH2 0x29C JUMPI PUSH2 0xE89 PUSH2 0x361A JUMP JUMPDEST PUSH2 0xE91 PUSH2 0x3604 JUMP JUMPDEST SWAP1 PUSH1 0x44 CALLDATALOAD PUSH1 0x64 CALLDATALOAD SWAP3 PUSH1 0x1 PUSH1 0x1 PUSH1 0x40 SHL SUB DUP5 GT PUSH2 0x29C JUMPI PUSH2 0xEB8 PUSH2 0xCFC SWAP5 CALLDATASIZE SWAP1 PUSH1 0x4 ADD PUSH2 0x384D JUMP JUMPDEST SWAP3 PUSH2 0xEC4 DUP4 DUP4 DUP4 PUSH2 0x3CCE JUMP JUMPDEST PUSH2 0x4061 JUMP JUMPDEST CALLVALUE PUSH2 0x29C JUMPI PUSH1 0x0 CALLDATASIZE PUSH1 0x3 NOT ADD SLT PUSH2 0x29C JUMPI PUSH2 0xD88 PUSH1 0x40 MLOAD PUSH2 0xEE9 DUP2 PUSH2 0x36E0 JUMP JUMPDEST PUSH1 0x5 DUP2 MSTORE PUSH5 0x352E302E3 PUSH1 0xDC SHL PUSH1 0x20 DUP3 ADD MSTORE PUSH1 0x40 MLOAD SWAP2 DUP3 SWAP2 PUSH1 0x20 DUP4 MSTORE PUSH1 0x20 DUP4 ADD SWAP1 PUSH2 0x3630 JUMP JUMPDEST CALLVALUE PUSH2 0x29C JUMPI PUSH1 0x0 CALLDATASIZE PUSH1 0x3 NOT ADD SLT PUSH2 0x29C JUMPI PUSH1 0x20 PUSH1 0x40 MLOAD PUSH1 0x1 DUP2 MSTORE RETURN JUMPDEST CALLVALUE PUSH2 0x29C JUMPI PUSH1 0x40 CALLDATASIZE PUSH1 0x3 NOT ADD SLT PUSH2 0x29C JUMPI PUSH1 0x4 CALLDATALOAD PUSH2 0xF47 PUSH2 0x3977 JUMP JUMPDEST CALLER PUSH1 0x0 SWAP1 DUP2 MSTORE PUSH32 0xB16E88C42FD4E48DF2DD6A2EABD6BC9AEC654EC170056B470819F8892CC6431C PUSH1 0x20 SWAP1 DUP2 MSTORE PUSH1 0x40 SWAP1 SWAP2 KECCAK256 SLOAD PUSH32 0xA49807205CE4D355092EF5A8A18F56E8913CF4A201FBE287825B095693C21775 SWAP1 PUSH1 0xFF AND ISZERO PUSH2 0x1360 JUMPI POP DUP3 PUSH1 0x0 MSTORE PUSH1 0x6 DUP2 MSTORE PUSH1 0x40 PUSH1 0x0 KECCAK256 PUSH1 0xFF PUSH1 0x2 DUP3 ADD SLOAD AND PUSH1 0x5 DUP2 LT ISZERO PUSH2 0x3D1 JUMPI PUSH1 0x4 SUB PUSH2 0x1327 JUMPI PUSH1 0x8 ADD DUP1 SLOAD SWAP1 DUP2 PUSH1 0x0 MSTORE PUSH1 0x7 SWAP2 DUP3 DUP5 MSTORE PUSH1 0x4 PUSH1 0x40 PUSH1 0x0 KECCAK256 ADD CALLER PUSH1 0x0 MSTORE DUP5 MSTORE PUSH1 0xFF PUSH1 0x40 PUSH1 0x0 KECCAK256 SLOAD AND PUSH2 0x12F2 JUMPI PUSH1 0x0 MSTORE DUP2 DUP4 MSTORE PUSH1 0x4 PUSH1 0x40 PUSH1 0x0 KECCAK256 ADD CALLER PUSH1 0x0 MSTORE DUP4 MSTORE PUSH1 0x40 PUSH1 0x0 KECCAK256 SWAP4 PUSH1 0xFF NOT SWAP5 PUSH1 0x1 DUP7 DUP3 SLOAD AND OR SWAP1 SSTORE PUSH1 0x0 EQ PUSH2 0x12B8 JUMPI DUP1 SLOAD PUSH1 0x0 MSTORE DUP2 DUP4 MSTORE PUSH1 0x2 PUSH1 0x40 PUSH1 0x0 KECCAK256 ADD PUSH2 0x103C DUP2 SLOAD PUSH2 0x4212 JUMP JUMPDEST SWAP1 SSTORE DUP1 SLOAD PUSH1 0x0 MSTORE DUP2 DUP4 MSTORE PUSH2 0x1057 CALLER PUSH1 0x5 PUSH1 0x40 PUSH1 0x0 KECCAK256 ADD PUSH2 0x428E JUMP JUMPDEST SLOAD PUSH1 0x0 MSTORE DUP1 DUP3 MSTORE PUSH1 0x40 PUSH1 0x0 KECCAK256 PUSH1 0x1 PUSH1 0x2 DUP3 ADD SLOAD LT ISZERO PUSH1 0x0 EQ PUSH2 0x11A8 JUMPI POP PUSH2 0x10E0 SWAP3 DUP5 PUSH1 0x0 MSTORE PUSH1 0x6 DUP4 MSTORE PUSH1 0x40 PUSH1 0x0 KECCAK256 SWAP1 PUSH1 0x3 PUSH1 0x2 DUP4 ADD SWAP2 DUP3 SLOAD AND OR SWAP1 SSTORE PUSH1 0x1 DUP1 PUSH1 0xA0 SHL SUB SWAP2 DUP4 DUP4 PUSH1 0x5 SLOAD AND PUSH2 0x10AA DUP9 PUSH2 0x3FE9 JUMP JUMPDEST DUP5 SLOAD PUSH1 0x40 MLOAD PUSH4 0xA9059CBB PUSH1 0xE0 SHL DUP2 MSTORE PUSH1 0x1 PUSH1 0x1 PUSH1 0xA0 SHL SUB SWAP1 SWAP3 AND PUSH1 0x4 DUP4 ADD MSTORE PUSH1 0x24 DUP3 ADD MSTORE SWAP7 DUP8 SWAP2 SWAP1 DUP3 SWAP1 PUSH1 0x0 SWAP1 DUP3 SWAP1 PUSH1 0x44 DUP3 ADD SWAP1 JUMP JUMPDEST SUB SWAP3 GAS CALL SWAP2 DUP3 ISZERO PUSH2 0x119C JUMPI PUSH32 0x5A87909BFF68CAAAAF0B3FD9C74EECCC928832F879315E5C6FB7A73612F26C0C SWAP6 PUSH1 0xFF SWAP4 PUSH2 0x116F JUMPI JUMPDEST POP ADD SLOAD AND ISZERO DUP1 ISZERO PUSH2 0x1167 JUMPI JUMPDEST PUSH2 0x1131 JUMPI JUMPDEST POP PUSH1 0x40 MLOAD PUSH1 0x1 DUP2 MSTORE LOG2 STOP JUMPDEST PUSH2 0x113A DUP5 PUSH2 0x3FE9 JUMP JUMPDEST AND DUP4 PUSH32 0x3F1E255A6EA92490593E747297E412CF02CF52504DD965366DCE991F916D2AE1 PUSH1 0x0 DUP1 LOG3 DUP4 PUSH2 0x1126 JUMP JUMPDEST POP PUSH1 0x1 PUSH2 0x1121 JUMP JUMPDEST PUSH2 0x118E SWAP1 DUP7 RETURNDATASIZE DUP9 GT PUSH2 0x1195 JUMPI JUMPDEST PUSH2 0x1186 DUP2 DUP4 PUSH2 0x36FB JUMP JUMPDEST DUP2 ADD SWAP1 PUSH2 0x4276 JUMP JUMPDEST POP DUP8 PUSH2 0x1115 JUMP JUMPDEST POP RETURNDATASIZE PUSH2 0x117C JUMP JUMPDEST PUSH1 0x40 MLOAD RETURNDATASIZE PUSH1 0x0 DUP3 RETURNDATACOPY RETURNDATASIZE SWAP1 REVERT JUMPDEST PUSH1 0x3 PUSH1 0x1 SWAP2 ADD SLOAD LT ISZERO PUSH2 0x11B7 JUMPI STOP JUMPDEST PUSH1 0x0 DUP5 DUP2 MSTORE PUSH1 0x6 DUP4 MSTORE PUSH1 0x40 DUP1 DUP3 KECCAK256 PUSH1 0x2 DUP2 ADD DUP1 SLOAD SWAP7 SWAP1 SWAP7 AND PUSH1 0x3 OR SWAP1 SWAP6 SSTORE PUSH1 0x5 SLOAD DUP6 SLOAD SWAP2 MLOAD PUSH4 0xA9059CBB PUSH1 0xE0 SHL DUP2 MSTORE CALLER PUSH1 0x4 DUP3 ADD MSTORE PUSH1 0x24 DUP2 ADD SWAP3 SWAP1 SWAP3 MSTORE SWAP1 SWAP5 PUSH1 0x1 PUSH1 0x1 PUSH1 0xA0 SHL SUB SWAP4 SWAP1 SWAP3 SWAP1 SWAP2 DUP6 SWAP2 DUP8 SWAP2 PUSH1 0x44 SWAP2 DUP4 SWAP2 DUP9 AND GAS CALL SWAP2 DUP3 ISZERO PUSH2 0x119C JUMPI PUSH32 0x5A87909BFF68CAAAAF0B3FD9C74EECCC928832F879315E5C6FB7A73612F26C0C SWAP6 PUSH1 0xFF SWAP4 PUSH2 0x129B JUMPI JUMPDEST POP ADD SLOAD AND ISZERO DUP1 ISZERO PUSH2 0x1293 JUMPI JUMPDEST PUSH2 0x125D JUMPI JUMPDEST POP PUSH1 0x40 MLOAD PUSH1 0x0 DUP2 MSTORE LOG2 STOP JUMPDEST PUSH2 0x1266 DUP5 PUSH2 0x3FE9 JUMP JUMPDEST AND DUP4 PUSH32 0x3F1E255A6EA92490593E747297E412CF02CF52504DD965366DCE991F916D2AE1 PUSH1 0x0 DUP1 LOG3 DUP4 PUSH2 0x1252 JUMP JUMPDEST POP PUSH1 0x0 PUSH2 0x124D JUMP JUMPDEST PUSH2 0x12B1 SWAP1 DUP7 RETURNDATASIZE DUP9 GT PUSH2 0x1195 JUMPI PUSH2 0x1186 DUP2 DUP4 PUSH2 0x36FB JUMP JUMPDEST POP DUP8 PUSH2 0x1241 JUMP JUMPDEST DUP1 SLOAD PUSH1 0x0 MSTORE DUP2 DUP4 MSTORE PUSH1 0x3 PUSH1 0x40 PUSH1 0x0 KECCAK256 ADD PUSH2 0x12D2 DUP2 SLOAD PUSH2 0x4212 JUMP JUMPDEST SWAP1 SSTORE DUP1 SLOAD PUSH1 0x0 MSTORE DUP2 DUP4 MSTORE PUSH2 0x12ED CALLER PUSH1 0x6 PUSH1 0x40 PUSH1 0x0 KECCAK256 ADD PUSH2 0x428E JUMP JUMPDEST PUSH2 0x1057 JUMP JUMPDEST PUSH1 0x40 MLOAD PUSH3 0x461BCD PUSH1 0xE5 SHL DUP2 MSTORE PUSH1 0x4 DUP2 ADD DUP6 SWAP1 MSTORE PUSH1 0xD PUSH1 0x24 DUP3 ADD MSTORE PUSH13 0x105B1C9958591E481D9BDD1959 PUSH1 0x9A SHL PUSH1 0x44 DUP3 ADD MSTORE PUSH1 0x64 SWAP1 REVERT JUMPDEST PUSH1 0x40 MLOAD PUSH3 0x461BCD PUSH1 0xE5 SHL DUP2 MSTORE PUSH1 0x4 DUP2 ADD DUP4 SWAP1 MSTORE PUSH1 0x11 PUSH1 0x24 DUP3 ADD MSTORE PUSH17 0x4E6F206163746976652064697370757465 PUSH1 0x78 SHL PUSH1 0x44 DUP3 ADD MSTORE PUSH1 0x64 SWAP1 REVERT JUMPDEST PUSH1 0x44 SWAP1 PUSH1 0x40 MLOAD SWAP1 PUSH4 0xE2517D3F PUSH1 0xE0 SHL DUP3 MSTORE CALLER PUSH1 0x4 DUP4 ADD MSTORE PUSH1 0x24 DUP3 ADD MSTORE REVERT JUMPDEST CALLVALUE PUSH2 0x29C JUMPI PUSH1 0x40 CALLDATASIZE PUSH1 0x3 NOT ADD SLT PUSH2 0x29C JUMPI PUSH2 0x1397 PUSH2 0x361A JUMP JUMPDEST PUSH2 0x139F PUSH2 0x3977 JUMP JUMPDEST PUSH1 0x1 PUSH1 0x1 PUSH1 0xA0 SHL SUB SWAP1 SWAP2 AND SWAP1 DUP2 ISZERO PUSH2 0x1405 JUMPI PUSH2 0x13BA CALLER PUSH2 0x3894 JUMP JUMPDEST DUP3 PUSH1 0x0 MSTORE PUSH1 0x20 MSTORE PUSH1 0x40 PUSH1 0x0 KECCAK256 SWAP1 ISZERO ISZERO SWAP1 PUSH1 0xFF NOT DUP2 SLOAD AND PUSH1 0xFF DUP4 AND OR SWAP1 SSTORE PUSH1 0x40 MLOAD SWAP1 DUP2 MSTORE PUSH32 0x17307EAB39AB6107E8899845AD3D59BD9653F200F220920489CA2B5937696C31 PUSH1 0x20 CALLER SWAP3 LOG3 STOP JUMPDEST PUSH1 0x40 MLOAD PUSH4 0xB611743 PUSH1 0xE3 SHL DUP2 MSTORE PUSH1 0x4 DUP2 ADD DUP4 SWAP1 MSTORE PUSH1 0x24 SWAP1 REVERT JUMPDEST CALLVALUE PUSH2 0x29C JUMPI PUSH1 0x0 CALLDATASIZE PUSH1 0x3 NOT ADD SLT PUSH2 0x29C JUMPI PUSH1 0x20 PUSH1 0x40 MLOAD PUSH1 0x0 DUP2 MSTORE RETURN JUMPDEST CALLVALUE PUSH2 0x29C JUMPI PUSH1 0x40 CALLDATASIZE PUSH1 0x3 NOT ADD SLT PUSH2 0x29C JUMPI PUSH2 0x1453 PUSH2 0x361A JUMP JUMPDEST PUSH1 0x1 PUSH1 0x1 PUSH1 0xA0 SHL SUB AND PUSH1 0x0 SWAP1 DUP2 MSTORE PUSH1 0x9 PUSH1 0x20 MSTORE PUSH1 0x40 SWAP1 KECCAK256 DUP1 SLOAD PUSH1 0x24 CALLDATALOAD SWAP2 SWAP1 DUP3 LT ISZERO PUSH2 0x29C JUMPI PUSH1 0x20 SWAP2 PUSH2 0x484 SWAP2 PUSH2 0x395F JUMP JUMPDEST CALLVALUE PUSH2 0x29C JUMPI PUSH1 0x0 CALLDATASIZE PUSH1 0x3 NOT ADD SLT PUSH2 0x29C JUMPI PUSH1 0x20 PUSH1 0x1 SLOAD PUSH1 0x40 MLOAD SWAP1 DUP2 MSTORE RETURN JUMPDEST CALLVALUE PUSH2 0x29C JUMPI PUSH1 0x20 DUP1 PUSH1 0x3 NOT CALLDATASIZE ADD SLT PUSH2 0x29C JUMPI PUSH1 0x1 PUSH1 0x1 PUSH1 0xA0 SHL SUB PUSH2 0x14C4 PUSH2 0x361A JUMP JUMPDEST AND PUSH1 0x0 MSTORE PUSH1 0xC DUP2 MSTORE PUSH1 0x40 PUSH1 0x0 KECCAK256 SWAP1 PUSH1 0x40 MLOAD SWAP1 DUP2 DUP2 DUP5 SLOAD SWAP2 DUP3 DUP2 MSTORE ADD SWAP4 PUSH1 0x0 MSTORE DUP2 PUSH1 0x0 KECCAK256 SWAP2 PUSH1 0x0 SWAP1 JUMPDEST DUP3 DUP3 LT PUSH2 0x150F JUMPI PUSH2 0xD88 DUP6 PUSH2 0x1503 DUP2 DUP10 SUB DUP3 PUSH2 0x36FB JUMP JUMPDEST PUSH1 0x40 MLOAD SWAP2 DUP3 SWAP2 DUP3 PUSH2 0x37F7 JUMP JUMPDEST DUP4 SLOAD DUP7 MSTORE SWAP5 DUP6 ADD SWAP5 PUSH1 0x1 SWAP4 DUP5 ADD SWAP4 SWAP1 SWAP2 ADD SWAP1 PUSH2 0x14EC JUMP JUMPDEST CALLVALUE PUSH2 0x29C JUMPI PUSH1 0x0 CALLDATASIZE PUSH1 0x3 NOT ADD SLT PUSH2 0x29C JUMPI PUSH1 0x40 MLOAD PUSH1 0x0 PUSH1 0x0 DUP1 MLOAD PUSH1 0x20 PUSH2 0x448B DUP4 CODECOPY DUP2 MLOAD SWAP2 MSTORE DUP1 SLOAD PUSH2 0x1556 DUP2 PUSH2 0x3670 JUMP JUMPDEST DUP1 DUP6 MSTORE SWAP2 PUSH1 0x1 SWAP2 DUP1 DUP4 AND SWAP1 DUP2 ISZERO PUSH2 0x15DE JUMPI POP PUSH1 0x1 EQ PUSH2 0x1594 JUMPI JUMPDEST PUSH2 0xD88 DUP6 PUSH2 0x1580 DUP2 DUP8 SUB DUP3 PUSH2 0x36FB JUMP JUMPDEST PUSH1 0x40 MLOAD SWAP2 DUP3 SWAP2 PUSH1 0x20 DUP4 MSTORE PUSH1 0x20 DUP4 ADD SWAP1 PUSH2 0x3630 JUMP JUMPDEST PUSH1 0x0 SWAP1 DUP2 MSTORE SWAP3 POP PUSH1 0x0 DUP1 MLOAD PUSH1 0x20 PUSH2 0x438B DUP4 CODECOPY DUP2 MLOAD SWAP2 MSTORE JUMPDEST DUP3 DUP5 LT PUSH2 0x15C6 JUMPI POP POP POP DUP2 ADD PUSH1 0x20 ADD PUSH2 0x1580 DUP3 PUSH2 0xD88 PUSH2 0x1570 JUMP JUMPDEST DUP1 SLOAD PUSH1 0x20 DUP6 DUP8 ADD DUP2 ADD SWAP2 SWAP1 SWAP2 MSTORE SWAP1 SWAP4 ADD SWAP3 DUP2 ADD PUSH2 0x15AB JUMP JUMPDEST DUP7 SWAP6 POP PUSH2 0xD88 SWAP7 SWAP4 POP PUSH1 0x20 SWAP3 POP PUSH2 0x1580 SWAP5 SWAP2 POP PUSH1 0xFF NOT AND DUP3 DUP5 ADD MSTORE ISZERO ISZERO PUSH1 0x5 SHL DUP3 ADD ADD SWAP3 SWAP4 PUSH2 0x1570 JUMP JUMPDEST CALLVALUE PUSH2 0x29C JUMPI PUSH1 0x40 CALLDATASIZE PUSH1 0x3 NOT ADD SLT PUSH2 0x29C JUMPI PUSH2 0x1621 PUSH2 0x3604 JUMP JUMPDEST PUSH1 0x4 CALLDATALOAD PUSH1 0x0 MSTORE PUSH1 0x0 DUP1 MLOAD PUSH1 0x20 PUSH2 0x43EB DUP4 CODECOPY DUP2 MLOAD SWAP2 MSTORE PUSH1 0x20 MSTORE PUSH1 0x40 PUSH1 0x0 KECCAK256 SWAP1 PUSH1 0x1 DUP1 PUSH1 0xA0 SHL SUB AND PUSH1 0x0 MSTORE PUSH1 0x20 MSTORE PUSH1 0x20 PUSH1 0xFF PUSH1 0x40 PUSH1 0x0 KECCAK256 SLOAD AND PUSH1 0x40 MLOAD SWAP1 ISZERO ISZERO DUP2 MSTORE RETURN JUMPDEST CALLVALUE PUSH2 0x29C JUMPI PUSH1 0x0 CALLDATASIZE PUSH1 0x3 NOT ADD SLT PUSH2 0x29C JUMPI PUSH1 0x20 PUSH1 0x40 MLOAD PUSH32 0xA49807205CE4D355092EF5A8A18F56E8913CF4A201FBE287825B095693C21775 DUP2 MSTORE RETURN JUMPDEST CALLVALUE PUSH2 0x29C JUMPI PUSH1 0x20 CALLDATASIZE PUSH1 0x3 NOT ADD SLT PUSH2 0x29C JUMPI PUSH1 0x20 PUSH2 0x16C0 PUSH2 0x16BB PUSH2 0x361A JUMP JUMPDEST PUSH2 0x3C99 JUMP JUMPDEST PUSH1 0x40 MLOAD SWAP1 DUP2 MSTORE RETURN JUMPDEST CALLVALUE PUSH2 0x29C JUMPI PUSH1 0x20 CALLDATASIZE PUSH1 0x3 NOT ADD SLT PUSH2 0x29C JUMPI PUSH1 0x20 PUSH2 0x16E6 PUSH1 0x4 CALLDATALOAD PUSH2 0x3FE9 JUMP JUMPDEST PUSH1 0x40 MLOAD PUSH1 0x1 PUSH1 0x1 PUSH1 0xA0 SHL SUB SWAP1 SWAP2 AND DUP2 MSTORE RETURN JUMPDEST CALLVALUE PUSH2 0x29C JUMPI PUSH1 0xA0 CALLDATASIZE PUSH1 0x3 NOT ADD SLT PUSH2 0x29C JUMPI PUSH1 0x24 CALLDATALOAD PUSH1 0x1 PUSH1 0x1 PUSH1 0x40 SHL SUB DUP2 GT PUSH2 0x29C JUMPI PUSH2 0x1728 SWAP1 CALLDATASIZE SWAP1 PUSH1 0x4 ADD PUSH2 0x384D JUMP JUMPDEST PUSH1 0x64 CALLDATALOAD PUSH1 0x1 PUSH1 0x1 PUSH1 0x40 SHL SUB DUP2 GT PUSH2 0x29C JUMPI PUSH2 0x1747 SWAP1 CALLDATASIZE SWAP1 PUSH1 0x4 ADD PUSH2 0x384D JUMP JUMPDEST SWAP1 PUSH1 0x4 CALLDATALOAD ISZERO PUSH2 0x1DA6 JUMPI PUSH1 0x0 SLOAD SWAP1 PUSH2 0x175D DUP3 PUSH2 0x4212 JUMP JUMPDEST PUSH1 0x0 SSTORE DUP2 PUSH1 0x0 MSTORE PUSH1 0x6 PUSH1 0x20 MSTORE PUSH1 0x40 PUSH1 0x0 KECCAK256 PUSH1 0x4 CALLDATALOAD DUP2 SSTORE PUSH1 0x1 DUP1 DUP3 ADD SSTORE PUSH1 0x2 DUP2 ADD PUSH2 0xFFFF NOT DUP2 SLOAD AND SWAP1 SSTORE DUP2 MLOAD PUSH1 0x1 PUSH1 0x1 PUSH1 0x40 SHL SUB DUP2 GT PUSH2 0x963 JUMPI PUSH2 0x17A3 PUSH1 0x3 DUP4 ADD SLOAD PUSH2 0x3670 JUMP JUMPDEST PUSH1 0x1F DUP2 GT PUSH2 0x1D5F JUMPI JUMPDEST POP DUP1 PUSH1 0x20 PUSH1 0x1F DUP3 GT PUSH1 0x1 EQ PUSH2 0x1CF4 JUMPI PUSH1 0x0 SWAP2 PUSH2 0x1CE9 JUMPI JUMPDEST POP DUP2 PUSH1 0x1 SHL SWAP2 PUSH1 0x0 NOT SWAP1 PUSH1 0x3 SHL SHR NOT AND OR PUSH1 0x3 DUP3 ADD SSTORE JUMPDEST PUSH1 0x44 CALLDATALOAD PUSH1 0x4 DUP3 ADD SSTORE PUSH1 0x6 PUSH1 0x84 CALLDATALOAD SWAP2 ADD SSTORE PUSH1 0x40 MLOAD PUSH2 0x17F6 DUP2 PUSH2 0x36C5 JUMP JUMPDEST PUSH1 0x0 DUP2 MSTORE CALLER ISZERO PUSH2 0x1CD0 JUMPI PUSH1 0xFF PUSH1 0x0 DUP1 MLOAD PUSH1 0x20 PUSH2 0x440B DUP4 CODECOPY DUP2 MLOAD SWAP2 MSTORE SLOAD AND PUSH2 0x1CBE JUMPI PUSH1 0x0 DUP4 DUP2 MSTORE PUSH1 0x0 DUP1 MLOAD PUSH1 0x20 PUSH2 0x442B DUP4 CODECOPY DUP2 MLOAD SWAP2 MSTORE PUSH1 0x20 DUP2 SWAP1 MSTORE PUSH1 0x40 SWAP1 SWAP2 KECCAK256 SLOAD PUSH1 0x1 PUSH1 0x1 PUSH1 0xA0 SHL SUB AND DUP1 ISZERO DUP1 ISZERO SWAP3 DUP4 PUSH2 0x1C9F JUMPI JUMPDEST PUSH2 0x1853 CALLER PUSH2 0x38CD JUMP JUMPDEST PUSH1 0x1 DUP2 SLOAD ADD SWAP1 SSTORE DUP7 PUSH1 0x0 MSTORE PUSH1 0x20 MSTORE PUSH1 0x40 PUSH1 0x0 KECCAK256 CALLER PUSH1 0x1 PUSH1 0x1 PUSH1 0x60 SHL SUB PUSH1 0xA0 SHL DUP3 SLOAD AND OR SWAP1 SSTORE DUP6 CALLER DUP4 PUSH32 0xDDF252AD1BE2C89B69C2B068FC378DAA952BA7F163C4A11628F55A4DF523B3EF PUSH1 0x0 DUP1 LOG4 ISZERO PUSH2 0x1BF0 JUMPI PUSH1 0x0 DUP1 MLOAD PUSH1 0x20 PUSH2 0x43CB DUP4 CODECOPY DUP2 MLOAD SWAP2 MSTORE SLOAD DUP6 PUSH1 0x0 MSTORE PUSH1 0x0 DUP1 MLOAD PUSH1 0x20 PUSH2 0x43AB DUP4 CODECOPY DUP2 MLOAD SWAP2 MSTORE PUSH1 0x20 MSTORE PUSH1 0x40 PUSH1 0x0 KECCAK256 SSTORE PUSH2 0x18DA DUP6 PUSH2 0x4221 JUMP JUMPDEST CALLER SUB PUSH2 0x1B91 JUMPI JUMPDEST PUSH2 0x1B78 JUMPI CALLER EXTCODESIZE PUSH2 0x1A8A JUMPI JUMPDEST POP DUP2 PUSH1 0x0 MSTORE PUSH1 0x2 PUSH1 0x20 MSTORE PUSH1 0x40 PUSH1 0x0 KECCAK256 DUP4 MLOAD PUSH1 0x1 PUSH1 0x1 PUSH1 0x40 SHL SUB DUP2 GT PUSH2 0x963 JUMPI PUSH2 0x1915 DUP3 SLOAD PUSH2 0x3670 JUMP JUMPDEST PUSH1 0x1F DUP2 GT PUSH2 0x1A42 JUMPI JUMPDEST POP PUSH1 0x20 SWAP5 PUSH1 0x1F DUP3 GT PUSH1 0x1 EQ PUSH2 0x19DC JUMPI SWAP5 DUP2 SWAP3 SWAP4 SWAP5 SWAP6 PUSH1 0x0 SWAP3 PUSH2 0x19D1 JUMPI JUMPDEST POP POP DUP2 PUSH1 0x1 SHL SWAP2 PUSH1 0x0 NOT SWAP1 PUSH1 0x3 SHL SHR NOT AND OR SWAP1 SSTORE JUMPDEST PUSH32 0xF8E1A15ABA9398E019F0B49DF1A4FDE98EE17AE345CB5F6B5E2C27F5033E8CE7 PUSH1 0x20 PUSH1 0x40 MLOAD DUP5 DUP2 MSTORE LOG1 CALLER PUSH1 0x0 MSTORE PUSH1 0x9 PUSH1 0x20 MSTORE PUSH2 0x1991 DUP3 PUSH1 0x40 PUSH1 0x0 KECCAK256 PUSH2 0x4253 JUMP JUMPDEST PUSH32 0xC07C154191E04D957822B18A0E8E3C868A069DF9E4BE39CCD5D2B3F4A214157 PUSH1 0x40 MLOAD PUSH1 0x4 CALLDATALOAD DUP2 MSTORE PUSH1 0x40 PUSH1 0x20 DUP3 ADD MSTORE DUP1 PUSH2 0x897 CALLER SWAP5 PUSH1 0x40 DUP4 ADD SWAP1 PUSH2 0x3630 JUMP JUMPDEST ADD MLOAD SWAP1 POP DUP6 DUP1 PUSH2 0x193B JUMP JUMPDEST PUSH1 0x1F NOT DUP3 AND SWAP6 DUP4 PUSH1 0x0 MSTORE PUSH1 0x20 PUSH1 0x0 KECCAK256 SWAP2 PUSH1 0x0 JUMPDEST DUP9 DUP2 LT PUSH2 0x1A2A JUMPI POP DUP4 PUSH1 0x1 SWAP6 SWAP7 SWAP8 SWAP9 LT PUSH2 0x1A11 JUMPI JUMPDEST POP POP POP DUP2 SHL ADD SWAP1 SSTORE PUSH2 0x1950 JUMP JUMPDEST ADD MLOAD PUSH1 0x0 NOT PUSH1 0xF8 DUP5 PUSH1 0x3 SHL AND SHR NOT AND SWAP1 SSTORE DUP6 DUP1 DUP1 PUSH2 0x1A04 JUMP JUMPDEST SWAP2 SWAP3 PUSH1 0x20 PUSH1 0x1 DUP2 SWAP3 DUP7 DUP6 ADD MLOAD DUP2 SSTORE ADD SWAP5 ADD SWAP3 ADD PUSH2 0x19EF JUMP JUMPDEST DUP3 PUSH1 0x0 MSTORE PUSH1 0x20 PUSH1 0x0 KECCAK256 PUSH1 0x1F DUP4 ADD PUSH1 0x5 SHR DUP2 ADD SWAP2 PUSH1 0x20 DUP5 LT PUSH2 0x1A80 JUMPI JUMPDEST PUSH1 0x1F ADD PUSH1 0x5 SHR ADD SWAP1 JUMPDEST DUP2 DUP2 LT PUSH2 0x1A74 JUMPI POP PUSH2 0x191E JUMP JUMPDEST PUSH1 0x0 DUP2 SSTORE PUSH1 0x1 ADD PUSH2 0x1A67 JUMP JUMPDEST SWAP1 SWAP2 POP DUP2 SWAP1 PUSH2 0x1A5E JUMP JUMPDEST PUSH1 0x40 MLOAD PUSH1 0x20 DUP2 DUP1 PUSH2 0x1AC4 PUSH4 0xA85BD01 PUSH1 0xE1 SHL SWAP6 DUP7 DUP4 MSTORE CALLER PUSH1 0x4 DUP5 ADD MSTORE PUSH1 0x0 PUSH1 0x24 DUP5 ADD MSTORE DUP9 PUSH1 0x44 DUP5 ADD MSTORE PUSH1 0x80 PUSH1 0x64 DUP5 ADD MSTORE PUSH1 0x84 DUP4 ADD SWAP1 PUSH2 0x3630 JUMP JUMPDEST SUB DUP2 PUSH1 0x0 CALLER GAS CALL PUSH1 0x0 SWAP2 DUP2 PUSH2 0x1B33 JUMPI JUMPDEST POP PUSH2 0x1B06 JUMPI PUSH2 0x1AE1 PUSH2 0x4031 JUMP JUMPDEST DUP1 MLOAD SWAP1 DUP2 PUSH2 0x1B01 JUMPI PUSH1 0x40 MLOAD PUSH4 0x32505749 PUSH1 0xE1 SHL DUP2 MSTORE CALLER PUSH1 0x4 DUP3 ADD MSTORE PUSH1 0x24 SWAP1 REVERT JUMPDEST PUSH1 0x20 ADD REVERT JUMPDEST PUSH1 0x1 PUSH1 0x1 PUSH1 0xE0 SHL SUB NOT AND SUB PUSH2 0x1B1B JUMPI DUP4 PUSH2 0x18EC JUMP JUMPDEST PUSH1 0x40 MLOAD PUSH4 0x32505749 PUSH1 0xE1 SHL DUP2 MSTORE CALLER PUSH1 0x4 DUP3 ADD MSTORE PUSH1 0x24 SWAP1 REVERT JUMPDEST SWAP1 SWAP2 POP PUSH1 0x20 DUP2 RETURNDATASIZE PUSH1 0x20 GT PUSH2 0x1B70 JUMPI JUMPDEST DUP2 PUSH2 0x1B4F PUSH1 0x20 SWAP4 DUP4 PUSH2 0x36FB JUMP JUMPDEST DUP2 ADD SUB SLT PUSH2 0x29C JUMPI MLOAD PUSH1 0x1 PUSH1 0x1 PUSH1 0xE0 SHL SUB NOT DUP2 AND DUP2 SUB PUSH2 0x29C JUMPI SWAP1 DUP7 PUSH2 0x1AD4 JUMP JUMPDEST RETURNDATASIZE SWAP2 POP PUSH2 0x1B42 JUMP JUMPDEST PUSH1 0x40 MLOAD PUSH4 0x39E35637 PUSH1 0xE1 SHL DUP2 MSTORE PUSH1 0x0 PUSH1 0x4 DUP3 ADD MSTORE PUSH1 0x24 SWAP1 REVERT JUMPDEST PUSH2 0x1B9A CALLER PUSH2 0x3C99 JUMP JUMPDEST PUSH1 0x0 NOT DUP2 ADD SWAP1 DUP2 GT PUSH2 0x376 JUMPI CALLER PUSH1 0x0 MSTORE PUSH1 0x0 DUP1 MLOAD PUSH1 0x20 PUSH2 0x434B DUP4 CODECOPY DUP2 MLOAD SWAP2 MSTORE PUSH1 0x20 MSTORE PUSH1 0x40 PUSH1 0x0 KECCAK256 DUP2 PUSH1 0x0 MSTORE PUSH1 0x20 MSTORE DUP5 PUSH1 0x40 PUSH1 0x0 KECCAK256 SSTORE DUP5 PUSH1 0x0 MSTORE PUSH1 0x0 DUP1 MLOAD PUSH1 0x20 PUSH2 0x432B DUP4 CODECOPY DUP2 MLOAD SWAP2 MSTORE PUSH1 0x20 MSTORE PUSH1 0x40 PUSH1 0x0 KECCAK256 SSTORE PUSH2 0x18E1 JUMP JUMPDEST CALLER DUP2 EQ PUSH2 0x18DA JUMPI PUSH2 0x1C00 DUP2 PUSH2 0x3C99 JUMP JUMPDEST DUP6 PUSH1 0x0 MSTORE PUSH1 0x0 DUP1 MLOAD PUSH1 0x20 PUSH2 0x432B DUP4 CODECOPY DUP2 MLOAD SWAP2 MSTORE DUP1 PUSH1 0x20 MSTORE PUSH1 0x40 PUSH1 0x0 KECCAK256 SLOAD SWAP1 DUP3 DUP3 SUB PUSH2 0x1C61 JUMPI JUMPDEST POP POP DUP6 PUSH1 0x0 MSTORE PUSH1 0x0 PUSH1 0x40 DUP2 KECCAK256 SSTORE DUP2 PUSH1 0x0 MSTORE PUSH1 0x0 DUP1 MLOAD PUSH1 0x20 PUSH2 0x434B DUP4 CODECOPY DUP2 MLOAD SWAP2 MSTORE PUSH1 0x20 MSTORE PUSH1 0x40 PUSH1 0x0 KECCAK256 SWAP1 PUSH1 0x0 MSTORE PUSH1 0x20 MSTORE PUSH1 0x0 PUSH1 0x40 DUP2 KECCAK256 SSTORE PUSH2 0x18DA JUMP JUMPDEST PUSH1 0x0 DUP5 DUP2 MSTORE PUSH1 0x0 DUP1 MLOAD PUSH1 0x20 PUSH2 0x434B DUP4 CODECOPY DUP2 MLOAD SWAP2 MSTORE PUSH1 0x20 SWAP1 DUP2 MSTORE PUSH1 0x40 DUP1 DUP4 KECCAK256 DUP7 DUP5 MSTORE DUP3 MSTORE DUP1 DUP4 KECCAK256 SLOAD DUP6 DUP5 MSTORE DUP2 DUP5 KECCAK256 DUP2 SWAP1 SSTORE DUP4 MSTORE SWAP3 SWAP1 MSTORE KECCAK256 SSTORE DUP8 DUP1 PUSH2 0x1C26 JUMP JUMPDEST PUSH2 0x1CA8 DUP8 PUSH2 0x3FBD JUMP JUMPDEST PUSH2 0x1CB1 DUP4 PUSH2 0x38CD JUMP JUMPDEST DUP1 SLOAD PUSH1 0x0 NOT ADD SWAP1 SSTORE PUSH2 0x184A JUMP JUMPDEST PUSH1 0x40 MLOAD PUSH4 0xD93C0665 PUSH1 0xE0 SHL DUP2 MSTORE PUSH1 0x4 SWAP1 REVERT JUMPDEST PUSH1 0x40 MLOAD PUSH4 0x32505749 PUSH1 0xE1 SHL DUP2 MSTORE PUSH1 0x0 PUSH1 0x4 DUP3 ADD MSTORE PUSH1 0x24 SWAP1 REVERT JUMPDEST SWAP1 POP DUP4 ADD MLOAD DUP7 PUSH2 0x17C3 JUMP JUMPDEST PUSH1 0x3 DUP5 ADD PUSH1 0x0 SWAP1 DUP2 MSTORE PUSH1 0x20 DUP2 KECCAK256 SWAP3 POP PUSH1 0x1F NOT DUP5 AND SWAP1 JUMPDEST DUP2 DUP2 LT PUSH2 0x1D47 JUMPI POP SWAP1 DUP4 PUSH1 0x1 SWAP5 SWAP4 SWAP3 LT PUSH2 0x1D2E JUMPI JUMPDEST POP POP DUP2 SHL ADD PUSH1 0x3 DUP3 ADD SSTORE PUSH2 0x17DA JUMP JUMPDEST DUP6 ADD MLOAD PUSH1 0x0 NOT PUSH1 0xF8 DUP5 PUSH1 0x3 SHL AND SHR NOT AND SWAP1 SSTORE DUP7 DUP1 PUSH2 0x1D1F JUMP JUMPDEST SWAP2 SWAP3 PUSH1 0x20 PUSH1 0x1 DUP2 SWAP3 DUP7 DUP11 ADD MLOAD DUP2 SSTORE ADD SWAP5 ADD SWAP3 ADD PUSH2 0x1D0A JUMP JUMPDEST PUSH1 0x3 DUP4 ADD PUSH1 0x0 MSTORE PUSH1 0x20 PUSH1 0x0 KECCAK256 PUSH1 0x1F DUP4 ADD PUSH1 0x5 SHR DUP2 ADD PUSH1 0x20 DUP5 LT PUSH2 0x1D9F JUMPI JUMPDEST PUSH1 0x1F DUP4 ADD PUSH1 0x5 SHR DUP3 ADD DUP2 LT PUSH2 0x1D93 JUMPI POP POP PUSH2 0x17AC JUMP JUMPDEST PUSH1 0x0 DUP2 SSTORE PUSH1 0x1 ADD PUSH2 0x1D7D JUMP JUMPDEST POP DUP1 PUSH2 0x1D7D JUMP JUMPDEST PUSH1 0x40 MLOAD PUSH3 0x461BCD PUSH1 0xE5 SHL DUP2 MSTORE PUSH1 0x20 PUSH1 0x4 DUP3 ADD MSTORE PUSH1 0x1C PUSH1 0x24 DUP3 ADD MSTORE PUSH32 0x5072696365206D7573742062652067726561746572207468616E203000000000 PUSH1 0x44 DUP3 ADD MSTORE PUSH1 0x64 SWAP1 REVERT JUMPDEST CALLVALUE PUSH2 0x29C JUMPI PUSH1 0x0 CALLDATASIZE PUSH1 0x3 NOT ADD SLT PUSH2 0x29C JUMPI PUSH1 0x20 PUSH1 0xFF PUSH1 0x0 DUP1 MLOAD PUSH1 0x20 PUSH2 0x440B DUP4 CODECOPY DUP2 MLOAD SWAP2 MSTORE SLOAD AND PUSH1 0x40 MLOAD SWAP1 ISZERO ISZERO DUP2 MSTORE RETURN JUMPDEST CALLVALUE PUSH2 0x29C JUMPI PUSH1 0x40 CALLDATASIZE PUSH1 0x3 NOT ADD SLT PUSH2 0x29C JUMPI PUSH1 0x4 CALLDATALOAD PUSH1 0x1 PUSH1 0x1 PUSH1 0x40 SHL SUB PUSH1 0x24 CALLDATALOAD DUP2 DUP2 GT PUSH2 0x29C JUMPI PUSH2 0x1E4F SWAP1 CALLDATASIZE SWAP1 PUSH1 0x4 ADD PUSH2 0x384D JUMP JUMPDEST DUP3 PUSH1 0x0 MSTORE PUSH1 0x20 SWAP2 PUSH1 0x6 DUP4 MSTORE PUSH1 0x40 PUSH1 0x0 KECCAK256 PUSH1 0x2 DUP2 ADD DUP1 SLOAD SWAP1 PUSH1 0xFF DUP3 AND PUSH1 0x5 DUP2 LT ISZERO PUSH2 0x3D1 JUMPI PUSH1 0x2 SUB PUSH2 0x2068 JUMPI PUSH1 0x6 DUP4 ADD SLOAD TIMESTAMP LT ISZERO PUSH2 0x2023 JUMPI PUSH1 0xFF NOT SWAP2 DUP3 AND PUSH1 0x4 OR SWAP1 SSTORE PUSH1 0x1 DUP1 SLOAD SWAP4 PUSH2 0x1E9F DUP6 PUSH2 0x4212 JUMP JUMPDEST DUP3 SSTORE DUP5 PUSH1 0x0 MSTORE PUSH1 0x7 DUP8 MSTORE PUSH1 0x40 PUSH1 0x0 KECCAK256 SWAP1 DUP7 MLOAD SWAP1 DUP2 GT PUSH2 0x963 JUMPI PUSH2 0x1EC2 DUP3 SLOAD PUSH2 0x3670 JUMP JUMPDEST PUSH1 0x1F DUP2 GT PUSH2 0x1FDA JUMPI JUMPDEST POP DUP8 PUSH1 0x1F DUP3 GT PUSH1 0x1 EQ PUSH2 0x1F4D JUMPI SWAP3 PUSH32 0xBB7A23845D4DDA060FE674C403648D584F43F2B7D4E823E19203B9276431EE1 SWAP8 SWAP6 SWAP3 DUP3 PUSH2 0x897 SWAP9 SWAP7 SWAP4 PUSH1 0x8 SWAP7 PUSH1 0x0 SWAP2 PUSH2 0x1F42 JUMPI JUMPDEST POP PUSH1 0x0 NOT PUSH1 0x3 DUP4 SWAP1 SHL SHR NOT AND SWAP1 DUP4 SHL OR SWAP1 SSTORE JUMPDEST PUSH1 0x7 DUP4 ADD SWAP2 DUP3 SLOAD AND OR SWAP1 SSTORE ADD SSTORE PUSH1 0x40 MLOAD SWAP2 DUP3 SWAP2 DUP6 DUP4 MSTORE CALLER SWAP6 DUP4 ADD SWAP1 PUSH2 0x3630 JUMP JUMPDEST SWAP1 POP DUP9 ADD MLOAD DUP14 PUSH2 0x1F0F JUMP JUMPDEST PUSH1 0x1F NOT DUP3 AND SWAP1 DUP4 PUSH1 0x0 MSTORE DUP10 PUSH1 0x0 KECCAK256 SWAP2 PUSH1 0x0 JUMPDEST DUP12 DUP3 DUP3 LT PUSH2 0x1FC6 JUMPI POP POP SWAP5 DUP4 DUP2 SWAP4 PUSH32 0xBB7A23845D4DDA060FE674C403648D584F43F2B7D4E823E19203B9276431EE1 SWAP12 SWAP10 SWAP7 SWAP4 PUSH2 0x897 SWAP12 SWAP10 SWAP7 PUSH1 0x8 SWAP10 LT PUSH2 0x1FAD JUMPI JUMPDEST POP POP DUP2 SHL ADD SWAP1 SSTORE PUSH2 0x1F22 JUMP JUMPDEST DUP11 ADD MLOAD PUSH1 0x0 NOT PUSH1 0xF8 DUP5 PUSH1 0x3 SHL AND SHR NOT AND SWAP1 SSTORE DUP14 DUP1 PUSH2 0x1FA1 JUMP JUMPDEST DUP12 DUP5 ADD MLOAD DUP6 SSTORE SWAP4 DUP8 ADD SWAP4 SWAP3 DUP4 ADD SWAP3 ADD PUSH2 0x1F5F JUMP JUMPDEST DUP3 PUSH1 0x0 MSTORE DUP9 PUSH1 0x0 KECCAK256 PUSH1 0x1F DUP4 ADD PUSH1 0x5 SHR DUP2 ADD SWAP2 DUP11 DUP5 LT PUSH2 0x2019 JUMPI JUMPDEST PUSH1 0x1F ADD PUSH1 0x5 SHR ADD SWAP1 DUP5 SWAP1 JUMPDEST DUP3 DUP2 LT PUSH2 0x200D JUMPI POP POP PUSH2 0x1ECB JUMP JUMPDEST PUSH1 0x0 DUP2 SSTORE ADD DUP5 SWAP1 PUSH2 0x1FFF JUMP JUMPDEST SWAP1 SWAP2 POP DUP2 SWAP1 PUSH2 0x1FF4 JUMP JUMPDEST PUSH1 0x40 MLOAD PUSH3 0x461BCD PUSH1 0xE5 SHL DUP2 MSTORE PUSH1 0x4 DUP2 ADD DUP8 SWAP1 MSTORE PUSH1 0x19 PUSH1 0x24 DUP3 ADD MSTORE PUSH32 0x446973707574652077696E646F77206861732070617373656400000000000000 PUSH1 0x44 DUP3 ADD MSTORE PUSH1 0x64 SWAP1 REVERT JUMPDEST PUSH1 0x40 MLOAD PUSH3 0x461BCD PUSH1 0xE5 SHL DUP2 MSTORE PUSH1 0x4 DUP2 ADD DUP8 SWAP1 MSTORE PUSH1 0x21 PUSH1 0x24 DUP3 ADD MSTORE PUSH32 0x50726F64756374206973206E6F7420696E2064656C6976657265642073746174 PUSH1 0x44 DUP3 ADD MSTORE PUSH1 0x65 PUSH1 0xF8 SHL PUSH1 0x64 DUP3 ADD MSTORE PUSH1 0x84 SWAP1 REVERT JUMPDEST CALLVALUE PUSH2 0x29C JUMPI PUSH1 0x20 CALLDATASIZE PUSH1 0x3 NOT ADD SLT PUSH2 0x29C JUMPI PUSH1 0x4 CALLDATALOAD PUSH2 0x20D9 PUSH1 0xA SLOAD DUP3 GT ISZERO PUSH2 0x42C9 JUMP JUMPDEST PUSH1 0x0 SWAP1 DUP2 MSTORE PUSH1 0xB PUSH1 0x20 MSTORE PUSH1 0x40 SWAP1 KECCAK256 PUSH1 0x5 ADD DUP1 SLOAD PUSH1 0xFF PUSH1 0xA0 SHL NOT AND PUSH1 0x1 PUSH1 0xA0 SHL OR SWAP1 SSTORE STOP JUMPDEST CALLVALUE PUSH2 0x29C JUMPI PUSH1 0x20 CALLDATASIZE PUSH1 0x3 NOT ADD SLT PUSH2 0x29C JUMPI PUSH1 0x4 CALLDATALOAD PUSH1 0x0 MSTORE PUSH1 0xB PUSH1 0x20 MSTORE DUP1 PUSH1 0x40 PUSH1 0x0 KECCAK256 PUSH1 0xFF PUSH2 0x21B9 PUSH2 0x212D DUP4 PUSH2 0x371C JUMP JUMPDEST SWAP3 PUSH2 0x21AB PUSH2 0x213D PUSH1 0x1 DUP4 ADD PUSH2 0x371C JUMP JUMPDEST PUSH2 0x219D PUSH2 0x214C PUSH1 0x2 DUP6 ADD PUSH2 0x371C JUMP JUMPDEST PUSH2 0x218F PUSH2 0x215B PUSH1 0x3 DUP8 ADD PUSH2 0x371C JUMP JUMPDEST SWAP4 PUSH2 0x2181 PUSH1 0x5 PUSH2 0x216D PUSH1 0x4 DUP11 ADD PUSH2 0x371C JUMP JUMPDEST SWAP9 ADD SLOAD SWAP11 PUSH1 0x40 MLOAD SWAP14 DUP15 SWAP14 DUP15 MSTORE DUP14 ADD SWAP1 PUSH2 0x3630 JUMP JUMPDEST SWAP1 DUP12 DUP3 SUB PUSH1 0x20 DUP14 ADD MSTORE PUSH2 0x3630 JUMP JUMPDEST SWAP1 DUP10 DUP3 SUB PUSH1 0x40 DUP12 ADD MSTORE PUSH2 0x3630 JUMP JUMPDEST SWAP1 DUP8 DUP3 SUB PUSH1 0x60 DUP10 ADD MSTORE PUSH2 0x3630 JUMP JUMPDEST SWAP1 DUP6 DUP3 SUB PUSH1 0x80 DUP8 ADD MSTORE PUSH2 0x3630 JUMP JUMPDEST SWAP2 PUSH1 0x1 DUP1 PUSH1 0xA0 SHL SUB DUP2 AND PUSH1 0xA0 DUP6 ADD MSTORE PUSH1 0xA0 SHR AND ISZERO ISZERO PUSH1 0xC0 DUP4 ADD MSTORE SUB SWAP1 RETURN JUMPDEST CALLVALUE PUSH2 0x29C JUMPI PUSH1 0xA0 CALLDATASIZE PUSH1 0x3 NOT ADD SLT PUSH2 0x29C JUMPI PUSH2 0x21F0 PUSH2 0x361A JUMP JUMPDEST PUSH2 0x21F8 PUSH2 0x3604 JUMP JUMPDEST PUSH1 0x44 CALLDATALOAD PUSH1 0x1 PUSH1 0x1 PUSH1 0xA0 SHL SUB DUP1 DUP3 AND DUP3 SUB PUSH2 0x29C JUMPI PUSH1 0x84 CALLDATALOAD DUP2 DUP2 AND DUP2 SUB PUSH2 0x29C JUMPI PUSH1 0x0 DUP1 MLOAD PUSH1 0x20 PUSH2 0x446B DUP4 CODECOPY DUP2 MLOAD SWAP2 MSTORE SLOAD SWAP4 PUSH1 0x1 PUSH1 0x1 PUSH1 0x40 SHL SUB DUP6 AND DUP1 ISZERO SWAP1 DUP2 PUSH2 0x2723 JUMPI JUMPDEST PUSH1 0x1 EQ SWAP1 DUP2 PUSH2 0x2719 JUMPI JUMPDEST ISZERO SWAP1 DUP2 PUSH2 0x2710 JUMPI JUMPDEST POP PUSH2 0x26FE JUMPI PUSH1 0x1 PUSH1 0x1 PUSH1 0x1 PUSH1 0x40 SHL SUB NOT DUP7 AND OR PUSH1 0x0 DUP1 MLOAD PUSH1 0x20 PUSH2 0x446B DUP4 CODECOPY DUP2 MLOAD SWAP2 MSTORE SSTORE PUSH1 0xFF DUP6 PUSH1 0x40 SHR AND ISZERO PUSH2 0x26D1 JUMPI JUMPDEST PUSH1 0x40 MLOAD SWAP6 PUSH2 0x228B DUP8 PUSH2 0x36E0 JUMP JUMPDEST PUSH1 0x7 DUP8 MSTORE PUSH7 0x56654379636C65 PUSH1 0xC8 SHL PUSH1 0x20 DUP9 ADD MSTORE PUSH1 0x40 MLOAD SWAP7 PUSH2 0x22AC DUP9 PUSH2 0x36E0 JUMP JUMPDEST PUSH1 0x3 DUP9 MSTORE PUSH3 0x564345 PUSH1 0xE8 SHL PUSH1 0x20 DUP10 ADD MSTORE PUSH2 0x22C4 PUSH2 0x41E3 JUMP JUMPDEST PUSH2 0x22CC PUSH2 0x41E3 JUMP JUMPDEST DUP1 MLOAD SWAP1 PUSH1 0x1 PUSH1 0x1 PUSH1 0x40 SHL SUB DUP3 GT PUSH2 0x963 JUMPI DUP2 SWAP1 PUSH2 0x22F7 PUSH1 0x0 DUP1 MLOAD PUSH1 0x20 PUSH2 0x436B DUP4 CODECOPY DUP2 MLOAD SWAP2 MSTORE SLOAD PUSH2 0x3670 JUMP JUMPDEST PUSH1 0x1F DUP2 GT PUSH2 0x2650 JUMPI JUMPDEST POP PUSH1 0x20 SWAP1 PUSH1 0x1F DUP4 GT PUSH1 0x1 EQ PUSH2 0x25BE JUMPI PUSH1 0x0 SWAP3 PUSH2 0x25B3 JUMPI JUMPDEST POP POP DUP2 PUSH1 0x1 SHL SWAP2 PUSH1 0x0 NOT SWAP1 PUSH1 0x3 SHL SHR NOT AND OR PUSH1 0x0 DUP1 MLOAD PUSH1 0x20 PUSH2 0x436B DUP4 CODECOPY DUP2 MLOAD SWAP2 MSTORE SSTORE JUMPDEST DUP7 MLOAD PUSH1 0x1 PUSH1 0x1 PUSH1 0x40 SHL SUB DUP2 GT PUSH2 0x963 JUMPI PUSH2 0x2362 PUSH1 0x0 DUP1 MLOAD PUSH1 0x20 PUSH2 0x448B DUP4 CODECOPY DUP2 MLOAD SWAP2 MSTORE SLOAD PUSH2 0x3670 JUMP JUMPDEST PUSH1 0x1F DUP2 GT PUSH2 0x253D JUMPI JUMPDEST POP PUSH1 0x20 PUSH1 0x1F DUP3 GT PUSH1 0x1 EQ PUSH2 0x24A4 JUMPI SWAP2 DUP2 PUSH2 0x2407 SWAP3 PUSH2 0x240D SWAP6 SWAP5 PUSH1 0xFF SWAP12 PUSH1 0x0 SWAP3 PUSH2 0x2499 JUMPI JUMPDEST POP POP DUP2 PUSH1 0x1 SHL SWAP2 PUSH1 0x0 NOT SWAP1 PUSH1 0x3 SHL SHR NOT AND OR PUSH1 0x0 DUP1 MLOAD PUSH1 0x20 PUSH2 0x448B DUP4 CODECOPY DUP2 MLOAD SWAP2 MSTORE SSTORE JUMPDEST PUSH2 0x23BA PUSH2 0x41E3 JUMP JUMPDEST PUSH2 0x23C2 PUSH2 0x41E3 JUMP JUMPDEST PUSH2 0x23CA PUSH2 0x41E3 JUMP JUMPDEST PUSH1 0x0 DUP1 MLOAD PUSH1 0x20 PUSH2 0x440B DUP4 CODECOPY DUP2 MLOAD SWAP2 MSTORE DUP10 NOT DUP2 SLOAD AND SWAP1 SSTORE PUSH2 0x23E8 PUSH2 0x41E3 JUMP JUMPDEST PUSH2 0x23F0 PUSH2 0x41E3 JUMP JUMPDEST PUSH2 0x23F8 PUSH2 0x41E3 JUMP JUMPDEST PUSH2 0x2401 DUP2 PUSH2 0x39B9 JUMP JUMPDEST POP PUSH2 0x3A47 JUMP JUMPDEST POP PUSH2 0x3AF7 JUMP JUMPDEST POP DUP2 PUSH1 0x1 PUSH1 0x1 PUSH1 0x60 SHL SUB PUSH1 0xA0 SHL SWAP4 AND DUP4 PUSH1 0x3 SLOAD AND OR PUSH1 0x3 SSTORE PUSH1 0x64 CALLDATALOAD PUSH1 0x4 SSTORE AND SWAP1 PUSH1 0x5 SLOAD AND OR PUSH1 0x5 SSTORE PUSH1 0x40 SHR AND ISZERO PUSH2 0x2440 JUMPI STOP JUMPDEST PUSH9 0xFF0000000000000000 NOT PUSH1 0x0 DUP1 MLOAD PUSH1 0x20 PUSH2 0x446B DUP4 CODECOPY DUP2 MLOAD SWAP2 MSTORE SLOAD AND PUSH1 0x0 DUP1 MLOAD PUSH1 0x20 PUSH2 0x446B DUP4 CODECOPY DUP2 MLOAD SWAP2 MSTORE SSTORE PUSH32 0xC7F505B2F371AE2175EE4913F4499E1F2633A7B5936321EED1CDAEB6115181D2 PUSH1 0x20 PUSH1 0x40 MLOAD PUSH1 0x1 DUP2 MSTORE LOG1 STOP JUMPDEST ADD MLOAD SWAP1 POP DUP12 DUP1 PUSH2 0x238F JUMP JUMPDEST PUSH1 0x0 DUP1 MLOAD PUSH1 0x20 PUSH2 0x448B DUP4 CODECOPY DUP2 MLOAD SWAP2 MSTORE PUSH1 0x0 MSTORE PUSH1 0x0 DUP1 MLOAD PUSH1 0x20 PUSH2 0x438B DUP4 CODECOPY DUP2 MLOAD SWAP2 MSTORE SWAP9 PUSH1 0x0 JUMPDEST PUSH1 0x1F NOT DUP5 AND DUP2 LT PUSH2 0x2525 JUMPI POP DUP3 PUSH1 0xFF SWAP11 PUSH2 0x240D SWAP7 SWAP6 SWAP4 PUSH1 0x1 SWAP4 PUSH2 0x2407 SWAP7 PUSH1 0x1F NOT DUP2 AND LT PUSH2 0x250C JUMPI JUMPDEST POP POP POP DUP2 SHL ADD PUSH1 0x0 DUP1 MLOAD PUSH1 0x20 PUSH2 0x448B DUP4 CODECOPY DUP2 MLOAD SWAP2 MSTORE SSTORE PUSH2 0x23B2 JUMP JUMPDEST ADD MLOAD PUSH1 0x0 NOT PUSH1 0xF8 DUP5 PUSH1 0x3 SHL AND SHR NOT AND SWAP1 SSTORE DUP12 DUP1 DUP1 PUSH2 0x24F1 JUMP JUMPDEST DUP3 DUP3 ADD MLOAD DUP12 SSTORE PUSH1 0x1 SWAP1 SWAP11 ADD SWAP10 PUSH1 0x20 SWAP3 DUP4 ADD SWAP3 ADD PUSH2 0x24C9 JUMP JUMPDEST PUSH1 0x0 DUP1 MLOAD PUSH1 0x20 PUSH2 0x448B DUP4 CODECOPY DUP2 MLOAD SWAP2 MSTORE PUSH1 0x0 MSTORE PUSH1 0x1F DUP3 ADD PUSH1 0x5 SHR PUSH1 0x0 DUP1 MLOAD PUSH1 0x20 PUSH2 0x438B DUP4 CODECOPY DUP2 MLOAD SWAP2 MSTORE ADD PUSH1 0x20 DUP4 LT PUSH2 0x259E JUMPI JUMPDEST PUSH1 0x1F DUP3 ADD PUSH1 0x5 SHR PUSH1 0x0 DUP1 MLOAD PUSH1 0x20 PUSH2 0x438B DUP4 CODECOPY DUP2 MLOAD SWAP2 MSTORE ADD DUP2 LT PUSH2 0x2592 JUMPI POP PUSH2 0x236B JUMP JUMPDEST PUSH1 0x0 DUP2 SSTORE PUSH1 0x1 ADD PUSH2 0x256F JUMP JUMPDEST POP PUSH1 0x0 DUP1 MLOAD PUSH1 0x20 PUSH2 0x438B DUP4 CODECOPY DUP2 MLOAD SWAP2 MSTORE PUSH2 0x256F JUMP JUMPDEST ADD MLOAD SWAP1 POP DUP10 DUP1 PUSH2 0x2317 JUMP JUMPDEST SWAP3 POP PUSH1 0x0 DUP1 MLOAD PUSH1 0x20 PUSH2 0x436B DUP4 CODECOPY DUP2 MLOAD SWAP2 MSTORE PUSH1 0x0 MSTORE PUSH1 0x0 DUP1 MLOAD PUSH1 0x20 PUSH2 0x44AB DUP4 CODECOPY DUP2 MLOAD SWAP2 MSTORE SWAP1 PUSH1 0x0 SWAP4 JUMPDEST PUSH1 0x1F NOT DUP5 AND DUP6 LT PUSH2 0x2635 JUMPI PUSH1 0x1 SWAP5 POP DUP4 PUSH1 0x1F NOT DUP2 AND LT PUSH2 0x261C JUMPI JUMPDEST POP POP POP DUP2 SHL ADD PUSH1 0x0 DUP1 MLOAD PUSH1 0x20 PUSH2 0x436B DUP4 CODECOPY DUP2 MLOAD SWAP2 MSTORE SSTORE PUSH2 0x233A JUMP JUMPDEST ADD MLOAD PUSH1 0x0 NOT PUSH1 0xF8 DUP5 PUSH1 0x3 SHL AND SHR NOT AND SWAP1 SSTORE DUP10 DUP1 DUP1 PUSH2 0x2601 JUMP JUMPDEST DUP2 DUP2 ADD MLOAD DUP4 SSTORE PUSH1 0x20 SWAP5 DUP6 ADD SWAP5 PUSH1 0x1 SWAP1 SWAP4 ADD SWAP3 SWAP1 SWAP2 ADD SWAP1 PUSH2 0x25E6 JUMP JUMPDEST SWAP1 SWAP2 POP PUSH1 0x0 DUP1 MLOAD PUSH1 0x20 PUSH2 0x436B DUP4 CODECOPY DUP2 MLOAD SWAP2 MSTORE PUSH1 0x0 MSTORE PUSH1 0x1F DUP4 ADD PUSH1 0x5 SHR PUSH1 0x0 DUP1 MLOAD PUSH1 0x20 PUSH2 0x44AB DUP4 CODECOPY DUP2 MLOAD SWAP2 MSTORE ADD PUSH1 0x20 DUP5 LT PUSH2 0x26BC JUMPI JUMPDEST SWAP1 DUP4 SWAP3 SWAP2 JUMPDEST PUSH1 0x1F DUP3 ADD PUSH1 0x5 SHR PUSH1 0x0 DUP1 MLOAD PUSH1 0x20 PUSH2 0x44AB DUP4 CODECOPY DUP2 MLOAD SWAP2 MSTORE ADD DUP2 LT PUSH2 0x26AD JUMPI POP PUSH2 0x2300 JUMP JUMPDEST PUSH1 0x0 DUP2 SSTORE DUP5 SWAP4 POP PUSH1 0x1 ADD PUSH2 0x268A JUMP JUMPDEST POP PUSH1 0x0 DUP1 MLOAD PUSH1 0x20 PUSH2 0x44AB DUP4 CODECOPY DUP2 MLOAD SWAP2 MSTORE PUSH2 0x2685 JUMP JUMPDEST PUSH9 0xFFFFFFFFFFFFFFFFFF NOT DUP6 AND PUSH9 0x10000000000000001 OR PUSH1 0x0 DUP1 MLOAD PUSH1 0x20 PUSH2 0x446B DUP4 CODECOPY DUP2 MLOAD SWAP2 MSTORE SSTORE PUSH2 0x227E JUMP JUMPDEST PUSH1 0x40 MLOAD PUSH4 0xF92EE8A9 PUSH1 0xE0 SHL DUP2 MSTORE PUSH1 0x4 SWAP1 REVERT JUMPDEST SWAP1 POP ISZERO DUP8 PUSH2 0x224E JUMP JUMPDEST ADDRESS EXTCODESIZE ISZERO SWAP2 POP PUSH2 0x2246 JUMP JUMPDEST PUSH1 0x40 DUP8 SWAP1 SHR PUSH1 0xFF AND ISZERO SWAP2 POP PUSH2 0x223C JUMP JUMPDEST CALLVALUE PUSH2 0x29C JUMPI PUSH1 0x0 CALLDATASIZE PUSH1 0x3 NOT ADD SLT PUSH2 0x29C JUMPI PUSH32 0x0 PUSH1 0x1 PUSH1 0x1 PUSH1 0xA0 SHL SUB AND ADDRESS SUB PUSH2 0x279E JUMPI PUSH1 0x20 PUSH1 0x40 MLOAD PUSH32 0x360894A13BA1A3210667C828492DB98DCA3E2076CC3735A920A3CA505D382BBC DUP2 MSTORE RETURN JUMPDEST PUSH1 0x40 MLOAD PUSH4 0x703E46DD PUSH1 0xE1 SHL DUP2 MSTORE PUSH1 0x4 SWAP1 REVERT JUMPDEST CALLVALUE PUSH2 0x29C JUMPI PUSH1 0x20 CALLDATASIZE PUSH1 0x3 NOT ADD SLT PUSH2 0x29C JUMPI PUSH1 0x4 CALLDATALOAD PUSH1 0x0 DUP1 MLOAD PUSH1 0x20 PUSH2 0x43CB DUP4 CODECOPY DUP2 MLOAD SWAP2 MSTORE SLOAD DUP2 LT ISZERO PUSH2 0x27E6 JUMPI PUSH2 0x484 PUSH1 0x20 SWAP2 PUSH2 0x3906 JUMP JUMPDEST PUSH1 0x44 SWAP1 PUSH1 0x40 MLOAD SWAP1 PUSH4 0x295F44F7 PUSH1 0xE2 SHL DUP3 MSTORE PUSH1 0x0 PUSH1 0x4 DUP4 ADD MSTORE PUSH1 0x24 DUP3 ADD MSTORE REVERT JUMPDEST PUSH1 0x40 CALLDATASIZE PUSH1 0x3 NOT ADD SLT PUSH2 0x29C JUMPI PUSH2 0x2819 PUSH2 0x361A JUMP JUMPDEST PUSH1 0x24 CALLDATALOAD PUSH1 0x1 PUSH1 0x1 PUSH1 0x40 SHL SUB DUP2 GT PUSH2 0x29C JUMPI PUSH2 0x2838 SWAP1 CALLDATASIZE SWAP1 PUSH1 0x4 ADD PUSH2 0x384D JUMP JUMPDEST SWAP1 PUSH1 0x1 PUSH1 0x1 PUSH1 0xA0 SHL SUB SWAP1 PUSH32 0x0 DUP3 AND ADDRESS DUP2 EQ SWAP1 DUP2 ISZERO PUSH2 0x2A20 JUMPI JUMPDEST POP PUSH2 0x279E JUMPI CALLER PUSH1 0x0 SWAP1 DUP2 MSTORE PUSH32 0xAB71E3F32666744D246EDFF3F96E4BDAFEE2E9867098CDD118A979A7464786A8 PUSH1 0x20 SWAP1 DUP2 MSTORE PUSH1 0x40 SWAP1 SWAP2 KECCAK256 SLOAD SWAP1 SWAP3 SWAP1 PUSH32 0x189AB7A9244DF0848122154315AF71FE140F3DB0FE014031783B0946B8C9D2E3 SWAP1 PUSH1 0xFF AND ISZERO PUSH2 0x1360 JUMPI POP DUP2 AND SWAP2 PUSH1 0x40 MLOAD PUSH4 0x52D1902D PUSH1 0xE0 SHL DUP2 MSTORE DUP2 DUP2 PUSH1 0x4 DUP2 DUP8 GAS STATICCALL PUSH1 0x0 SWAP2 DUP2 PUSH2 0x29F1 JUMPI JUMPDEST POP PUSH2 0x2914 JUMPI PUSH1 0x40 MLOAD PUSH4 0x4C9C8CE3 PUSH1 0xE0 SHL DUP2 MSTORE PUSH1 0x4 DUP2 ADD DUP6 SWAP1 MSTORE PUSH1 0x24 SWAP1 REVERT JUMPDEST SWAP3 DUP5 SWAP4 PUSH32 0x360894A13BA1A3210667C828492DB98DCA3E2076CC3735A920A3CA505D382BBC SWAP1 DUP2 DUP2 SUB PUSH2 0x29D9 JUMPI POP DUP4 EXTCODESIZE ISZERO PUSH2 0x29C0 JUMPI DUP1 SLOAD PUSH1 0x1 PUSH1 0x1 PUSH1 0xA0 SHL SUB NOT AND DUP3 OR SWAP1 SSTORE PUSH1 0x40 MLOAD SWAP1 PUSH32 0xBC7CD75A20EE27FD9ADEBAB32041F755214DBC6BFFA90CC0225B39DA2E5C2D3B PUSH1 0x0 DUP1 LOG2 DUP4 MLOAD ISZERO PUSH2 0x29A6 JUMPI POP PUSH1 0x0 DUP4 DUP2 SWAP3 PUSH2 0xCFC SWAP6 MLOAD SWAP2 ADD DUP5 GAS DELEGATECALL PUSH2 0x29A0 PUSH2 0x4031 JUMP JUMPDEST SWAP2 PUSH2 0x4180 JUMP JUMPDEST SWAP3 POP POP POP CALLVALUE PUSH2 0x29B1 JUMPI STOP JUMPDEST PUSH4 0xB398979F PUSH1 0xE0 SHL DUP2 MSTORE PUSH1 0x4 SWAP1 REVERT JUMPDEST PUSH1 0x40 MLOAD PUSH4 0x4C9C8CE3 PUSH1 0xE0 SHL DUP2 MSTORE PUSH1 0x4 DUP2 ADD DUP4 SWAP1 MSTORE PUSH1 0x24 SWAP1 REVERT JUMPDEST PUSH1 0x24 SWAP1 PUSH1 0x40 MLOAD SWAP1 PUSH4 0x2A875269 PUSH1 0xE2 SHL DUP3 MSTORE PUSH1 0x4 DUP3 ADD MSTORE REVERT JUMPDEST SWAP1 SWAP2 POP DUP3 DUP2 DUP2 RETURNDATASIZE DUP4 GT PUSH2 0x2A19 JUMPI JUMPDEST PUSH2 0x2A09 DUP2 DUP4 PUSH2 0x36FB JUMP JUMPDEST DUP2 ADD SUB SLT PUSH2 0x29C JUMPI MLOAD SWAP1 DUP7 PUSH2 0x28F6 JUMP JUMPDEST POP RETURNDATASIZE PUSH2 0x29FF JUMP JUMPDEST SWAP1 POP DUP3 PUSH32 0x360894A13BA1A3210667C828492DB98DCA3E2076CC3735A920A3CA505D382BBC SLOAD AND EQ ISZERO DUP5 PUSH2 0x2870 JUMP JUMPDEST CALLVALUE PUSH2 0x29C JUMPI PUSH1 0x20 DUP1 PUSH1 0x3 NOT CALLDATASIZE ADD SLT PUSH2 0x29C JUMPI PUSH1 0x1 PUSH1 0x1 PUSH1 0xA0 SHL SUB PUSH2 0x2A70 PUSH2 0x361A JUMP JUMPDEST AND PUSH1 0x0 MSTORE PUSH1 0x9 DUP2 MSTORE PUSH1 0x40 PUSH1 0x0 KECCAK256 SWAP1 PUSH1 0x40 MLOAD SWAP1 DUP2 DUP2 DUP5 SLOAD SWAP2 DUP3 DUP2 MSTORE ADD SWAP4 PUSH1 0x0 MSTORE DUP2 PUSH1 0x0 KECCAK256 SWAP2 PUSH1 0x0 SWAP1 JUMPDEST DUP3 DUP3 LT PUSH2 0x2AAF JUMPI PUSH2 0xD88 DUP6 PUSH2 0x1503 DUP2 DUP10 SUB DUP3 PUSH2 0x36FB JUMP JUMPDEST DUP4 SLOAD DUP7 MSTORE SWAP5 DUP6 ADD SWAP5 PUSH1 0x1 SWAP4 DUP5 ADD SWAP4 SWAP1 SWAP2 ADD SWAP1 PUSH2 0x2A98 JUMP JUMPDEST CALLVALUE PUSH2 0x29C JUMPI PUSH1 0x0 CALLDATASIZE PUSH1 0x3 NOT ADD SLT PUSH2 0x29C JUMPI PUSH1 0x20 PUSH1 0x0 SLOAD PUSH1 0x40 MLOAD SWAP1 DUP2 MSTORE RETURN JUMPDEST CALLVALUE PUSH2 0x29C JUMPI PUSH1 0x20 DUP1 PUSH1 0x3 NOT CALLDATASIZE ADD SLT PUSH2 0x29C JUMPI PUSH1 0x4 CALLDATALOAD PUSH1 0xFF PUSH1 0x0 DUP1 MLOAD PUSH1 0x20 PUSH2 0x440B DUP4 CODECOPY DUP2 MLOAD SWAP2 MSTORE SLOAD AND PUSH2 0x1CBE JUMPI PUSH1 0x0 DUP2 DUP2 MSTORE PUSH1 0x0 DUP1 MLOAD PUSH1 0x20 PUSH2 0x442B DUP4 CODECOPY DUP2 MLOAD SWAP2 MSTORE DUP1 DUP5 MSTORE PUSH1 0x40 SWAP1 SWAP2 KECCAK256 SLOAD PUSH1 0x1 PUSH1 0x1 PUSH1 0xA0 SHL SUB SWAP1 DUP2 AND SWAP2 SWAP1 CALLER ISZERO ISZERO SWAP1 DUP2 PUSH2 0x2D77 JUMPI JUMPDEST POP POP DUP2 ISZERO DUP1 ISZERO SWAP2 DUP3 PUSH2 0x2D58 JUMPI JUMPDEST DUP5 PUSH1 0x0 MSTORE DUP6 MSTORE PUSH1 0x40 PUSH1 0x0 KECCAK256 PUSH1 0x1 PUSH1 0x1 PUSH1 0x60 SHL SUB PUSH1 0xA0 SHL DUP2 SLOAD AND SWAP1 SSTORE DUP4 PUSH1 0x0 DUP5 PUSH32 0xDDF252AD1BE2C89B69C2B068FC378DAA952BA7F163C4A11628F55A4DF523B3EF DUP3 DUP1 LOG4 ISZERO PUSH2 0x2C93 JUMPI POP POP PUSH1 0x0 DUP1 MLOAD PUSH1 0x20 PUSH2 0x43CB DUP4 CODECOPY DUP2 MLOAD SWAP2 MSTORE SLOAD DUP2 PUSH1 0x0 MSTORE PUSH1 0x0 DUP1 MLOAD PUSH1 0x20 PUSH2 0x43AB DUP4 CODECOPY DUP2 MLOAD SWAP2 MSTORE DUP4 MSTORE PUSH1 0x40 PUSH1 0x0 KECCAK256 SSTORE PUSH2 0x2BCF DUP2 PUSH2 0x4221 JUMP JUMPDEST PUSH1 0x0 DUP1 MLOAD PUSH1 0x20 PUSH2 0x43CB DUP4 CODECOPY DUP2 MLOAD SWAP2 MSTORE SWAP1 DUP2 SLOAD PUSH1 0x0 NOT SWAP4 DUP5 DUP3 ADD SWAP2 DUP3 GT PUSH2 0x376 JUMPI DUP3 PUSH1 0x0 MSTORE PUSH1 0x0 DUP1 MLOAD PUSH1 0x20 PUSH2 0x43AB DUP4 CODECOPY DUP2 MLOAD SWAP2 MSTORE SWAP1 DUP2 DUP2 MSTORE PUSH2 0x2C15 PUSH1 0x40 PUSH1 0x0 KECCAK256 SLOAD SWAP4 PUSH2 0x3906 JUMP JUMPDEST SWAP1 SLOAD SWAP1 PUSH1 0x3 SHL SHR PUSH2 0x2C42 DUP2 PUSH2 0x2C29 DUP7 PUSH2 0x3906 JUMP JUMPDEST SWAP1 SWAP2 SWAP1 DUP3 SLOAD SWAP1 PUSH1 0x3 SHL SWAP2 DUP3 SHL SWAP2 PUSH1 0x0 NOT SWAP1 SHL NOT AND OR SWAP1 SSTORE JUMP JUMPDEST PUSH1 0x0 MSTORE MSTORE PUSH1 0x40 PUSH1 0x0 KECCAK256 SSTORE PUSH1 0x0 MSTORE PUSH1 0x0 PUSH1 0x40 DUP2 KECCAK256 SSTORE DUP1 SLOAD DUP1 ISZERO PUSH2 0x2C7D JUMPI DUP3 ADD SWAP2 PUSH2 0x2C6A DUP4 PUSH2 0x3906 JUMP JUMPDEST SWAP1 SWAP2 DUP3 SLOAD SWAP2 PUSH1 0x3 SHL SHL NOT AND SWAP1 SSTORE SSTORE PUSH1 0x0 DUP1 RETURN JUMPDEST PUSH4 0x4E487B71 PUSH1 0xE0 SHL PUSH1 0x0 MSTORE PUSH1 0x31 PUSH1 0x4 MSTORE PUSH1 0x24 PUSH1 0x0 REVERT JUMPDEST PUSH2 0x2C9E JUMPI JUMPDEST POP PUSH2 0x2BCF JUMP JUMPDEST PUSH2 0x2CA7 DUP2 PUSH2 0x3C99 JUMP JUMPDEST SWAP1 DUP3 PUSH1 0x0 MSTORE PUSH1 0x0 DUP1 MLOAD PUSH1 0x20 PUSH2 0x432B DUP4 CODECOPY DUP2 MLOAD SWAP2 MSTORE DUP1 DUP6 MSTORE PUSH1 0x40 PUSH1 0x0 KECCAK256 SLOAD SWAP1 DUP4 DUP3 SUB PUSH2 0x2D06 JUMPI JUMPDEST POP POP DUP3 PUSH1 0x0 MSTORE PUSH1 0x0 PUSH1 0x40 DUP2 KECCAK256 SSTORE PUSH1 0x0 MSTORE PUSH1 0x0 DUP1 MLOAD PUSH1 0x20 PUSH2 0x434B DUP4 CODECOPY DUP2 MLOAD SWAP2 MSTORE DUP4 MSTORE PUSH1 0x40 PUSH1 0x0 KECCAK256 SWAP1 PUSH1 0x0 MSTORE DUP3 MSTORE PUSH1 0x0 PUSH1 0x40 DUP2 KECCAK256 SSTORE DUP3 PUSH2 0x2C98 JUMP JUMPDEST DUP3 PUSH1 0x0 MSTORE PUSH1 0x0 DUP1 MLOAD PUSH1 0x20 PUSH2 0x434B DUP4 CODECOPY DUP2 MLOAD SWAP2 MSTORE DUP1 DUP8 MSTORE PUSH1 0x40 PUSH1 0x0 KECCAK256 DUP6 PUSH1 0x0 MSTORE DUP8 MSTORE PUSH1 0x40 PUSH1 0x0 KECCAK256 SLOAD SWAP1 DUP5 PUSH1 0x0 MSTORE DUP8 MSTORE PUSH1 0x40 PUSH1 0x0 KECCAK256 DUP4 PUSH1 0x0 MSTORE DUP8 MSTORE DUP1 PUSH1 0x40 PUSH1 0x0 KECCAK256 SSTORE PUSH1 0x0 MSTORE DUP6 MSTORE PUSH1 0x40 PUSH1 0x0 KECCAK256 SSTORE DUP5 DUP1 PUSH2 0x2CCD JUMP JUMPDEST PUSH2 0x2D61 DUP6 PUSH2 0x3FBD JUMP JUMPDEST PUSH2 0x2D6A DUP5 PUSH2 0x38CD JUMP JUMPDEST DUP1 SLOAD PUSH1 0x0 NOT ADD SWAP1 SSTORE PUSH2 0x2B51 JUMP JUMPDEST DUP2 PUSH2 0x2DC7 JUMPI JUMPDEST POP ISZERO PUSH2 0x2D8A JUMPI DUP5 DUP1 PUSH2 0x2B44 JUMP JUMPDEST POP PUSH2 0x2DA7 JUMPI PUSH1 0x24 SWAP1 PUSH1 0x40 MLOAD SWAP1 PUSH4 0x7E273289 PUSH1 0xE0 SHL DUP3 MSTORE PUSH1 0x4 DUP3 ADD MSTORE REVERT JUMPDEST PUSH1 0x40 MLOAD PUSH4 0x177E802F PUSH1 0xE0 SHL DUP2 MSTORE CALLER PUSH1 0x4 DUP3 ADD MSTORE PUSH1 0x24 DUP2 ADD SWAP2 SWAP1 SWAP2 MSTORE PUSH1 0x44 SWAP1 REVERT JUMPDEST CALLER DUP5 EQ SWAP2 POP DUP2 ISZERO PUSH2 0x2E08 JUMPI JUMPDEST DUP2 ISZERO PUSH2 0x2DE1 JUMPI JUMPDEST POP DUP6 PUSH2 0x2D7D JUMP JUMPDEST SWAP1 POP DUP4 PUSH1 0x0 MSTORE PUSH1 0x0 DUP1 MLOAD PUSH1 0x20 PUSH2 0x444B DUP4 CODECOPY DUP2 MLOAD SWAP2 MSTORE DUP6 MSTORE CALLER SWAP1 PUSH1 0x40 PUSH1 0x0 KECCAK256 SLOAD AND EQ DUP6 PUSH2 0x2DDA JUMP JUMPDEST SWAP1 POP PUSH2 0x2E13 DUP4 PUSH2 0x3894 JUMP JUMPDEST CALLER PUSH1 0x0 MSTORE DUP6 MSTORE PUSH1 0xFF PUSH1 0x40 PUSH1 0x0 KECCAK256 SLOAD AND SWAP1 PUSH2 0x2DD3 JUMP JUMPDEST CALLVALUE PUSH2 0x29C JUMPI PUSH2 0xCFC PUSH2 0x2E39 CALLDATASIZE PUSH2 0x37C2 JUMP JUMPDEST SWAP1 PUSH1 0x40 MLOAD SWAP3 PUSH2 0x2E47 DUP5 PUSH2 0x36C5 JUMP JUMPDEST PUSH1 0x0 DUP5 MSTORE PUSH2 0xEC4 DUP4 DUP4 DUP4 PUSH2 0x3CCE JUMP JUMPDEST CALLVALUE PUSH2 0x29C JUMPI PUSH1 0x40 CALLDATASIZE PUSH1 0x3 NOT ADD SLT PUSH2 0x29C JUMPI PUSH2 0x2E6F PUSH2 0x3604 JUMP JUMPDEST CALLER PUSH1 0x1 PUSH1 0x1 PUSH1 0xA0 SHL SUB DUP3 AND SUB PUSH2 0x2E8B JUMPI PUSH2 0xCFC SWAP1 PUSH1 0x4 CALLDATALOAD PUSH2 0x3C16 JUMP JUMPDEST PUSH1 0x40 MLOAD PUSH4 0x334BD919 PUSH1 0xE1 SHL DUP2 MSTORE PUSH1 0x4 SWAP1 REVERT JUMPDEST CALLVALUE PUSH2 0x29C JUMPI PUSH1 0x40 CALLDATASIZE PUSH1 0x3 NOT ADD SLT PUSH2 0x29C JUMPI PUSH2 0x2EB6 PUSH2 0x361A JUMP JUMPDEST PUSH1 0x24 CALLDATALOAD SWAP1 PUSH2 0x2EC3 DUP2 PUSH2 0x3C99 JUMP JUMPDEST DUP3 LT ISZERO PUSH2 0x2F03 JUMPI PUSH1 0x1 DUP1 PUSH1 0xA0 SHL SUB AND PUSH1 0x0 MSTORE PUSH1 0x0 DUP1 MLOAD PUSH1 0x20 PUSH2 0x434B DUP4 CODECOPY DUP2 MLOAD SWAP2 MSTORE PUSH1 0x20 MSTORE PUSH1 0x40 PUSH1 0x0 KECCAK256 SWAP1 PUSH1 0x0 MSTORE PUSH1 0x20 MSTORE PUSH1 0x20 PUSH1 0x40 PUSH1 0x0 KECCAK256 SLOAD PUSH1 0x40 MLOAD SWAP1 DUP2 MSTORE RETURN JUMPDEST PUSH1 0x40 MLOAD PUSH4 0x295F44F7 PUSH1 0xE2 SHL DUP2 MSTORE PUSH1 0x1 PUSH1 0x1 PUSH1 0xA0 SHL SUB SWAP2 SWAP1 SWAP2 AND PUSH1 0x4 DUP3 ADD MSTORE PUSH1 0x24 DUP2 ADD SWAP2 SWAP1 SWAP2 MSTORE PUSH1 0x44 SWAP1 REVERT JUMPDEST CALLVALUE PUSH2 0x29C JUMPI PUSH1 0x40 CALLDATASIZE PUSH1 0x3 NOT ADD SLT PUSH2 0x29C JUMPI PUSH2 0xCFC PUSH1 0x4 CALLDATALOAD PUSH2 0x2F4D PUSH2 0x3604 JUMP JUMPDEST SWAP1 DUP1 PUSH1 0x0 MSTORE PUSH1 0x0 DUP1 MLOAD PUSH1 0x20 PUSH2 0x43EB DUP4 CODECOPY DUP2 MLOAD SWAP2 MSTORE PUSH1 0x20 MSTORE PUSH2 0x2F75 PUSH1 0x1 PUSH1 0x40 PUSH1 0x0 KECCAK256 ADD SLOAD PUSH2 0x3986 JUMP JUMPDEST PUSH2 0x3BA1 JUMP JUMPDEST CALLVALUE PUSH2 0x29C JUMPI PUSH1 0x20 CALLDATASIZE PUSH1 0x3 NOT ADD SLT PUSH2 0x29C JUMPI PUSH1 0x4 CALLDATALOAD PUSH1 0x0 MSTORE PUSH1 0x0 DUP1 MLOAD PUSH1 0x20 PUSH2 0x43EB DUP4 CODECOPY DUP2 MLOAD SWAP2 MSTORE PUSH1 0x20 MSTORE PUSH1 0x20 PUSH1 0x1 PUSH1 0x40 PUSH1 0x0 KECCAK256 ADD SLOAD PUSH1 0x40 MLOAD SWAP1 DUP2 MSTORE RETURN JUMPDEST CALLVALUE PUSH2 0x29C JUMPI PUSH2 0xCFC PUSH2 0x2FC7 CALLDATASIZE PUSH2 0x37C2 JUMP JUMPDEST SWAP2 PUSH2 0x3CCE JUMP JUMPDEST CALLVALUE PUSH2 0x29C JUMPI PUSH1 0x0 CALLDATASIZE PUSH1 0x3 NOT ADD SLT PUSH2 0x29C JUMPI PUSH1 0x20 PUSH1 0x0 DUP1 MLOAD PUSH1 0x20 PUSH2 0x43CB DUP4 CODECOPY DUP2 MLOAD SWAP2 MSTORE SLOAD PUSH1 0x40 MLOAD SWAP1 DUP2 MSTORE RETURN JUMPDEST CALLVALUE PUSH2 0x29C JUMPI PUSH1 0x20 CALLDATASIZE PUSH1 0x3 NOT ADD SLT PUSH2 0x29C JUMPI PUSH1 0x4 CALLDATALOAD PUSH1 0x0 MSTORE PUSH1 0x7 PUSH1 0x20 MSTORE PUSH2 0x304D PUSH1 0x40 PUSH1 0x0 KECCAK256 PUSH2 0x3025 DUP2 PUSH2 0x371C JUMP JUMPDEST SWAP1 PUSH1 0x1 DUP2 ADD SLOAD SWAP1 PUSH1 0x3 PUSH1 0x2 DUP3 ADD SLOAD SWAP2 ADD SLOAD SWAP1 PUSH1 0xFF PUSH1 0x40 MLOAD SWAP6 DUP7 SWAP6 PUSH1 0xA0 DUP8 MSTORE PUSH1 0xA0 DUP8 ADD SWAP1 PUSH2 0x3630 JUMP JUMPDEST SWAP4 DUP2 DUP2 AND ISZERO ISZERO PUSH1 0x20 DUP8 ADD MSTORE PUSH1 0x8 SHR AND ISZERO ISZERO PUSH1 0x40 DUP6 ADD MSTORE PUSH1 0x60 DUP5 ADD MSTORE PUSH1 0x80 DUP4 ADD MSTORE SUB SWAP1 RETURN JUMPDEST CALLVALUE PUSH2 0x29C JUMPI PUSH1 0x20 DUP1 PUSH1 0x3 NOT CALLDATASIZE ADD SLT PUSH2 0x29C JUMPI PUSH1 0x40 MLOAD PUSH1 0x4 CALLDATALOAD PUSH2 0x3092 DUP3 PUSH2 0x36AA JUMP JUMPDEST PUSH1 0x60 SWAP2 DUP3 DUP2 MSTORE DUP3 DUP5 DUP3 ADD MSTORE DUP3 PUSH1 0x40 DUP3 ADD MSTORE DUP3 DUP1 DUP3 ADD MSTORE DUP3 PUSH1 0x80 DUP3 ADD MSTORE PUSH1 0xA0 DUP2 ADD PUSH1 0x0 SWAP1 MSTORE PUSH1 0xC0 ADD PUSH1 0x0 SWAP1 MSTORE PUSH1 0xA SLOAD DUP2 GT ISZERO PUSH2 0x30CC SWAP1 PUSH2 0x42C9 JUMP JUMPDEST PUSH1 0x0 MSTORE PUSH1 0xB DUP3 MSTORE DUP3 PUSH1 0x40 PUSH1 0x0 KECCAK256 SWAP2 PUSH1 0x40 MLOAD SWAP4 PUSH2 0x30E7 DUP6 PUSH2 0x36AA JUMP JUMPDEST PUSH2 0x30F0 DUP5 PUSH2 0x371C JUMP JUMPDEST DUP6 MSTORE PUSH2 0x30FE PUSH1 0x1 DUP6 ADD PUSH2 0x371C JUMP JUMPDEST DUP6 DUP3 ADD SWAP1 DUP2 MSTORE PUSH2 0x3110 PUSH1 0x2 DUP7 ADD PUSH2 0x371C JUMP JUMPDEST PUSH1 0x40 DUP8 ADD SWAP1 DUP2 MSTORE SWAP5 PUSH2 0x3124 PUSH1 0x3 DUP3 ADD PUSH2 0x371C JUMP JUMPDEST DUP8 DUP6 ADD SWAP1 DUP2 MSTORE PUSH2 0x3136 PUSH1 0x4 DUP4 ADD PUSH2 0x371C JUMP JUMPDEST SWAP2 PUSH1 0x80 DUP10 ADD SWAP3 DUP4 MSTORE PUSH1 0x5 ADD SLOAD SWAP5 PUSH1 0xA0 DUP10 ADD SWAP8 PUSH1 0x1 PUSH1 0xA0 SHL PUSH1 0x1 SWAP1 SUB SWAP6 DUP7 DUP9 AND DUP11 MSTORE PUSH1 0xC0 DUP12 ADD SWAP8 PUSH1 0xA0 SHR PUSH1 0xFF AND ISZERO ISZERO DUP9 MSTORE PUSH1 0x40 MLOAD SWAP12 DUP13 SWAP12 DUP3 DUP14 MSTORE MLOAD SWAP2 DUP13 ADD MSTORE PUSH2 0x100 DUP12 ADD PUSH2 0x3182 SWAP2 PUSH2 0x3630 JUMP JUMPDEST SWAP5 MLOAD PUSH1 0x1F NOT SWAP6 DUP7 DUP13 DUP3 SUB ADD PUSH1 0x40 DUP14 ADD MSTORE PUSH2 0x319B SWAP2 PUSH2 0x3630 JUMP JUMPDEST SWAP1 MLOAD SWAP2 DUP6 DUP12 DUP4 SUB ADD SWAP1 DUP12 ADD MSTORE PUSH2 0x31B0 SWAP2 PUSH2 0x3630 JUMP JUMPDEST SWAP1 MLOAD SWAP1 DUP4 DUP10 DUP3 SUB ADD PUSH1 0x80 DUP11 ADD MSTORE PUSH2 0x31C6 SWAP2 PUSH2 0x3630 JUMP JUMPDEST SWAP1 MLOAD SWAP2 DUP8 DUP3 SUB ADD PUSH1 0xA0 DUP9 ADD MSTORE PUSH2 0x31DB SWAP2 PUSH2 0x3630 JUMP JUMPDEST SWAP4 MLOAD AND PUSH1 0xC0 DUP6 ADD MSTORE MLOAD ISZERO ISZERO SWAP1 DUP4 ADD MSTORE SUB SWAP1 RETURN JUMPDEST CALLVALUE PUSH2 0x29C JUMPI PUSH1 0x40 CALLDATASIZE PUSH1 0x3 NOT ADD SLT PUSH2 0x29C JUMPI PUSH2 0x3207 PUSH2 0x361A JUMP JUMPDEST PUSH1 0x24 CALLDATALOAD PUSH2 0x3213 DUP2 PUSH2 0x3FE9 JUMP JUMPDEST CALLER ISZERO ISZERO DUP1 PUSH2 0x32C2 JUMPI JUMPDEST DUP1 PUSH2 0x32A2 JUMPI JUMPDEST PUSH2 0x328A JUMPI PUSH1 0x1 PUSH1 0x1 PUSH1 0xA0 SHL SUB SWAP3 DUP4 AND SWAP3 DUP3 SWAP2 DUP5 SWAP2 AND PUSH32 0x8C5BE1E5EBEC7D5BD14F71427D1E84F3DD0314C0F7B2291E5B200AC8C7C3B925 PUSH1 0x0 DUP1 LOG4 PUSH1 0x0 SWAP1 DUP2 MSTORE PUSH1 0x0 DUP1 MLOAD PUSH1 0x20 PUSH2 0x444B DUP4 CODECOPY DUP2 MLOAD SWAP2 MSTORE PUSH1 0x20 MSTORE PUSH1 0x40 SWAP1 KECCAK256 DUP1 SLOAD PUSH1 0x1 PUSH1 0x1 PUSH1 0xA0 SHL SUB NOT AND SWAP1 SWAP2 OR SWAP1 SSTORE STOP JUMPDEST PUSH1 0x40 MLOAD PUSH4 0xA9FBF51F PUSH1 0xE0 SHL DUP2 MSTORE CALLER PUSH1 0x4 DUP3 ADD MSTORE PUSH1 0x24 SWAP1 REVERT JUMPDEST POP PUSH2 0x32AC DUP2 PUSH2 0x3894 JUMP JUMPDEST CALLER PUSH1 0x0 MSTORE PUSH1 0x20 MSTORE PUSH1 0xFF PUSH1 0x40 PUSH1 0x0 KECCAK256 SLOAD AND ISZERO PUSH2 0x3222 JUMP JUMPDEST POP PUSH1 0x1 PUSH1 0x1 PUSH1 0xA0 SHL SUB DUP2 AND CALLER EQ ISZERO PUSH2 0x321C JUMP JUMPDEST CALLVALUE PUSH2 0x29C JUMPI PUSH1 0x20 CALLDATASIZE PUSH1 0x3 NOT ADD SLT PUSH2 0x29C JUMPI PUSH1 0x4 CALLDATALOAD PUSH2 0x32F2 DUP2 PUSH2 0x3FE9 JUMP JUMPDEST POP PUSH1 0x0 MSTORE PUSH1 0x0 DUP1 MLOAD PUSH1 0x20 PUSH2 0x444B DUP4 CODECOPY DUP2 MLOAD SWAP2 MSTORE PUSH1 0x20 MSTORE PUSH1 0x20 PUSH1 0x1 DUP1 PUSH1 0xA0 SHL SUB PUSH1 0x40 PUSH1 0x0 KECCAK256 SLOAD AND PUSH1 0x40 MLOAD SWAP1 DUP2 MSTORE RETURN JUMPDEST CALLVALUE PUSH2 0x29C JUMPI PUSH1 0x0 CALLDATASIZE PUSH1 0x3 NOT ADD SLT PUSH2 0x29C JUMPI PUSH1 0x40 MLOAD PUSH1 0x0 PUSH1 0x0 DUP1 MLOAD PUSH1 0x20 PUSH2 0x436B DUP4 CODECOPY DUP2 MLOAD SWAP2 MSTORE DUP1 SLOAD PUSH2 0x3350 DUP2 PUSH2 0x3670 JUMP JUMPDEST DUP1 DUP6 MSTORE SWAP2 PUSH1 0x1 SWAP2 DUP1 DUP4 AND SWAP1 DUP2 ISZERO PUSH2 0x15DE JUMPI POP PUSH1 0x1 EQ PUSH2 0x3379 JUMPI PUSH2 0xD88 DUP6 PUSH2 0x1580 DUP2 DUP8 SUB DUP3 PUSH2 0x36FB JUMP JUMPDEST PUSH1 0x0 SWAP1 DUP2 MSTORE SWAP3 POP PUSH1 0x0 DUP1 MLOAD PUSH1 0x20 PUSH2 0x44AB DUP4 CODECOPY DUP2 MLOAD SWAP2 MSTORE JUMPDEST DUP3 DUP5 LT PUSH2 0x33AB JUMPI POP POP POP DUP2 ADD PUSH1 0x20 ADD PUSH2 0x1580 DUP3 PUSH2 0xD88 PUSH2 0x1570 JUMP JUMPDEST DUP1 SLOAD PUSH1 0x20 DUP6 DUP8 ADD DUP2 ADD SWAP2 SWAP1 SWAP2 MSTORE SWAP1 SWAP4 ADD SWAP3 DUP2 ADD PUSH2 0x3390 JUMP JUMPDEST CALLVALUE PUSH2 0x29C JUMPI PUSH1 0x0 CALLDATASIZE PUSH1 0x3 NOT ADD SLT PUSH2 0x29C JUMPI PUSH1 0x3 SLOAD PUSH1 0x40 MLOAD PUSH1 0x1 PUSH1 0x1 PUSH1 0xA0 SHL SUB SWAP1 SWAP2 AND DUP2 MSTORE PUSH1 0x20 SWAP1 RETURN JUMPDEST CALLVALUE PUSH2 0x29C JUMPI PUSH1 0x60 CALLDATASIZE PUSH1 0x3 NOT ADD SLT PUSH2 0x29C JUMPI PUSH1 0x4 CALLDATALOAD PUSH2 0x3408 PUSH2 0x3604 JUMP JUMPDEST PUSH1 0x44 CALLDATALOAD DUP3 PUSH1 0x0 MSTORE PUSH1 0x20 SWAP1 PUSH1 0x6 DUP3 MSTORE PUSH1 0x40 PUSH1 0x0 KECCAK256 PUSH1 0x2 DUP2 ADD SWAP1 PUSH1 0xFF DUP3 SLOAD AND PUSH1 0x5 DUP2 LT ISZERO PUSH2 0x3D1 JUMPI PUSH2 0x3512 JUMPI SLOAD DUP3 LT PUSH2 0x34D6 JUMPI SWAP1 DUP3 SWAP2 PUSH1 0x0 SWAP4 PUSH1 0x1 DUP1 PUSH1 0xA0 SHL SUB PUSH1 0x64 DUP2 PUSH1 0x5 SLOAD AND SWAP8 PUSH1 0x40 MLOAD SWAP8 DUP9 SWAP4 DUP5 SWAP3 PUSH4 0x23B872DD PUSH1 0xE0 SHL DUP5 MSTORE AND SWAP10 DUP11 PUSH1 0x4 DUP5 ADD MSTORE ADDRESS PUSH1 0x24 DUP5 ADD MSTORE DUP8 PUSH1 0x44 DUP5 ADD MSTORE GAS CALL SWAP4 DUP5 ISZERO PUSH2 0x119C JUMPI PUSH32 0xC032F62758CAC23A902E648AB54B6825665B9BC19E7CD0A8AB915CBF3EEA4FA0 SWAP5 PUSH2 0x34B9 JUMPI JUMPDEST POP DUP1 SLOAD PUSH1 0xFF NOT AND PUSH1 0x1 OR SWAP1 SSTORE PUSH1 0x40 MLOAD SWAP1 DUP2 MSTORE LOG3 STOP JUMPDEST PUSH2 0x34CF SWAP1 DUP5 RETURNDATASIZE DUP7 GT PUSH2 0x1195 JUMPI PUSH2 0x1186 DUP2 DUP4 PUSH2 0x36FB JUMP JUMPDEST POP DUP7 PUSH2 0x34A4 JUMP JUMPDEST PUSH1 0x40 MLOAD PUSH3 0x461BCD PUSH1 0xE5 SHL DUP2 MSTORE PUSH1 0x4 DUP2 ADD DUP5 SWAP1 MSTORE PUSH1 0x14 PUSH1 0x24 DUP3 ADD MSTORE PUSH20 0x125B9CDD59999A58DA595B9D081C185E5B595B9D PUSH1 0x62 SHL PUSH1 0x44 DUP3 ADD MSTORE PUSH1 0x64 SWAP1 REVERT JUMPDEST PUSH1 0x40 MLOAD PUSH3 0x461BCD PUSH1 0xE5 SHL DUP2 MSTORE PUSH1 0x4 DUP2 ADD DUP6 SWAP1 MSTORE PUSH1 0x25 PUSH1 0x24 DUP3 ADD MSTORE PUSH32 0x50726F64756374206973206E6F7420617661696C61626C6520666F7220707572 PUSH1 0x44 DUP3 ADD MSTORE PUSH5 0x6368617365 PUSH1 0xD8 SHL PUSH1 0x64 DUP3 ADD MSTORE PUSH1 0x84 SWAP1 REVERT JUMPDEST CALLVALUE PUSH2 0x29C JUMPI PUSH1 0x20 CALLDATASIZE PUSH1 0x3 NOT ADD SLT PUSH2 0x29C JUMPI PUSH1 0x4 CALLDATALOAD SWAP1 PUSH4 0xFFFFFFFF PUSH1 0xE0 SHL DUP3 AND DUP1 SWAP3 SUB PUSH2 0x29C JUMPI PUSH1 0x20 SWAP2 PUSH4 0x7965DB0B PUSH1 0xE0 SHL DUP2 EQ SWAP1 DUP2 ISZERO PUSH2 0x35A7 JUMPI JUMPDEST POP ISZERO ISZERO DUP2 MSTORE RETURN JUMPDEST PUSH4 0x780E9D63 PUSH1 0xE0 SHL DUP2 EQ SWAP2 POP DUP2 ISZERO PUSH2 0x35C1 JUMPI JUMPDEST POP DUP4 PUSH2 0x35A0 JUMP JUMPDEST PUSH4 0x80AC58CD PUSH1 0xE0 SHL DUP2 EQ SWAP2 POP DUP2 ISZERO PUSH2 0x35F3 JUMPI JUMPDEST DUP2 ISZERO PUSH2 0x35E2 JUMPI JUMPDEST POP DUP4 PUSH2 0x35BA JUMP JUMPDEST PUSH4 0x1FFC9A7 PUSH1 0xE0 SHL EQ SWAP1 POP DUP4 PUSH2 0x35DB JUMP JUMPDEST PUSH4 0x5B5E139F PUSH1 0xE0 SHL DUP2 EQ SWAP2 POP PUSH2 0x35D4 JUMP JUMPDEST PUSH1 0x24 CALLDATALOAD SWAP1 PUSH1 0x1 PUSH1 0x1 PUSH1 0xA0 SHL SUB DUP3 AND DUP3 SUB PUSH2 0x29C JUMPI JUMP JUMPDEST PUSH1 0x4 CALLDATALOAD SWAP1 PUSH1 0x1 PUSH1 0x1 PUSH1 0xA0 SHL SUB DUP3 AND DUP3 SUB PUSH2 0x29C JUMPI JUMP JUMPDEST SWAP2 SWAP1 DUP3 MLOAD SWAP3 DUP4 DUP3 MSTORE PUSH1 0x0 JUMPDEST DUP5 DUP2 LT PUSH2 0x365C JUMPI POP POP DUP3 PUSH1 0x0 PUSH1 0x20 DUP1 SWAP5 SWAP6 DUP5 ADD ADD MSTORE PUSH1 0x1F DUP1 NOT SWAP2 ADD AND ADD ADD SWAP1 JUMP JUMPDEST PUSH1 0x20 DUP2 DUP4 ADD DUP2 ADD MLOAD DUP5 DUP4 ADD DUP3 ADD MSTORE ADD PUSH2 0x363B JUMP JUMPDEST SWAP1 PUSH1 0x1 DUP3 DUP2 SHR SWAP3 AND DUP1 ISZERO PUSH2 0x36A0 JUMPI JUMPDEST PUSH1 0x20 DUP4 LT EQ PUSH2 0x368A JUMPI JUMP JUMPDEST PUSH4 0x4E487B71 PUSH1 0xE0 SHL PUSH1 0x0 MSTORE PUSH1 0x22 PUSH1 0x4 MSTORE PUSH1 0x24 PUSH1 0x0 REVERT JUMPDEST SWAP2 PUSH1 0x7F AND SWAP2 PUSH2 0x367F JUMP JUMPDEST PUSH1 0xE0 DUP2 ADD SWAP1 DUP2 LT PUSH1 0x1 PUSH1 0x1 PUSH1 0x40 SHL SUB DUP3 GT OR PUSH2 0x963 JUMPI PUSH1 0x40 MSTORE JUMP JUMPDEST PUSH1 0x20 DUP2 ADD SWAP1 DUP2 LT PUSH1 0x1 PUSH1 0x1 PUSH1 0x40 SHL SUB DUP3 GT OR PUSH2 0x963 JUMPI PUSH1 0x40 MSTORE JUMP JUMPDEST PUSH1 0x40 DUP2 ADD SWAP1 DUP2 LT PUSH1 0x1 PUSH1 0x1 PUSH1 0x40 SHL SUB DUP3 GT OR PUSH2 0x963 JUMPI PUSH1 0x40 MSTORE JUMP JUMPDEST SWAP1 PUSH1 0x1F DUP1 NOT SWAP2 ADD AND DUP2 ADD SWAP1 DUP2 LT PUSH1 0x1 PUSH1 0x1 PUSH1 0x40 SHL SUB DUP3 GT OR PUSH2 0x963 JUMPI PUSH1 0x40 MSTORE JUMP JUMPDEST SWAP1 PUSH1 0x40 MLOAD SWAP2 DUP3 PUSH1 0x0 DUP3 SLOAD SWAP3 PUSH2 0x3730 DUP5 PUSH2 0x3670 JUMP JUMPDEST SWAP1 DUP2 DUP5 MSTORE PUSH1 0x1 SWAP5 DUP6 DUP2 AND SWAP1 DUP2 PUSH1 0x0 EQ PUSH2 0x379F JUMPI POP PUSH1 0x1 EQ PUSH2 0x375C JUMPI JUMPDEST POP POP PUSH2 0x375A SWAP3 POP SUB DUP4 PUSH2 0x36FB JUMP JUMPDEST JUMP JUMPDEST SWAP1 SWAP4 SWAP2 POP PUSH1 0x0 MSTORE PUSH1 0x20 SWAP1 DUP2 PUSH1 0x0 KECCAK256 SWAP4 PUSH1 0x0 SWAP2 JUMPDEST DUP2 DUP4 LT PUSH2 0x3787 JUMPI POP POP PUSH2 0x375A SWAP4 POP DUP3 ADD ADD CODESIZE DUP1 PUSH2 0x374C JUMP JUMPDEST DUP6 SLOAD DUP9 DUP5 ADD DUP6 ADD MSTORE SWAP5 DUP6 ADD SWAP5 DUP8 SWAP5 POP SWAP2 DUP4 ADD SWAP2 PUSH2 0x376F JUMP JUMPDEST SWAP2 POP POP PUSH2 0x375A SWAP5 POP PUSH1 0x20 SWAP3 POP PUSH1 0xFF NOT AND DUP3 DUP5 ADD MSTORE ISZERO ISZERO PUSH1 0x5 SHL DUP3 ADD ADD CODESIZE DUP1 PUSH2 0x374C JUMP JUMPDEST PUSH1 0x60 SWAP1 PUSH1 0x3 NOT ADD SLT PUSH2 0x29C JUMPI PUSH1 0x1 PUSH1 0x1 PUSH1 0xA0 SHL SUB SWAP1 PUSH1 0x4 CALLDATALOAD DUP3 DUP2 AND DUP2 SUB PUSH2 0x29C JUMPI SWAP2 PUSH1 0x24 CALLDATALOAD SWAP1 DUP2 AND DUP2 SUB PUSH2 0x29C JUMPI SWAP1 PUSH1 0x44 CALLDATALOAD SWAP1 JUMP JUMPDEST PUSH1 0x20 SWAP1 DUP2 PUSH1 0x40 DUP2 DUP4 ADD SWAP3 DUP3 DUP2 MSTORE DUP6 MLOAD DUP1 SWAP5 MSTORE ADD SWAP4 ADD SWAP2 PUSH1 0x0 JUMPDEST DUP3 DUP2 LT PUSH2 0x381E JUMPI POP POP POP POP SWAP1 JUMP JUMPDEST DUP4 MLOAD DUP6 MSTORE SWAP4 DUP2 ADD SWAP4 SWAP3 DUP2 ADD SWAP3 PUSH1 0x1 ADD PUSH2 0x3810 JUMP JUMPDEST PUSH1 0x1 PUSH1 0x1 PUSH1 0x40 SHL SUB DUP2 GT PUSH2 0x963 JUMPI PUSH1 0x1F ADD PUSH1 0x1F NOT AND PUSH1 0x20 ADD SWAP1 JUMP JUMPDEST DUP2 PUSH1 0x1F DUP3 ADD SLT ISZERO PUSH2 0x29C JUMPI DUP1 CALLDATALOAD SWAP1 PUSH2 0x3864 DUP3 PUSH2 0x3832 JUMP JUMPDEST SWAP3 PUSH2 0x3872 PUSH1 0x40 MLOAD SWAP5 DUP6 PUSH2 0x36FB JUMP JUMPDEST DUP3 DUP5 MSTORE PUSH1 0x20 DUP4 DUP4 ADD ADD GT PUSH2 0x29C JUMPI DUP2 PUSH1 0x0 SWAP3 PUSH1 0x20 DUP1 SWAP4 ADD DUP4 DUP7 ADD CALLDATACOPY DUP4 ADD ADD MSTORE SWAP1 JUMP JUMPDEST PUSH1 0x1 PUSH1 0x1 PUSH1 0xA0 SHL SUB AND PUSH1 0x0 SWAP1 DUP2 MSTORE PUSH32 0x80BB2B638CC20BC4D0A60D66940F3AB4A00C1D7B313497CA82FB0B4AB0079305 PUSH1 0x20 MSTORE PUSH1 0x40 SWAP1 KECCAK256 SWAP1 JUMP JUMPDEST PUSH1 0x1 PUSH1 0x1 PUSH1 0xA0 SHL SUB AND PUSH1 0x0 SWAP1 DUP2 MSTORE PUSH32 0x80BB2B638CC20BC4D0A60D66940F3AB4A00C1D7B313497CA82FB0B4AB0079303 PUSH1 0x20 MSTORE PUSH1 0x40 SWAP1 KECCAK256 SWAP1 JUMP JUMPDEST PUSH1 0x0 DUP1 MLOAD PUSH1 0x20 PUSH2 0x43CB DUP4 CODECOPY DUP2 MLOAD SWAP2 MSTORE DUP1 SLOAD DUP3 LT ISZERO PUSH2 0x3949 JUMPI PUSH1 0x0 MSTORE PUSH32 0xA42F15E5D656F8155FD7419D740A6073999F19CD6E061449CE4A257150545BF2 ADD SWAP1 PUSH1 0x0 SWAP1 JUMP JUMPDEST PUSH4 0x4E487B71 PUSH1 0xE0 SHL PUSH1 0x0 MSTORE PUSH1 0x32 PUSH1 0x4 MSTORE PUSH1 0x24 PUSH1 0x0 REVERT JUMPDEST DUP1 SLOAD DUP3 LT ISZERO PUSH2 0x3949 JUMPI PUSH1 0x0 MSTORE PUSH1 0x20 PUSH1 0x0 KECCAK256 ADD SWAP1 PUSH1 0x0 SWAP1 JUMP JUMPDEST PUSH1 0x24 CALLDATALOAD SWAP1 DUP2 ISZERO ISZERO DUP3 SUB PUSH2 0x29C JUMPI JUMP JUMPDEST DUP1 PUSH1 0x0 MSTORE PUSH1 0x0 DUP1 MLOAD PUSH1 0x20 PUSH2 0x43EB DUP4 CODECOPY DUP2 MLOAD SWAP2 MSTORE PUSH1 0x20 MSTORE PUSH1 0x40 PUSH1 0x0 KECCAK256 CALLER PUSH1 0x0 MSTORE PUSH1 0x20 MSTORE PUSH1 0xFF PUSH1 0x40 PUSH1 0x0 KECCAK256 SLOAD AND ISZERO PUSH2 0x1360 JUMPI POP JUMP JUMPDEST PUSH1 0x1 PUSH1 0x1 PUSH1 0xA0 SHL SUB AND PUSH1 0x0 DUP2 DUP2 MSTORE PUSH32 0xB7DB2DD08FCB62D0C9E08C51941CAE53C267786A0B75803FB7960902FC8EF97D PUSH1 0x20 MSTORE PUSH1 0x40 DUP2 KECCAK256 SLOAD SWAP1 SWAP2 SWAP1 PUSH1 0x0 DUP1 MLOAD PUSH1 0x20 PUSH2 0x43EB DUP4 CODECOPY DUP2 MLOAD SWAP2 MSTORE SWAP1 PUSH1 0xFF AND PUSH2 0x3A42 JUMPI DUP3 DUP1 MSTORE PUSH1 0x20 MSTORE PUSH1 0x40 DUP3 KECCAK256 DUP2 DUP4 MSTORE PUSH1 0x20 MSTORE PUSH1 0x40 DUP3 KECCAK256 PUSH1 0x1 PUSH1 0xFF NOT DUP3 SLOAD AND OR SWAP1 SSTORE CALLER SWAP2 PUSH1 0x0 DUP1 MLOAD PUSH1 0x20 PUSH2 0x430B DUP4 CODECOPY DUP2 MLOAD SWAP2 MSTORE DUP2 DUP1 LOG4 PUSH1 0x1 SWAP1 JUMP JUMPDEST POP POP SWAP1 JUMP JUMPDEST PUSH1 0x1 PUSH1 0x1 PUSH1 0xA0 SHL SUB AND PUSH1 0x0 DUP2 DUP2 MSTORE PUSH32 0xAB71E3F32666744D246EDFF3F96E4BDAFEE2E9867098CDD118A979A7464786A8 PUSH1 0x20 MSTORE PUSH1 0x40 DUP2 KECCAK256 SLOAD SWAP1 SWAP2 SWAP1 PUSH32 0x189AB7A9244DF0848122154315AF71FE140F3DB0FE014031783B0946B8C9D2E3 SWAP1 PUSH1 0x0 DUP1 MLOAD PUSH1 0x20 PUSH2 0x43EB DUP4 CODECOPY DUP2 MLOAD SWAP2 MSTORE SWAP1 PUSH1 0xFF AND PUSH2 0x3AF1 JUMPI DUP2 DUP5 MSTORE PUSH1 0x20 MSTORE PUSH1 0x40 DUP4 KECCAK256 DUP3 DUP5 MSTORE PUSH1 0x20 MSTORE PUSH1 0x40 DUP4 KECCAK256 PUSH1 0x1 PUSH1 0xFF NOT DUP3 SLOAD AND OR SWAP1 SSTORE PUSH1 0x0 DUP1 MLOAD PUSH1 0x20 PUSH2 0x430B DUP4 CODECOPY DUP2 MLOAD SWAP2 MSTORE CALLER SWAP4 DUP1 LOG4 PUSH1 0x1 SWAP1 JUMP JUMPDEST POP POP POP SWAP1 JUMP JUMPDEST PUSH1 0x1 PUSH1 0x1 PUSH1 0xA0 SHL SUB AND PUSH1 0x0 DUP2 DUP2 MSTORE PUSH32 0x549FE2656C81D2947B3B913F0A53B9EA86C71E049F3A1B8AA23C09A8A05CB8D4 PUSH1 0x20 MSTORE PUSH1 0x40 DUP2 KECCAK256 SLOAD SWAP1 SWAP2 SWAP1 PUSH32 0x9F2DF0FED2C77648DE5860A4CC508CD0818C85B8B8A1AB4CEEEF8D981C8956A6 SWAP1 PUSH1 0x0 DUP1 MLOAD PUSH1 0x20 PUSH2 0x43EB DUP4 CODECOPY DUP2 MLOAD SWAP2 MSTORE SWAP1 PUSH1 0xFF AND PUSH2 0x3AF1 JUMPI DUP2 DUP5 MSTORE PUSH1 0x20 MSTORE PUSH1 0x40 DUP4 KECCAK256 DUP3 DUP5 MSTORE PUSH1 0x20 MSTORE PUSH1 0x40 DUP4 KECCAK256 PUSH1 0x1 PUSH1 0xFF NOT DUP3 SLOAD AND OR SWAP1 SSTORE PUSH1 0x0 DUP1 MLOAD PUSH1 0x20 PUSH2 0x430B DUP4 CODECOPY DUP2 MLOAD SWAP2 MSTORE CALLER SWAP4 DUP1 LOG4 PUSH1 0x1 SWAP1 JUMP JUMPDEST SWAP1 PUSH1 0x0 SWAP2 DUP1 DUP4 MSTORE PUSH1 0x0 DUP1 MLOAD PUSH1 0x20 PUSH2 0x43EB DUP4 CODECOPY DUP2 MLOAD SWAP2 MSTORE DUP1 PUSH1 0x20 MSTORE PUSH1 0x40 DUP5 KECCAK256 SWAP3 PUSH1 0x1 DUP1 PUSH1 0xA0 SHL SUB AND SWAP3 DUP4 DUP6 MSTORE PUSH1 0x20 MSTORE PUSH1 0xFF PUSH1 0x40 DUP6 KECCAK256 SLOAD AND ISZERO PUSH1 0x0 EQ PUSH2 0x3AF1 JUMPI DUP2 DUP5 MSTORE PUSH1 0x20 MSTORE PUSH1 0x40 DUP4 KECCAK256 DUP3 DUP5 MSTORE PUSH1 0x20 MSTORE PUSH1 0x40 DUP4 KECCAK256 PUSH1 0x1 PUSH1 0xFF NOT DUP3 SLOAD AND OR SWAP1 SSTORE PUSH1 0x0 DUP1 MLOAD PUSH1 0x20 PUSH2 0x430B DUP4 CODECOPY DUP2 MLOAD SWAP2 MSTORE CALLER SWAP4 DUP1 LOG4 PUSH1 0x1 SWAP1 JUMP JUMPDEST SWAP1 PUSH1 0x0 SWAP2 DUP1 DUP4 MSTORE PUSH1 0x0 DUP1 MLOAD PUSH1 0x20 PUSH2 0x43EB DUP4 CODECOPY DUP2 MLOAD SWAP2 MSTORE DUP1 PUSH1 0x20 MSTORE PUSH1 0x40 DUP5 KECCAK256 SWAP3 PUSH1 0x1 DUP1 PUSH1 0xA0 SHL SUB AND SWAP3 DUP4 DUP6 MSTORE PUSH1 0x20 MSTORE PUSH1 0xFF PUSH1 0x40 DUP6 KECCAK256 SLOAD AND PUSH1 0x0 EQ PUSH2 0x3AF1 JUMPI DUP2 DUP5 MSTORE PUSH1 0x20 MSTORE PUSH1 0x40 DUP4 KECCAK256 DUP3 DUP5 MSTORE PUSH1 0x20 MSTORE PUSH1 0x40 DUP4 KECCAK256 PUSH1 0xFF NOT DUP2 SLOAD AND SWAP1 SSTORE PUSH32 0xF6391F5C32D9C69D2A47EA670B442974B53935D1EDC7FD64EB21E047A839171B CALLER SWAP4 DUP1 LOG4 PUSH1 0x1 SWAP1 JUMP JUMPDEST PUSH1 0x1 PUSH1 0x1 PUSH1 0xA0 SHL SUB DUP2 AND ISZERO PUSH2 0x3CB5 JUMPI PUSH2 0x3CB1 SWAP1 PUSH2 0x38CD JUMP JUMPDEST SLOAD SWAP1 JUMP JUMPDEST PUSH1 0x40 MLOAD PUSH4 0x22718AD9 PUSH1 0xE2 SHL DUP2 MSTORE PUSH1 0x0 PUSH1 0x4 DUP3 ADD MSTORE PUSH1 0x24 SWAP1 REVERT JUMPDEST SWAP1 SWAP2 PUSH1 0x1 PUSH1 0x1 PUSH1 0xA0 SHL SUB DUP1 DUP5 AND SWAP3 DUP4 ISZERO PUSH2 0x1CD0 JUMPI PUSH1 0xFF PUSH1 0x0 DUP1 MLOAD PUSH1 0x20 PUSH2 0x440B DUP4 CODECOPY DUP2 MLOAD SWAP2 MSTORE SLOAD AND PUSH2 0x1CBE JUMPI PUSH1 0x0 SWAP4 DUP4 DUP6 MSTORE PUSH1 0x0 DUP1 MLOAD PUSH1 0x20 PUSH2 0x442B DUP4 CODECOPY DUP2 MLOAD SWAP2 MSTORE SWAP5 PUSH1 0x20 DUP7 DUP2 MSTORE PUSH1 0x40 SWAP8 DUP6 DUP10 DUP5 KECCAK256 SLOAD AND SWAP8 CALLER ISZERO ISZERO DUP1 PUSH2 0x3F23 JUMPI JUMPDEST POP DUP9 ISZERO SWAP1 DUP2 ISZERO PUSH2 0x3F04 JUMPI JUMPDEST PUSH2 0x3D3B DUP4 PUSH2 0x38CD JUMP JUMPDEST DUP1 SLOAD PUSH1 0x1 ADD SWAP1 SSTORE DUP9 DUP6 MSTORE DUP4 MSTORE DUP10 DUP5 KECCAK256 DUP1 SLOAD PUSH1 0x1 PUSH1 0x1 PUSH1 0xA0 SHL SUB NOT AND DUP7 OR SWAP1 SSTORE DUP8 DUP6 DUP11 PUSH32 0xDDF252AD1BE2C89B69C2B068FC378DAA952BA7F163C4A11628F55A4DF523B3EF DUP8 DUP1 LOG4 ISZERO PUSH2 0x3E5F JUMPI PUSH1 0x0 DUP1 MLOAD PUSH1 0x20 PUSH2 0x43CB DUP4 CODECOPY DUP2 MLOAD SWAP2 MSTORE SLOAD DUP8 DUP5 MSTORE PUSH1 0x0 DUP1 MLOAD PUSH1 0x20 PUSH2 0x43AB DUP4 CODECOPY DUP2 MLOAD SWAP2 MSTORE DUP4 MSTORE DUP10 DUP5 KECCAK256 SSTORE PUSH2 0x3DB7 DUP8 PUSH2 0x4221 JUMP JUMPDEST DUP4 DUP9 SUB PUSH2 0x3DF3 JUMPI JUMPDEST POP POP POP POP AND SWAP3 DUP4 DUP4 SUB PUSH2 0x3DD2 JUMPI POP POP POP POP JUMP JUMPDEST PUSH1 0x64 SWAP5 POP MLOAD SWAP3 PUSH4 0x64283D7B PUSH1 0xE0 SHL DUP5 MSTORE PUSH1 0x4 DUP5 ADD MSTORE PUSH1 0x24 DUP4 ADD MSTORE PUSH1 0x44 DUP3 ADD MSTORE REVERT JUMPDEST PUSH2 0x3DFC SWAP1 PUSH2 0x3C99 JUMP JUMPDEST PUSH1 0x0 NOT DUP2 ADD SWAP4 SWAP1 DUP5 GT PUSH2 0x3E4B JUMPI DUP3 SWAP2 PUSH1 0x0 DUP1 MLOAD PUSH1 0x20 PUSH2 0x432B DUP4 CODECOPY DUP2 MLOAD SWAP2 MSTORE SWAP2 DUP11 SWAP5 MSTORE PUSH1 0x0 DUP1 MLOAD PUSH1 0x20 PUSH2 0x434B DUP4 CODECOPY DUP2 MLOAD SWAP2 MSTORE DUP2 MSTORE DUP4 DUP4 KECCAK256 DUP6 DUP5 MSTORE DUP2 MSTORE DUP8 DUP5 DUP5 KECCAK256 SSTORE DUP8 DUP4 MSTORE MSTORE KECCAK256 SSTORE CODESIZE DUP1 DUP1 DUP1 PUSH2 0x3DBF JUMP JUMPDEST PUSH4 0x4E487B71 PUSH1 0xE0 SHL DUP4 MSTORE PUSH1 0x11 PUSH1 0x4 MSTORE PUSH1 0x24 DUP4 REVERT JUMPDEST DUP8 DUP5 EQ PUSH2 0x3DB7 JUMPI PUSH2 0x3E6F DUP9 PUSH2 0x3C99 JUMP JUMPDEST DUP8 DUP5 MSTORE PUSH1 0x0 DUP1 MLOAD PUSH1 0x20 PUSH2 0x432B DUP4 CODECOPY DUP2 MLOAD SWAP2 MSTORE DUP1 DUP5 MSTORE DUP11 DUP6 KECCAK256 SLOAD SWAP1 DUP3 DUP3 SUB PUSH2 0x3EC1 JUMPI JUMPDEST POP POP DUP8 DUP5 MSTORE DUP4 DUP11 DUP2 KECCAK256 SSTORE DUP9 DUP5 MSTORE PUSH1 0x0 DUP1 MLOAD PUSH1 0x20 PUSH2 0x434B DUP4 CODECOPY DUP2 MLOAD SWAP2 MSTORE DUP4 MSTORE DUP10 DUP5 KECCAK256 SWAP1 DUP5 MSTORE DUP3 MSTORE DUP3 DUP10 DUP2 KECCAK256 SSTORE PUSH2 0x3DB7 JUMP JUMPDEST DUP11 DUP7 MSTORE PUSH1 0x0 DUP1 MLOAD PUSH1 0x20 PUSH2 0x434B DUP4 CODECOPY DUP2 MLOAD SWAP2 MSTORE DUP1 DUP7 MSTORE DUP13 DUP8 KECCAK256 DUP5 DUP9 MSTORE DUP7 MSTORE DUP13 DUP8 KECCAK256 SLOAD SWAP1 DUP13 DUP9 MSTORE DUP7 MSTORE DUP13 DUP8 KECCAK256 DUP4 DUP9 MSTORE DUP7 MSTORE DUP1 DUP14 DUP9 KECCAK256 SSTORE DUP7 MSTORE DUP5 MSTORE DUP11 DUP6 KECCAK256 SSTORE CODESIZE DUP1 PUSH2 0x3E91 JUMP JUMPDEST PUSH2 0x3F0D DUP10 PUSH2 0x3FBD JUMP JUMPDEST PUSH2 0x3F16 DUP11 PUSH2 0x38CD JUMP JUMPDEST DUP1 SLOAD PUSH1 0x0 NOT ADD SWAP1 SSTORE PUSH2 0x3D32 JUMP JUMPDEST DUP1 PUSH2 0x3F70 JUMPI JUMPDEST ISZERO PUSH2 0x3F34 JUMPI CODESIZE PUSH2 0x3D27 JUMP JUMPDEST DUP10 DUP9 DUP11 PUSH2 0x3F51 JUMPI PUSH1 0x24 SWAP2 MLOAD SWAP1 PUSH4 0x7E273289 PUSH1 0xE0 SHL DUP3 MSTORE PUSH1 0x4 DUP3 ADD MSTORE REVERT JUMPDEST SWAP1 MLOAD PUSH4 0x177E802F PUSH1 0xE0 SHL DUP2 MSTORE CALLER PUSH1 0x4 DUP3 ADD MSTORE PUSH1 0x24 DUP2 ADD SWAP2 SWAP1 SWAP2 MSTORE PUSH1 0x44 SWAP1 REVERT JUMPDEST POP CALLER DUP10 EQ DUP1 ISZERO PUSH2 0x3FA2 JUMPI JUMPDEST DUP1 PUSH2 0x3F29 JUMPI POP DUP8 DUP5 MSTORE PUSH1 0x0 DUP1 MLOAD PUSH1 0x20 PUSH2 0x444B DUP4 CODECOPY DUP2 MLOAD SWAP2 MSTORE DUP4 MSTORE CALLER DUP8 DUP12 DUP7 KECCAK256 SLOAD AND EQ PUSH2 0x3F29 JUMP JUMPDEST POP PUSH2 0x3FAC DUP10 PUSH2 0x3894 JUMP JUMPDEST CALLER DUP6 MSTORE DUP4 MSTORE PUSH1 0xFF DUP11 DUP6 KECCAK256 SLOAD AND PUSH2 0x3F7B JUMP JUMPDEST PUSH1 0x0 MSTORE PUSH1 0x0 DUP1 MLOAD PUSH1 0x20 PUSH2 0x444B DUP4 CODECOPY DUP2 MLOAD SWAP2 MSTORE PUSH1 0x20 MSTORE PUSH1 0x40 PUSH1 0x0 KECCAK256 PUSH1 0x1 PUSH1 0x1 PUSH1 0x60 SHL SUB PUSH1 0xA0 SHL DUP2 SLOAD AND SWAP1 SSTORE JUMP JUMPDEST PUSH1 0x0 DUP2 DUP2 MSTORE PUSH1 0x0 DUP1 MLOAD PUSH1 0x20 PUSH2 0x442B DUP4 CODECOPY DUP2 MLOAD SWAP2 MSTORE PUSH1 0x20 MSTORE PUSH1 0x40 SWAP1 KECCAK256 SLOAD PUSH1 0x1 PUSH1 0x1 PUSH1 0xA0 SHL SUB AND SWAP1 DUP2 ISZERO PUSH2 0x4019 JUMPI POP SWAP1 JUMP JUMPDEST PUSH1 0x24 SWAP1 PUSH1 0x40 MLOAD SWAP1 PUSH4 0x7E273289 PUSH1 0xE0 SHL DUP3 MSTORE PUSH1 0x4 DUP3 ADD MSTORE REVERT JUMPDEST RETURNDATASIZE ISZERO PUSH2 0x405C JUMPI RETURNDATASIZE SWAP1 PUSH2 0x4042 DUP3 PUSH2 0x3832 JUMP JUMPDEST SWAP2 PUSH2 0x4050 PUSH1 0x40 MLOAD SWAP4 DUP5 PUSH2 0x36FB JUMP JUMPDEST DUP3 MSTORE RETURNDATASIZE PUSH1 0x0 PUSH1 0x20 DUP5 ADD RETURNDATACOPY JUMP JUMPDEST PUSH1 0x60 SWAP1 JUMP JUMPDEST SWAP2 SWAP1 DUP1 EXTCODESIZE PUSH2 0x4070 JUMPI JUMPDEST POP POP POP POP JUMP JUMPDEST PUSH2 0x40B2 PUSH1 0x1 DUP1 PUSH1 0xA0 SHL SUB DUP1 SWAP3 AND SWAP5 PUSH1 0x40 MLOAD SWAP4 DUP5 SWAP4 PUSH4 0xA85BD01 PUSH1 0xE1 SHL SWAP7 DUP8 DUP7 MSTORE CALLER PUSH1 0x4 DUP8 ADD MSTORE AND PUSH1 0x24 DUP6 ADD MSTORE PUSH1 0x44 DUP5 ADD MSTORE PUSH1 0x80 PUSH1 0x64 DUP5 ADD MSTORE PUSH1 0x84 DUP4 ADD SWAP1 PUSH2 0x3630 JUMP JUMPDEST SUB SWAP1 PUSH1 0x20 DUP2 PUSH1 0x0 SWAP4 DUP2 DUP6 DUP9 GAS CALL SWAP1 DUP3 SWAP1 DUP3 PUSH2 0x4131 JUMPI JUMPDEST POP POP PUSH2 0x4100 JUMPI DUP3 PUSH2 0x40D7 PUSH2 0x4031 JUMP JUMPDEST DUP1 MLOAD SWAP2 SWAP1 DUP3 PUSH2 0x40F9 JUMPI PUSH1 0x40 MLOAD PUSH4 0x32505749 PUSH1 0xE1 SHL DUP2 MSTORE PUSH1 0x4 DUP2 ADD DUP4 SWAP1 MSTORE PUSH1 0x24 SWAP1 REVERT JUMPDEST SWAP1 POP PUSH1 0x20 ADD REVERT JUMPDEST PUSH1 0x1 PUSH1 0x1 PUSH1 0xE0 SHL SUB NOT AND SUB PUSH2 0x4119 JUMPI POP CODESIZE DUP1 DUP1 DUP1 PUSH2 0x406A JUMP JUMPDEST PUSH1 0x24 SWAP1 PUSH1 0x40 MLOAD SWAP1 PUSH4 0x32505749 PUSH1 0xE1 SHL DUP3 MSTORE PUSH1 0x4 DUP3 ADD MSTORE REVERT JUMPDEST SWAP1 SWAP2 SWAP3 POP PUSH1 0x20 DUP2 RETURNDATASIZE DUP3 GT PUSH2 0x4178 JUMPI JUMPDEST DUP2 PUSH2 0x414D PUSH1 0x20 SWAP4 DUP4 PUSH2 0x36FB JUMP JUMPDEST DUP2 ADD SUB SLT PUSH2 0x4174 JUMPI MLOAD SWAP1 PUSH1 0x1 PUSH1 0x1 PUSH1 0xE0 SHL SUB NOT DUP3 AND DUP3 SUB PUSH2 0x4171 JUMPI POP SWAP1 CODESIZE DUP1 PUSH2 0x40C8 JUMP JUMPDEST DUP1 REVERT JUMPDEST POP DUP1 REVERT JUMPDEST RETURNDATASIZE SWAP2 POP PUSH2 0x4140 JUMP JUMPDEST SWAP1 PUSH2 0x41A7 JUMPI POP DUP1 MLOAD ISZERO PUSH2 0x4195 JUMPI DUP1 MLOAD SWAP1 PUSH1 0x20 ADD REVERT JUMPDEST PUSH1 0x40 MLOAD PUSH4 0xA12F521 PUSH1 0xE1 SHL DUP2 MSTORE PUSH1 0x4 SWAP1 REVERT JUMPDEST DUP2 MLOAD ISZERO DUP1 PUSH2 0x41DA JUMPI JUMPDEST PUSH2 0x41B8 JUMPI POP SWAP1 JUMP JUMPDEST PUSH1 0x40 MLOAD PUSH4 0x9996B315 PUSH1 0xE0 SHL DUP2 MSTORE PUSH1 0x1 PUSH1 0x1 PUSH1 0xA0 SHL SUB SWAP1 SWAP2 AND PUSH1 0x4 DUP3 ADD MSTORE PUSH1 0x24 SWAP1 REVERT JUMPDEST POP DUP1 EXTCODESIZE ISZERO PUSH2 0x41B0 JUMP JUMPDEST PUSH1 0xFF PUSH1 0x0 DUP1 MLOAD PUSH1 0x20 PUSH2 0x446B DUP4 CODECOPY DUP2 MLOAD SWAP2 MSTORE SLOAD PUSH1 0x40 SHR AND ISZERO PUSH2 0x4200 JUMPI JUMP JUMPDEST PUSH1 0x40 MLOAD PUSH4 0x1AFCD79F PUSH1 0xE3 SHL DUP2 MSTORE PUSH1 0x4 SWAP1 REVERT JUMPDEST PUSH1 0x0 NOT DUP2 EQ PUSH2 0x376 JUMPI PUSH1 0x1 ADD SWAP1 JUMP JUMPDEST PUSH1 0x0 DUP1 MLOAD PUSH1 0x20 PUSH2 0x43CB DUP4 CODECOPY DUP2 MLOAD SWAP2 MSTORE SWAP1 DUP2 SLOAD SWAP2 PUSH1 0x1 PUSH1 0x40 SHL DUP4 LT ISZERO PUSH2 0x963 JUMPI DUP3 PUSH2 0x2C29 SWAP2 PUSH1 0x1 PUSH2 0x375A SWAP6 ADD SWAP1 SSTORE PUSH2 0x3906 JUMP JUMPDEST SWAP1 DUP2 SLOAD SWAP2 PUSH1 0x1 PUSH1 0x40 SHL DUP4 LT ISZERO PUSH2 0x963 JUMPI DUP3 PUSH2 0x2C29 SWAP2 PUSH1 0x1 PUSH2 0x375A SWAP6 ADD DUP2 SSTORE PUSH2 0x395F JUMP JUMPDEST SWAP1 DUP2 PUSH1 0x20 SWAP2 SUB SLT PUSH2 0x29C JUMPI MLOAD DUP1 ISZERO ISZERO DUP2 SUB PUSH2 0x29C JUMPI SWAP1 JUMP JUMPDEST DUP1 SLOAD PUSH1 0x1 PUSH1 0x40 SHL DUP2 LT ISZERO PUSH2 0x963 JUMPI PUSH2 0x42AB SWAP2 PUSH1 0x1 DUP3 ADD DUP2 SSTORE PUSH2 0x395F JUMP JUMPDEST DUP2 SWAP3 SWAP2 SLOAD SWAP1 PUSH1 0x3 SHL SWAP2 PUSH1 0x1 DUP1 PUSH1 0xA0 SHL SUB DUP1 SWAP2 AND DUP4 SHL SWAP3 SHL NOT AND OR SWAP1 SSTORE JUMP JUMPDEST ISZERO PUSH2 0x42D0 JUMPI JUMP JUMPDEST PUSH1 0x40 MLOAD PUSH3 0x461BCD PUSH1 0xE5 SHL DUP2 MSTORE PUSH1 0x20 PUSH1 0x4 DUP3 ADD MSTORE PUSH1 0x12 PUSH1 0x24 DUP3 ADD MSTORE PUSH18 0x125B9D985B1A590818DBDB9D195B9D081251 PUSH1 0x72 SHL PUSH1 0x44 DUP3 ADD MSTORE PUSH1 0x64 SWAP1 REVERT INVALID 0x2F DUP8 DUP9 GT PUSH31 0x7EFF1D82E926EC794901D17C78024A50270940304540A733656F0D645E0397 SDIV 0x49 STOP DUP9 0xDA 0xAD DUP10 0xBA 0xE2 POP 0x49 LOG3 0x4F 0x4A SWAP1 PUSH19 0xD398537B1AB2425F24CBED01645E0397054900 DUP9 0xDA 0xAD DUP10 0xBA 0xE2 POP 0x49 LOG3 0x4F 0x4A SWAP1 PUSH19 0xD398537B1AB2425F24CBED0080BB2B638CC20B 0xC4 0xD0 0xA6 0xD PUSH7 0x940F3AB4A00C1D PUSH28 0x313497CA82FB0B4AB0079300F4BAD0A69248F59680A4F2B3000328CE 0xC7 BYTE COINBASE CALLVALUE SELFBALANCE 0xC9 PUSH8 0x81CFE5996DAA8C45 PUSH15 0x645E039705490088DAAD89BAE25049 LOG3 0x4F 0x4A SWAP1 PUSH19 0xD398537B1AB2425F24CBED03645E0397054900 DUP9 0xDA 0xAD DUP10 0xBA 0xE2 POP 0x49 LOG3 0x4F 0x4A SWAP1 PUSH19 0xD398537B1AB2425F24CBED0202DD7BC7DEC4DC 0xEE 0xDD 0xA7 PUSH22 0xE58DD541E08A116C6C53815C0BD028192F7B626800CD 0x5E 0xD1 0x5C PUSH15 0x187E77E9AEE88184C21F4F2182AB58 0x27 0xCB EXTCODESIZE PUSH31 0x7FBEDCD63F0330080BB2B638CC20BC4D0A60D66940F3AB4A00C1D7B313497 0xCA DUP3 0xFB SIGNEXTEND 0x4A 0xB0 SMOD SWAP4 MUL DUP1 0xBB 0x2B PUSH4 0x8CC20BC4 0xD0 0xA6 0xD PUSH7 0x940F3AB4A00C1D PUSH28 0x313497CA82FB0B4AB0079304F0C57E16840DF040F15088DC2F81FE39 SHR CODECOPY 0x23 0xBE 0xC7 RETURNDATACOPY 0x23 0xA9 PUSH7 0x2EFC9C229C6A00 DUP1 0xBB 0x2B PUSH4 0x8CC20BC4 0xD0 0xA6 0xD PUSH7 0x940F3AB4A00C1D PUSH28 0x313497CA82FB0B4AB007930137C58C799B6609234B945E882912EE9A 0xD3 0x49 BASEFEE LOG1 0xDF 0xAA KECCAK256 0xA9 PUSH21 0x85E1A7752BBF81A2646970667358221220CD1D2EF1 0x49 PUSH22 0x4FA210B848AC7A78AB0783C1778FBA856671318D962A 0xCC DUP2 0xE 0xE5 PUSH5 0x736F6C6343 STOP ADDMOD EQ STOP CALLER "},"gasEstimates":{"creation":{"codeDepositCost":"3532800","executionCost":"infinite","totalCost":"infinite"},"external":{"ADMIN_ROLE()":"818","APPROVALS_NEEDED()":"1016","APP_ID()":"3209","DEFAULT_ADMIN_ROLE()":"950","MINTER_ROLE()":"1150","PAUSER_ROLE()":"1216","UPGRADER_ROLE()":"1326","UPGRADE_INTERFACE_VERSION()":"infinite","_nextContentEntryId()":"3448","_nextDisputeId()":"3009","_nextTokenId()":"2613","approve(address,uint256)":"infinite","approveContent(uint256)":"27106","balanceOf(address)":"3128","burn(uint256)":"infinite","buyProduct(uint256,address,uint256)":"infinite","contentEntries(uint256)":"infinite","deliveryTimers(uint256)":"3429","disputeInfo(uint256)":"infinite","getApproved(uint256)":"infinite","getContent(uint256)":"infinite","getContentCount()":"2899","getRoleAdmin(bytes32)":"infinite","getUserContentEntries(address)":"infinite","getUserListedProducts(address)":"infinite","grantRole(bytes32,address)":"infinite","hasRole(bytes32,address)":"infinite","initialize(address,address,address,uint256,address)":"infinite","isApprovedForAll(address,address)":"3694","listProduct(uint256,string,uint256,string,uint256)":"infinite","markProductAsDelivered(uint256)":"infinite","name()":"infinite","ownerOf(uint256)":"infinite","paused()":"infinite","productInfo(uint256)":"infinite","proxiableUUID()":"infinite","raiseDispute(uint256,string)":"infinite","renounceRole(bytes32,address)":"29121","revokeRole(bytes32,address)":"infinite","rewardsPool()":"2329","safeTransferFrom(address,address,uint256)":"infinite","safeTransferFrom(address,address,uint256,bytes)":"infinite","setApprovalForAll(address,bool)":"27334","submitContent(string,string,string,string,string)":"infinite","supportsInterface(bytes4)":"440","symbol()":"infinite","tokenByIndex(uint256)":"infinite","tokenOfOwnerByIndex(address,uint256)":"infinite","tokenURI(uint256)":"infinite","totalSupply()":"infinite","transferFrom(address,address,uint256)":"infinite","upgradeToAndCall(address,bytes)":"infinite","userContentEntries(address,uint256)":"7906","userListedProducts(address,uint256)":"7552","voteOnDispute(uint256,bool)":"infinite"},"internal":{"_authorizeUpgrade(address)":"infinite","_finalizeDispute(uint256,bool)":"infinite","_increaseBalance(address,uint128)":"infinite","_setTokenURI(uint256,string memory)":"infinite","_update(address,uint256,address)":"infinite"}},"methodIdentifiers":{"ADMIN_ROLE()":"75b238fc","APPROVALS_NEEDED()":"a9aa0072","APP_ID()":"c187bbc1","DEFAULT_ADMIN_ROLE()":"a217fddf","MINTER_ROLE()":"d5391393","PAUSER_ROLE()":"e63ab1e9","UPGRADER_ROLE()":"f72c0d8b","UPGRADE_INTERFACE_VERSION()":"ad3cb1cc","_nextContentEntryId()":"f73d2d2f","_nextDisputeId()":"9b5f1423","_nextTokenId()":"4a60f620","approve(address,uint256)":"095ea7b3","approveContent(uint256)":"589c9648","balanceOf(address)":"70a08231","burn(uint256)":"42966c68","buyProduct(uint256,address,uint256)":"0355a3fb","contentEntries(uint256)":"57dfe3fc","deliveryTimers(uint256)":"ebcc2cb1","disputeInfo(uint256)":"101e1940","getApproved(uint256)":"081812fc","getContent(uint256)":"0b7ad54c","getContentCount()":"74449ca4","getRoleAdmin(bytes32)":"248a9ca3","getUserContentEntries(address)":"995ab152","getUserListedProducts(address)":"4e99775e","grantRole(bytes32,address)":"2f2ff15d","hasRole(bytes32,address)":"91d14854","initialize(address,address,address,uint256,address)":"530b97a4","isApprovedForAll(address,address)":"e985e9c5","listProduct(uint256,string,uint256,string,uint256)":"5e534f40","markProductAsDelivered(uint256)":"f197b6ba","name()":"06fdde03","ownerOf(uint256)":"6352211e","paused()":"5c975abb","productInfo(uint256)":"bb119f6e","proxiableUUID()":"52d1902d","raiseDispute(uint256,string)":"5aef573c","renounceRole(bytes32,address)":"36568abe","revokeRole(bytes32,address)":"d547741f","rewardsPool()":"0359fea9","safeTransferFrom(address,address,uint256)":"42842e0e","safeTransferFrom(address,address,uint256,bytes)":"b88d4fde","setApprovalForAll(address,bool)":"a22cb465","submitContent(string,string,string,string,string)":"e085402d","supportsInterface(bytes4)":"01ffc9a7","symbol()":"95d89b41","tokenByIndex(uint256)":"4f6ccce7","tokenOfOwnerByIndex(address,uint256)":"2f745c59","tokenURI(uint256)":"c87b56dd","totalSupply()":"18160ddd","transferFrom(address,address,uint256)":"23b872dd","upgradeToAndCall(address,bytes)":"4f1ef286","userContentEntries(address,uint256)":"f09cc7f1","userListedProducts(address,uint256)":"a1d795d1","voteOnDispute(uint256,bool)":"a4f5df12"}},"storageLayout":{"storage":[{"astId":5434,"contract":"contracts/VeCycle.sol:VeCycle","label":"_nextTokenId","offset":0,"slot":"0","type":"t_uint256"},{"astId":5436,"contract":"contracts/VeCycle.sol:VeCycle","label":"_nextDisputeId","offset":0,"slot":"1","type":"t_uint256"},{"astId":5443,"contract":"contracts/VeCycle.sol:VeCycle","label":"_tokenURIs","offset":0,"slot":"2","type":"t_mapping(t_uint256,t_string_storage)"},{"astId":5446,"contract":"contracts/VeCycle.sol:VeCycle","label":"rewardsPool","offset":0,"slot":"3","type":"t_contract(IX2EarnRewardsPool)6568"},{"astId":5448,"contract":"contracts/VeCycle.sol:VeCycle","label":"APP_ID","offset":0,"slot":"4","type":"t_uint256"},{"astId":5450,"contract":"contracts/VeCycle.sol:VeCycle","label":"_paymentToken","offset":0,"slot":"5","type":"t_address"},{"astId":5509,"contract":"contracts/VeCycle.sol:VeCycle","label":"productInfo","offset":0,"slot":"6","type":"t_mapping(t_uint256,t_struct(ProductInfo)5483_storage)"},{"astId":5514,"contract":"contracts/VeCycle.sol:VeCycle","label":"disputeInfo","offset":0,"slot":"7","type":"t_mapping(t_uint256,t_struct(DisputeInfo)5504_storage)"},{"astId":5518,"contract":"contracts/VeCycle.sol:VeCycle","label":"deliveryTimers","offset":0,"slot":"8","type":"t_mapping(t_uint256,t_uint256)"},{"astId":5523,"contract":"contracts/VeCycle.sol:VeCycle","label":"userListedProducts","offset":0,"slot":"9","type":"t_mapping(t_address,t_array(t_uint256)dyn_storage)"},{"astId":6155,"contract":"contracts/VeCycle.sol:VeCycle","label":"_nextContentEntryId","offset":0,"slot":"10","type":"t_uint256"},{"astId":6160,"contract":"contracts/VeCycle.sol:VeCycle","label":"contentEntries","offset":0,"slot":"11","type":"t_mapping(t_uint256,t_struct(ContentEntry)6153_storage)"},{"astId":6165,"contract":"contracts/VeCycle.sol:VeCycle","label":"userContentEntries","offset":0,"slot":"12","type":"t_mapping(t_address,t_array(t_uint256)dyn_storage)"}],"types":{"t_address":{"encoding":"inplace","label":"address","numberOfBytes":"20"},"t_array(t_address)dyn_storage":{"base":"t_address","encoding":"dynamic_array","label":"address[]","numberOfBytes":"32"},"t_array(t_uint256)dyn_storage":{"base":"t_uint256","encoding":"dynamic_array","label":"uint256[]","numberOfBytes":"32"},"t_bool":{"encoding":"inplace","label":"bool","numberOfBytes":"1"},"t_contract(IX2EarnRewardsPool)6568":{"encoding":"inplace","label":"contract IX2EarnRewardsPool","numberOfBytes":"20"},"t_enum(ProductApprovalStatus)5460":{"encoding":"inplace","label":"enum VeCycle.ProductApprovalStatus","numberOfBytes":"1"},"t_enum(ProductListingStatus)5456":{"encoding":"inplace","label":"enum VeCycle.ProductListingStatus","numberOfBytes":"1"},"t_mapping(t_address,t_array(t_uint256)dyn_storage)":{"encoding":"mapping","key":"t_address","label":"mapping(address => uint256[])","numberOfBytes":"32","value":"t_array(t_uint256)dyn_storage"},"t_mapping(t_address,t_bool)":{"encoding":"mapping","key":"t_address","label":"mapping(address => bool)","numberOfBytes":"32","value":"t_bool"},"t_mapping(t_uint256,t_string_storage)":{"encoding":"mapping","key":"t_uint256","label":"mapping(uint256 => string)","numberOfBytes":"32","value":"t_string_storage"},"t_mapping(t_uint256,t_struct(ContentEntry)6153_storage)":{"encoding":"mapping","key":"t_uint256","label":"mapping(uint256 => struct VeCycle.ContentEntry)","numberOfBytes":"32","value":"t_struct(ContentEntry)6153_storage"},"t_mapping(t_uint256,t_struct(DisputeInfo)5504_storage)":{"encoding":"mapping","key":"t_uint256","label":"mapping(uint256 => struct VeCycle.DisputeInfo)","numberOfBytes":"32","value":"t_struct(DisputeInfo)5504_storage"},"t_mapping(t_uint256,t_struct(ProductInfo)5483_storage)":{"encoding":"mapping","key":"t_uint256","label":"mapping(uint256 => struct VeCycle.ProductInfo)","numberOfBytes":"32","value":"t_struct(ProductInfo)5483_storage"},"t_mapping(t_uint256,t_uint256)":{"encoding":"mapping","key":"t_uint256","label":"mapping(uint256 => uint256)","numberOfBytes":"32","value":"t_uint256"},"t_string_storage":{"encoding":"bytes","label":"string","numberOfBytes":"32"},"t_struct(ContentEntry)6153_storage":{"encoding":"inplace","label":"struct VeCycle.ContentEntry","members":[{"astId":6140,"contract":"contracts/VeCycle.sol:VeCycle","label":"contentType","offset":0,"slot":"0","type":"t_string_storage"},{"astId":6142,"contract":"contracts/VeCycle.sol:VeCycle","label":"title","offset":0,"slot":"1","type":"t_string_storage"},{"astId":6144,"contract":"contracts/VeCycle.sol:VeCycle","label":"description","offset":0,"slot":"2","type":"t_string_storage"},{"astId":6146,"contract":"contracts/VeCycle.sol:VeCycle","label":"twitterLink","offset":0,"slot":"3","type":"t_string_storage"},{"astId":6148,"contract":"contracts/VeCycle.sol:VeCycle","label":"contentLink","offset":0,"slot":"4","type":"t_string_storage"},{"astId":6150,"contract":"contracts/VeCycle.sol:VeCycle","label":"creator","offset":0,"slot":"5","type":"t_address"},{"astId":6152,"contract":"contracts/VeCycle.sol:VeCycle","label":"approved","offset":20,"slot":"5","type":"t_bool"}],"numberOfBytes":"192"},"t_struct(DisputeInfo)5504_storage":{"encoding":"inplace","label":"struct VeCycle.DisputeInfo","members":[{"astId":5485,"contract":"contracts/VeCycle.sol:VeCycle","label":"reason","offset":0,"slot":"0","type":"t_string_storage"},{"astId":5487,"contract":"contracts/VeCycle.sol:VeCycle","label":"resolved","offset":0,"slot":"1","type":"t_bool"},{"astId":5489,"contract":"contracts/VeCycle.sol:VeCycle","label":"approved","offset":1,"slot":"1","type":"t_bool"},{"astId":5491,"contract":"contracts/VeCycle.sol:VeCycle","label":"approvals","offset":0,"slot":"2","type":"t_uint256"},{"astId":5493,"contract":"contracts/VeCycle.sol:VeCycle","label":"rejections","offset":0,"slot":"3","type":"t_uint256"},{"astId":5497,"contract":"contracts/VeCycle.sol:VeCycle","label":"voted","offset":0,"slot":"4","type":"t_mapping(t_address,t_bool)"},{"astId":5500,"contract":"contracts/VeCycle.sol:VeCycle","label":"acceptors","offset":0,"slot":"5","type":"t_array(t_address)dyn_storage"},{"astId":5503,"contract":"contracts/VeCycle.sol:VeCycle","label":"rejectors","offset":0,"slot":"6","type":"t_array(t_address)dyn_storage"}],"numberOfBytes":"224"},"t_struct(ProductInfo)5483_storage":{"encoding":"inplace","label":"struct VeCycle.ProductInfo","members":[{"astId":5462,"contract":"contracts/VeCycle.sol:VeCycle","label":"price","offset":0,"slot":"0","type":"t_uint256"},{"astId":5464,"contract":"contracts/VeCycle.sol:VeCycle","label":"quantity","offset":0,"slot":"1","type":"t_uint256"},{"astId":5467,"contract":"contracts/VeCycle.sol:VeCycle","label":"listingStatus","offset":0,"slot":"2","type":"t_enum(ProductListingStatus)5456"},{"astId":5470,"contract":"contracts/VeCycle.sol:VeCycle","label":"approvalStatus","offset":1,"slot":"2","type":"t_enum(ProductApprovalStatus)5460"},{"astId":5472,"contract":"contracts/VeCycle.sol:VeCycle","label":"metadata","offset":0,"slot":"3","type":"t_string_storage"},{"astId":5474,"contract":"contracts/VeCycle.sol:VeCycle","label":"rewardRate","offset":0,"slot":"4","type":"t_uint256"},{"astId":5476,"contract":"contracts/VeCycle.sol:VeCycle","label":"deliveryTime","offset":0,"slot":"5","type":"t_uint256"},{"astId":5478,"contract":"contracts/VeCycle.sol:VeCycle","label":"deliveredTime","offset":0,"slot":"6","type":"t_uint256"},{"astId":5480,"contract":"contracts/VeCycle.sol:VeCycle","label":"disputeRaised","offset":0,"slot":"7","type":"t_bool"},{"astId":5482,"contract":"contracts/VeCycle.sol:VeCycle","label":"disputeId","offset":0,"slot":"8","type":"t_uint256"}],"numberOfBytes":"288"},"t_uint256":{"encoding":"inplace","label":"uint256","numberOfBytes":"32"}}},"userdoc":{"kind":"user","methods":{},"version":1}}}}