{
  "_format": "hh-sol-artifact-1",
  "contractName": "EpheSafe",
  "sourceName": "contracts/EpheSafe.sol",
  "abi": [
    {
      "inputs": [],
      "stateMutability": "nonpayable",
      "type": "constructor"
    },
    {
      "inputs": [],
      "name": "AccessControlBadConfirmation",
      "type": "error"
    },
    {
      "inputs": [
        {
          "internalType": "address",
          "name": "account",
          "type": "address"
        },
        {
          "internalType": "bytes32",
          "name": "neededRole",
          "type": "bytes32"
        }
      ],
      "name": "AccessControlUnauthorizedAccount",
      "type": "error"
    },
    {
      "inputs": [
        {
          "internalType": "address",
          "name": "target",
          "type": "address"
        }
      ],
      "name": "AddressEmptyCode",
      "type": "error"
    },
    {
      "inputs": [
        {
          "internalType": "address",
          "name": "implementation",
          "type": "address"
        }
      ],
      "name": "ERC1967InvalidImplementation",
      "type": "error"
    },
    {
      "inputs": [],
      "name": "ERC1967NonPayable",
      "type": "error"
    },
    {
      "inputs": [],
      "name": "ERC721EnumerableForbiddenBatchMint",
      "type": "error"
    },
    {
      "inputs": [
        {
          "internalType": "address",
          "name": "sender",
          "type": "address"
        },
        {
          "internalType": "uint256",
          "name": "tokenId",
          "type": "uint256"
        },
        {
          "internalType": "address",
          "name": "owner",
          "type": "address"
        }
      ],
      "name": "ERC721IncorrectOwner",
      "type": "error"
    },
    {
      "inputs": [
        {
          "internalType": "address",
          "name": "operator",
          "type": "address"
        },
        {
          "internalType": "uint256",
          "name": "tokenId",
          "type": "uint256"
        }
      ],
      "name": "ERC721InsufficientApproval",
      "type": "error"
    },
    {
      "inputs": [
        {
          "internalType": "address",
          "name": "approver",
          "type": "address"
        }
      ],
      "name": "ERC721InvalidApprover",
      "type": "error"
    },
    {
      "inputs": [
        {
          "internalType": "address",
          "name": "operator",
          "type": "address"
        }
      ],
      "name": "ERC721InvalidOperator",
      "type": "error"
    },
    {
      "inputs": [
        {
          "internalType": "address",
          "name": "owner",
          "type": "address"
        }
      ],
      "name": "ERC721InvalidOwner",
      "type": "error"
    },
    {
      "inputs": [
        {
          "internalType": "address",
          "name": "receiver",
          "type": "address"
        }
      ],
      "name": "ERC721InvalidReceiver",
      "type": "error"
    },
    {
      "inputs": [
        {
          "internalType": "address",
          "name": "sender",
          "type": "address"
        }
      ],
      "name": "ERC721InvalidSender",
      "type": "error"
    },
    {
      "inputs": [
        {
          "internalType": "uint256",
          "name": "tokenId",
          "type": "uint256"
        }
      ],
      "name": "ERC721NonexistentToken",
      "type": "error"
    },
    {
      "inputs": [
        {
          "internalType": "address",
          "name": "owner",
          "type": "address"
        },
        {
          "internalType": "uint256",
          "name": "index",
          "type": "uint256"
        }
      ],
      "name": "ERC721OutOfBoundsIndex",
      "type": "error"
    },
    {
      "inputs": [],
      "name": "EnforcedPause",
      "type": "error"
    },
    {
      "inputs": [],
      "name": "ExpectedPause",
      "type": "error"
    },
    {
      "inputs": [],
      "name": "FailedInnerCall",
      "type": "error"
    },
    {
      "inputs": [
        {
          "internalType": "uint256",
          "name": "requiredValue",
          "type": "uint256"
        },
        {
          "internalType": "uint256",
          "name": "passedValue",
          "type": "uint256"
        }
      ],
      "name": "InsufficientMsgValue",
      "type": "error"
    },
    {
      "inputs": [],
      "name": "InvalidInitialization",
      "type": "error"
    },
    {
      "inputs": [],
      "name": "NotInitializing",
      "type": "error"
    },
    {
      "inputs": [],
      "name": "UUPSUnauthorizedCallContext",
      "type": "error"
    },
    {
      "inputs": [
        {
          "internalType": "bytes32",
          "name": "slot",
          "type": "bytes32"
        }
      ],
      "name": "UUPSUnsupportedProxiableUUID",
      "type": "error"
    },
    {
      "anonymous": false,
      "inputs": [
        {
          "indexed": true,
          "internalType": "address",
          "name": "owner",
          "type": "address"
        },
        {
          "indexed": true,
          "internalType": "address",
          "name": "approved",
          "type": "address"
        },
        {
          "indexed": true,
          "internalType": "uint256",
          "name": "tokenId",
          "type": "uint256"
        }
      ],
      "name": "Approval",
      "type": "event"
    },
    {
      "anonymous": false,
      "inputs": [
        {
          "indexed": true,
          "internalType": "address",
          "name": "owner",
          "type": "address"
        },
        {
          "indexed": true,
          "internalType": "address",
          "name": "operator",
          "type": "address"
        },
        {
          "indexed": false,
          "internalType": "bool",
          "name": "approved",
          "type": "bool"
        }
      ],
      "name": "ApprovalForAll",
      "type": "event"
    },
    {
      "anonymous": false,
      "inputs": [
        {
          "indexed": true,
          "internalType": "address",
          "name": "approver",
          "type": "address"
        },
        {
          "indexed": false,
          "internalType": "uint256",
          "name": "tokenId",
          "type": "uint256"
        }
      ],
      "name": "EmergencyUnlockApproved",
      "type": "event"
    },
    {
      "anonymous": false,
      "inputs": [
        {
          "indexed": true,
          "internalType": "address",
          "name": "executor",
          "type": "address"
        },
        {
          "indexed": false,
          "internalType": "uint256",
          "name": "tokenId",
          "type": "uint256"
        },
        {
          "indexed": false,
          "internalType": "uint256",
          "name": "safeAmount",
          "type": "uint256"
        },
        {
          "indexed": false,
          "internalType": "address",
          "name": "safeTokenAddress",
          "type": "address"
        },
        {
          "indexed": false,
          "internalType": "address",
          "name": "recipient",
          "type": "address"
        }
      ],
      "name": "EmergencyUnlockExecuted",
      "type": "event"
    },
    {
      "anonymous": false,
      "inputs": [
        {
          "indexed": false,
          "internalType": "uint64",
          "name": "version",
          "type": "uint64"
        }
      ],
      "name": "Initialized",
      "type": "event"
    },
    {
      "anonymous": false,
      "inputs": [
        {
          "indexed": false,
          "internalType": "uint256",
          "name": "_tokenId",
          "type": "uint256"
        }
      ],
      "name": "MetadataUpdate",
      "type": "event"
    },
    {
      "anonymous": false,
      "inputs": [
        {
          "indexed": false,
          "internalType": "address",
          "name": "account",
          "type": "address"
        }
      ],
      "name": "Paused",
      "type": "event"
    },
    {
      "anonymous": false,
      "inputs": [
        {
          "indexed": true,
          "internalType": "bytes32",
          "name": "role",
          "type": "bytes32"
        },
        {
          "indexed": true,
          "internalType": "bytes32",
          "name": "previousAdminRole",
          "type": "bytes32"
        },
        {
          "indexed": true,
          "internalType": "bytes32",
          "name": "newAdminRole",
          "type": "bytes32"
        }
      ],
      "name": "RoleAdminChanged",
      "type": "event"
    },
    {
      "anonymous": false,
      "inputs": [
        {
          "indexed": true,
          "internalType": "bytes32",
          "name": "role",
          "type": "bytes32"
        },
        {
          "indexed": true,
          "internalType": "address",
          "name": "account",
          "type": "address"
        },
        {
          "indexed": true,
          "internalType": "address",
          "name": "sender",
          "type": "address"
        }
      ],
      "name": "RoleGranted",
      "type": "event"
    },
    {
      "anonymous": false,
      "inputs": [
        {
          "indexed": true,
          "internalType": "bytes32",
          "name": "role",
          "type": "bytes32"
        },
        {
          "indexed": true,
          "internalType": "address",
          "name": "account",
          "type": "address"
        },
        {
          "indexed": true,
          "internalType": "address",
          "name": "sender",
          "type": "address"
        }
      ],
      "name": "RoleRevoked",
      "type": "event"
    },
    {
      "anonymous": false,
      "inputs": [
        {
          "indexed": true,
          "internalType": "address",
          "name": "claimAddress",
          "type": "address"
        },
        {
          "indexed": false,
          "internalType": "uint256",
          "name": "tokenId",
          "type": "uint256"
        },
        {
          "indexed": false,
          "internalType": "uint256",
          "name": "safeAmount",
          "type": "uint256"
        },
        {
          "indexed": false,
          "internalType": "address",
          "name": "safeTokenAddress",
          "type": "address"
        },
        {
          "indexed": false,
          "internalType": "string",
          "name": "safeMetadata",
          "type": "string"
        }
      ],
      "name": "SafeClaimed",
      "type": "event"
    },
    {
      "anonymous": false,
      "inputs": [
        {
          "indexed": true,
          "internalType": "address",
          "name": "destroyer",
          "type": "address"
        },
        {
          "indexed": true,
          "internalType": "uint256",
          "name": "tokenId",
          "type": "uint256"
        },
        {
          "indexed": false,
          "internalType": "uint256",
          "name": "safeAmount",
          "type": "uint256"
        },
        {
          "indexed": false,
          "internalType": "address",
          "name": "safeTokenAddress",
          "type": "address"
        },
        {
          "indexed": false,
          "internalType": "uint256",
          "name": "destroyReward",
          "type": "uint256"
        }
      ],
      "name": "SafeDestroyed",
      "type": "event"
    },
    {
      "anonymous": false,
      "inputs": [
        {
          "indexed": true,
          "internalType": "address",
          "name": "from",
          "type": "address"
        },
        {
          "indexed": true,
          "internalType": "address",
          "name": "to",
          "type": "address"
        },
        {
          "indexed": false,
          "internalType": "uint256",
          "name": "tokenId",
          "type": "uint256"
        },
        {
          "indexed": true,
          "internalType": "uint256",
          "name": "expiry",
          "type": "uint256"
        },
        {
          "indexed": false,
          "internalType": "uint256",
          "name": "safeAmount",
          "type": "uint256"
        },
        {
          "indexed": false,
          "internalType": "address",
          "name": "safeTokenAddress",
          "type": "address"
        },
        {
          "indexed": false,
          "internalType": "string",
          "name": "safeMetadata",
          "type": "string"
        }
      ],
      "name": "SafeMinted",
      "type": "event"
    },
    {
      "anonymous": false,
      "inputs": [
        {
          "indexed": true,
          "internalType": "address",
          "name": "from",
          "type": "address"
        },
        {
          "indexed": true,
          "internalType": "address",
          "name": "to",
          "type": "address"
        },
        {
          "indexed": true,
          "internalType": "uint256",
          "name": "tokenId",
          "type": "uint256"
        }
      ],
      "name": "Transfer",
      "type": "event"
    },
    {
      "anonymous": false,
      "inputs": [
        {
          "indexed": false,
          "internalType": "address",
          "name": "account",
          "type": "address"
        }
      ],
      "name": "Unpaused",
      "type": "event"
    },
    {
      "anonymous": false,
      "inputs": [
        {
          "indexed": true,
          "internalType": "address",
          "name": "implementation",
          "type": "address"
        }
      ],
      "name": "Upgraded",
      "type": "event"
    },
    {
      "inputs": [],
      "name": "ADMIN_ROLE",
      "outputs": [
        {
          "internalType": "bytes32",
          "name": "",
          "type": "bytes32"
        }
      ],
      "stateMutability": "view",
      "type": "function"
    },
    {
      "inputs": [],
      "name": "DEFAULT_ADMIN_ROLE",
      "outputs": [
        {
          "internalType": "bytes32",
          "name": "",
          "type": "bytes32"
        }
      ],
      "stateMutability": "view",
      "type": "function"
    },
    {
      "inputs": [],
      "name": "MINTER_ROLE",
      "outputs": [
        {
          "internalType": "bytes32",
          "name": "",
          "type": "bytes32"
        }
      ],
      "stateMutability": "view",
      "type": "function"
    },
    {
      "inputs": [],
      "name": "PAUSER_ROLE",
      "outputs": [
        {
          "internalType": "bytes32",
          "name": "",
          "type": "bytes32"
        }
      ],
      "stateMutability": "view",
      "type": "function"
    },
    {
      "inputs": [],
      "name": "UPGRADER_ROLE",
      "outputs": [
        {
          "internalType": "bytes32",
          "name": "",
          "type": "bytes32"
        }
      ],
      "stateMutability": "view",
      "type": "function"
    },
    {
      "inputs": [],
      "name": "UPGRADE_INTERFACE_VERSION",
      "outputs": [
        {
          "internalType": "string",
          "name": "",
          "type": "string"
        }
      ],
      "stateMutability": "view",
      "type": "function"
    },
    {
      "inputs": [],
      "name": "_nextTokenId",
      "outputs": [
        {
          "internalType": "uint256",
          "name": "",
          "type": "uint256"
        }
      ],
      "stateMutability": "view",
      "type": "function"
    },
    {
      "inputs": [
        {
          "internalType": "address",
          "name": "authorizer",
          "type": "address"
        },
        {
          "internalType": "uint256",
          "name": "tokenId",
          "type": "uint256"
        }
      ],
      "name": "addMultiSafeAuthorizer",
      "outputs": [],
      "stateMutability": "nonpayable",
      "type": "function"
    },
    {
      "inputs": [
        {
          "internalType": "address",
          "name": "to",
          "type": "address"
        },
        {
          "internalType": "uint256",
          "name": "tokenId",
          "type": "uint256"
        }
      ],
      "name": "approve",
      "outputs": [],
      "stateMutability": "nonpayable",
      "type": "function"
    },
    {
      "inputs": [
        {
          "internalType": "uint256",
          "name": "tokenId",
          "type": "uint256"
        },
        {
          "internalType": "address",
          "name": "recipient",
          "type": "address"
        }
      ],
      "name": "approveOrExecuteEmergencyUnlock",
      "outputs": [],
      "stateMutability": "nonpayable",
      "type": "function"
    },
    {
      "inputs": [
        {
          "internalType": "address",
          "name": "owner",
          "type": "address"
        }
      ],
      "name": "balanceOf",
      "outputs": [
        {
          "internalType": "uint256",
          "name": "",
          "type": "uint256"
        }
      ],
      "stateMutability": "view",
      "type": "function"
    },
    {
      "inputs": [
        {
          "internalType": "uint256",
          "name": "tokenId",
          "type": "uint256"
        }
      ],
      "name": "burn",
      "outputs": [],
      "stateMutability": "nonpayable",
      "type": "function"
    },
    {
      "inputs": [
        {
          "internalType": "uint256",
          "name": "tokenId",
          "type": "uint256"
        }
      ],
      "name": "claimSafe",
      "outputs": [],
      "stateMutability": "nonpayable",
      "type": "function"
    },
    {
      "inputs": [
        {
          "internalType": "uint256",
          "name": "tokenId",
          "type": "uint256"
        },
        {
          "internalType": "address",
          "name": "claimAddress",
          "type": "address"
        }
      ],
      "name": "claimSafeAtAddress",
      "outputs": [],
      "stateMutability": "nonpayable",
      "type": "function"
    },
    {
      "inputs": [
        {
          "internalType": "uint256",
          "name": "",
          "type": "uint256"
        }
      ],
      "name": "emergencyUnlockState",
      "outputs": [
        {
          "internalType": "enum EpheSafe.EmergencyUnlockStatus",
          "name": "status",
          "type": "uint8"
        },
        {
          "internalType": "uint256",
          "name": "approvalCount",
          "type": "uint256"
        }
      ],
      "stateMutability": "view",
      "type": "function"
    },
    {
      "inputs": [
        {
          "internalType": "address",
          "name": "owner",
          "type": "address"
        }
      ],
      "name": "getAllMultiSafeAuthorityTokens",
      "outputs": [
        {
          "internalType": "uint256[]",
          "name": "",
          "type": "uint256[]"
        }
      ],
      "stateMutability": "view",
      "type": "function"
    },
    {
      "inputs": [],
      "name": "getAllSafes",
      "outputs": [
        {
          "internalType": "uint256[]",
          "name": "",
          "type": "uint256[]"
        }
      ],
      "stateMutability": "view",
      "type": "function"
    },
    {
      "inputs": [
        {
          "internalType": "address",
          "name": "owner",
          "type": "address"
        }
      ],
      "name": "getAllSafesOfOwner",
      "outputs": [
        {
          "internalType": "uint256[]",
          "name": "",
          "type": "uint256[]"
        }
      ],
      "stateMutability": "view",
      "type": "function"
    },
    {
      "inputs": [
        {
          "internalType": "uint256",
          "name": "tokenId",
          "type": "uint256"
        }
      ],
      "name": "getApproved",
      "outputs": [
        {
          "internalType": "address",
          "name": "",
          "type": "address"
        }
      ],
      "stateMutability": "view",
      "type": "function"
    },
    {
      "inputs": [
        {
          "internalType": "address",
          "name": "issuer",
          "type": "address"
        }
      ],
      "name": "getIssuedSafes",
      "outputs": [
        {
          "internalType": "uint256[]",
          "name": "",
          "type": "uint256[]"
        }
      ],
      "stateMutability": "view",
      "type": "function"
    },
    {
      "inputs": [
        {
          "internalType": "bytes32",
          "name": "role",
          "type": "bytes32"
        }
      ],
      "name": "getRoleAdmin",
      "outputs": [
        {
          "internalType": "bytes32",
          "name": "",
          "type": "bytes32"
        }
      ],
      "stateMutability": "view",
      "type": "function"
    },
    {
      "inputs": [
        {
          "internalType": "uint256",
          "name": "tokenId",
          "type": "uint256"
        }
      ],
      "name": "getSafeInfo",
      "outputs": [
        {
          "components": [
            {
              "internalType": "uint256",
              "name": "expiry",
              "type": "uint256"
            },
            {
              "internalType": "uint256",
              "name": "amount",
              "type": "uint256"
            },
            {
              "internalType": "address",
              "name": "tokenAddress",
              "type": "address"
            },
            {
              "internalType": "enum EpheSafe.SafeStatus",
              "name": "status",
              "type": "uint8"
            },
            {
              "internalType": "address[]",
              "name": "multiSafeAddresses",
              "type": "address[]"
            },
            {
              "internalType": "string",
              "name": "safeMetadata",
              "type": "string"
            },
            {
              "internalType": "uint256",
              "name": "noOfApprovalsRequired",
              "type": "uint256"
            }
          ],
          "internalType": "struct EpheSafe.SafeInfo",
          "name": "safeData",
          "type": "tuple"
        },
        {
          "internalType": "string",
          "name": "tokenUri",
          "type": "string"
        },
        {
          "internalType": "address[]",
          "name": "unlockAddresses",
          "type": "address[]"
        }
      ],
      "stateMutability": "view",
      "type": "function"
    },
    {
      "inputs": [
        {
          "internalType": "bytes32",
          "name": "role",
          "type": "bytes32"
        },
        {
          "internalType": "address",
          "name": "account",
          "type": "address"
        }
      ],
      "name": "grantRole",
      "outputs": [],
      "stateMutability": "nonpayable",
      "type": "function"
    },
    {
      "inputs": [
        {
          "internalType": "bytes32",
          "name": "role",
          "type": "bytes32"
        },
        {
          "internalType": "address",
          "name": "account",
          "type": "address"
        }
      ],
      "name": "hasRole",
      "outputs": [
        {
          "internalType": "bool",
          "name": "",
          "type": "bool"
        }
      ],
      "stateMutability": "view",
      "type": "function"
    },
    {
      "inputs": [
        {
          "internalType": "address",
          "name": "_owner",
          "type": "address"
        },
        {
          "internalType": "address",
          "name": "minter",
          "type": "address"
        }
      ],
      "name": "initialize",
      "outputs": [],
      "stateMutability": "nonpayable",
      "type": "function"
    },
    {
      "inputs": [
        {
          "internalType": "address",
          "name": "owner",
          "type": "address"
        },
        {
          "internalType": "address",
          "name": "operator",
          "type": "address"
        }
      ],
      "name": "isApprovedForAll",
      "outputs": [
        {
          "internalType": "bool",
          "name": "",
          "type": "bool"
        }
      ],
      "stateMutability": "view",
      "type": "function"
    },
    {
      "inputs": [
        {
          "internalType": "address",
          "name": "to",
          "type": "address"
        },
        {
          "internalType": "string",
          "name": "uri",
          "type": "string"
        },
        {
          "internalType": "uint256",
          "name": "expiry",
          "type": "uint256"
        },
        {
          "internalType": "uint256",
          "name": "safeAmount",
          "type": "uint256"
        },
        {
          "internalType": "address",
          "name": "safeTokenAddress",
          "type": "address"
        },
        {
          "internalType": "address[]",
          "name": "safeAddresses",
          "type": "address[]"
        },
        {
          "internalType": "string",
          "name": "safeMetadata",
          "type": "string"
        },
        {
          "internalType": "uint256",
          "name": "noOfApprovalsRequired",
          "type": "uint256"
        }
      ],
      "name": "mintSafe",
      "outputs": [],
      "stateMutability": "payable",
      "type": "function"
    },
    {
      "inputs": [
        {
          "internalType": "address",
          "name": "",
          "type": "address"
        },
        {
          "internalType": "uint256",
          "name": "",
          "type": "uint256"
        }
      ],
      "name": "multiSafeAuthorizers",
      "outputs": [
        {
          "internalType": "uint256",
          "name": "",
          "type": "uint256"
        }
      ],
      "stateMutability": "view",
      "type": "function"
    },
    {
      "inputs": [],
      "name": "name",
      "outputs": [
        {
          "internalType": "string",
          "name": "",
          "type": "string"
        }
      ],
      "stateMutability": "view",
      "type": "function"
    },
    {
      "inputs": [
        {
          "internalType": "uint256",
          "name": "tokenId",
          "type": "uint256"
        }
      ],
      "name": "ownerOf",
      "outputs": [
        {
          "internalType": "address",
          "name": "",
          "type": "address"
        }
      ],
      "stateMutability": "view",
      "type": "function"
    },
    {
      "inputs": [],
      "name": "pause",
      "outputs": [],
      "stateMutability": "nonpayable",
      "type": "function"
    },
    {
      "inputs": [],
      "name": "paused",
      "outputs": [
        {
          "internalType": "bool",
          "name": "",
          "type": "bool"
        }
      ],
      "stateMutability": "view",
      "type": "function"
    },
    {
      "inputs": [],
      "name": "proxiableUUID",
      "outputs": [
        {
          "internalType": "bytes32",
          "name": "",
          "type": "bytes32"
        }
      ],
      "stateMutability": "view",
      "type": "function"
    },
    {
      "inputs": [
        {
          "internalType": "bytes32",
          "name": "role",
          "type": "bytes32"
        },
        {
          "internalType": "address",
          "name": "callerConfirmation",
          "type": "address"
        }
      ],
      "name": "renounceRole",
      "outputs": [],
      "stateMutability": "nonpayable",
      "type": "function"
    },
    {
      "inputs": [
        {
          "internalType": "bytes32",
          "name": "role",
          "type": "bytes32"
        },
        {
          "internalType": "address",
          "name": "account",
          "type": "address"
        }
      ],
      "name": "revokeRole",
      "outputs": [],
      "stateMutability": "nonpayable",
      "type": "function"
    },
    {
      "inputs": [
        {
          "internalType": "uint256",
          "name": "",
          "type": "uint256"
        }
      ],
      "name": "safeInfo",
      "outputs": [
        {
          "internalType": "uint256",
          "name": "expiry",
          "type": "uint256"
        },
        {
          "internalType": "uint256",
          "name": "amount",
          "type": "uint256"
        },
        {
          "internalType": "address",
          "name": "tokenAddress",
          "type": "address"
        },
        {
          "internalType": "enum EpheSafe.SafeStatus",
          "name": "status",
          "type": "uint8"
        },
        {
          "internalType": "string",
          "name": "safeMetadata",
          "type": "string"
        },
        {
          "internalType": "uint256",
          "name": "noOfApprovalsRequired",
          "type": "uint256"
        }
      ],
      "stateMutability": "view",
      "type": "function"
    },
    {
      "inputs": [
        {
          "internalType": "address",
          "name": "",
          "type": "address"
        },
        {
          "internalType": "uint256",
          "name": "",
          "type": "uint256"
        }
      ],
      "name": "safeIssuers",
      "outputs": [
        {
          "internalType": "uint256",
          "name": "",
          "type": "uint256"
        }
      ],
      "stateMutability": "view",
      "type": "function"
    },
    {
      "inputs": [
        {
          "internalType": "address",
          "name": "from",
          "type": "address"
        },
        {
          "internalType": "address",
          "name": "to",
          "type": "address"
        },
        {
          "internalType": "uint256",
          "name": "tokenId",
          "type": "uint256"
        }
      ],
      "name": "safeTransferFrom",
      "outputs": [],
      "stateMutability": "nonpayable",
      "type": "function"
    },
    {
      "inputs": [
        {
          "internalType": "address",
          "name": "from",
          "type": "address"
        },
        {
          "internalType": "address",
          "name": "to",
          "type": "address"
        },
        {
          "internalType": "uint256",
          "name": "tokenId",
          "type": "uint256"
        },
        {
          "internalType": "bytes",
          "name": "data",
          "type": "bytes"
        }
      ],
      "name": "safeTransferFrom",
      "outputs": [],
      "stateMutability": "nonpayable",
      "type": "function"
    },
    {
      "inputs": [
        {
          "internalType": "address",
          "name": "operator",
          "type": "address"
        },
        {
          "internalType": "bool",
          "name": "approved",
          "type": "bool"
        }
      ],
      "name": "setApprovalForAll",
      "outputs": [],
      "stateMutability": "nonpayable",
      "type": "function"
    },
    {
      "inputs": [
        {
          "internalType": "bytes4",
          "name": "interfaceId",
          "type": "bytes4"
        }
      ],
      "name": "supportsInterface",
      "outputs": [
        {
          "internalType": "bool",
          "name": "",
          "type": "bool"
        }
      ],
      "stateMutability": "view",
      "type": "function"
    },
    {
      "inputs": [],
      "name": "symbol",
      "outputs": [
        {
          "internalType": "string",
          "name": "",
          "type": "string"
        }
      ],
      "stateMutability": "view",
      "type": "function"
    },
    {
      "inputs": [
        {
          "internalType": "uint256",
          "name": "index",
          "type": "uint256"
        }
      ],
      "name": "tokenByIndex",
      "outputs": [
        {
          "internalType": "uint256",
          "name": "",
          "type": "uint256"
        }
      ],
      "stateMutability": "view",
      "type": "function"
    },
    {
      "inputs": [
        {
          "internalType": "address",
          "name": "owner",
          "type": "address"
        },
        {
          "internalType": "uint256",
          "name": "index",
          "type": "uint256"
        }
      ],
      "name": "tokenOfOwnerByIndex",
      "outputs": [
        {
          "internalType": "uint256",
          "name": "",
          "type": "uint256"
        }
      ],
      "stateMutability": "view",
      "type": "function"
    },
    {
      "inputs": [
        {
          "internalType": "uint256",
          "name": "tokenId",
          "type": "uint256"
        }
      ],
      "name": "tokenURI",
      "outputs": [
        {
          "internalType": "string",
          "name": "",
          "type": "string"
        }
      ],
      "stateMutability": "view",
      "type": "function"
    },
    {
      "inputs": [],
      "name": "totalBurntSafes",
      "outputs": [
        {
          "internalType": "uint256",
          "name": "",
          "type": "uint256"
        }
      ],
      "stateMutability": "view",
      "type": "function"
    },
    {
      "inputs": [],
      "name": "totalClaimedSafes",
      "outputs": [
        {
          "internalType": "uint256",
          "name": "",
          "type": "uint256"
        }
      ],
      "stateMutability": "view",
      "type": "function"
    },
    {
      "inputs": [],
      "name": "totalSupply",
      "outputs": [
        {
          "internalType": "uint256",
          "name": "",
          "type": "uint256"
        }
      ],
      "stateMutability": "view",
      "type": "function"
    },
    {
      "inputs": [
        {
          "internalType": "address",
          "name": "from",
          "type": "address"
        },
        {
          "internalType": "address",
          "name": "to",
          "type": "address"
        },
        {
          "internalType": "uint256",
          "name": "tokenId",
          "type": "uint256"
        }
      ],
      "name": "transferFrom",
      "outputs": [],
      "stateMutability": "nonpayable",
      "type": "function"
    },
    {
      "inputs": [],
      "name": "unpause",
      "outputs": [],
      "stateMutability": "nonpayable",
      "type": "function"
    },
    {
      "inputs": [
        {
          "internalType": "address",
          "name": "issuer",
          "type": "address"
        },
        {
          "internalType": "uint256",
          "name": "tokenId",
          "type": "uint256"
        }
      ],
      "name": "updateTokenIssuer",
      "outputs": [],
      "stateMutability": "nonpayable",
      "type": "function"
    },
    {
      "inputs": [
        {
          "internalType": "uint256",
          "name": "tokenId",
          "type": "uint256"
        },
        {
          "internalType": "string",
          "name": "uri",
          "type": "string"
        }
      ],
      "name": "updateTokenUri",
      "outputs": [],
      "stateMutability": "nonpayable",
      "type": "function"
    },
    {
      "inputs": [
        {
          "internalType": "address",
          "name": "newImplementation",
          "type": "address"
        },
        {
          "internalType": "bytes",
          "name": "data",
          "type": "bytes"
        }
      ],
      "name": "upgradeToAndCall",
      "outputs": [],
      "stateMutability": "payable",
      "type": "function"
    }
  ],
  "bytecode": "0x60a08060405234620000d157306080527ff0c57e16840df040f15088dc2f81fe391c3923bec73e23a9662efc9c229c6a009081549060ff8260401c16620000c257506001600160401b036002600160401b0319828216016200007c575b6040516145549081620000d78239608051818181611bda0152611ca10152f35b6001600160401b031990911681179091556040519081527fc7f505b2f371ae2175ee4913f4499e1f2633a7b5936321eed1cdaeb6115181d290602090a13880806200005c565b63f92ee8a960e01b8152600490fd5b600080fdfe608080604052600436101561001357600080fd5b60003560e01c90816301ffc9a714612ea85750806304d1d88914612e475780630628665114612c8c57806306fdde0314612bd7578063081812fc14612b8c578063095ea7b314612aa55780630c415ca914612a0857806318160ddd146129dd57806323b872dd146129c6578063248a9ca31461298a5780632f2ff15d1461293e5780632f745c591461291757806336568abe146128d05780633f4ba83a1461285957806340c856cb146127e1578063418af67e1461279757806342842e0e1461276957806342966c68146123ea57806346c0c1c014612392578063485cc95514611ee75780634a60f62014611ec95780634f1ef28614611c625780634f6ccce714611c4457806352d1902d14611bc75780635c975abb14611b975780636352211e14611b6757806370a0823114611b3c57806375b238fc14611b015780637776f214146111b557806381dc9114146111975780638456cb591461113057806384e3a1df14610ee7578063899ac09714610ea65780638af1272314610e885780638cbf46ae14610e235780638fa12c3e14610de957806391d1485414610d8f57806395d89b4114610c9d578063a217fddf14610c81578063a22cb46514610be1578063a893c82114610a49578063ad3cb1cc14610a03578063b87fee8914610541578063b88d4fde146104e8578063c87b56dd146104b5578063cfe3c33a1461047b578063d31af48414610440578063d539139314610405578063d547741f146103b7578063e63ab1e91461037c578063e985e9c51461032e578063f72c0d8b146102f35763fde5b1e61461026657600080fd5b346102ee576020806003193601126102ee576001600160a01b03610288612f47565b1660005260068152604060002090604051908181845491828152019360005281600020916000905b8282106102d7576102d3856102c78189038261310f565b60405191829182612f73565b0390f35b8354865294850194600193840193909101906102b0565b600080fd5b346102ee5760003660031901126102ee5760206040517f189ab7a9244df0848122154315af71fe140f3db0fe014031783b0946b8c9d2e38152f35b346102ee5760403660031901126102ee57610347612f47565b610358610352612f5d565b91613185565b9060018060a01b0316600052602052602060ff604060002054166040519015158152f35b346102ee5760003660031901126102ee5760206040517f65d7a28e3265b37a6474929f336521b332c1681b933f6cb9f3376673440d862a8152f35b346102ee5760403660031901126102ee576104036004356103d6612f5d565b908060005260008051602061449f8339815191526020526103fe60016040600020015461337a565b61360a565b005b346102ee5760003660031901126102ee5760206040517f9f2df0fed2c77648de5860a4cc508cd0818c85b8b8a1ab4ceeef8d981c8956a68152f35b346102ee5760403660031901126102ee576024356001600160401b0381116102ee57610473610403913690600401613283565b60043561418a565b346102ee5760403660031901126102ee576001600160a01b0361049c612f47565b1660005260076020526104036024356040600020613df8565b346102ee5760203660031901126102ee576102d36104d4600435614152565b604051918291602083526020830190612fae565b346102ee5760803660031901126102ee57610501612f47565b610509612f5d565b90604435606435926001600160401b0384116102ee57610530610403943690600401613283565b9261053c8383836136c2565b613aaf565b346102ee5760403660031901126102ee5761055a612f5d565b600435600052600260205260406000206003602052604060002090815461058360ff8216613130565b600260ff8216146109b357600160ff600284015460a01c166105a481613130565b0361096e576105b53360043561433e565b1561091357336000526003830160205260ff604060002054166108ce576105e66001600160a01b03851615156142e6565b6105f260ff8216613130565b60ff8116156108bf575b5033600052600382016020526040600020600160ff198254161790556106256004830154613d7a565b60048301556001600160a01b0383166000908152600283016020526040902054156108ad575b6001600160a01b03831660009081526002830160205260409020805460018101811161089757600101905560405160043581527fefe08a6eacf4d0a2b6a25481fc63da431800e9e0be5192989c61047cf99f887360203392a26004820154600582015411156106b657005b60005b6001830154811015610403576106d28160018501613250565b60018060a01b0391549060031b1c16600052600283016020526040600020546005830154111561070a5761070590613d7a565b6106b9565b5050506004356000908152600260205260409020906107336001600160a01b03821615156142e6565b6002820180549092906001600160a01b031615610863578254600182015460405163a9059cbb60e01b81526001600160a01b0385811660048301526024820192909252929160209184916044918391600091165af191821561085757600192610828575b505b600081556107a8600435613e49565b8160a11b60ff60a01b1985541617845560043560005260036020526040600020600260ff1982541617905501549160018060a01b039054166040519260043584526020840152604083015260018060a01b031660608201527f632a674945f5acd008227278ce2b5d939b1eef5bd2dc659bf678a6ab6fd1619c60803392a2005b6108499060203d602011610850575b610841818361310f565b810190613d62565b5084610797565b503d610837565b6040513d6000823e3d90fd5b6000808080600185015481811561088e575b6001600160a01b03881690f11561085757600190610799565b506108fc610875565b634e487b7160e01b600052601160045260246000fd5b6108ba8360018401613d89565b61064b565b60ff19166001178255836105fc565b60405162461bcd60e51b815260206004820152601a60248201527f45706865536166653a20416c726561647920617070726f7665640000000000006044820152606490fd5b60405162461bcd60e51b815260206004820152602d60248201527f45706865536166653a204e6f7420617574686f72697a656420666f7220656d6560448201526c7267656e637920756e6c6f636b60981b6064820152608490fd5b60405162461bcd60e51b815260206004820152601c60248201527f45706865536166653a2053616665206973206e6f7420616374697665000000006044820152606490fd5b60405162461bcd60e51b815260206004820152602260248201527f45706865536166653a20556e6c6f636b20416c726561647920436f6d706c6574604482015261195960f21b6064820152608490fd5b346102ee5760003660031901126102ee576102d3604051610a23816130f4565b60058152640352e302e360dc1b6020820152604051918291602083526020830190612fae565b346102ee576020806003193601126102ee5760405190600435610a6b836130be565b60008352818301600090526040830160009052606092838101600090528360808201528360a082015260c001600090528060005260028252604060002090610ab281614152565b9060005260038352604060002060010160405193610acf856130be565b8354855260018401549381860194855260028101546040870190600160a01b6001900390818116835260a01c60ff169089890191610b0c81613130565b8252610b1a600385016140fa565b9260808a019384526040519485806004830190610b3691613028565b03610b41908761310f565b60a08b01958652600501549660c08b01978852610b5d906140fa565b986040519b8c9b818d5251908c01525160808b0152511660a089015251610b8381613130565b60c08801525160e0870160e090526101408701610b9f916132e1565b9051868203605f1901610100880152610bb89190612fae565b915161012086015284820390850152610bd091612fae565b82810360408401526102d3916132e1565b346102ee5760403660031901126102ee57610bfa612f47565b602435908115158092036102ee576001600160a01b0316908115610c6857610c2133613185565b82600052602052604060002060ff1981541660ff83161790556040519081527f17307eab39ab6107e8899845ad3d59bd9653f200f220920489ca2b5937696c3160203392a3005b604051630b61174360e31b815260048101839052602490fd5b346102ee5760003660031901126102ee57602060405160008152f35b346102ee5760003660031901126102ee5760405160007f80bb2b638cc20bc4d0a60d66940f3ab4a00c1d7b313497ca82fb0b4ab00793018054610cdf81612fee565b80855291600191808316908115610d655750600114610d09575b6102d3856104d48187038261310f565b600090815292507ff4bad0a69248f59680a4f2b3000328cec71a413447c96781cfe5996daa8c456e5b828410610d4d5750505081016020016104d4826102d3610cf9565b80546020858701810191909152909301928101610d32565b8695506102d3969350602092506104d494915060ff191682840152151560051b8201019293610cf9565b346102ee5760403660031901126102ee57610da8612f5d565b60043560005260008051602061449f83398151915260205260406000209060018060a01b0316600052602052602060ff604060002054166040519015158152f35b346102ee5760403660031901126102ee576001600160a01b03610e0a612f47565b1660005260066020526104036024356040600020613df8565b346102ee5760003660031901126102ee5760008051602061445f83398151915254610e4d816140b4565b9060005b818110610e6657604051806102d38582612f73565b80610e73610e8392613c33565b610e7d82866140e6565b52613d7a565b610e51565b346102ee5760003660031901126102ee576020600554604051908152f35b346102ee5760203660031901126102ee576004356000526003602052604080600020600460ff825416910154825191610ede81613130565b82526020820152f35b346102ee576020806003193601126102ee57600435806000526002918281526040600020544211156110f45781600052828152600160ff846040600020015460a01c16610f3381613130565b0361109d576000828152838252604090208301805460ff60a01b1916600360a01b179055610f6082613a57565b600083815284835260409020808501546001600160a01b0393919084161561106d57506000848152858252604080822080880154600190910154915163a9059cbb60e01b81526001600160a01b0386166004820152602481019290925290918391839190871690829081604481015b03925af1801561085757611050575b505b610fe984613e49565b6004549360018501809511610897578561104b927fe28be616343217c7e0ef866d21553599f8513bb0872ccee92c71033e49cc2fc996600455826000525260406000209584600188015491880154169060046040519687961698019285613e1b565b0390a2005b61106690823d841161085057610841818361310f565b5085610fde565b60008080600181940154818115611094575b88881690f1610fe0576040513d6000823e3d90fd5b506108fc61107f565b6084906040519062461bcd60e51b82526004820152602a60248201527f546f6b656e536166653a207361666520616c726561647920636c61696d6564206044820152691bdc88195e1c1a5c995960b21b6064820152fd5b6064906040519062461bcd60e51b82526004820152601560248201527414d859994e88139bdd0816595d08115e1c1a5c9959605a1b6044820152fd5b346102ee5760003660031901126102ee5761114961331e565b611151613d37565b6000805160206144bf833981519152600160ff198254161790557f62e78cea01bee320cd4e420270b5ea74000d11b0c9f74754ebdbfc544b05a2586020604051338152a1005b346102ee5760003660031901126102ee576020600454604051908152f35b6101003660031901126102ee576111ca612f47565b6024356001600160401b0381116102ee576111e9903690600401613283565b608435916001600160a01b03831683036102ee5760a435926001600160401b0384116102ee57366023850112156102ee578360040135611228816132ca565b94611236604051968761310f565b8186526024602087019260051b820101903682116102ee57602401915b818310611ae15750505060c4356001600160401b0381116102ee5761127c903690600401613283565b90426044351115611a8d576001600160a01b03811615611a5f576040516323b872dd60e01b815233600482015230602482015260648035604483015260209082908160006001600160a01b0387165af1801561085757611a40575b505b600054936112e685613d7a565b6000556040516112f5816130d9565b600081526001600160a01b03851615611a275785600052600260205242604060002054116119e857611325613d37565b60008681526000805160206144df83398151915260205260409020546001600160a01b0316806119c9575b611359866131be565b8054600101905560008781526000805160206144df8339815191526020526040812080546001600160a01b0319166001600160a01b0389169081179091558891839060008051602061447f8339815191529080a4806119115760008051602061445f833981519152548760005260008051602061443f8339815191526020526040600020556113e787613dc4565b6001600160a01b03861681036118a3575b61188a57843b611775575b50604051611410816130be565b6044358152602081019060643582526040810160018060a01b038516815260608201906001825260808301918a83528760a085015260e43560c085015289600052600260205260406000209484518655516001860155600285019160018060a01b039051168254915161148281613130565b61148b81613130565b6001600160a81b03199092161760a09190911b60ff60a01b16179055518051906001600160401b03821161172257600160401b8211611722576020906003850154836003870155808410611755575b500160038401600052602060002060005b838110611738575050505060a08101518051906001600160401b038211611722576115196004850154612fee565b601f81116116e2575b50602090601f831160011461166857928260059360c09361158598979660009261165d575b50508160011b916000199060031b1c19161760048501555b015191015585600052600260205261157f60036040600020013390613d89565b8561418a565b33600052600660205261159c846040600020613df8565b60005b85518110156115f5576115f0908560005260026020526115c6816003604060002001613250565b60018060a01b0391549060031b1c1660005260076020526115eb866040600020613df8565b613d7a565b61159f565b506040805194855260643560208601526001600160a01b039182169085015260806060850181905260443594939091169233927fbdd16b3aa0e5fa76e58d08838e79dc4017d082e838df98fc0af4ca3bbee8a05a92829161165891830190612fae565b0390a4005b015190508d80611547565b906004850160005260206000209160005b601f19851681106116ca57508360c09361158598979693600193600597601f198116106116b1575b505050811b01600485015561155f565b015160001960f88460031b161c191690558d80806116a1565b91926020600181928685015181550194019201611679565b61171290600486016000526020600020601f850160051c81019160208610611718575b601f0160051c0190613d20565b8a611522565b9091508190611705565b634e487b7160e01b600052604160045260246000fd5b82516001600160a01b0316818301556020909201916001016114eb565b61176f906003870160005284846000209182019101613d20565b8b6114da565b60409695949651602081806117b3630a85bd0160e11b95868352336004840152600060248401528a6044840152608060648401526084830190612fae565b038160006001600160a01b038d165af160009181611845575b5061180b57876117da613a7f565b805191908261180457604051633250574960e11b81526001600160a01b0383166004820152602490fd5b9050602001fd5b959694956001600160e01b031916036118245786611403565b604051633250574960e11b81526001600160a01b0385166004820152602490fd5b9091506020813d602011611882575b816118616020938361310f565b810103126102ee57516001600160e01b0319811681036102ee5790896117cc565b3d9150611854565b6040516339e3563760e11b815260006004820152602490fd5b6118ac8661368d565b806000198101116108975760018060a01b0387166000526000805160206143df8339815191526020526040600020600019820160005260205287604060002055876000526000805160206143bf833981519152602052600019016040600020556113f8565b6001600160a01b03861681146113e75761192a8161368d565b876000526000805160206143bf833981519152806020526040600020549082820361198b575b50508760005260006040812055816000526000805160206143df833981519152602052604060002090600052602052600060408120556113e7565b60008481526000805160206143df83398151915260209081526040808320868452825280832054858452818420819055835292905220558980611950565b6119d2876139de565b6119db816131be565b8054600019019055611350565b60405162461bcd60e51b81526020600482015260248082015260008051602061441f83398151915260448201526361626c6560e01b6064820152608490fd5b604051633250574960e11b815260006004820152602490fd5b611a589060203d60201161085057610841818361310f565b50856112d7565b606435803410611a6f57506112d9565b60449060405190631f2dda7760e21b82526004820152346024820152fd5b60405162461bcd60e51b815260206004820152602660248201527f45706865536166653a20657870697279206d75737420626520696e207468652060448201526566757475726560d01b6064820152608490fd5b82356001600160a01b03811681036102ee57815260209283019201611253565b346102ee5760003660031901126102ee5760206040517fa49807205ce4d355092ef5a8a18f56e8913cf4a201fbe287825b095693c217758152f35b346102ee5760203660031901126102ee576020611b5f611b5a612f47565b61368d565b604051908152f35b346102ee5760203660031901126102ee576020611b85600435613a57565b6040516001600160a01b039091168152f35b346102ee5760003660031901126102ee57602060ff6000805160206144bf83398151915254166040519015158152f35b346102ee5760003660031901126102ee577f00000000000000000000000000000000000000000000000000000000000000006001600160a01b03163003611c325760206040517f360894a13ba1a3210667c828492db98dca3e2076cc3735a920a3ca505d382bbc8152f35b60405163703e46dd60e11b8152600490fd5b346102ee5760203660031901126102ee576020611b5f600435613c33565b60403660031901126102ee57611c76612f47565b6024356001600160401b0381116102ee57611c95903690600401613283565b906001600160a01b03907f00000000000000000000000000000000000000000000000000000000000000008216308114908115611e9b575b50611c32573360009081527fab71e3f32666744d246edff3f96e4bdafee2e9867098cdd118a979a7464786a860209081526040909120549092907f189ab7a9244df0848122154315af71fe140f3db0fe014031783b0946b8c9d2e39060ff1615611e7d57508116916040516352d1902d60e01b81528181600481875afa60009181611e4e575b50611d7157604051634c9c8ce360e01b815260048101859052602490fd5b9284937f360894a13ba1a3210667c828492db98dca3e2076cc3735a920a3ca505d382bbc90818103611e365750833b15611e1d5780546001600160a01b03191682179055604051907fbc7cd75a20ee27fd9adebab32041f755214dbc6bffa90cc0225b39da2e5c2d3b600080a2835115611e035750600083819261040395519101845af4611dfd613a7f565b91613c7c565b9250505034611e0e57005b63b398979f60e01b8152600490fd5b604051634c9c8ce360e01b815260048101839052602490fd5b60249060405190632a87526960e21b82526004820152fd5b9091508281813d8311611e76575b611e66818361310f565b810103126102ee57519086611d53565b503d611e5c565b6044906040519063e2517d3f60e01b82523360048301526024820152fd5b9050827f360894a13ba1a3210667c828492db98dca3e2076cc3735a920a3ca505d382bbc5416141584611ccd565b346102ee5760003660031901126102ee576020600054604051908152f35b346102ee5760403660031901126102ee57611f00612f47565b611f08612f5d565b907ff0c57e16840df040f15088dc2f81fe391c3923bec73e23a9662efc9c229c6a009182546001600160401b03811691821580612384575b6001809414908161237a575b159081612371575b5061235f57826001600160401b0319831617855560ff8260401c1615612340575b60405193611f82856130f4565b6008855260209467457068655361666560c01b8682015260405190611fa6826130f4565b600382526245505360e81b87830152611fbd613cdf565b611fc5613cdf565b8051906001600160401b038211611722578190611ff06000805160206143ff83398151915254612fee565b601f81116122e5575b508890601f83116001146122465760009261223b575b5050600019600383901b1c191690861b176000805160206143ff833981519152555b80516001600160401b038111611722577f80bb2b638cc20bc4d0a60d66940f3ab4a00c1d7b313497ca82fb0b4ab00793019161206d8354612fee565b601f81116121ee575b508790601f831160011461215d5792826121059361210b969360ff999896600092612152575b5050600019600383901b1c191690891b1790555b6120b8613cdf565b6120c0613cdf565b6120c8613cdf565b6000805160206144bf833981519152861981541690556120e6613cdf565b6120ee613cdf565b6120f6613cdf565b6120ff816133ad565b5061343b565b506134eb565b5060401c161561211757005b7fc7f505b2f371ae2175ee4913f4499e1f2633a7b5936321eed1cdaeb6115181d29268ff0000000000000000198154169055604051908152a1005b015190508c8061209c565b879291601f19831691856000527ff4bad0a69248f59680a4f2b3000328cec71a413447c96781cfe5996daa8c456e9260005b8c8282106121d8575050926121059592859261210b999660ff9c9b9996106121bf575b505050811b0190556120b0565b015160001960f88460031b161c191690558c80806121b2565b8385015186558c9790950194938401930161218f565b61223590846000527ff4bad0a69248f59680a4f2b3000328cec71a413447c96781cfe5996daa8c456e601f850160051c8101918b861061171857601f0160051c0190613d20565b89612076565b01519050898061200f565b908893506000805160206143ff8339815191526000527f37c58c799b6609234b945e882912ee9ad34948a1dfaa20a97485e1a7752bbf819160005b8b601f19861682106122cf57505083601f198116106122b6575b505050811b016000805160206143ff83398151915255612031565b015160001960f88460031b161c1916905589808061229b565b8284015185558b96909401939283019201612281565b61233a906000805160206143ff8339815191526000527f37c58c799b6609234b945e882912ee9ad34948a1dfaa20a97485e1a7752bbf81601f850160051c8101918c861061171857601f0160051c0190613d20565b8a611ff9565b68ffffffffffffffffff19821668010000000000000001178555611f75565b60405163f92ee8a960e01b8152600490fd5b90501586611f54565b303b159150611f4c565b5060ff8260401c1615611f40565b346102ee5760403660031901126102ee576123ab612f47565b6001600160a01b03166000908152600660205260409020805460243591908210156102ee576020916123dc91613250565b90546040519160031b1c8152f35b346102ee576020806003193601126102ee57600435908160005260028152604060002054421061272b5761241c613d37565b60008281526000805160206144df8339815191528083526040909120546001600160a01b0390811691903315159081612679575b505081158015918261265a575b85600052845260406000206bffffffffffffffffffffffff60a01b81541690558460008460008051602061447f8339815191528280a41561259557505060008051602061445f833981519152548260005260008051602061443f83398151915282526040600020556124ce82613dc4565b60008051602061445f83398151915291825460001992838201918211610897578260005260008051602061443f83398151915290818152612514604060002054936131f7565b90549060031b1c61254181612528866131f7565b90919082549060031b91821b91600019901b1916179055565b60005252604060002055600052600060408120558154801561257f57019061257c61256b836131f7565b8154906000199060031b1b19169055565b55005b634e487b7160e01b600052603160045260246000fd5b6125a0575b506124ce565b6125a98161368d565b90836000526000805160206143bf83398151915280845260406000205490838203612608575b505083600052600060408120556000526000805160206143df83398151915282526040600020906000528152600060408120558261259a565b826000526000805160206143df833981519152808652604060002085600052865260406000205490846000528652604060002083600052865280604060002055600052845260406000205584806125cf565b612663866139de565b61266c846131be565b805460001901905561245d565b816126ca575b501561268c578480612450565b83826126aa5760249060405190637e27328960e01b82526004820152fd5b60405163177e802f60e01b81523360048201526024810191909152604490fd5b3384149150811561270b575b81156126e4575b508561267f565b9050846000526000805160206144ff833981519152845233906040600020541614856126dd565b905061271683613185565b33600052845260ff60406000205416906126d6565b6084906040519062461bcd60e51b8252600482015260248082015260008051602061441f83398151915260448201526361626c6560e01b6064820152fd5b346102ee5761040361277a36613150565b9060405192612788846130d9565b6000845261053c8383836136c2565b346102ee5760403660031901126102ee576127b0612f47565b6001600160a01b03166000908152600760205260409020805460243591908210156102ee576020916123dc91613250565b346102ee576020806003193601126102ee576001600160a01b03612803612f47565b1660005260078152604060002090604051908181845491828152019360005281600020916000905b828210612842576102d3856102c78189038261310f565b83548652948501946001938401939091019061282b565b346102ee5760003660031901126102ee5761287261331e565b6000805160206144bf833981519152805460ff8116156128be5760ff191690557f5db9ee0a495bf2e6ff9c91a7834c1ba4fdd244a5e8aa4e537bd38aeae4b073aa6020604051338152a1005b604051638dfc202b60e01b8152600490fd5b346102ee5760403660031901126102ee576128e9612f5d565b336001600160a01b03821603612905576104039060043561360a565b60405163334bd91960e11b8152600490fd5b346102ee5760403660031901126102ee576020611b5f612935612f47565b60243590613bc6565b346102ee5760403660031901126102ee5761040360043561295d612f5d565b908060005260008051602061449f83398151915260205261298560016040600020015461337a565b613595565b346102ee5760203660031901126102ee5760043560005260008051602061449f8339815191526020526020600160406000200154604051908152f35b346102ee576104036129d736613150565b916136c2565b346102ee5760003660031901126102ee57602060008051602061445f83398151915254604051908152f35b346102ee5760203660031901126102ee57600435600052600260205260406000208054600182015491612a9b60028201549160ff8360a01c16600560405192612a5f84612a588160048501613028565b038561310f565b0154936040519687968752602087015260018060a01b03166040860152612a8581613130565b606085015260c0608085015260c0840190612fae565b9060a08301520390f35b346102ee5760403660031901126102ee57612abe612f47565b602435612aca81613a0f565b33151580612b79575b80612b59575b612b41576001600160a01b039283169282918491167f8c5be1e5ebec7d5bd14f71427d1e84f3dd0314c0f7b2291e5b200ac8c7c3b925600080a460009081526000805160206144ff8339815191526020526040902080546001600160a01b0319169091179055005b60405163a9fbf51f60e01b8152336004820152602490fd5b50612b6381613185565b3360005260205260ff6040600020541615612ad9565b506001600160a01b038116331415612ad3565b346102ee5760203660031901126102ee57600435612ba981613a0f565b506000526000805160206144ff833981519152602052602060018060a01b0360406000205416604051908152f35b346102ee5760003660031901126102ee5760405160006000805160206143ff8339815191528054612c0781612fee565b80855291600191808316908115610d655750600114612c30576102d3856104d48187038261310f565b600090815292507f37c58c799b6609234b945e882912ee9ad34948a1dfaa20a97485e1a7752bbf815b828410612c745750505081016020016104d4826102d3610cf9565b80546020858701810191909152909301928101612c59565b346102ee5760403660031901126102ee57600435612ca8612f5d565b90612cb281613a57565b6001600160a01b03903390821603612e0b57816000526002926020848152604060002054421115612dd35783600052848152600160ff866040600020015460a01c16612cfd81613130565b03612d7c57600084815285825260409020808601805460ff60a01b198116600360a01b1790915584161561106d57506000848152858252604080822080880154600190910154915163a9059cbb60e01b81526001600160a01b038616600482015260248101929092529091839183919087169082908160448101610fcf565b6084906040519062461bcd60e51b82526004820152602a60248201527f546f6b656e536166653a205361666520616c726561647920636c61696d6564206044820152691bdc88195e1c1a5c995960b21b6064820152fd5b6064906040519062461bcd60e51b82526004820152601160248201527014d859994e88139bdd08115e1c1a5c9959607a1b6044820152fd5b60405162461bcd60e51b81526020600482015260146024820152732a37b5b2b729b0b3329d102737ba1027bbb732b960611b6044820152606490fd5b346102ee5760203660031901126102ee57612e60612f47565b612e698161368d565b612e72816140b4565b9160005b828110612e8b57604051806102d38682612f73565b80612e99612ea39284613bc6565b610e7d82876140e6565b612e76565b346102ee5760203660031901126102ee576004359063ffffffff60e01b82168092036102ee57602091637965db0b60e01b8114908115612eea575b5015158152f35b63780e9d6360e01b811491508115612f04575b5083612ee3565b6380ac58cd60e01b811491508115612f36575b8115612f25575b5083612efd565b6301ffc9a760e01b14905083612f1e565b635b5e139f60e01b81149150612f17565b600435906001600160a01b03821682036102ee57565b602435906001600160a01b03821682036102ee57565b6020908160408183019282815285518094520193019160005b828110612f9a575050505090565b835185529381019392810192600101612f8c565b919082519283825260005b848110612fda575050826000602080949584010152601f8019910116010190565b602081830181015184830182015201612fb9565b90600182811c9216801561301e575b602083101461300857565b634e487b7160e01b600052602260045260246000fd5b91607f1691612ffd565b906000929180549161303983612fee565b91828252600193848116908160001461309b575060011461305b575b50505050565b90919394506000526020928360002092846000945b838610613087575050505001019038808080613055565b805485870183015294019385908201613070565b9294505050602093945060ff191683830152151560051b01019038808080613055565b60e081019081106001600160401b0382111761172257604052565b602081019081106001600160401b0382111761172257604052565b604081019081106001600160401b0382111761172257604052565b90601f801991011681019081106001600160401b0382111761172257604052565b6004111561313a57565b634e487b7160e01b600052602160045260246000fd5b60609060031901126102ee576001600160a01b039060043582811681036102ee579160243590811681036102ee579060443590565b6001600160a01b031660009081527f80bb2b638cc20bc4d0a60d66940f3ab4a00c1d7b313497ca82fb0b4ab00793056020526040902090565b6001600160a01b031660009081527f80bb2b638cc20bc4d0a60d66940f3ab4a00c1d7b313497ca82fb0b4ab00793036020526040902090565b60008051602061445f833981519152805482101561323a576000527fa42f15e5d656f8155fd7419d740a6073999f19cd6e061449ce4a257150545bf20190600090565b634e487b7160e01b600052603260045260246000fd5b805482101561323a5760005260206000200190600090565b6001600160401b03811161172257601f01601f191660200190565b81601f820112156102ee5780359061329a82613268565b926132a8604051948561310f565b828452602083830101116102ee57816000926020809301838601378301015290565b6001600160401b0381116117225760051b60200190565b90815180825260208080930193019160005b828110613301575050505090565b83516001600160a01b0316855293810193928101926001016132f3565b3360009081527f75442b0a96088b5456bc4ed01394c96a4feec0f883c9494257d76b96ab1c9b6b60205260409020547f65d7a28e3265b37a6474929f336521b332c1681b933f6cb9f3376673440d862a9060ff1615611e7d5750565b8060005260008051602061449f83398151915260205260406000203360005260205260ff6040600020541615611e7d5750565b6001600160a01b031660008181527fb7db2dd08fcb62d0c9e08c51941cae53c267786a0b75803fb7960902fc8ef97d602052604081205490919060008051602061449f8339815191529060ff16613436578280526020526040822081835260205260408220600160ff19825416179055339160008051602061439f8339815191528180a4600190565b505090565b6001600160a01b031660008181527fab71e3f32666744d246edff3f96e4bdafee2e9867098cdd118a979a7464786a860205260408120549091907f189ab7a9244df0848122154315af71fe140f3db0fe014031783b0946b8c9d2e39060008051602061449f8339815191529060ff166134e5578184526020526040832082845260205260408320600160ff1982541617905560008051602061439f833981519152339380a4600190565b50505090565b6001600160a01b031660008181527f549fe2656c81d2947b3b913f0a53b9ea86c71e049f3a1b8aa23c09a8a05cb8d460205260408120549091907f9f2df0fed2c77648de5860a4cc508cd0818c85b8b8a1ab4ceeef8d981c8956a69060008051602061449f8339815191529060ff166134e5578184526020526040832082845260205260408320600160ff1982541617905560008051602061439f833981519152339380a4600190565b9060009180835260008051602061449f83398151915280602052604084209260018060a01b03169283855260205260ff604085205416156000146134e5578184526020526040832082845260205260408320600160ff1982541617905560008051602061439f833981519152339380a4600190565b9060009180835260008051602061449f83398151915280602052604084209260018060a01b03169283855260205260ff6040852054166000146134e557818452602052604083208284526020526040832060ff1981541690557ff6391f5c32d9c69d2a47ea670b442974b53935d1edc7fd64eb21e047a839171b339380a4600190565b6001600160a01b038116156136a9576136a5906131be565b5490565b6040516322718ad960e21b815260006004820152602490fd5b6001600160a01b0382811693918415611a2757600094838652602095600287526040968782205442106139a1576136f7613d37565b8582526000805160206144df833981519152968782528589842054169733151580613907575b5088159081156138e8575b613731836131be565b80546001019055888552835289842080546001600160a01b0319168617905587858a60008051602061447f8339815191528780a4156138435760008051602061445f8339815191525487845260008051602061443f83398151915283528984205561379b87613dc4565b8388036137d7575b5050505016928383036137b65750505050565b6064945051926364283d7b60e01b8452600484015260248301526044820152fd5b6137e09061368d565b60001981019390841161382f5782916000805160206143bf833981519152918a94526000805160206143df833981519152815283832085845281528784842055878352522055388080806137a3565b634e487b7160e01b83526011600452602483fd5b87841461379b576138538861368d565b8784526000805160206143bf8339815191528084528a852054908282036138a5575b5050878452838a8120558884526000805160206143df83398151915283528984209084528252828981205561379b565b8a86526000805160206143df8339815191528086528c872084885286528c872054908c885286528c87208388528652808d882055865284528a8520553880613875565b6138f1896139de565b6138fa8a6131be565b8054600019019055613728565b80613954575b15613918573861371d565b89888a613935576024915190637e27328960e01b82526004820152fd5b905163177e802f60e01b81523360048201526024810191909152604490fd5b503389148015613986575b8061390d57508784526000805160206144ff833981519152835233878b862054161461390d565b5061399089613185565b338552835260ff8a8520541661395f565b60849088519062461bcd60e51b8252600482015260248082015260008051602061441f83398151915260448201526361626c6560e01b6064820152fd5b6000526000805160206144ff83398151915260205260406000206bffffffffffffffffffffffff60a01b8154169055565b60008181526000805160206144df83398151915260205260409020546001600160a01b0316908115613a3f575090565b60249060405190637e27328960e01b82526004820152fd5b60009081526000805160206144df83398151915260205260409020546001600160a01b031690565b3d15613aaa573d90613a9082613268565b91613a9e604051938461310f565b82523d6000602084013e565b606090565b9190803b613abd5750505050565b613aff60018060a01b0380921694604051938493630a85bd0160e11b968786523360048701521660248501526044840152608060648401526084830190612fae565b03906020816000938185885af190829082613b77575b5050613b465782613b24613a7f565b805191908261180457604051633250574960e11b815260048101839052602490fd5b6001600160e01b03191603613b5f575038808080613055565b60249060405190633250574960e11b82526004820152fd5b909192506020813d8211613bbe575b81613b936020938361310f565b81010312613bba5751906001600160e01b031982168203613bb75750903880613b15565b80fd5b5080fd5b3d9150613b86565b613bcf8161368d565b821015613c085760018060a01b03166000526000805160206143df83398151915260205260406000209060005260205260406000205490565b60405163295f44f760e21b81526001600160a01b039190911660048201526024810191909152604490fd5b60008051602061445f83398151915254811015613c5d57613c53906131f7565b90549060031b1c90565b6044906040519063295f44f760e21b8252600060048301526024820152fd5b90613ca35750805115613c9157805190602001fd5b604051630a12f52160e11b8152600490fd5b81511580613cd6575b613cb4575090565b604051639996b31560e01b81526001600160a01b039091166004820152602490fd5b50803b15613cac565b60ff7ff0c57e16840df040f15088dc2f81fe391c3923bec73e23a9662efc9c229c6a005460401c1615613d0e57565b604051631afcd79f60e31b8152600490fd5b818110613d2b575050565b60008155600101613d20565b60ff6000805160206144bf8339815191525416613d5057565b60405163d93c066560e01b8152600490fd5b908160209103126102ee575180151581036102ee5790565b60001981146108975760010190565b8054600160401b81101561172257613da691600182018155613250565b819291549060031b9160018060a01b03809116831b921b1916179055565b60008051602061445f83398151915290815491600160401b8310156117225782612528916001613df6950190556131f7565b565b90815491600160401b8310156117225782612528916001613df695018155613250565b9092608092613e4695948352602083015260018060a01b031660408201528160608201520190613028565b90565b600081815260206002815260409182812054421061407757613e69613d37565b8381526000805160206144df833981519152808352838220546001600160a01b03168015939184159081614058575b878552835285842080546001600160a01b031916905586848360008051602061447f8339815191528280a48415613fae57505060008051602061445f8339815191525485835260008051602061443f833981519152825284832055613efc85613dc4565b60008051602061445f8339815191529182546000199283820191821161382f5787835260008051602061443f83398151915290818152613f3f88852054936131f7565b90549060031b1c613f5381612528866131f7565b8452528582205585815280858120558254908115613f9a57500190613f7a61256b836131f7565b55613f83575050565b602492505190637e27328960e01b82526004820152fd5b634e487b7160e01b81526031600452602490fd5b613fb9575b50613efc565b613fc28161368d565b908684526000805160206143bf8339815191528084528685205490838203614015575b5050868452838681205583526000805160206143df83398151915282528483209083528152818481205538613fb3565b8286526000805160206143df8339815191528086528887208588528652888720549084885286528887208388528652808988205586528452868520553880613fe5565b614061886139de565b61406a836131be565b8054600019019055613e98565b50608491519062461bcd60e51b8252600482015260248082015260008051602061441f83398151915260448201526361626c6560e01b6064820152fd5b906140be826132ca565b6140cb604051918261310f565b82815280926140dc601f19916132ca565b0190602036910137565b805182101561323a5760209160051b010190565b9060405191828154918282526020928383019160005283600020936000905b82821061412f57505050613df69250038361310f565b85546001600160a01b031684526001958601958895509381019390910190614119565b6000526001602052614171614178604060002060405192838092613028565b038261310f565b6000604051614186816130d9565b5290565b919060009280845260019360209285845260408220918151916001600160401b0383116142d2576141bb8454612fee565b601f81116142a4575b508591601f84116001146142255796977ff8e1a15aba9398e019f0b49df1a4fde98ee17ae345cb5f6b5e2c27f5033e8ce7979284928361421a575b50501b916000199060031b1c19161790555b604051908152a1565b0151925038806141ff565b90979291601f198316858352878320925b81811061428f575098837ff8e1a15aba9398e019f0b49df1a4fde98ee17ae345cb5f6b5e2c27f5033e8ce7999a10614276575b505050811b019055614211565b015160001960f88460031b161c19169055388080614269565b8a830151845592850192918801918801614236565b6142cc90858452878420601f860160051c81019189871061171857601f0160051c0190613d20565b386141c4565b634e487b7160e01b82526041600452602482fd5b156142ed57565b60405162461bcd60e51b815260206004820152602360248201527f45706865536166653a20496e76616c696420726563697069656e74206164647260448201526265737360e81b6064820152608490fd5b600052600260205261435660036040600020016140fa565b9060005b8251811015614396576001600160a01b038061437683866140e6565b51169083161461438e5761438990613d7a565b61435a565b505050600190565b50505060009056fe2f8788117e7eff1d82e926ec794901d17c78024a50270940304540a733656f0d645e039705490088daad89bae25049a34f4a9072d398537b1ab2425f24cbed01645e039705490088daad89bae25049a34f4a9072d398537b1ab2425f24cbed0080bb2b638cc20bc4d0a60d66940f3ab4a00c1d7b313497ca82fb0b4ab0079300546f6b656e536166653a2053616665204e4654206e6f74207472616e73666572645e039705490088daad89bae25049a34f4a9072d398537b1ab2425f24cbed03645e039705490088daad89bae25049a34f4a9072d398537b1ab2425f24cbed02ddf252ad1be2c89b69c2b068fc378daa952ba7f163c4a11628f55a4df523b3ef02dd7bc7dec4dceedda775e58dd541e08a116c6c53815c0bd028192f7b626800cd5ed15c6e187e77e9aee88184c21f4f2182ab5827cb3b7e07fbedcd63f0330080bb2b638cc20bc4d0a60d66940f3ab4a00c1d7b313497ca82fb0b4ab007930280bb2b638cc20bc4d0a60d66940f3ab4a00c1d7b313497ca82fb0b4ab0079304a26469706673582212208989b0851bc6dac08225b8b60439beba0198fb257ad8efcd9b93f5f72742222764736f6c63430008140033",
  "linkReferences": {},
  "deployedLinkReferences": {}
}